{"contracts/SeasOfLinkardia.sol":{"SeasOfLinkardia":{"abi":[{"inputs":[],"stateMutability":"nonpayable","type":"constructor"},{"inputs":[{"internalType":"address","name":"owner","type":"address"}],"name":"OwnableInvalidOwner","type":"error"},{"inputs":[{"internalType":"address","name":"account","type":"address"}],"name":"OwnableUnauthorizedAccount","type":"error"},{"inputs":[],"name":"ReentrancyGuardReentrantCall","type":"error"},{"anonymous":false,"inputs":[{"indexed":true,"internalType":"address","name":"user","type":"address"},{"indexed":false,"internalType":"string","name":"boatName","type":"string"},{"indexed":false,"internalType":"bool","name":"isPirate","type":"bool"}],"name":"AccountCreated","type":"event"},{"anonymous":false,"inputs":[{"indexed":true,"internalType":"address","name":"user","type":"address"},{"indexed":false,"internalType":"uint256","name":"streak","type":"uint256"},{"indexed":false,"internalType":"uint256","name":"reward","type":"uint256"}],"name":"CheckIn","type":"event"},{"anonymous":false,"inputs":[{"indexed":true,"internalType":"address","name":"user","type":"address"},{"indexed":false,"internalType":"uint256","name":"amount","type":"uint256"},{"indexed":false,"internalType":"uint256","name":"timeElapsed","type":"uint256"}],"name":"GPMClaimed","type":"event"},{"anonymous":false,"inputs":[{"indexed":true,"internalType":"address","name":"previousOwner","type":"address"},{"indexed":true,"internalType":"address","name":"newOwner","type":"address"}],"name":"OwnershipTransferred","type":"event"},{"anonymous":false,"inputs":[{"indexed":true,"internalType":"address","name":"attacker","type":"address"},{"indexed":true,"internalType":"address","name":"defender","type":"address"},{"indexed":false,"internalType":"bool","name":"destroyed","type":"bool"}],"name":"ShipAttacked","type":"event"},{"anonymous":false,"inputs":[{"indexed":true,"internalType":"address","name":"user","type":"address"},{"indexed":false,"internalType":"uint256","name":"toLocation","type":"uint256"},{"indexed":false,"internalType":"uint256","name":"arriveAt","type":"uint256"},{"indexed":false,"internalType":"bool","name":"fast","type":"bool"}],"name":"TravelStarted","type":"event"},{"anonymous":false,"inputs":[{"indexed":true,"internalType":"uint256","name":"id","type":"uint256"},{"indexed":false,"internalType":"string","name":"name","type":"string"}],"name":"UpgradeAdded","type":"event"},{"anonymous":false,"inputs":[{"indexed":true,"internalType":"address","name":"user","type":"address"},{"indexed":true,"internalType":"uint256","name":"id","type":"uint256"}],"name":"UpgradePurchased","type":"event"},{"inputs":[{"internalType":"address","name":"","type":"address"}],"name":"accounts","outputs":[{"internalType":"string","name":"boatName","type":"string"},{"internalType":"bool","name":"isPirate","type":"bool"},{"internalType":"uint256","name":"gold","type":"uint256"},{"internalType":"uint256","name":"diamonds","type":"uint256"},{"internalType":"uint256","name":"hp","type":"uint256"},{"internalType":"uint256","name":"maxHp","type":"uint256"},{"internalType":"uint256","name":"speed","type":"uint256"},{"internalType":"uint256","name":"attack","type":"uint256"},{"internalType":"uint256","name":"defense","type":"uint256"},{"internalType":"uint256","name":"crew","type":"uint256"},{"internalType":"uint256","name":"maxCrew","type":"uint256"},{"internalType":"uint256","name":"location","type":"uint256"},{"internalType":"uint256","name":"gpm","type":"uint256"},{"internalType":"uint256","name":"lastCheckIn","type":"uint256"},{"internalType":"uint256","name":"checkInStreak","type":"uint256"},{"internalType":"uint256","name":"lastWrecked","type":"uint256"},{"internalType":"uint256","name":"travelEnd","type":"uint256"},{"internalType":"uint256","name":"lastGPMClaim","type":"uint256"}],"stateMutability":"view","type":"function"},{"inputs":[{"internalType":"string","name":"name","type":"string"},{"internalType":"uint256","name":"cost","type":"uint256"},{"internalType":"uint256","name":"gpmBonus","type":"uint256"},{"internalType":"uint256","name":"maxHpBonus","type":"uint256"},{"internalType":"uint256","name":"speedBonus","type":"uint256"},{"internalType":"uint256","name":"attackBonus","type":"uint256"},{"internalType":"uint256","name":"defenseBonus","type":"uint256"},{"internalType":"uint256","name":"maxCrewBonus","type":"uint256"}],"name":"addUpgrade","outputs":[],"stateMutability":"nonpayable","type":"function"},{"inputs":[{"internalType":"address","name":"defender","type":"address"}],"name":"attack","outputs":[],"stateMutability":"nonpayable","type":"function"},{"inputs":[{"internalType":"uint256","name":"id","type":"uint256"}],"name":"buyUpgrade","outputs":[],"stateMutability":"nonpayable","type":"function"},{"inputs":[],"name":"checkIn","outputs":[],"stateMutability":"nonpayable","type":"function"},{"inputs":[],"name":"claimGPM","outputs":[],"stateMutability":"nonpayable","type":"function"},{"inputs":[{"internalType":"string","name":"_boatName","type":"string"},{"internalType":"bool","name":"_isPirate","type":"bool"},{"internalType":"uint256","name":"_startLocation","type":"uint256"}],"name":"createAccount","outputs":[],"stateMutability":"nonpayable","type":"function"},{"inputs":[{"internalType":"address","name":"player","type":"address"}],"name":"getClaimableGold","outputs":[{"internalType":"uint256","name":"","type":"uint256"}],"stateMutability":"view","type":"function"},{"inputs":[{"internalType":"uint256","name":"n","type":"uint256"}],"name":"getRanking","outputs":[{"internalType":"address[]","name":"","type":"address[]"},{"internalType":"uint256[]","name":"","type":"uint256[]"}],"stateMutability":"view","type":"function"},{"inputs":[{"internalType":"uint256","name":"loc","type":"uint256"}],"name":"getShipsAt","outputs":[{"internalType":"address[]","name":"","type":"address[]"},{"internalType":"string[]","name":"","type":"string[]"},{"internalType":"uint256[]","name":"","type":"uint256[]"}],"stateMutability":"view","type":"function"},{"inputs":[{"internalType":"address","name":"player","type":"address"}],"name":"getTimeUntilNextGPM","outputs":[{"internalType":"uint256","name":"","type":"uint256"}],"stateMutability":"view","type":"function"},{"inputs":[{"internalType":"uint256","name":"id","type":"uint256"},{"internalType":"address","name":"player","type":"address"}],"name":"getUpgradeCost","outputs":[{"internalType":"uint256","name":"","type":"uint256"}],"stateMutability":"view","type":"function"},{"inputs":[],"name":"nextUpgradeId","outputs":[{"internalType":"uint256","name":"","type":"uint256"}],"stateMutability":"view","type":"function"},{"inputs":[],"name":"owner","outputs":[{"internalType":"address","name":"","type":"address"}],"stateMutability":"view","type":"function"},{"inputs":[{"internalType":"uint256","name":"","type":"uint256"}],"name":"players","outputs":[{"internalType":"address","name":"","type":"address"}],"stateMutability":"view","type":"function"},{"inputs":[{"internalType":"address","name":"","type":"address"},{"internalType":"uint256","name":"","type":"uint256"}],"name":"purchaseCounts","outputs":[{"internalType":"uint256","name":"","type":"uint256"}],"stateMutability":"view","type":"function"},{"inputs":[],"name":"renounceOwnership","outputs":[],"stateMutability":"nonpayable","type":"function"},{"inputs":[{"internalType":"bool","name":"atPort","type":"bool"},{"internalType":"bool","name":"useDiamond","type":"bool"}],"name":"repairShip","outputs":[],"stateMutability":"payable","type":"function"},{"inputs":[],"name":"rescueXTZ","outputs":[],"stateMutability":"nonpayable","type":"function"},{"inputs":[{"internalType":"address","name":"newOwner","type":"address"}],"name":"transferOwnership","outputs":[],"stateMutability":"nonpayable","type":"function"},{"inputs":[{"internalType":"uint256","name":"toLocation","type":"uint256"},{"internalType":"bool","name":"fast","type":"bool"}],"name":"travel","outputs":[],"stateMutability":"payable","type":"function"},{"inputs":[{"internalType":"uint256","name":"","type":"uint256"}],"name":"upgrades","outputs":[{"internalType":"string","name":"name","type":"string"},{"internalType":"uint256","name":"cost","type":"uint256"},{"internalType":"uint256","name":"gpmBonus","type":"uint256"},{"internalType":"uint256","name":"maxHpBonus","type":"uint256"},{"internalType":"uint256","name":"speedBonus","type":"uint256"},{"internalType":"uint256","name":"attackBonus","type":"uint256"},{"internalType":"uint256","name":"defenseBonus","type":"uint256"},{"internalType":"uint256","name":"maxCrewBonus","type":"uint256"}],"stateMutability":"view","type":"function"},{"stateMutability":"payable","type":"receive"}],"evm":{"bytecode":{"linkReferences":{},"object":"6080806040523461007e5733156100685760008054336001600160a01b03198216811783556040519290916001600160a01b0316907f8be0079c531659141344cd1fd0a4f28419497f9722a3daafe3b4186f6b6457e09080a360018055612a4d90816100848239f35b631e4fbdf760e01b815260006004820152602490fd5b600080fdfe6101206040526004361015610140575b361561001a57600080fd5b6100226123db565b34678ac7230489e80000036100cd5760015b33600052600260205261005060036040600020019182546121fd565b905561005a61255e565b610062612724565b9061006b61288a565b916000808080673782dace9d90000060018060a01b0380971682f1156100c15760008080671bc16d674ec800008582951682f1156100c15760008080670de0b6b3a76400008194861682f1156100c15760018055005b6040513d6000823e3d90fd5b34680270801d946c940000036100e4576005610034565b346804e1003b28d9280000036100fb57600a610034565b60405162461bcd60e51b815260206004820152601760248201527f496e76616c6964206469616d6f6e64207061636b6167650000000000000000006044820152606490fd5b60003560e01c80631771ec6314611df3578063183ff08514611cb957806335d9389714611c715780635722bb5114611c055780635e5c06e214611aaa578063683591a8146117fa57806368780125146117d7578063715018a61461177e5780637386bbc5146116ed57806374aa3a98146114455780638da5cb5b1461141c578063a5a2cb1914611257578063ab2611ee14610dfc578063b7df5b5d14610ae4578063bea2dc1414610914578063d018db3e146105fd578063d2fabb18146105df578063d4826b6c146105a5578063d85bf0b11461057a578063ece2e4ba1461030c578063f2fde38b1461027e5763f71d96cb0361000f57346102795760203660031901126102795760043560065481101561027957610260602091612155565b905460405160039290921b1c6001600160a01b03168152f35b600080fd5b3461027957602036600319011261027957610297611f50565b61029f612532565b6001600160a01b039081169081156102f357600054826bffffffffffffffffffffffff60a01b821617600055167f8be0079c531659141344cd1fd0a4f28419497f9722a3daafe3b4186f6b6457e0600080a3005b604051631e4fbdf760e01b815260006004820152602490fd5b3461027957610100806003193601126102795760043567ffffffffffffffff81116102795761033f9036906004016120b6565b610347612532565b60405192830183811067ffffffffffffffff8211176105645760405261036e3682846122c2565b8352602435602084015260443560408401526064356060840152608435608084015260a43560a084015260c43560c084015260e43560e084015260055460005260036020526040600020835180519067ffffffffffffffff8211610564576103d68354611f66565b601f8111610520575b50602090601f83116001146104ae57958260079360e09361049e996000926104a3575b50508160011b916000199060031b1c19161784555b6020810151600185015560408101516002850155606081015160038501556080810151600485015560a0810151600585015560c0810151600685015501519101557fbce75db7677467da57e0a1c1497e4a7c42d79d4071dbb0578df54307e986fe07600554928392610496604051928392602084526020840191612309565b0390a26122b3565b600555005b015190508980610402565b908360005260206000209160005b601f198516811061050857508360e09361049e9993600193600797601f198116106104ef575b505050811b018455610417565b015160001960f88460031b161c191690558980806104e2565b919260206001819286850151815501940192016104bc565b836000526020600020601f840160051c81016020851061055d575b601f830160051c820181106105515750506103df565b6000815560010161053b565b508061053b565b634e487b7160e01b600052604160045260246000fd5b3461027957602036600319011261027957602061059d610598611f50565b612388565b604051908152f35b34610279576000366003190112610279576105be612532565b6000808080478181156105d6575b3390f1156100c157005b506108fc6105cc565b34610279576000366003190112610279576020600554604051908152f35b346102795760208060031936011261027957610617611f50565b61061f6123db565b336000526002825260406000209060018060a01b0316918260005260406000209060048301928354151580610907575b156108cc5760ff60018201541660ff60018501541615159015151461089457600b810154600b8401540361085757601081015442101580610849575b1561081857600781015460088401548082111561080e576106ab916121dd565b925b6007810154600883015480821115610805576106c8916121dd565b60048201805490958181106107f5575050600085555b8554908181106107e5575050600085555b6000935415610749575b507f1d099e3da7a64d91bf9ed0e41aceaf6a8e2c1fc0d072ef2779f2ea6988d2798892935415610736575b5060405192151583523392a360018055005b60006009820155600f4291015584610724565b92506000600984015542600f8401556009810154926032840293808504603214901517156107cf5760020180547f1d099e3da7a64d91bf9ed0e41aceaf6a8e2c1fc0d072ef2779f2ea6988d279889491908083116107c7575b826107ac916121dd565b90556107bd600283019182546121fd565b90556001926106f9565b9150816107a2565b634e487b7160e01b600052601160045260246000fd5b6107ee916121dd565b85556106ef565b6107fe916121dd565b85556106de565b505060006106c8565b50506000926106ad565b60405162461bcd60e51b8152600481018390526009602482015268125b881d1c985d995b60ba1b6044820152606490fd5b50601083015442101561068b565b60405162461bcd60e51b815260048101839052601560248201527426bab9ba1031329039b0b6b2903637b1b0ba34b7b760591b6044820152606490fd5b60405162461bcd60e51b815260048101839052601060248201526f29b0b6b29030b33334b634b0ba34b7b760811b6044820152606490fd5b60405162461bcd60e51b815260048101839052601360248201527213db99481cda1a5c081a5cc81ddc9958dad959606a1b6044820152606490fd5b506004830154151561064f565b346102795760203660031901126102795760065460043580821015610adf5750805b61093f81612342565b9161094982612342565b9160005b828110610982576109708561097e866040519384936040855260408501906120e4565b908382036020850152612121565b0390f35b61098b81612155565b905460018060a01b039160031b1c16600052610a0e6002806020526109e06006604060002001546109bb85612155565b60018060a01b0391549060031b1c1660005282602052600760406000200154906121fd565b906109ea84612155565b60018060a01b0391549060031b1c16600052602052600860406000200154906121fd565b60005b838110610a23575b505060010161094d565b610a2d8187612374565b518211610a3c57600101610a11565b60001984018481116107cf575b818111610a89575090610a818392610a62600195612155565b868060a01b0391549060031b1c16610a7a828b612374565b5287612374565b529086610a19565b806000198101116107cf57610ada906001600160a01b03610aae60001983018b612374565b5116610aba828b612374565b52610ac9600019820189612374565b51610ad4828a612374565b5261224a565b610a49565b610936565b34610279576020806003193601126102795760068054916000919060043590835b858110610d6e5750610b1684612342565b94610b208561232a565b93610b2e6040519586611fa0565b858552610b3a8661232a565b601f199690870160005b818110610d5f575050610b5690612342565b9360009060005b848110610bee57610b80898b8a8a8a6040519586946060865260608601906120e4565b908482038186015283519182815281810182808560051b8401019601976000925b858410610bbc57888061097e8a8a8382036040850152612121565b91938080979950610bda898486600196989a9c030188528c51612067565b9a0194019401918997959398969491610ba1565b89610bfc829a98999a612155565b919060018060a01b03809154600394851b1c1660005288878d60029485845288600b604060002001541480610d36575b610c44575b5050505050505060010197969597610b5d565b8786889587610cdb8e9a97859f8060019f99610d299f99610c81610d199f9c9488610cf59d610c75610cb698612155565b9054911b1c1692612374565b52858d610c8d8b612155565b9054911b1c16600052878752610ca66040600020611fc2565b610cb08383612374565b52612374565b5082610cc187612155565b9054908c1b1c166000528484526040600020015494612155565b905490891b1c1660005252600760406000200154906121fd565b92610cff8a612155565b9054911b1c166000528a52600860406000200154906121fd565b610d23828c612374565b526122b3565b92908b8088878d8f610c31565b5084610d4189612155565b905490891b1c16600052858452601060406000200154421015610c2c565b60608882018701528501610b44565b610d7b8195939495612155565b9060018060a01b03809154600393841b1c1660005260029081855286600b60406000200154149283610dd0575b505050610dbc575b60010193929193610b05565b91610dc86001916122b3565b929050610db0565b90919250610ddd84612155565b9054911b1c166000528252601060406000200154421015878080610da8565b346102795760603660031901126102795760043567ffffffffffffffff811161027957610e2d9036906004016120b6565b90610e366120a7565b918015158061124c575b1561120757606480604435116111cc57336000526002602052604060002060048101541590816111bf575b50156111875760405190610240820182811067ffffffffffffffff82111761056457604052610e9b3684866122c2565b825284151560208301528060408301526000606083015280608083015260a0820152600160c0820152600160e082015260016101008201526001610120820152600a610140820152604435610160820152600061018082015260006101a082015260006101c082015260006101e0820152600061020082015242610220820152336000526002602052604060002090805180519067ffffffffffffffff821161056457610f488454611f66565b601f8111611143575b50602090601f83116001146110d357918060119492610220946000926110c8575b50508160011b916000199060031b1c19161784555b600184016020820151151560ff8019835416911617905560408101516002850155606081015160038501556080810151600485015560a0810151600585015560c0810151600685015560e0810151600785015561010081015160088501556101208101516009850155610140810151600a850155610160810151600b850155610180810151600c8501556101a0810151600d8501556101c0810151600e8501556101e0810151600f8501556102008101516010850155015191015560065468010000000000000000811015610564577f47456e7ec68e981a8f02d9c9528370adea595c1b26225be6797e6d441c47fc029261108b8260016110b89401600655612155565b81546001600160a01b0360039290921b91821b19163390911b179055604080518181529390840191612309565b92151560208201528033930390a2005b015190508980610f72565b908460005260206000209160005b601f198516811061112b575092601194926001926102209583601f19811610611112575b505050811b018455610f87565b015160001960f88460031b161c19169055898080611105565b919260206001819286850151815501940192016110e1565b846000526020600020601f840160051c810160208510611180575b601f830160051c82018110611174575050610f51565b6000815560010161115e565b508061115e565b60405162461bcd60e51b8152602060048201526013602482015272105b1c9958591e481a185cc81858d8dbdd5b9d606a1b6044820152fd5b6009915001541585610e6b565b60405162461bcd60e51b815260206004820152601660248201527504c6f636174696f6e206d75737420626520302d3130360541b6044820152fd5b60405162461bcd60e51b815260206004820152601860248201527f426f6174206e616d6520696e76616c6964206c656e67746800000000000000006044820152606490fd5b50600c811115610e40565b346102795760208060031936011261027957600435906112756123db565b8160005260038152604060002033600052600282526040600020916112cc600183016112a38154151561220a565b6112ac33612472565b3360005260048352604060002086600052835260406000205490546123fe565b600284019081548181106113e557916112eb60079492600996946121dd565b905533600052600481526040600020908660005252604060002061130f81546122b3565b90556002810154611325600c86019182546121fd565b905560038101805461133c600587019182546121fd565b90555461134e600486019182546121fd565b90556004810154611364600686019182546121fd565b905560058101546113798386019182546121fd565b9055600681015461138f600886019182546121fd565b90550154916113a3600a82019384546121fd565b80935501818154116113dd575b82337fcf52c8aa8ed6b7d560b4e75db6ab973723de269d5580985c8880844d4ed6d7c0600080a360018055005b5581806113b0565b60405162461bcd60e51b815260048101859052600f60248201526e139bdd08195b9bdd59da0819dbdb19608a1b6044820152606490fd5b34610279576000366003190112610279576000546040516001600160a01b039091168152602090f35b60403660031901126102795760043561145c6120a7565b6114646123db565b33600052602060028152604060002090611483600483015415156121a2565b6010820191825442106116b45760649081861161167e57600b810191825480881461164b57878181111561163c57906114bb916121dd565b915b610e1092838102908082048514811517156107cf5760068301549061012c918281029281840414901517156107cf576114f5916121ea565b81811061162d5750506000925b87156115e757830490346115b1576003019182549082821061157957509161153089959492611539946121dd565b90555b426121fd565b80945555604051938452830152151560408201527f9782a86993c9e75e77fdbba3381a28a46e4f356e9516e67313bd4bd859c88a3f60603392a260018055005b60405162461bcd60e51b81526004810188905260136024820152724e6f7420656e6f756768206469616d6f6e647360681b6044820152fd5b60405162461bcd60e51b815260048101879052600f60248201526e14185e481d9a5848191a585b5bdb99608a1b60448201528390fd5b5050346115fa5750906115398692611533565b60405162461bcd60e51b815260048101859052600e60248201526d2237b713ba1039b2b732102c2a2d60911b6044820152fd5b611636916121dd565b92611502565b611645916121dd565b916114bd565b5060405162461bcd60e51b815260048101859052600d60248201526c29b0b6b2903637b1b0ba34b7b760991b6044820152fd5b50906040519062461bcd60e51b82526004820152601060248201526f131bd8d85d1a5bdb881a5b9d985b1a5960821b6044820152fd5b60405162461bcd60e51b8152600481018390526011602482015270416c72656164792074726176656c696e6760781b6044820152606490fd5b34610279576020366003190112610279576004356000526003602052611756604060002061171a81611fc2565b90600181015490600281015490600381015460048201546005830154916007600685015494015494604051988998610100808b528a0190612067565b96602089015260408801526060870152608086015260a085015260c084015260e08301520390f35b3461027957600036600319011261027957611797612532565b600080546001600160a01b0319811682556001600160a01b03167f8be0079c531659141344cd1fd0a4f28419497f9722a3daafe3b4186f6b6457e08280a3005b3461027957602036600319011261027957602061059d6117f5611f50565b612257565b60403660031901126102795760043580151581036102795761181a6120a7565b906118236123db565b336000526020916002835260406000209260048401918254611a7257600f850193845461465081018091116107cf574210611a2d57156119bd57600b850154601981149081156119b2575b81156119a7575b501561197457808115611964575b1561192857156118b057506005836003600095016118a1815461224a565b90555b015490555b5560018055005b926118ba33612472565b60028101908154946103e886106118e557506103e71985019485116107cf57600094600592556118a4565b6064906040519062461bcd60e51b825280600483015260248201527f4e6f7420656e6f75676820676f6c64206166746572206175746f2d636c61696d6044820152fd5b60405162461bcd60e51b8152600481018390526014602482015273139959590819dbdb19081bdc88191a585b5bdb9960621b6044820152606490fd5b506103e860028601541015611883565b60405162461bcd60e51b815260048101839052600b60248201526a139bdd08185d081c1bdc9d60aa1b6044820152606490fd5b605991501486611875565b60378114915061186e565b6119d1575b506005600093015490556118a9565b6003840190815490600182106119fa5750936005916119f160009661224a565b905593506119c2565b6064906040519062461bcd60e51b82526004820152600c60248201526b1399595908191a585b5bdb9960a21b6044820152fd5b60405162461bcd60e51b815260048101849052601a60248201527f4e6f7420726561647920666f72206261736963207265706169720000000000006044820152606490fd5b60405162461bcd60e51b815260048101839052601060248201526f14da1a5c081b9bdd081ddc9958dad95960821b6044820152606490fd5b34610279576020366003190112610279576001600160a01b03611acb611f50565b1660005260026020526040600020611ae281611fc2565b90600181015460ff1660a052600281015460e05260038101546101005260048101549160058201546006830154600784015460088501546009860154600a87015490600b88015492600c89015494600d8a015496600e8b015498600f8c01549a60108d01549c6011015460805260405160c0526102408060c0515260c05101611b6a91612067565b9c60a051151560c0516020015260e05160c051604001526101005160c0516060015260c0516080015260c05160a0015260c05160c0015260c05160e0015260c051610100015260c051610120015260c051610140015260c051610160015260c051610180015260c0516101a0015260c0516101c0015260c0516101e0015260c051610200015260805160c051610220015260c051900360c051f35b34610279576040366003190112610279576024356001600160a01b0381169060043590829003610279576020918161059d926000526003845260016040600020015491611c5383151561220a565b600052600484526040600020906000528352604060002054906123fe565b34610279576040366003190112610279576001600160a01b03611c92611f50565b16600052600460205260406000206024356000526020526020604060002054604051908152f35b34610279576000366003190112610279573360005260026020526040600020611ce7600482015415156121a2565b62015180804204600d83019182540481811015611dae5760001982019182116107cf5703611da257600e8201805490600182018092116107cf57555b4290556009810154906019820291808304601914901517156107cf57600e8101549182600502906005820484036107cf57600291611d60916121fd565b9101611d6d8282546121fd565b905560405191825260208201527fb9cfea4717f167774a6e8643c33472935d3ef918453525eefca6936078b7cfdd60403392a2005b6001600e830155611d23565b60405162461bcd60e51b815260206004820152601860248201527f416c726561647920636865636b656420696e20746f64617900000000000000006044820152606490fd5b3461027957600036600319011261027957611e0c6123db565b3360005260026020526040600020611e29600482015415156121a2565b600c8101548015611f195760118201611e438154426121dd565b918215611ee257611e5890603c8404906121ea565b928315611eaa5760029142905501611e718382546121fd565b905560405191825260208201527f6ed0c81f2eb08ca19cf12aab8dfa5d3566d3140926b3e0035b8423029996c18560403392a260018055005b60405162461bcd60e51b815260206004820152601060248201526f4e6f20676f6c6420746f20636c61696d60801b6044820152606490fd5b60405162461bcd60e51b815260206004820152600f60248201526e139bc81d1a5b5948195b185c1cd959608a1b6044820152606490fd5b60405162461bcd60e51b815260206004820152600f60248201526e4e6f2047504d20746f20636c61696d60881b6044820152606490fd5b600435906001600160a01b038216820361027957565b90600182811c92168015611f96575b6020831014611f8057565b634e487b7160e01b600052602260045260246000fd5b91607f1691611f75565b90601f8019910116810190811067ffffffffffffffff82111761056457604052565b90604051918260008254611fd581611f66565b908184526020946001916001811690816000146120455750600114612006575b50505061200492500383611fa0565b565b600090815285812095935091905b81831061202d5750506120049350820101388080611ff5565b85548884018501529485019487945091830191612014565b9250505061200494925060ff191682840152151560051b820101388080611ff5565b919082519283825260005b848110612093575050826000602080949584010152601f8019910116010190565b602081830181015184830182015201612072565b60243590811515820361027957565b9181601f840112156102795782359167ffffffffffffffff8311610279576020838186019501011161027957565b90815180825260208080930193019160005b828110612104575050505090565b83516001600160a01b0316855293810193928101926001016120f6565b90815180825260208080930193019160005b828110612141575050505090565b835185529381019392810192600101612133565b60065481101561218c5760066000527ff652222313e28459528d920b65115c16c04f3efc82aaedc97be59f3f377c0d3f0190600090565b634e487b7160e01b600052603260045260246000fd5b156121a957565b60405162461bcd60e51b815260206004820152600c60248201526b14da1a5c081ddc9958dad95960a21b6044820152606490fd5b919082039182116107cf57565b818102929181159184041417156107cf57565b919082018092116107cf57565b1561221157565b60405162461bcd60e51b8152602060048201526011602482015270155c19dc985919481b9bdd08195e1a5cdd607a1b6044820152606490fd5b80156107cf576000190190565b6001600160a01b0316600090815260026020526040902060048101541580156122a7575b6122a15780600c603c612295601161229e950154426121dd565b049101546121ea565b90565b50600090565b50600c8101541561227b565b60001981146107cf5760010190565b92919267ffffffffffffffff821161056457604051916122ec601f8201601f191660200184611fa0565b829481845281830111610279578281602093846000960137010152565b908060209392818452848401376000828201840152601f01601f1916010190565b67ffffffffffffffff81116105645760051b60200190565b9061234c8261232a565b6123596040519182611fa0565b828152809261236a601f199161232a565b0190602036910137565b805182101561218c5760209160051b010190565b6001600160a01b0316600090815260026020526040902060048101541580156123cf575b6122a1576123c06011603c920154426121dd565b06603c03603c81116107cf5790565b50600c810154156123ac565b6002600154146123ec576002600155565b604051633ee5aeb560e01b8152600490fd5b811561246d576001916001926000915b808310612438575050508115612422570490565b634e487b7160e01b600052601260045260246000fd5b90919392600f908181029181830414901517156107cf5792600a908181029181830414901517156107cf57938201919061240e565b905090565b6001600160a01b031660008181526002602052604090206004810154158015612526575b6125225760118101906124aa8254426121dd565b801561251c576124c1603c8204600c8401546121ea565b90816124cf575b5050505050565b60026040937f6ed0c81f2eb08ca19cf12aab8dfa5d3566d3140926b3e0035b8423029996c18595429055016125058382546121fd565b905582519182526020820152a238808080806124c8565b50505050565b5050565b50600c81015415612496565b6000546001600160a01b0316330361254657565b60405163118cdaa760e01b8152336004820152602490fd5b600680546001908181101561271d57805b61257881612342565b9361258282612342565b60005b8481106125c05750505050505080511580156125ac5750506000546001600160a01b031690565b61218c57602001516001600160a01b031690565b806125cb8792612155565b60018060a01b03809254600392831b1c1660005261263f6002600860209180835260409061261e8b836000200154886126038b612155565b9054908a1b1c166000528286526007846000200154906121fd565b93876126298a612155565b905490891b1c16600052526000200154906121fd565b9060005b888110612655575b5050505001612585565b6126658188979394959697612374565b5184116126785701908994939291612643565b92939190506000198881018981116107cf57908b9695949392915b8481116126cc575050906126c292916126ab86612155565b9054911b1c166126bb828d612374565b5285612374565b523880808061264b565b9080929394959697508101908082116107cf57612705828f6126fe84896126f66127109885612374565b511692612374565b528a612374565b51610ad4828b612374565b908b969594939291612693565b600161256f565b60068054600291908281101561288357805b61273f81612342565b9361274982612342565b9060005b84811061278d575050505050508051600181116127755750506000546001600160a01b031690565b6001101561218c57604001516001600160a01b031690565b61279681612155565b60018060a01b03809254600392831b1c166000526127cb6020858152600860408761261e8d836000200154886126038b612155565b9060005b8781106127e3575b5050505060010161274d565b6127ed8188612374565b5183116127fc576001016127cf565b9192906000198881018981116107cf575b84811161284a5750509161284091859493612829600197612155565b9054911b1c16612839828d612374565b5286612374565b52903880806127d7565b818101908082116107cf57612873828f61286c84896126f661287e9885612374565b528b612374565b51610ad4828c612374565b61280d565b6002612736565b600680546003919082811015612a1157805b6128a581612342565b936128af82612342565b60005b8481106128f2575050505050508051600281116128da5750506000546001600160a01b031690565b6002101561218c57606001516001600160a01b031690565b6128fb81612155565b9060018060a01b039182915490861b1c1660005261296f6002600860209180835260409061294e8c836000200154876129338a612155565b9054908d1b1c166000528286526007846000200154906121fd565b938661295989612155565b9054908c1b1c16600052526000200154906121fd565b60005b868110612985575b5050506001016128b2565b61298f8186612374565b51821161299e57600101612972565b90916000198781018881116107cf575b8381116129e35750508392916129da916129c9600196612155565b905490891b1c166126bb828d612374565b5290388061297a565b818101908082116107cf57610ac9828e612a0584886126f6612a0c9885612374565b5289612374565b6129ae565b8261289c56fea2646970667358221220a5328d724df8f1c25bea62d243e9b421ebfbf4d368100b7cb385786aefd63acf64736f6c63430008180033","opcodes":"PUSH1 0x80 DUP1 PUSH1 0x40 MSTORE CALLVALUE PUSH2 0x7E JUMPI CALLER ISZERO PUSH2 0x68 JUMPI PUSH1 0x0 DUP1 SLOAD CALLER PUSH1 0x1 PUSH1 0x1 PUSH1 0xA0 SHL SUB NOT DUP3 AND DUP2 OR DUP4 SSTORE PUSH1 0x40 MLOAD SWAP3 SWAP1 SWAP2 PUSH1 0x1 PUSH1 0x1 PUSH1 0xA0 SHL SUB AND SWAP1 PUSH32 0x8BE0079C531659141344CD1FD0A4F28419497F9722A3DAAFE3B4186F6B6457E0 SWAP1 DUP1 LOG3 PUSH1 0x1 DUP1 SSTORE PUSH2 0x2A4D SWAP1 DUP2 PUSH2 0x84 DUP3 CODECOPY RETURN JUMPDEST PUSH4 0x1E4FBDF7 PUSH1 0xE0 SHL DUP2 MSTORE PUSH1 0x0 PUSH1 0x4 DUP3 ADD MSTORE PUSH1 0x24 SWAP1 REVERT JUMPDEST PUSH1 0x0 DUP1 REVERT INVALID PUSH2 0x120 PUSH1 0x40 MSTORE PUSH1 0x4 CALLDATASIZE LT ISZERO PUSH2 0x140 JUMPI JUMPDEST CALLDATASIZE ISZERO PUSH2 0x1A JUMPI PUSH1 0x0 DUP1 REVERT JUMPDEST PUSH2 0x22 PUSH2 0x23DB JUMP JUMPDEST CALLVALUE PUSH8 0x8AC7230489E80000 SUB PUSH2 0xCD JUMPI PUSH1 0x1 JUMPDEST CALLER PUSH1 0x0 MSTORE PUSH1 0x2 PUSH1 0x20 MSTORE PUSH2 0x50 PUSH1 0x3 PUSH1 0x40 PUSH1 0x0 KECCAK256 ADD SWAP2 DUP3 SLOAD PUSH2 0x21FD JUMP JUMPDEST SWAP1 SSTORE PUSH2 0x5A PUSH2 0x255E JUMP JUMPDEST PUSH2 0x62 PUSH2 0x2724 JUMP JUMPDEST SWAP1 PUSH2 0x6B PUSH2 0x288A JUMP JUMPDEST SWAP2 PUSH1 0x0 DUP1 DUP1 DUP1 PUSH8 0x3782DACE9D900000 PUSH1 0x1 DUP1 PUSH1 0xA0 SHL SUB DUP1 SWAP8 AND DUP3 CALL ISZERO PUSH2 0xC1 JUMPI PUSH1 0x0 DUP1 DUP1 PUSH8 0x1BC16D674EC80000 DUP6 DUP3 SWAP6 AND DUP3 CALL ISZERO PUSH2 0xC1 JUMPI PUSH1 0x0 DUP1 DUP1 PUSH8 0xDE0B6B3A7640000 DUP2 SWAP5 DUP7 AND DUP3 CALL ISZERO PUSH2 0xC1 JUMPI PUSH1 0x1 DUP1 SSTORE STOP JUMPDEST PUSH1 0x40 MLOAD RETURNDATASIZE PUSH1 0x0 DUP3 RETURNDATACOPY RETURNDATASIZE SWAP1 REVERT JUMPDEST CALLVALUE PUSH9 0x270801D946C940000 SUB PUSH2 0xE4 JUMPI PUSH1 0x5 PUSH2 0x34 JUMP JUMPDEST CALLVALUE PUSH9 0x4E1003B28D9280000 SUB PUSH2 0xFB JUMPI PUSH1 0xA PUSH2 0x34 JUMP JUMPDEST PUSH1 0x40 MLOAD PUSH3 0x461BCD PUSH1 0xE5 SHL DUP2 MSTORE PUSH1 0x20 PUSH1 0x4 DUP3 ADD MSTORE PUSH1 0x17 PUSH1 0x24 DUP3 ADD MSTORE PUSH32 0x496E76616C6964206469616D6F6E64207061636B616765000000000000000000 PUSH1 0x44 DUP3 ADD MSTORE PUSH1 0x64 SWAP1 REVERT JUMPDEST PUSH1 0x0 CALLDATALOAD PUSH1 0xE0 SHR DUP1 PUSH4 0x1771EC63 EQ PUSH2 0x1DF3 JUMPI DUP1 PUSH4 0x183FF085 EQ PUSH2 0x1CB9 JUMPI DUP1 PUSH4 0x35D93897 EQ PUSH2 0x1C71 JUMPI DUP1 PUSH4 0x5722BB51 EQ PUSH2 0x1C05 JUMPI DUP1 PUSH4 0x5E5C06E2 EQ PUSH2 0x1AAA JUMPI DUP1 PUSH4 0x683591A8 EQ PUSH2 0x17FA JUMPI DUP1 PUSH4 0x68780125 EQ PUSH2 0x17D7 JUMPI DUP1 PUSH4 0x715018A6 EQ PUSH2 0x177E JUMPI DUP1 PUSH4 0x7386BBC5 EQ PUSH2 0x16ED JUMPI DUP1 PUSH4 0x74AA3A98 EQ PUSH2 0x1445 JUMPI DUP1 PUSH4 0x8DA5CB5B EQ PUSH2 0x141C JUMPI DUP1 PUSH4 0xA5A2CB19 EQ PUSH2 0x1257 JUMPI DUP1 PUSH4 0xAB2611EE EQ PUSH2 0xDFC JUMPI DUP1 PUSH4 0xB7DF5B5D EQ PUSH2 0xAE4 JUMPI DUP1 PUSH4 0xBEA2DC14 EQ PUSH2 0x914 JUMPI DUP1 PUSH4 0xD018DB3E EQ PUSH2 0x5FD JUMPI DUP1 PUSH4 0xD2FABB18 EQ PUSH2 0x5DF JUMPI DUP1 PUSH4 0xD4826B6C EQ PUSH2 0x5A5 JUMPI DUP1 PUSH4 0xD85BF0B1 EQ PUSH2 0x57A JUMPI DUP1 PUSH4 0xECE2E4BA EQ PUSH2 0x30C JUMPI DUP1 PUSH4 0xF2FDE38B EQ PUSH2 0x27E JUMPI PUSH4 0xF71D96CB SUB PUSH2 0xF JUMPI CALLVALUE PUSH2 0x279 JUMPI PUSH1 0x20 CALLDATASIZE PUSH1 0x3 NOT ADD SLT PUSH2 0x279 JUMPI PUSH1 0x4 CALLDATALOAD PUSH1 0x6 SLOAD DUP2 LT ISZERO PUSH2 0x279 JUMPI PUSH2 0x260 PUSH1 0x20 SWAP2 PUSH2 0x2155 JUMP JUMPDEST SWAP1 SLOAD PUSH1 0x40 MLOAD PUSH1 0x3 SWAP3 SWAP1 SWAP3 SHL SHR PUSH1 0x1 PUSH1 0x1 PUSH1 0xA0 SHL SUB AND DUP2 MSTORE RETURN JUMPDEST PUSH1 0x0 DUP1 REVERT JUMPDEST CALLVALUE PUSH2 0x279 JUMPI PUSH1 0x20 CALLDATASIZE PUSH1 0x3 NOT ADD SLT PUSH2 0x279 JUMPI PUSH2 0x297 PUSH2 0x1F50 JUMP JUMPDEST PUSH2 0x29F PUSH2 0x2532 JUMP JUMPDEST PUSH1 0x1 PUSH1 0x1 PUSH1 0xA0 SHL SUB SWAP1 DUP2 AND SWAP1 DUP2 ISZERO PUSH2 0x2F3 JUMPI PUSH1 0x0 SLOAD DUP3 PUSH12 0xFFFFFFFFFFFFFFFFFFFFFFFF PUSH1 0xA0 SHL DUP3 AND OR PUSH1 0x0 SSTORE AND PUSH32 0x8BE0079C531659141344CD1FD0A4F28419497F9722A3DAAFE3B4186F6B6457E0 PUSH1 0x0 DUP1 LOG3 STOP JUMPDEST PUSH1 0x40 MLOAD PUSH4 0x1E4FBDF7 PUSH1 0xE0 SHL DUP2 MSTORE PUSH1 0x0 PUSH1 0x4 DUP3 ADD MSTORE PUSH1 0x24 SWAP1 REVERT JUMPDEST CALLVALUE PUSH2 0x279 JUMPI PUSH2 0x100 DUP1 PUSH1 0x3 NOT CALLDATASIZE ADD SLT PUSH2 0x279 JUMPI PUSH1 0x4 CALLDATALOAD PUSH8 0xFFFFFFFFFFFFFFFF DUP2 GT PUSH2 0x279 JUMPI PUSH2 0x33F SWAP1 CALLDATASIZE SWAP1 PUSH1 0x4 ADD PUSH2 0x20B6 JUMP JUMPDEST PUSH2 0x347 PUSH2 0x2532 JUMP JUMPDEST PUSH1 0x40 MLOAD SWAP3 DUP4 ADD DUP4 DUP2 LT PUSH8 0xFFFFFFFFFFFFFFFF DUP3 GT OR PUSH2 0x564 JUMPI PUSH1 0x40 MSTORE PUSH2 0x36E CALLDATASIZE DUP3 DUP5 PUSH2 0x22C2 JUMP JUMPDEST DUP4 MSTORE PUSH1 0x24 CALLDATALOAD PUSH1 0x20 DUP5 ADD MSTORE PUSH1 0x44 CALLDATALOAD PUSH1 0x40 DUP5 ADD MSTORE PUSH1 0x64 CALLDATALOAD PUSH1 0x60 DUP5 ADD MSTORE PUSH1 0x84 CALLDATALOAD PUSH1 0x80 DUP5 ADD MSTORE PUSH1 0xA4 CALLDATALOAD PUSH1 0xA0 DUP5 ADD MSTORE PUSH1 0xC4 CALLDATALOAD PUSH1 0xC0 DUP5 ADD MSTORE PUSH1 0xE4 CALLDATALOAD PUSH1 0xE0 DUP5 ADD MSTORE PUSH1 0x5 SLOAD PUSH1 0x0 MSTORE PUSH1 0x3 PUSH1 0x20 MSTORE PUSH1 0x40 PUSH1 0x0 KECCAK256 DUP4 MLOAD DUP1 MLOAD SWAP1 PUSH8 0xFFFFFFFFFFFFFFFF DUP3 GT PUSH2 0x564 JUMPI PUSH2 0x3D6 DUP4 SLOAD PUSH2 0x1F66 JUMP JUMPDEST PUSH1 0x1F DUP2 GT PUSH2 0x520 JUMPI JUMPDEST POP PUSH1 0x20 SWAP1 PUSH1 0x1F DUP4 GT PUSH1 0x1 EQ PUSH2 0x4AE JUMPI SWAP6 DUP3 PUSH1 0x7 SWAP4 PUSH1 0xE0 SWAP4 PUSH2 0x49E SWAP10 PUSH1 0x0 SWAP3 PUSH2 0x4A3 JUMPI JUMPDEST POP POP DUP2 PUSH1 0x1 SHL SWAP2 PUSH1 0x0 NOT SWAP1 PUSH1 0x3 SHL SHR NOT AND OR DUP5 SSTORE JUMPDEST PUSH1 0x20 DUP2 ADD MLOAD PUSH1 0x1 DUP6 ADD SSTORE PUSH1 0x40 DUP2 ADD MLOAD PUSH1 0x2 DUP6 ADD SSTORE PUSH1 0x60 DUP2 ADD MLOAD PUSH1 0x3 DUP6 ADD SSTORE PUSH1 0x80 DUP2 ADD MLOAD PUSH1 0x4 DUP6 ADD SSTORE PUSH1 0xA0 DUP2 ADD MLOAD PUSH1 0x5 DUP6 ADD SSTORE PUSH1 0xC0 DUP2 ADD MLOAD PUSH1 0x6 DUP6 ADD SSTORE ADD MLOAD SWAP2 ADD SSTORE PUSH32 0xBCE75DB7677467DA57E0A1C1497E4A7C42D79D4071DBB0578DF54307E986FE07 PUSH1 0x5 SLOAD SWAP3 DUP4 SWAP3 PUSH2 0x496 PUSH1 0x40 MLOAD SWAP3 DUP4 SWAP3 PUSH1 0x20 DUP5 MSTORE PUSH1 0x20 DUP5 ADD SWAP2 PUSH2 0x2309 JUMP JUMPDEST SUB SWAP1 LOG2 PUSH2 0x22B3 JUMP JUMPDEST PUSH1 0x5 SSTORE STOP JUMPDEST ADD MLOAD SWAP1 POP DUP10 DUP1 PUSH2 0x402 JUMP JUMPDEST SWAP1 DUP4 PUSH1 0x0 MSTORE PUSH1 0x20 PUSH1 0x0 KECCAK256 SWAP2 PUSH1 0x0 JUMPDEST PUSH1 0x1F NOT DUP6 AND DUP2 LT PUSH2 0x508 JUMPI POP DUP4 PUSH1 0xE0 SWAP4 PUSH2 0x49E SWAP10 SWAP4 PUSH1 0x1 SWAP4 PUSH1 0x7 SWAP8 PUSH1 0x1F NOT DUP2 AND LT PUSH2 0x4EF JUMPI JUMPDEST POP POP POP DUP2 SHL ADD DUP5 SSTORE PUSH2 0x417 JUMP JUMPDEST ADD MLOAD PUSH1 0x0 NOT PUSH1 0xF8 DUP5 PUSH1 0x3 SHL AND SHR NOT AND SWAP1 SSTORE DUP10 DUP1 DUP1 PUSH2 0x4E2 JUMP JUMPDEST SWAP2 SWAP3 PUSH1 0x20 PUSH1 0x1 DUP2 SWAP3 DUP7 DUP6 ADD MLOAD DUP2 SSTORE ADD SWAP5 ADD SWAP3 ADD PUSH2 0x4BC JUMP JUMPDEST DUP4 PUSH1 0x0 MSTORE PUSH1 0x20 PUSH1 0x0 KECCAK256 PUSH1 0x1F DUP5 ADD PUSH1 0x5 SHR DUP2 ADD PUSH1 0x20 DUP6 LT PUSH2 0x55D JUMPI JUMPDEST PUSH1 0x1F DUP4 ADD PUSH1 0x5 SHR DUP3 ADD DUP2 LT PUSH2 0x551 JUMPI POP POP PUSH2 0x3DF JUMP JUMPDEST PUSH1 0x0 DUP2 SSTORE PUSH1 0x1 ADD PUSH2 0x53B JUMP JUMPDEST POP DUP1 PUSH2 0x53B JUMP JUMPDEST PUSH4 0x4E487B71 PUSH1 0xE0 SHL PUSH1 0x0 MSTORE PUSH1 0x41 PUSH1 0x4 MSTORE PUSH1 0x24 PUSH1 0x0 REVERT JUMPDEST CALLVALUE PUSH2 0x279 JUMPI PUSH1 0x20 CALLDATASIZE PUSH1 0x3 NOT ADD SLT PUSH2 0x279 JUMPI PUSH1 0x20 PUSH2 0x59D PUSH2 0x598 PUSH2 0x1F50 JUMP JUMPDEST PUSH2 0x2388 JUMP JUMPDEST PUSH1 0x40 MLOAD SWAP1 DUP2 MSTORE RETURN JUMPDEST CALLVALUE PUSH2 0x279 JUMPI PUSH1 0x0 CALLDATASIZE PUSH1 0x3 NOT ADD SLT PUSH2 0x279 JUMPI PUSH2 0x5BE PUSH2 0x2532 JUMP JUMPDEST PUSH1 0x0 DUP1 DUP1 DUP1 SELFBALANCE DUP2 DUP2 ISZERO PUSH2 0x5D6 JUMPI JUMPDEST CALLER SWAP1 CALL ISZERO PUSH2 0xC1 JUMPI STOP JUMPDEST POP PUSH2 0x8FC PUSH2 0x5CC JUMP JUMPDEST CALLVALUE PUSH2 0x279 JUMPI PUSH1 0x0 CALLDATASIZE PUSH1 0x3 NOT ADD SLT PUSH2 0x279 JUMPI PUSH1 0x20 PUSH1 0x5 SLOAD PUSH1 0x40 MLOAD SWAP1 DUP2 MSTORE RETURN JUMPDEST CALLVALUE PUSH2 0x279 JUMPI PUSH1 0x20 DUP1 PUSH1 0x3 NOT CALLDATASIZE ADD SLT PUSH2 0x279 JUMPI PUSH2 0x617 PUSH2 0x1F50 JUMP JUMPDEST PUSH2 0x61F PUSH2 0x23DB JUMP JUMPDEST CALLER PUSH1 0x0 MSTORE PUSH1 0x2 DUP3 MSTORE PUSH1 0x40 PUSH1 0x0 KECCAK256 SWAP1 PUSH1 0x1 DUP1 PUSH1 0xA0 SHL SUB AND SWAP2 DUP3 PUSH1 0x0 MSTORE PUSH1 0x40 PUSH1 0x0 KECCAK256 SWAP1 PUSH1 0x4 DUP4 ADD SWAP3 DUP4 SLOAD ISZERO ISZERO DUP1 PUSH2 0x907 JUMPI JUMPDEST ISZERO PUSH2 0x8CC JUMPI PUSH1 0xFF PUSH1 0x1 DUP3 ADD SLOAD AND PUSH1 0xFF PUSH1 0x1 DUP6 ADD SLOAD AND ISZERO ISZERO SWAP1 ISZERO ISZERO EQ PUSH2 0x894 JUMPI PUSH1 0xB DUP2 ADD SLOAD PUSH1 0xB DUP5 ADD SLOAD SUB PUSH2 0x857 JUMPI PUSH1 0x10 DUP2 ADD SLOAD TIMESTAMP LT ISZERO DUP1 PUSH2 0x849 JUMPI JUMPDEST ISZERO PUSH2 0x818 JUMPI PUSH1 0x7 DUP2 ADD SLOAD PUSH1 0x8 DUP5 ADD SLOAD DUP1 DUP3 GT ISZERO PUSH2 0x80E JUMPI PUSH2 0x6AB SWAP2 PUSH2 0x21DD JUMP JUMPDEST SWAP3 JUMPDEST PUSH1 0x7 DUP2 ADD SLOAD PUSH1 0x8 DUP4 ADD SLOAD DUP1 DUP3 GT ISZERO PUSH2 0x805 JUMPI PUSH2 0x6C8 SWAP2 PUSH2 0x21DD JUMP JUMPDEST PUSH1 0x4 DUP3 ADD DUP1 SLOAD SWAP1 SWAP6 DUP2 DUP2 LT PUSH2 0x7F5 JUMPI POP POP PUSH1 0x0 DUP6 SSTORE JUMPDEST DUP6 SLOAD SWAP1 DUP2 DUP2 LT PUSH2 0x7E5 JUMPI POP POP PUSH1 0x0 DUP6 SSTORE JUMPDEST PUSH1 0x0 SWAP4 SLOAD ISZERO PUSH2 0x749 JUMPI JUMPDEST POP PUSH32 0x1D099E3DA7A64D91BF9ED0E41ACEAF6A8E2C1FC0D072EF2779F2EA6988D27988 SWAP3 SWAP4 SLOAD ISZERO PUSH2 0x736 JUMPI JUMPDEST POP PUSH1 0x40 MLOAD SWAP3 ISZERO ISZERO DUP4 MSTORE CALLER SWAP3 LOG3 PUSH1 0x1 DUP1 SSTORE STOP JUMPDEST PUSH1 0x0 PUSH1 0x9 DUP3 ADD SSTORE PUSH1 0xF TIMESTAMP SWAP2 ADD SSTORE DUP5 PUSH2 0x724 JUMP JUMPDEST SWAP3 POP PUSH1 0x0 PUSH1 0x9 DUP5 ADD SSTORE TIMESTAMP PUSH1 0xF DUP5 ADD SSTORE PUSH1 0x9 DUP2 ADD SLOAD SWAP3 PUSH1 0x32 DUP5 MUL SWAP4 DUP1 DUP6 DIV PUSH1 0x32 EQ SWAP1 ISZERO OR ISZERO PUSH2 0x7CF JUMPI PUSH1 0x2 ADD DUP1 SLOAD PUSH32 0x1D099E3DA7A64D91BF9ED0E41ACEAF6A8E2C1FC0D072EF2779F2EA6988D27988 SWAP5 SWAP2 SWAP1 DUP1 DUP4 GT PUSH2 0x7C7 JUMPI JUMPDEST DUP3 PUSH2 0x7AC SWAP2 PUSH2 0x21DD JUMP JUMPDEST SWAP1 SSTORE PUSH2 0x7BD PUSH1 0x2 DUP4 ADD SWAP2 DUP3 SLOAD PUSH2 0x21FD JUMP JUMPDEST SWAP1 SSTORE PUSH1 0x1 SWAP3 PUSH2 0x6F9 JUMP JUMPDEST SWAP2 POP DUP2 PUSH2 0x7A2 JUMP JUMPDEST PUSH4 0x4E487B71 PUSH1 0xE0 SHL PUSH1 0x0 MSTORE PUSH1 0x11 PUSH1 0x4 MSTORE PUSH1 0x24 PUSH1 0x0 REVERT JUMPDEST PUSH2 0x7EE SWAP2 PUSH2 0x21DD JUMP JUMPDEST DUP6 SSTORE PUSH2 0x6EF JUMP JUMPDEST PUSH2 0x7FE SWAP2 PUSH2 0x21DD JUMP JUMPDEST DUP6 SSTORE PUSH2 0x6DE JUMP JUMPDEST POP POP PUSH1 0x0 PUSH2 0x6C8 JUMP JUMPDEST POP POP PUSH1 0x0 SWAP3 PUSH2 0x6AD JUMP JUMPDEST PUSH1 0x40 MLOAD PUSH3 0x461BCD PUSH1 0xE5 SHL DUP2 MSTORE PUSH1 0x4 DUP2 ADD DUP4 SWAP1 MSTORE PUSH1 0x9 PUSH1 0x24 DUP3 ADD MSTORE PUSH9 0x125B881D1C985D995B PUSH1 0xBA SHL PUSH1 0x44 DUP3 ADD MSTORE PUSH1 0x64 SWAP1 REVERT JUMPDEST POP PUSH1 0x10 DUP4 ADD SLOAD TIMESTAMP LT ISZERO PUSH2 0x68B JUMP JUMPDEST PUSH1 0x40 MLOAD PUSH3 0x461BCD PUSH1 0xE5 SHL DUP2 MSTORE PUSH1 0x4 DUP2 ADD DUP4 SWAP1 MSTORE PUSH1 0x15 PUSH1 0x24 DUP3 ADD MSTORE PUSH21 0x26BAB9BA1031329039B0B6B2903637B1B0BA34B7B7 PUSH1 0x59 SHL PUSH1 0x44 DUP3 ADD MSTORE PUSH1 0x64 SWAP1 REVERT JUMPDEST PUSH1 0x40 MLOAD PUSH3 0x461BCD PUSH1 0xE5 SHL DUP2 MSTORE PUSH1 0x4 DUP2 ADD DUP4 SWAP1 MSTORE PUSH1 0x10 PUSH1 0x24 DUP3 ADD MSTORE PUSH16 0x29B0B6B29030B33334B634B0BA34B7B7 PUSH1 0x81 SHL PUSH1 0x44 DUP3 ADD MSTORE PUSH1 0x64 SWAP1 REVERT JUMPDEST PUSH1 0x40 MLOAD PUSH3 0x461BCD PUSH1 0xE5 SHL DUP2 MSTORE PUSH1 0x4 DUP2 ADD DUP4 SWAP1 MSTORE PUSH1 0x13 PUSH1 0x24 DUP3 ADD MSTORE PUSH19 0x13DB99481CDA1A5C081A5CC81DDC9958DAD959 PUSH1 0x6A SHL PUSH1 0x44 DUP3 ADD MSTORE PUSH1 0x64 SWAP1 REVERT JUMPDEST POP PUSH1 0x4 DUP4 ADD SLOAD ISZERO ISZERO PUSH2 0x64F JUMP JUMPDEST CALLVALUE PUSH2 0x279 JUMPI PUSH1 0x20 CALLDATASIZE PUSH1 0x3 NOT ADD SLT PUSH2 0x279 JUMPI PUSH1 0x6 SLOAD PUSH1 0x4 CALLDATALOAD DUP1 DUP3 LT ISZERO PUSH2 0xADF JUMPI POP DUP1 JUMPDEST PUSH2 0x93F DUP2 PUSH2 0x2342 JUMP JUMPDEST SWAP2 PUSH2 0x949 DUP3 PUSH2 0x2342 JUMP JUMPDEST SWAP2 PUSH1 0x0 JUMPDEST DUP3 DUP2 LT PUSH2 0x982 JUMPI PUSH2 0x970 DUP6 PUSH2 0x97E DUP7 PUSH1 0x40 MLOAD SWAP4 DUP5 SWAP4 PUSH1 0x40 DUP6 MSTORE PUSH1 0x40 DUP6 ADD SWAP1 PUSH2 0x20E4 JUMP JUMPDEST SWAP1 DUP4 DUP3 SUB PUSH1 0x20 DUP6 ADD MSTORE PUSH2 0x2121 JUMP JUMPDEST SUB SWAP1 RETURN JUMPDEST PUSH2 0x98B DUP2 PUSH2 0x2155 JUMP JUMPDEST SWAP1 SLOAD PUSH1 0x1 DUP1 PUSH1 0xA0 SHL SUB SWAP2 PUSH1 0x3 SHL SHR AND PUSH1 0x0 MSTORE PUSH2 0xA0E PUSH1 0x2 DUP1 PUSH1 0x20 MSTORE PUSH2 0x9E0 PUSH1 0x6 PUSH1 0x40 PUSH1 0x0 KECCAK256 ADD SLOAD PUSH2 0x9BB DUP6 PUSH2 0x2155 JUMP JUMPDEST PUSH1 0x1 DUP1 PUSH1 0xA0 SHL SUB SWAP2 SLOAD SWAP1 PUSH1 0x3 SHL SHR AND PUSH1 0x0 MSTORE DUP3 PUSH1 0x20 MSTORE PUSH1 0x7 PUSH1 0x40 PUSH1 0x0 KECCAK256 ADD SLOAD SWAP1 PUSH2 0x21FD JUMP JUMPDEST SWAP1 PUSH2 0x9EA DUP5 PUSH2 0x2155 JUMP JUMPDEST PUSH1 0x1 DUP1 PUSH1 0xA0 SHL SUB SWAP2 SLOAD SWAP1 PUSH1 0x3 SHL SHR AND PUSH1 0x0 MSTORE PUSH1 0x20 MSTORE PUSH1 0x8 PUSH1 0x40 PUSH1 0x0 KECCAK256 ADD SLOAD SWAP1 PUSH2 0x21FD JUMP JUMPDEST PUSH1 0x0 JUMPDEST DUP4 DUP2 LT PUSH2 0xA23 JUMPI JUMPDEST POP POP PUSH1 0x1 ADD PUSH2 0x94D JUMP JUMPDEST PUSH2 0xA2D DUP2 DUP8 PUSH2 0x2374 JUMP JUMPDEST MLOAD DUP3 GT PUSH2 0xA3C JUMPI PUSH1 0x1 ADD PUSH2 0xA11 JUMP JUMPDEST PUSH1 0x0 NOT DUP5 ADD DUP5 DUP2 GT PUSH2 0x7CF JUMPI JUMPDEST DUP2 DUP2 GT PUSH2 0xA89 JUMPI POP SWAP1 PUSH2 0xA81 DUP4 SWAP3 PUSH2 0xA62 PUSH1 0x1 SWAP6 PUSH2 0x2155 JUMP JUMPDEST DUP7 DUP1 PUSH1 0xA0 SHL SUB SWAP2 SLOAD SWAP1 PUSH1 0x3 SHL SHR AND PUSH2 0xA7A DUP3 DUP12 PUSH2 0x2374 JUMP JUMPDEST MSTORE DUP8 PUSH2 0x2374 JUMP JUMPDEST MSTORE SWAP1 DUP7 PUSH2 0xA19 JUMP JUMPDEST DUP1 PUSH1 0x0 NOT DUP2 ADD GT PUSH2 0x7CF JUMPI PUSH2 0xADA SWAP1 PUSH1 0x1 PUSH1 0x1 PUSH1 0xA0 SHL SUB PUSH2 0xAAE PUSH1 0x0 NOT DUP4 ADD DUP12 PUSH2 0x2374 JUMP JUMPDEST MLOAD AND PUSH2 0xABA DUP3 DUP12 PUSH2 0x2374 JUMP JUMPDEST MSTORE PUSH2 0xAC9 PUSH1 0x0 NOT DUP3 ADD DUP10 PUSH2 0x2374 JUMP JUMPDEST MLOAD PUSH2 0xAD4 DUP3 DUP11 PUSH2 0x2374 JUMP JUMPDEST MSTORE PUSH2 0x224A JUMP JUMPDEST PUSH2 0xA49 JUMP JUMPDEST PUSH2 0x936 JUMP JUMPDEST CALLVALUE PUSH2 0x279 JUMPI PUSH1 0x20 DUP1 PUSH1 0x3 NOT CALLDATASIZE ADD SLT PUSH2 0x279 JUMPI PUSH1 0x6 DUP1 SLOAD SWAP2 PUSH1 0x0 SWAP2 SWAP1 PUSH1 0x4 CALLDATALOAD SWAP1 DUP4 JUMPDEST DUP6 DUP2 LT PUSH2 0xD6E JUMPI POP PUSH2 0xB16 DUP5 PUSH2 0x2342 JUMP JUMPDEST SWAP5 PUSH2 0xB20 DUP6 PUSH2 0x232A JUMP JUMPDEST SWAP4 PUSH2 0xB2E PUSH1 0x40 MLOAD SWAP6 DUP7 PUSH2 0x1FA0 JUMP JUMPDEST DUP6 DUP6 MSTORE PUSH2 0xB3A DUP7 PUSH2 0x232A JUMP JUMPDEST PUSH1 0x1F NOT SWAP7 SWAP1 DUP8 ADD PUSH1 0x0 JUMPDEST DUP2 DUP2 LT PUSH2 0xD5F JUMPI POP POP PUSH2 0xB56 SWAP1 PUSH2 0x2342 JUMP JUMPDEST SWAP4 PUSH1 0x0 SWAP1 PUSH1 0x0 JUMPDEST DUP5 DUP2 LT PUSH2 0xBEE JUMPI PUSH2 0xB80 DUP10 DUP12 DUP11 DUP11 DUP11 PUSH1 0x40 MLOAD SWAP6 DUP7 SWAP5 PUSH1 0x60 DUP7 MSTORE PUSH1 0x60 DUP7 ADD SWAP1 PUSH2 0x20E4 JUMP JUMPDEST SWAP1 DUP5 DUP3 SUB DUP2 DUP7 ADD MSTORE DUP4 MLOAD SWAP2 DUP3 DUP2 MSTORE DUP2 DUP2 ADD DUP3 DUP1 DUP6 PUSH1 0x5 SHL DUP5 ADD ADD SWAP7 ADD SWAP8 PUSH1 0x0 SWAP3 JUMPDEST DUP6 DUP5 LT PUSH2 0xBBC JUMPI DUP9 DUP1 PUSH2 0x97E DUP11 DUP11 DUP4 DUP3 SUB PUSH1 0x40 DUP6 ADD MSTORE PUSH2 0x2121 JUMP JUMPDEST SWAP2 SWAP4 DUP1 DUP1 SWAP8 SWAP10 POP PUSH2 0xBDA DUP10 DUP5 DUP7 PUSH1 0x1 SWAP7 SWAP9 SWAP11 SWAP13 SUB ADD DUP9 MSTORE DUP13 MLOAD PUSH2 0x2067 JUMP JUMPDEST SWAP11 ADD SWAP5 ADD SWAP5 ADD SWAP2 DUP10 SWAP8 SWAP6 SWAP4 SWAP9 SWAP7 SWAP5 SWAP2 PUSH2 0xBA1 JUMP JUMPDEST DUP10 PUSH2 0xBFC DUP3 SWAP11 SWAP9 SWAP10 SWAP11 PUSH2 0x2155 JUMP JUMPDEST SWAP2 SWAP1 PUSH1 0x1 DUP1 PUSH1 0xA0 SHL SUB DUP1 SWAP2 SLOAD PUSH1 0x3 SWAP5 DUP6 SHL SHR AND PUSH1 0x0 MSTORE DUP9 DUP8 DUP14 PUSH1 0x2 SWAP5 DUP6 DUP5 MSTORE DUP9 PUSH1 0xB PUSH1 0x40 PUSH1 0x0 KECCAK256 ADD SLOAD EQ DUP1 PUSH2 0xD36 JUMPI JUMPDEST PUSH2 0xC44 JUMPI JUMPDEST POP POP POP POP POP POP POP PUSH1 0x1 ADD SWAP8 SWAP7 SWAP6 SWAP8 PUSH2 0xB5D JUMP JUMPDEST DUP8 DUP7 DUP9 SWAP6 DUP8 PUSH2 0xCDB DUP15 SWAP11 SWAP8 DUP6 SWAP16 DUP1 PUSH1 0x1 SWAP16 SWAP10 PUSH2 0xD29 SWAP16 SWAP10 PUSH2 0xC81 PUSH2 0xD19 SWAP16 SWAP13 SWAP5 DUP9 PUSH2 0xCF5 SWAP14 PUSH2 0xC75 PUSH2 0xCB6 SWAP9 PUSH2 0x2155 JUMP JUMPDEST SWAP1 SLOAD SWAP2 SHL SHR AND SWAP3 PUSH2 0x2374 JUMP JUMPDEST MSTORE DUP6 DUP14 PUSH2 0xC8D DUP12 PUSH2 0x2155 JUMP JUMPDEST SWAP1 SLOAD SWAP2 SHL SHR AND PUSH1 0x0 MSTORE DUP8 DUP8 MSTORE PUSH2 0xCA6 PUSH1 0x40 PUSH1 0x0 KECCAK256 PUSH2 0x1FC2 JUMP JUMPDEST PUSH2 0xCB0 DUP4 DUP4 PUSH2 0x2374 JUMP JUMPDEST MSTORE PUSH2 0x2374 JUMP JUMPDEST POP DUP3 PUSH2 0xCC1 DUP8 PUSH2 0x2155 JUMP JUMPDEST SWAP1 SLOAD SWAP1 DUP13 SHL SHR AND PUSH1 0x0 MSTORE DUP5 DUP5 MSTORE PUSH1 0x40 PUSH1 0x0 KECCAK256 ADD SLOAD SWAP5 PUSH2 0x2155 JUMP JUMPDEST SWAP1 SLOAD SWAP1 DUP10 SHL SHR AND PUSH1 0x0 MSTORE MSTORE PUSH1 0x7 PUSH1 0x40 PUSH1 0x0 KECCAK256 ADD SLOAD SWAP1 PUSH2 0x21FD JUMP JUMPDEST SWAP3 PUSH2 0xCFF DUP11 PUSH2 0x2155 JUMP JUMPDEST SWAP1 SLOAD SWAP2 SHL SHR AND PUSH1 0x0 MSTORE DUP11 MSTORE PUSH1 0x8 PUSH1 0x40 PUSH1 0x0 KECCAK256 ADD SLOAD SWAP1 PUSH2 0x21FD JUMP JUMPDEST PUSH2 0xD23 DUP3 DUP13 PUSH2 0x2374 JUMP JUMPDEST MSTORE PUSH2 0x22B3 JUMP JUMPDEST SWAP3 SWAP1 DUP12 DUP1 DUP9 DUP8 DUP14 DUP16 PUSH2 0xC31 JUMP JUMPDEST POP DUP5 PUSH2 0xD41 DUP10 PUSH2 0x2155 JUMP JUMPDEST SWAP1 SLOAD SWAP1 DUP10 SHL SHR AND PUSH1 0x0 MSTORE DUP6 DUP5 MSTORE PUSH1 0x10 PUSH1 0x40 PUSH1 0x0 KECCAK256 ADD SLOAD TIMESTAMP LT ISZERO PUSH2 0xC2C JUMP JUMPDEST PUSH1 0x60 DUP9 DUP3 ADD DUP8 ADD MSTORE DUP6 ADD PUSH2 0xB44 JUMP JUMPDEST PUSH2 0xD7B DUP2 SWAP6 SWAP4 SWAP5 SWAP6 PUSH2 0x2155 JUMP JUMPDEST SWAP1 PUSH1 0x1 DUP1 PUSH1 0xA0 SHL SUB DUP1 SWAP2 SLOAD PUSH1 0x3 SWAP4 DUP5 SHL SHR AND PUSH1 0x0 MSTORE PUSH1 0x2 SWAP1 DUP2 DUP6 MSTORE DUP7 PUSH1 0xB PUSH1 0x40 PUSH1 0x0 KECCAK256 ADD SLOAD EQ SWAP3 DUP4 PUSH2 0xDD0 JUMPI JUMPDEST POP POP POP PUSH2 0xDBC JUMPI JUMPDEST PUSH1 0x1 ADD SWAP4 SWAP3 SWAP2 SWAP4 PUSH2 0xB05 JUMP JUMPDEST SWAP2 PUSH2 0xDC8 PUSH1 0x1 SWAP2 PUSH2 0x22B3 JUMP JUMPDEST SWAP3 SWAP1 POP PUSH2 0xDB0 JUMP JUMPDEST SWAP1 SWAP2 SWAP3 POP PUSH2 0xDDD DUP5 PUSH2 0x2155 JUMP JUMPDEST SWAP1 SLOAD SWAP2 SHL SHR AND PUSH1 0x0 MSTORE DUP3 MSTORE PUSH1 0x10 PUSH1 0x40 PUSH1 0x0 KECCAK256 ADD SLOAD TIMESTAMP LT ISZERO DUP8 DUP1 DUP1 PUSH2 0xDA8 JUMP JUMPDEST CALLVALUE PUSH2 0x279 JUMPI PUSH1 0x60 CALLDATASIZE PUSH1 0x3 NOT ADD SLT PUSH2 0x279 JUMPI PUSH1 0x4 CALLDATALOAD PUSH8 0xFFFFFFFFFFFFFFFF DUP2 GT PUSH2 0x279 JUMPI PUSH2 0xE2D SWAP1 CALLDATASIZE SWAP1 PUSH1 0x4 ADD PUSH2 0x20B6 JUMP JUMPDEST SWAP1 PUSH2 0xE36 PUSH2 0x20A7 JUMP JUMPDEST SWAP2 DUP1 ISZERO ISZERO DUP1 PUSH2 0x124C JUMPI JUMPDEST ISZERO PUSH2 0x1207 JUMPI PUSH1 0x64 DUP1 PUSH1 0x44 CALLDATALOAD GT PUSH2 0x11CC JUMPI CALLER PUSH1 0x0 MSTORE PUSH1 0x2 PUSH1 0x20 MSTORE PUSH1 0x40 PUSH1 0x0 KECCAK256 PUSH1 0x4 DUP2 ADD SLOAD ISZERO SWAP1 DUP2 PUSH2 0x11BF JUMPI JUMPDEST POP ISZERO PUSH2 0x1187 JUMPI PUSH1 0x40 MLOAD SWAP1 PUSH2 0x240 DUP3 ADD DUP3 DUP2 LT PUSH8 0xFFFFFFFFFFFFFFFF DUP3 GT OR PUSH2 0x564 JUMPI PUSH1 0x40 MSTORE PUSH2 0xE9B CALLDATASIZE DUP5 DUP7 PUSH2 0x22C2 JUMP JUMPDEST DUP3 MSTORE DUP5 ISZERO ISZERO PUSH1 0x20 DUP4 ADD MSTORE DUP1 PUSH1 0x40 DUP4 ADD MSTORE PUSH1 0x0 PUSH1 0x60 DUP4 ADD MSTORE DUP1 PUSH1 0x80 DUP4 ADD MSTORE PUSH1 0xA0 DUP3 ADD MSTORE PUSH1 0x1 PUSH1 0xC0 DUP3 ADD MSTORE PUSH1 0x1 PUSH1 0xE0 DUP3 ADD MSTORE PUSH1 0x1 PUSH2 0x100 DUP3 ADD MSTORE PUSH1 0x1 PUSH2 0x120 DUP3 ADD MSTORE PUSH1 0xA PUSH2 0x140 DUP3 ADD MSTORE PUSH1 0x44 CALLDATALOAD PUSH2 0x160 DUP3 ADD MSTORE PUSH1 0x0 PUSH2 0x180 DUP3 ADD MSTORE PUSH1 0x0 PUSH2 0x1A0 DUP3 ADD MSTORE PUSH1 0x0 PUSH2 0x1C0 DUP3 ADD MSTORE PUSH1 0x0 PUSH2 0x1E0 DUP3 ADD MSTORE PUSH1 0x0 PUSH2 0x200 DUP3 ADD MSTORE TIMESTAMP PUSH2 0x220 DUP3 ADD MSTORE CALLER PUSH1 0x0 MSTORE PUSH1 0x2 PUSH1 0x20 MSTORE PUSH1 0x40 PUSH1 0x0 KECCAK256 SWAP1 DUP1 MLOAD DUP1 MLOAD SWAP1 PUSH8 0xFFFFFFFFFFFFFFFF DUP3 GT PUSH2 0x564 JUMPI PUSH2 0xF48 DUP5 SLOAD PUSH2 0x1F66 JUMP JUMPDEST PUSH1 0x1F DUP2 GT PUSH2 0x1143 JUMPI JUMPDEST POP PUSH1 0x20 SWAP1 PUSH1 0x1F DUP4 GT PUSH1 0x1 EQ PUSH2 0x10D3 JUMPI SWAP2 DUP1 PUSH1 0x11 SWAP5 SWAP3 PUSH2 0x220 SWAP5 PUSH1 0x0 SWAP3 PUSH2 0x10C8 JUMPI JUMPDEST POP POP DUP2 PUSH1 0x1 SHL SWAP2 PUSH1 0x0 NOT SWAP1 PUSH1 0x3 SHL SHR NOT AND OR DUP5 SSTORE JUMPDEST PUSH1 0x1 DUP5 ADD PUSH1 0x20 DUP3 ADD MLOAD ISZERO ISZERO PUSH1 0xFF DUP1 NOT DUP4 SLOAD AND SWAP2 AND OR SWAP1 SSTORE PUSH1 0x40 DUP2 ADD MLOAD PUSH1 0x2 DUP6 ADD SSTORE PUSH1 0x60 DUP2 ADD MLOAD PUSH1 0x3 DUP6 ADD SSTORE PUSH1 0x80 DUP2 ADD MLOAD PUSH1 0x4 DUP6 ADD SSTORE PUSH1 0xA0 DUP2 ADD MLOAD PUSH1 0x5 DUP6 ADD SSTORE PUSH1 0xC0 DUP2 ADD MLOAD PUSH1 0x6 DUP6 ADD SSTORE PUSH1 0xE0 DUP2 ADD MLOAD PUSH1 0x7 DUP6 ADD SSTORE PUSH2 0x100 DUP2 ADD MLOAD PUSH1 0x8 DUP6 ADD SSTORE PUSH2 0x120 DUP2 ADD MLOAD PUSH1 0x9 DUP6 ADD SSTORE PUSH2 0x140 DUP2 ADD MLOAD PUSH1 0xA DUP6 ADD SSTORE PUSH2 0x160 DUP2 ADD MLOAD PUSH1 0xB DUP6 ADD SSTORE PUSH2 0x180 DUP2 ADD MLOAD PUSH1 0xC DUP6 ADD SSTORE PUSH2 0x1A0 DUP2 ADD MLOAD PUSH1 0xD DUP6 ADD SSTORE PUSH2 0x1C0 DUP2 ADD MLOAD PUSH1 0xE DUP6 ADD SSTORE PUSH2 0x1E0 DUP2 ADD MLOAD PUSH1 0xF DUP6 ADD SSTORE PUSH2 0x200 DUP2 ADD MLOAD PUSH1 0x10 DUP6 ADD SSTORE ADD MLOAD SWAP2 ADD SSTORE PUSH1 0x6 SLOAD PUSH9 0x10000000000000000 DUP2 LT ISZERO PUSH2 0x564 JUMPI PUSH32 0x47456E7EC68E981A8F02D9C9528370ADEA595C1B26225BE6797E6D441C47FC02 SWAP3 PUSH2 0x108B DUP3 PUSH1 0x1 PUSH2 0x10B8 SWAP5 ADD PUSH1 0x6 SSTORE PUSH2 0x2155 JUMP JUMPDEST DUP2 SLOAD PUSH1 0x1 PUSH1 0x1 PUSH1 0xA0 SHL SUB PUSH1 0x3 SWAP3 SWAP1 SWAP3 SHL SWAP2 DUP3 SHL NOT AND CALLER SWAP1 SWAP2 SHL OR SWAP1 SSTORE PUSH1 0x40 DUP1 MLOAD DUP2 DUP2 MSTORE SWAP4 SWAP1 DUP5 ADD SWAP2 PUSH2 0x2309 JUMP JUMPDEST SWAP3 ISZERO ISZERO PUSH1 0x20 DUP3 ADD MSTORE DUP1 CALLER SWAP4 SUB SWAP1 LOG2 STOP JUMPDEST ADD MLOAD SWAP1 POP DUP10 DUP1 PUSH2 0xF72 JUMP JUMPDEST SWAP1 DUP5 PUSH1 0x0 MSTORE PUSH1 0x20 PUSH1 0x0 KECCAK256 SWAP2 PUSH1 0x0 JUMPDEST PUSH1 0x1F NOT DUP6 AND DUP2 LT PUSH2 0x112B JUMPI POP SWAP3 PUSH1 0x11 SWAP5 SWAP3 PUSH1 0x1 SWAP3 PUSH2 0x220 SWAP6 DUP4 PUSH1 0x1F NOT DUP2 AND LT PUSH2 0x1112 JUMPI JUMPDEST POP POP POP DUP2 SHL ADD DUP5 SSTORE PUSH2 0xF87 JUMP JUMPDEST ADD MLOAD PUSH1 0x0 NOT PUSH1 0xF8 DUP5 PUSH1 0x3 SHL AND SHR NOT AND SWAP1 SSTORE DUP10 DUP1 DUP1 PUSH2 0x1105 JUMP JUMPDEST SWAP2 SWAP3 PUSH1 0x20 PUSH1 0x1 DUP2 SWAP3 DUP7 DUP6 ADD MLOAD DUP2 SSTORE ADD SWAP5 ADD SWAP3 ADD PUSH2 0x10E1 JUMP JUMPDEST DUP5 PUSH1 0x0 MSTORE PUSH1 0x20 PUSH1 0x0 KECCAK256 PUSH1 0x1F DUP5 ADD PUSH1 0x5 SHR DUP2 ADD PUSH1 0x20 DUP6 LT PUSH2 0x1180 JUMPI JUMPDEST PUSH1 0x1F DUP4 ADD PUSH1 0x5 SHR DUP3 ADD DUP2 LT PUSH2 0x1174 JUMPI POP POP PUSH2 0xF51 JUMP JUMPDEST PUSH1 0x0 DUP2 SSTORE PUSH1 0x1 ADD PUSH2 0x115E JUMP JUMPDEST POP DUP1 PUSH2 0x115E JUMP JUMPDEST PUSH1 0x40 MLOAD PUSH3 0x461BCD PUSH1 0xE5 SHL DUP2 MSTORE PUSH1 0x20 PUSH1 0x4 DUP3 ADD MSTORE PUSH1 0x13 PUSH1 0x24 DUP3 ADD MSTORE PUSH19 0x105B1C9958591E481A185CC81858D8DBDD5B9D PUSH1 0x6A SHL PUSH1 0x44 DUP3 ADD MSTORE REVERT JUMPDEST PUSH1 0x9 SWAP2 POP ADD SLOAD ISZERO DUP6 PUSH2 0xE6B JUMP JUMPDEST PUSH1 0x40 MLOAD PUSH3 0x461BCD PUSH1 0xE5 SHL DUP2 MSTORE PUSH1 0x20 PUSH1 0x4 DUP3 ADD MSTORE PUSH1 0x16 PUSH1 0x24 DUP3 ADD MSTORE PUSH22 0x4C6F636174696F6E206D75737420626520302D31303 PUSH1 0x54 SHL PUSH1 0x44 DUP3 ADD MSTORE REVERT JUMPDEST PUSH1 0x40 MLOAD PUSH3 0x461BCD PUSH1 0xE5 SHL DUP2 MSTORE PUSH1 0x20 PUSH1 0x4 DUP3 ADD MSTORE PUSH1 0x18 PUSH1 0x24 DUP3 ADD MSTORE PUSH32 0x426F6174206E616D6520696E76616C6964206C656E6774680000000000000000 PUSH1 0x44 DUP3 ADD MSTORE PUSH1 0x64 SWAP1 REVERT JUMPDEST POP PUSH1 0xC DUP2 GT ISZERO PUSH2 0xE40 JUMP JUMPDEST CALLVALUE PUSH2 0x279 JUMPI PUSH1 0x20 DUP1 PUSH1 0x3 NOT CALLDATASIZE ADD SLT PUSH2 0x279 JUMPI PUSH1 0x4 CALLDATALOAD SWAP1 PUSH2 0x1275 PUSH2 0x23DB JUMP JUMPDEST DUP2 PUSH1 0x0 MSTORE PUSH1 0x3 DUP2 MSTORE PUSH1 0x40 PUSH1 0x0 KECCAK256 CALLER PUSH1 0x0 MSTORE PUSH1 0x2 DUP3 MSTORE PUSH1 0x40 PUSH1 0x0 KECCAK256 SWAP2 PUSH2 0x12CC PUSH1 0x1 DUP4 ADD PUSH2 0x12A3 DUP2 SLOAD ISZERO ISZERO PUSH2 0x220A JUMP JUMPDEST PUSH2 0x12AC CALLER PUSH2 0x2472 JUMP JUMPDEST CALLER PUSH1 0x0 MSTORE PUSH1 0x4 DUP4 MSTORE PUSH1 0x40 PUSH1 0x0 KECCAK256 DUP7 PUSH1 0x0 MSTORE DUP4 MSTORE PUSH1 0x40 PUSH1 0x0 KECCAK256 SLOAD SWAP1 SLOAD PUSH2 0x23FE JUMP JUMPDEST PUSH1 0x2 DUP5 ADD SWAP1 DUP2 SLOAD DUP2 DUP2 LT PUSH2 0x13E5 JUMPI SWAP2 PUSH2 0x12EB PUSH1 0x7 SWAP5 SWAP3 PUSH1 0x9 SWAP7 SWAP5 PUSH2 0x21DD JUMP JUMPDEST SWAP1 SSTORE CALLER PUSH1 0x0 MSTORE PUSH1 0x4 DUP2 MSTORE PUSH1 0x40 PUSH1 0x0 KECCAK256 SWAP1 DUP7 PUSH1 0x0 MSTORE MSTORE PUSH1 0x40 PUSH1 0x0 KECCAK256 PUSH2 0x130F DUP2 SLOAD PUSH2 0x22B3 JUMP JUMPDEST SWAP1 SSTORE PUSH1 0x2 DUP2 ADD SLOAD PUSH2 0x1325 PUSH1 0xC DUP7 ADD SWAP2 DUP3 SLOAD PUSH2 0x21FD JUMP JUMPDEST SWAP1 SSTORE PUSH1 0x3 DUP2 ADD DUP1 SLOAD PUSH2 0x133C PUSH1 0x5 DUP8 ADD SWAP2 DUP3 SLOAD PUSH2 0x21FD JUMP JUMPDEST SWAP1 SSTORE SLOAD PUSH2 0x134E PUSH1 0x4 DUP7 ADD SWAP2 DUP3 SLOAD PUSH2 0x21FD JUMP JUMPDEST SWAP1 SSTORE PUSH1 0x4 DUP2 ADD SLOAD PUSH2 0x1364 PUSH1 0x6 DUP7 ADD SWAP2 DUP3 SLOAD PUSH2 0x21FD JUMP JUMPDEST SWAP1 SSTORE PUSH1 0x5 DUP2 ADD SLOAD PUSH2 0x1379 DUP4 DUP7 ADD SWAP2 DUP3 SLOAD PUSH2 0x21FD JUMP JUMPDEST SWAP1 SSTORE PUSH1 0x6 DUP2 ADD SLOAD PUSH2 0x138F PUSH1 0x8 DUP7 ADD SWAP2 DUP3 SLOAD PUSH2 0x21FD JUMP JUMPDEST SWAP1 SSTORE ADD SLOAD SWAP2 PUSH2 0x13A3 PUSH1 0xA DUP3 ADD SWAP4 DUP5 SLOAD PUSH2 0x21FD JUMP JUMPDEST DUP1 SWAP4 SSTORE ADD DUP2 DUP2 SLOAD GT PUSH2 0x13DD JUMPI JUMPDEST DUP3 CALLER PUSH32 0xCF52C8AA8ED6B7D560B4E75DB6AB973723DE269D5580985C8880844D4ED6D7C0 PUSH1 0x0 DUP1 LOG3 PUSH1 0x1 DUP1 SSTORE STOP JUMPDEST SSTORE DUP2 DUP1 PUSH2 0x13B0 JUMP JUMPDEST PUSH1 0x40 MLOAD PUSH3 0x461BCD PUSH1 0xE5 SHL DUP2 MSTORE PUSH1 0x4 DUP2 ADD DUP6 SWAP1 MSTORE PUSH1 0xF PUSH1 0x24 DUP3 ADD MSTORE PUSH15 0x139BDD08195B9BDD59DA0819DBDB19 PUSH1 0x8A SHL PUSH1 0x44 DUP3 ADD MSTORE PUSH1 0x64 SWAP1 REVERT JUMPDEST CALLVALUE PUSH2 0x279 JUMPI PUSH1 0x0 CALLDATASIZE PUSH1 0x3 NOT ADD SLT PUSH2 0x279 JUMPI PUSH1 0x0 SLOAD PUSH1 0x40 MLOAD PUSH1 0x1 PUSH1 0x1 PUSH1 0xA0 SHL SUB SWAP1 SWAP2 AND DUP2 MSTORE PUSH1 0x20 SWAP1 RETURN JUMPDEST PUSH1 0x40 CALLDATASIZE PUSH1 0x3 NOT ADD SLT PUSH2 0x279 JUMPI PUSH1 0x4 CALLDATALOAD PUSH2 0x145C PUSH2 0x20A7 JUMP JUMPDEST PUSH2 0x1464 PUSH2 0x23DB JUMP JUMPDEST CALLER PUSH1 0x0 MSTORE PUSH1 0x20 PUSH1 0x2 DUP2 MSTORE PUSH1 0x40 PUSH1 0x0 KECCAK256 SWAP1 PUSH2 0x1483 PUSH1 0x4 DUP4 ADD SLOAD ISZERO ISZERO PUSH2 0x21A2 JUMP JUMPDEST PUSH1 0x10 DUP3 ADD SWAP2 DUP3 SLOAD TIMESTAMP LT PUSH2 0x16B4 JUMPI PUSH1 0x64 SWAP1 DUP2 DUP7 GT PUSH2 0x167E JUMPI PUSH1 0xB DUP2 ADD SWAP2 DUP3 SLOAD DUP1 DUP9 EQ PUSH2 0x164B JUMPI DUP8 DUP2 DUP2 GT ISZERO PUSH2 0x163C JUMPI SWAP1 PUSH2 0x14BB SWAP2 PUSH2 0x21DD JUMP JUMPDEST SWAP2 JUMPDEST PUSH2 0xE10 SWAP3 DUP4 DUP2 MUL SWAP1 DUP1 DUP3 DIV DUP6 EQ DUP2 ISZERO OR ISZERO PUSH2 0x7CF JUMPI PUSH1 0x6 DUP4 ADD SLOAD SWAP1 PUSH2 0x12C SWAP2 DUP3 DUP2 MUL SWAP3 DUP2 DUP5 DIV EQ SWAP1 ISZERO OR ISZERO PUSH2 0x7CF JUMPI PUSH2 0x14F5 SWAP2 PUSH2 0x21EA JUMP JUMPDEST DUP2 DUP2 LT PUSH2 0x162D JUMPI POP POP PUSH1 0x0 SWAP3 JUMPDEST DUP8 ISZERO PUSH2 0x15E7 JUMPI DUP4 DIV SWAP1 CALLVALUE PUSH2 0x15B1 JUMPI PUSH1 0x3 ADD SWAP2 DUP3 SLOAD SWAP1 DUP3 DUP3 LT PUSH2 0x1579 JUMPI POP SWAP2 PUSH2 0x1530 DUP10 SWAP6 SWAP5 SWAP3 PUSH2 0x1539 SWAP5 PUSH2 0x21DD JUMP JUMPDEST SWAP1 SSTORE JUMPDEST TIMESTAMP PUSH2 0x21FD JUMP JUMPDEST DUP1 SWAP5 SSTORE SSTORE PUSH1 0x40 MLOAD SWAP4 DUP5 MSTORE DUP4 ADD MSTORE ISZERO ISZERO PUSH1 0x40 DUP3 ADD MSTORE PUSH32 0x9782A86993C9E75E77FDBBA3381A28A46E4F356E9516E67313BD4BD859C88A3F PUSH1 0x60 CALLER SWAP3 LOG2 PUSH1 0x1 DUP1 SSTORE STOP JUMPDEST PUSH1 0x40 MLOAD PUSH3 0x461BCD PUSH1 0xE5 SHL DUP2 MSTORE PUSH1 0x4 DUP2 ADD DUP9 SWAP1 MSTORE PUSH1 0x13 PUSH1 0x24 DUP3 ADD MSTORE PUSH19 0x4E6F7420656E6F756768206469616D6F6E6473 PUSH1 0x68 SHL PUSH1 0x44 DUP3 ADD MSTORE REVERT JUMPDEST PUSH1 0x40 MLOAD PUSH3 0x461BCD PUSH1 0xE5 SHL DUP2 MSTORE PUSH1 0x4 DUP2 ADD DUP8 SWAP1 MSTORE PUSH1 0xF PUSH1 0x24 DUP3 ADD MSTORE PUSH15 0x14185E481D9A5848191A585B5BDB99 PUSH1 0x8A SHL PUSH1 0x44 DUP3 ADD MSTORE DUP4 SWAP1 REVERT JUMPDEST POP POP CALLVALUE PUSH2 0x15FA JUMPI POP SWAP1 PUSH2 0x1539 DUP7 SWAP3 PUSH2 0x1533 JUMP JUMPDEST PUSH1 0x40 MLOAD PUSH3 0x461BCD PUSH1 0xE5 SHL DUP2 MSTORE PUSH1 0x4 DUP2 ADD DUP6 SWAP1 MSTORE PUSH1 0xE PUSH1 0x24 DUP3 ADD MSTORE PUSH14 0x2237B713BA1039B2B732102C2A2D PUSH1 0x91 SHL PUSH1 0x44 DUP3 ADD MSTORE REVERT JUMPDEST PUSH2 0x1636 SWAP2 PUSH2 0x21DD JUMP JUMPDEST SWAP3 PUSH2 0x1502 JUMP JUMPDEST PUSH2 0x1645 SWAP2 PUSH2 0x21DD JUMP JUMPDEST SWAP2 PUSH2 0x14BD JUMP JUMPDEST POP PUSH1 0x40 MLOAD PUSH3 0x461BCD PUSH1 0xE5 SHL DUP2 MSTORE PUSH1 0x4 DUP2 ADD DUP6 SWAP1 MSTORE PUSH1 0xD PUSH1 0x24 DUP3 ADD MSTORE PUSH13 0x29B0B6B2903637B1B0BA34B7B7 PUSH1 0x99 SHL PUSH1 0x44 DUP3 ADD MSTORE REVERT JUMPDEST POP SWAP1 PUSH1 0x40 MLOAD SWAP1 PUSH3 0x461BCD PUSH1 0xE5 SHL DUP3 MSTORE PUSH1 0x4 DUP3 ADD MSTORE PUSH1 0x10 PUSH1 0x24 DUP3 ADD MSTORE PUSH16 0x131BD8D85D1A5BDB881A5B9D985B1A59 PUSH1 0x82 SHL PUSH1 0x44 DUP3 ADD MSTORE REVERT JUMPDEST PUSH1 0x40 MLOAD PUSH3 0x461BCD PUSH1 0xE5 SHL DUP2 MSTORE PUSH1 0x4 DUP2 ADD DUP4 SWAP1 MSTORE PUSH1 0x11 PUSH1 0x24 DUP3 ADD MSTORE PUSH17 0x416C72656164792074726176656C696E67 PUSH1 0x78 SHL PUSH1 0x44 DUP3 ADD MSTORE PUSH1 0x64 SWAP1 REVERT JUMPDEST CALLVALUE PUSH2 0x279 JUMPI PUSH1 0x20 CALLDATASIZE PUSH1 0x3 NOT ADD SLT PUSH2 0x279 JUMPI PUSH1 0x4 CALLDATALOAD PUSH1 0x0 MSTORE PUSH1 0x3 PUSH1 0x20 MSTORE PUSH2 0x1756 PUSH1 0x40 PUSH1 0x0 KECCAK256 PUSH2 0x171A DUP2 PUSH2 0x1FC2 JUMP JUMPDEST SWAP1 PUSH1 0x1 DUP2 ADD SLOAD SWAP1 PUSH1 0x2 DUP2 ADD SLOAD SWAP1 PUSH1 0x3 DUP2 ADD SLOAD PUSH1 0x4 DUP3 ADD SLOAD PUSH1 0x5 DUP4 ADD SLOAD SWAP2 PUSH1 0x7 PUSH1 0x6 DUP6 ADD SLOAD SWAP5 ADD SLOAD SWAP5 PUSH1 0x40 MLOAD SWAP9 DUP10 SWAP9 PUSH2 0x100 DUP1 DUP12 MSTORE DUP11 ADD SWAP1 PUSH2 0x2067 JUMP JUMPDEST SWAP7 PUSH1 0x20 DUP10 ADD MSTORE PUSH1 0x40 DUP9 ADD MSTORE PUSH1 0x60 DUP8 ADD MSTORE PUSH1 0x80 DUP7 ADD MSTORE PUSH1 0xA0 DUP6 ADD MSTORE PUSH1 0xC0 DUP5 ADD MSTORE PUSH1 0xE0 DUP4 ADD MSTORE SUB SWAP1 RETURN JUMPDEST CALLVALUE PUSH2 0x279 JUMPI PUSH1 0x0 CALLDATASIZE PUSH1 0x3 NOT ADD SLT PUSH2 0x279 JUMPI PUSH2 0x1797 PUSH2 0x2532 JUMP JUMPDEST PUSH1 0x0 DUP1 SLOAD PUSH1 0x1 PUSH1 0x1 PUSH1 0xA0 SHL SUB NOT DUP2 AND DUP3 SSTORE PUSH1 0x1 PUSH1 0x1 PUSH1 0xA0 SHL SUB AND PUSH32 0x8BE0079C531659141344CD1FD0A4F28419497F9722A3DAAFE3B4186F6B6457E0 DUP3 DUP1 LOG3 STOP JUMPDEST CALLVALUE PUSH2 0x279 JUMPI PUSH1 0x20 CALLDATASIZE PUSH1 0x3 NOT ADD SLT PUSH2 0x279 JUMPI PUSH1 0x20 PUSH2 0x59D PUSH2 0x17F5 PUSH2 0x1F50 JUMP JUMPDEST PUSH2 0x2257 JUMP JUMPDEST PUSH1 0x40 CALLDATASIZE PUSH1 0x3 NOT ADD SLT PUSH2 0x279 JUMPI PUSH1 0x4 CALLDATALOAD DUP1 ISZERO ISZERO DUP2 SUB PUSH2 0x279 JUMPI PUSH2 0x181A PUSH2 0x20A7 JUMP JUMPDEST SWAP1 PUSH2 0x1823 PUSH2 0x23DB JUMP JUMPDEST CALLER PUSH1 0x0 MSTORE PUSH1 0x20 SWAP2 PUSH1 0x2 DUP4 MSTORE PUSH1 0x40 PUSH1 0x0 KECCAK256 SWAP3 PUSH1 0x4 DUP5 ADD SWAP2 DUP3 SLOAD PUSH2 0x1A72 JUMPI PUSH1 0xF DUP6 ADD SWAP4 DUP5 SLOAD PUSH2 0x4650 DUP2 ADD DUP1 SWAP2 GT PUSH2 0x7CF JUMPI TIMESTAMP LT PUSH2 0x1A2D JUMPI ISZERO PUSH2 0x19BD JUMPI PUSH1 0xB DUP6 ADD SLOAD PUSH1 0x19 DUP2 EQ SWAP1 DUP2 ISZERO PUSH2 0x19B2 JUMPI JUMPDEST DUP2 ISZERO PUSH2 0x19A7 JUMPI JUMPDEST POP ISZERO PUSH2 0x1974 JUMPI DUP1 DUP2 ISZERO PUSH2 0x1964 JUMPI JUMPDEST ISZERO PUSH2 0x1928 JUMPI ISZERO PUSH2 0x18B0 JUMPI POP PUSH1 0x5 DUP4 PUSH1 0x3 PUSH1 0x0 SWAP6 ADD PUSH2 0x18A1 DUP2 SLOAD PUSH2 0x224A JUMP JUMPDEST SWAP1 SSTORE JUMPDEST ADD SLOAD SWAP1 SSTORE JUMPDEST SSTORE PUSH1 0x1 DUP1 SSTORE STOP JUMPDEST SWAP3 PUSH2 0x18BA CALLER PUSH2 0x2472 JUMP JUMPDEST PUSH1 0x2 DUP2 ADD SWAP1 DUP2 SLOAD SWAP5 PUSH2 0x3E8 DUP7 LT PUSH2 0x18E5 JUMPI POP PUSH2 0x3E7 NOT DUP6 ADD SWAP5 DUP6 GT PUSH2 0x7CF JUMPI PUSH1 0x0 SWAP5 PUSH1 0x5 SWAP3 SSTORE PUSH2 0x18A4 JUMP JUMPDEST PUSH1 0x64 SWAP1 PUSH1 0x40 MLOAD SWAP1 PUSH3 0x461BCD PUSH1 0xE5 SHL DUP3 MSTORE DUP1 PUSH1 0x4 DUP4 ADD MSTORE PUSH1 0x24 DUP3 ADD MSTORE PUSH32 0x4E6F7420656E6F75676820676F6C64206166746572206175746F2D636C61696D PUSH1 0x44 DUP3 ADD MSTORE REVERT JUMPDEST PUSH1 0x40 MLOAD PUSH3 0x461BCD PUSH1 0xE5 SHL DUP2 MSTORE PUSH1 0x4 DUP2 ADD DUP4 SWAP1 MSTORE PUSH1 0x14 PUSH1 0x24 DUP3 ADD MSTORE PUSH20 0x139959590819DBDB19081BDC88191A585B5BDB99 PUSH1 0x62 SHL PUSH1 0x44 DUP3 ADD MSTORE PUSH1 0x64 SWAP1 REVERT JUMPDEST POP PUSH2 0x3E8 PUSH1 0x2 DUP7 ADD SLOAD LT ISZERO PUSH2 0x1883 JUMP JUMPDEST PUSH1 0x40 MLOAD PUSH3 0x461BCD PUSH1 0xE5 SHL DUP2 MSTORE PUSH1 0x4 DUP2 ADD DUP4 SWAP1 MSTORE PUSH1 0xB PUSH1 0x24 DUP3 ADD MSTORE PUSH11 0x139BDD08185D081C1BDC9D PUSH1 0xAA SHL PUSH1 0x44 DUP3 ADD MSTORE PUSH1 0x64 SWAP1 REVERT JUMPDEST PUSH1 0x59 SWAP2 POP EQ DUP7 PUSH2 0x1875 JUMP JUMPDEST PUSH1 0x37 DUP2 EQ SWAP2 POP PUSH2 0x186E JUMP JUMPDEST PUSH2 0x19D1 JUMPI JUMPDEST POP PUSH1 0x5 PUSH1 0x0 SWAP4 ADD SLOAD SWAP1 SSTORE PUSH2 0x18A9 JUMP JUMPDEST PUSH1 0x3 DUP5 ADD SWAP1 DUP2 SLOAD SWAP1 PUSH1 0x1 DUP3 LT PUSH2 0x19FA JUMPI POP SWAP4 PUSH1 0x5 SWAP2 PUSH2 0x19F1 PUSH1 0x0 SWAP7 PUSH2 0x224A JUMP JUMPDEST SWAP1 SSTORE SWAP4 POP PUSH2 0x19C2 JUMP JUMPDEST PUSH1 0x64 SWAP1 PUSH1 0x40 MLOAD SWAP1 PUSH3 0x461BCD PUSH1 0xE5 SHL DUP3 MSTORE PUSH1 0x4 DUP3 ADD MSTORE PUSH1 0xC PUSH1 0x24 DUP3 ADD MSTORE PUSH12 0x1399595908191A585B5BDB99 PUSH1 0xA2 SHL PUSH1 0x44 DUP3 ADD MSTORE REVERT JUMPDEST PUSH1 0x40 MLOAD PUSH3 0x461BCD PUSH1 0xE5 SHL DUP2 MSTORE PUSH1 0x4 DUP2 ADD DUP5 SWAP1 MSTORE PUSH1 0x1A PUSH1 0x24 DUP3 ADD MSTORE PUSH32 0x4E6F7420726561647920666F7220626173696320726570616972000000000000 PUSH1 0x44 DUP3 ADD MSTORE PUSH1 0x64 SWAP1 REVERT JUMPDEST PUSH1 0x40 MLOAD PUSH3 0x461BCD PUSH1 0xE5 SHL DUP2 MSTORE PUSH1 0x4 DUP2 ADD DUP4 SWAP1 MSTORE PUSH1 0x10 PUSH1 0x24 DUP3 ADD MSTORE PUSH16 0x14DA1A5C081B9BDD081DDC9958DAD959 PUSH1 0x82 SHL PUSH1 0x44 DUP3 ADD MSTORE PUSH1 0x64 SWAP1 REVERT JUMPDEST CALLVALUE PUSH2 0x279 JUMPI PUSH1 0x20 CALLDATASIZE PUSH1 0x3 NOT ADD SLT PUSH2 0x279 JUMPI PUSH1 0x1 PUSH1 0x1 PUSH1 0xA0 SHL SUB PUSH2 0x1ACB PUSH2 0x1F50 JUMP JUMPDEST AND PUSH1 0x0 MSTORE PUSH1 0x2 PUSH1 0x20 MSTORE PUSH1 0x40 PUSH1 0x0 KECCAK256 PUSH2 0x1AE2 DUP2 PUSH2 0x1FC2 JUMP JUMPDEST SWAP1 PUSH1 0x1 DUP2 ADD SLOAD PUSH1 0xFF AND PUSH1 0xA0 MSTORE PUSH1 0x2 DUP2 ADD SLOAD PUSH1 0xE0 MSTORE PUSH1 0x3 DUP2 ADD SLOAD PUSH2 0x100 MSTORE PUSH1 0x4 DUP2 ADD SLOAD SWAP2 PUSH1 0x5 DUP3 ADD SLOAD PUSH1 0x6 DUP4 ADD SLOAD PUSH1 0x7 DUP5 ADD SLOAD PUSH1 0x8 DUP6 ADD SLOAD PUSH1 0x9 DUP7 ADD SLOAD PUSH1 0xA DUP8 ADD SLOAD SWAP1 PUSH1 0xB DUP9 ADD SLOAD SWAP3 PUSH1 0xC DUP10 ADD SLOAD SWAP5 PUSH1 0xD DUP11 ADD SLOAD SWAP7 PUSH1 0xE DUP12 ADD SLOAD SWAP9 PUSH1 0xF DUP13 ADD SLOAD SWAP11 PUSH1 0x10 DUP14 ADD SLOAD SWAP13 PUSH1 0x11 ADD SLOAD PUSH1 0x80 MSTORE PUSH1 0x40 MLOAD PUSH1 0xC0 MSTORE PUSH2 0x240 DUP1 PUSH1 0xC0 MLOAD MSTORE PUSH1 0xC0 MLOAD ADD PUSH2 0x1B6A SWAP2 PUSH2 0x2067 JUMP JUMPDEST SWAP13 PUSH1 0xA0 MLOAD ISZERO ISZERO PUSH1 0xC0 MLOAD PUSH1 0x20 ADD MSTORE PUSH1 0xE0 MLOAD PUSH1 0xC0 MLOAD PUSH1 0x40 ADD MSTORE PUSH2 0x100 MLOAD PUSH1 0xC0 MLOAD PUSH1 0x60 ADD MSTORE PUSH1 0xC0 MLOAD PUSH1 0x80 ADD MSTORE PUSH1 0xC0 MLOAD PUSH1 0xA0 ADD MSTORE PUSH1 0xC0 MLOAD PUSH1 0xC0 ADD MSTORE PUSH1 0xC0 MLOAD PUSH1 0xE0 ADD MSTORE PUSH1 0xC0 MLOAD PUSH2 0x100 ADD MSTORE PUSH1 0xC0 MLOAD PUSH2 0x120 ADD MSTORE PUSH1 0xC0 MLOAD PUSH2 0x140 ADD MSTORE PUSH1 0xC0 MLOAD PUSH2 0x160 ADD MSTORE PUSH1 0xC0 MLOAD PUSH2 0x180 ADD MSTORE PUSH1 0xC0 MLOAD PUSH2 0x1A0 ADD MSTORE PUSH1 0xC0 MLOAD PUSH2 0x1C0 ADD MSTORE PUSH1 0xC0 MLOAD PUSH2 0x1E0 ADD MSTORE PUSH1 0xC0 MLOAD PUSH2 0x200 ADD MSTORE PUSH1 0x80 MLOAD PUSH1 0xC0 MLOAD PUSH2 0x220 ADD MSTORE PUSH1 0xC0 MLOAD SWAP1 SUB PUSH1 0xC0 MLOAD RETURN JUMPDEST CALLVALUE PUSH2 0x279 JUMPI PUSH1 0x40 CALLDATASIZE PUSH1 0x3 NOT ADD SLT PUSH2 0x279 JUMPI PUSH1 0x24 CALLDATALOAD PUSH1 0x1 PUSH1 0x1 PUSH1 0xA0 SHL SUB DUP2 AND SWAP1 PUSH1 0x4 CALLDATALOAD SWAP1 DUP3 SWAP1 SUB PUSH2 0x279 JUMPI PUSH1 0x20 SWAP2 DUP2 PUSH2 0x59D SWAP3 PUSH1 0x0 MSTORE PUSH1 0x3 DUP5 MSTORE PUSH1 0x1 PUSH1 0x40 PUSH1 0x0 KECCAK256 ADD SLOAD SWAP2 PUSH2 0x1C53 DUP4 ISZERO ISZERO PUSH2 0x220A JUMP JUMPDEST PUSH1 0x0 MSTORE PUSH1 0x4 DUP5 MSTORE PUSH1 0x40 PUSH1 0x0 KECCAK256 SWAP1 PUSH1 0x0 MSTORE DUP4 MSTORE PUSH1 0x40 PUSH1 0x0 KECCAK256 SLOAD SWAP1 PUSH2 0x23FE JUMP JUMPDEST CALLVALUE PUSH2 0x279 JUMPI PUSH1 0x40 CALLDATASIZE PUSH1 0x3 NOT ADD SLT PUSH2 0x279 JUMPI PUSH1 0x1 PUSH1 0x1 PUSH1 0xA0 SHL SUB PUSH2 0x1C92 PUSH2 0x1F50 JUMP JUMPDEST AND PUSH1 0x0 MSTORE PUSH1 0x4 PUSH1 0x20 MSTORE PUSH1 0x40 PUSH1 0x0 KECCAK256 PUSH1 0x24 CALLDATALOAD PUSH1 0x0 MSTORE PUSH1 0x20 MSTORE PUSH1 0x20 PUSH1 0x40 PUSH1 0x0 KECCAK256 SLOAD PUSH1 0x40 MLOAD SWAP1 DUP2 MSTORE RETURN JUMPDEST CALLVALUE PUSH2 0x279 JUMPI PUSH1 0x0 CALLDATASIZE PUSH1 0x3 NOT ADD SLT PUSH2 0x279 JUMPI CALLER PUSH1 0x0 MSTORE PUSH1 0x2 PUSH1 0x20 MSTORE PUSH1 0x40 PUSH1 0x0 KECCAK256 PUSH2 0x1CE7 PUSH1 0x4 DUP3 ADD SLOAD ISZERO ISZERO PUSH2 0x21A2 JUMP JUMPDEST PUSH3 0x15180 DUP1 TIMESTAMP DIV PUSH1 0xD DUP4 ADD SWAP2 DUP3 SLOAD DIV DUP2 DUP2 LT ISZERO PUSH2 0x1DAE JUMPI PUSH1 0x0 NOT DUP3 ADD SWAP2 DUP3 GT PUSH2 0x7CF JUMPI SUB PUSH2 0x1DA2 JUMPI PUSH1 0xE DUP3 ADD DUP1 SLOAD SWAP1 PUSH1 0x1 DUP3 ADD DUP1 SWAP3 GT PUSH2 0x7CF JUMPI SSTORE JUMPDEST TIMESTAMP SWAP1 SSTORE PUSH1 0x9 DUP2 ADD SLOAD SWAP1 PUSH1 0x19 DUP3 MUL SWAP2 DUP1 DUP4 DIV PUSH1 0x19 EQ SWAP1 ISZERO OR ISZERO PUSH2 0x7CF JUMPI PUSH1 0xE DUP2 ADD SLOAD SWAP2 DUP3 PUSH1 0x5 MUL SWAP1 PUSH1 0x5 DUP3 DIV DUP5 SUB PUSH2 0x7CF JUMPI PUSH1 0x2 SWAP2 PUSH2 0x1D60 SWAP2 PUSH2 0x21FD JUMP JUMPDEST SWAP2 ADD PUSH2 0x1D6D DUP3 DUP3 SLOAD PUSH2 0x21FD JUMP JUMPDEST SWAP1 SSTORE PUSH1 0x40 MLOAD SWAP2 DUP3 MSTORE PUSH1 0x20 DUP3 ADD MSTORE PUSH32 0xB9CFEA4717F167774A6E8643C33472935D3EF918453525EEFCA6936078B7CFDD PUSH1 0x40 CALLER SWAP3 LOG2 STOP JUMPDEST PUSH1 0x1 PUSH1 0xE DUP4 ADD SSTORE PUSH2 0x1D23 JUMP JUMPDEST PUSH1 0x40 MLOAD PUSH3 0x461BCD PUSH1 0xE5 SHL DUP2 MSTORE PUSH1 0x20 PUSH1 0x4 DUP3 ADD MSTORE PUSH1 0x18 PUSH1 0x24 DUP3 ADD MSTORE PUSH32 0x416C726561647920636865636B656420696E20746F6461790000000000000000 PUSH1 0x44 DUP3 ADD MSTORE PUSH1 0x64 SWAP1 REVERT JUMPDEST CALLVALUE PUSH2 0x279 JUMPI PUSH1 0x0 CALLDATASIZE PUSH1 0x3 NOT ADD SLT PUSH2 0x279 JUMPI PUSH2 0x1E0C PUSH2 0x23DB JUMP JUMPDEST CALLER PUSH1 0x0 MSTORE PUSH1 0x2 PUSH1 0x20 MSTORE PUSH1 0x40 PUSH1 0x0 KECCAK256 PUSH2 0x1E29 PUSH1 0x4 DUP3 ADD SLOAD ISZERO ISZERO PUSH2 0x21A2 JUMP JUMPDEST PUSH1 0xC DUP2 ADD SLOAD DUP1 ISZERO PUSH2 0x1F19 JUMPI PUSH1 0x11 DUP3 ADD PUSH2 0x1E43 DUP2 SLOAD TIMESTAMP PUSH2 0x21DD JUMP JUMPDEST SWAP2 DUP3 ISZERO PUSH2 0x1EE2 JUMPI PUSH2 0x1E58 SWAP1 PUSH1 0x3C DUP5 DIV SWAP1 PUSH2 0x21EA JUMP JUMPDEST SWAP3 DUP4 ISZERO PUSH2 0x1EAA JUMPI PUSH1 0x2 SWAP2 TIMESTAMP SWAP1 SSTORE ADD PUSH2 0x1E71 DUP4 DUP3 SLOAD PUSH2 0x21FD JUMP JUMPDEST SWAP1 SSTORE PUSH1 0x40 MLOAD SWAP2 DUP3 MSTORE PUSH1 0x20 DUP3 ADD MSTORE PUSH32 0x6ED0C81F2EB08CA19CF12AAB8DFA5D3566D3140926B3E0035B8423029996C185 PUSH1 0x40 CALLER SWAP3 LOG2 PUSH1 0x1 DUP1 SSTORE STOP JUMPDEST PUSH1 0x40 MLOAD PUSH3 0x461BCD PUSH1 0xE5 SHL DUP2 MSTORE PUSH1 0x20 PUSH1 0x4 DUP3 ADD MSTORE PUSH1 0x10 PUSH1 0x24 DUP3 ADD MSTORE PUSH16 0x4E6F20676F6C6420746F20636C61696D PUSH1 0x80 SHL PUSH1 0x44 DUP3 ADD MSTORE PUSH1 0x64 SWAP1 REVERT JUMPDEST PUSH1 0x40 MLOAD PUSH3 0x461BCD PUSH1 0xE5 SHL DUP2 MSTORE PUSH1 0x20 PUSH1 0x4 DUP3 ADD MSTORE PUSH1 0xF PUSH1 0x24 DUP3 ADD MSTORE PUSH15 0x139BC81D1A5B5948195B185C1CD959 PUSH1 0x8A SHL PUSH1 0x44 DUP3 ADD MSTORE PUSH1 0x64 SWAP1 REVERT JUMPDEST PUSH1 0x40 MLOAD PUSH3 0x461BCD PUSH1 0xE5 SHL DUP2 MSTORE PUSH1 0x20 PUSH1 0x4 DUP3 ADD MSTORE PUSH1 0xF PUSH1 0x24 DUP3 ADD MSTORE PUSH15 0x4E6F2047504D20746F20636C61696D PUSH1 0x88 SHL PUSH1 0x44 DUP3 ADD MSTORE PUSH1 0x64 SWAP1 REVERT JUMPDEST PUSH1 0x4 CALLDATALOAD SWAP1 PUSH1 0x1 PUSH1 0x1 PUSH1 0xA0 SHL SUB DUP3 AND DUP3 SUB PUSH2 0x279 JUMPI JUMP JUMPDEST SWAP1 PUSH1 0x1 DUP3 DUP2 SHR SWAP3 AND DUP1 ISZERO PUSH2 0x1F96 JUMPI JUMPDEST PUSH1 0x20 DUP4 LT EQ PUSH2 0x1F80 JUMPI JUMP JUMPDEST PUSH4 0x4E487B71 PUSH1 0xE0 SHL PUSH1 0x0 MSTORE PUSH1 0x22 PUSH1 0x4 MSTORE PUSH1 0x24 PUSH1 0x0 REVERT JUMPDEST SWAP2 PUSH1 0x7F AND SWAP2 PUSH2 0x1F75 JUMP JUMPDEST SWAP1 PUSH1 0x1F DUP1 NOT SWAP2 ADD AND DUP2 ADD SWAP1 DUP2 LT PUSH8 0xFFFFFFFFFFFFFFFF DUP3 GT OR PUSH2 0x564 JUMPI PUSH1 0x40 MSTORE JUMP JUMPDEST SWAP1 PUSH1 0x40 MLOAD SWAP2 DUP3 PUSH1 0x0 DUP3 SLOAD PUSH2 0x1FD5 DUP2 PUSH2 0x1F66 JUMP JUMPDEST SWAP1 DUP2 DUP5 MSTORE PUSH1 0x20 SWAP5 PUSH1 0x1 SWAP2 PUSH1 0x1 DUP2 AND SWAP1 DUP2 PUSH1 0x0 EQ PUSH2 0x2045 JUMPI POP PUSH1 0x1 EQ PUSH2 0x2006 JUMPI JUMPDEST POP POP POP PUSH2 0x2004 SWAP3 POP SUB DUP4 PUSH2 0x1FA0 JUMP JUMPDEST JUMP JUMPDEST PUSH1 0x0 SWAP1 DUP2 MSTORE DUP6 DUP2 KECCAK256 SWAP6 SWAP4 POP SWAP2 SWAP1 JUMPDEST DUP2 DUP4 LT PUSH2 0x202D JUMPI POP POP PUSH2 0x2004 SWAP4 POP DUP3 ADD ADD CODESIZE DUP1 DUP1 PUSH2 0x1FF5 JUMP JUMPDEST DUP6 SLOAD DUP9 DUP5 ADD DUP6 ADD MSTORE SWAP5 DUP6 ADD SWAP5 DUP8 SWAP5 POP SWAP2 DUP4 ADD SWAP2 PUSH2 0x2014 JUMP JUMPDEST SWAP3 POP POP POP PUSH2 0x2004 SWAP5 SWAP3 POP PUSH1 0xFF NOT AND DUP3 DUP5 ADD MSTORE ISZERO ISZERO PUSH1 0x5 SHL DUP3 ADD ADD CODESIZE DUP1 DUP1 PUSH2 0x1FF5 JUMP JUMPDEST SWAP2 SWAP1 DUP3 MLOAD SWAP3 DUP4 DUP3 MSTORE PUSH1 0x0 JUMPDEST DUP5 DUP2 LT PUSH2 0x2093 JUMPI POP POP DUP3 PUSH1 0x0 PUSH1 0x20 DUP1 SWAP5 SWAP6 DUP5 ADD ADD MSTORE PUSH1 0x1F DUP1 NOT SWAP2 ADD AND ADD ADD SWAP1 JUMP JUMPDEST PUSH1 0x20 DUP2 DUP4 ADD DUP2 ADD MLOAD DUP5 DUP4 ADD DUP3 ADD MSTORE ADD PUSH2 0x2072 JUMP JUMPDEST PUSH1 0x24 CALLDATALOAD SWAP1 DUP2 ISZERO ISZERO DUP3 SUB PUSH2 0x279 JUMPI JUMP JUMPDEST SWAP2 DUP2 PUSH1 0x1F DUP5 ADD SLT ISZERO PUSH2 0x279 JUMPI DUP3 CALLDATALOAD SWAP2 PUSH8 0xFFFFFFFFFFFFFFFF DUP4 GT PUSH2 0x279 JUMPI PUSH1 0x20 DUP4 DUP2 DUP7 ADD SWAP6 ADD ADD GT PUSH2 0x279 JUMPI JUMP JUMPDEST SWAP1 DUP2 MLOAD DUP1 DUP3 MSTORE PUSH1 0x20 DUP1 DUP1 SWAP4 ADD SWAP4 ADD SWAP2 PUSH1 0x0 JUMPDEST DUP3 DUP2 LT PUSH2 0x2104 JUMPI POP POP POP POP SWAP1 JUMP JUMPDEST DUP4 MLOAD PUSH1 0x1 PUSH1 0x1 PUSH1 0xA0 SHL SUB AND DUP6 MSTORE SWAP4 DUP2 ADD SWAP4 SWAP3 DUP2 ADD SWAP3 PUSH1 0x1 ADD PUSH2 0x20F6 JUMP JUMPDEST SWAP1 DUP2 MLOAD DUP1 DUP3 MSTORE PUSH1 0x20 DUP1 DUP1 SWAP4 ADD SWAP4 ADD SWAP2 PUSH1 0x0 JUMPDEST DUP3 DUP2 LT PUSH2 0x2141 JUMPI POP POP POP POP SWAP1 JUMP JUMPDEST DUP4 MLOAD DUP6 MSTORE SWAP4 DUP2 ADD SWAP4 SWAP3 DUP2 ADD SWAP3 PUSH1 0x1 ADD PUSH2 0x2133 JUMP JUMPDEST PUSH1 0x6 SLOAD DUP2 LT ISZERO PUSH2 0x218C JUMPI PUSH1 0x6 PUSH1 0x0 MSTORE PUSH32 0xF652222313E28459528D920B65115C16C04F3EFC82AAEDC97BE59F3F377C0D3F ADD SWAP1 PUSH1 0x0 SWAP1 JUMP JUMPDEST PUSH4 0x4E487B71 PUSH1 0xE0 SHL PUSH1 0x0 MSTORE PUSH1 0x32 PUSH1 0x4 MSTORE PUSH1 0x24 PUSH1 0x0 REVERT JUMPDEST ISZERO PUSH2 0x21A9 JUMPI JUMP JUMPDEST PUSH1 0x40 MLOAD PUSH3 0x461BCD PUSH1 0xE5 SHL DUP2 MSTORE PUSH1 0x20 PUSH1 0x4 DUP3 ADD MSTORE PUSH1 0xC PUSH1 0x24 DUP3 ADD MSTORE PUSH12 0x14DA1A5C081DDC9958DAD959 PUSH1 0xA2 SHL PUSH1 0x44 DUP3 ADD MSTORE PUSH1 0x64 SWAP1 REVERT JUMPDEST SWAP2 SWAP1 DUP3 SUB SWAP2 DUP3 GT PUSH2 0x7CF JUMPI JUMP JUMPDEST DUP2 DUP2 MUL SWAP3 SWAP2 DUP2 ISZERO SWAP2 DUP5 DIV EQ OR ISZERO PUSH2 0x7CF JUMPI JUMP JUMPDEST SWAP2 SWAP1 DUP3 ADD DUP1 SWAP3 GT PUSH2 0x7CF JUMPI JUMP JUMPDEST ISZERO PUSH2 0x2211 JUMPI JUMP JUMPDEST PUSH1 0x40 MLOAD PUSH3 0x461BCD PUSH1 0xE5 SHL DUP2 MSTORE PUSH1 0x20 PUSH1 0x4 DUP3 ADD MSTORE PUSH1 0x11 PUSH1 0x24 DUP3 ADD MSTORE PUSH17 0x155C19DC985919481B9BDD08195E1A5CDD PUSH1 0x7A SHL PUSH1 0x44 DUP3 ADD MSTORE PUSH1 0x64 SWAP1 REVERT JUMPDEST DUP1 ISZERO PUSH2 0x7CF JUMPI PUSH1 0x0 NOT ADD SWAP1 JUMP JUMPDEST PUSH1 0x1 PUSH1 0x1 PUSH1 0xA0 SHL SUB AND PUSH1 0x0 SWAP1 DUP2 MSTORE PUSH1 0x2 PUSH1 0x20 MSTORE PUSH1 0x40 SWAP1 KECCAK256 PUSH1 0x4 DUP2 ADD SLOAD ISZERO DUP1 ISZERO PUSH2 0x22A7 JUMPI JUMPDEST PUSH2 0x22A1 JUMPI DUP1 PUSH1 0xC PUSH1 0x3C PUSH2 0x2295 PUSH1 0x11 PUSH2 0x229E SWAP6 ADD SLOAD TIMESTAMP PUSH2 0x21DD JUMP JUMPDEST DIV SWAP2 ADD SLOAD PUSH2 0x21EA JUMP JUMPDEST SWAP1 JUMP JUMPDEST POP PUSH1 0x0 SWAP1 JUMP JUMPDEST POP PUSH1 0xC DUP2 ADD SLOAD ISZERO PUSH2 0x227B JUMP JUMPDEST PUSH1 0x0 NOT DUP2 EQ PUSH2 0x7CF JUMPI PUSH1 0x1 ADD SWAP1 JUMP JUMPDEST SWAP3 SWAP2 SWAP3 PUSH8 0xFFFFFFFFFFFFFFFF DUP3 GT PUSH2 0x564 JUMPI PUSH1 0x40 MLOAD SWAP2 PUSH2 0x22EC PUSH1 0x1F DUP3 ADD PUSH1 0x1F NOT AND PUSH1 0x20 ADD DUP5 PUSH2 0x1FA0 JUMP JUMPDEST DUP3 SWAP5 DUP2 DUP5 MSTORE DUP2 DUP4 ADD GT PUSH2 0x279 JUMPI DUP3 DUP2 PUSH1 0x20 SWAP4 DUP5 PUSH1 0x0 SWAP7 ADD CALLDATACOPY ADD ADD MSTORE JUMP JUMPDEST SWAP1 DUP1 PUSH1 0x20 SWAP4 SWAP3 DUP2 DUP5 MSTORE DUP5 DUP5 ADD CALLDATACOPY PUSH1 0x0 DUP3 DUP3 ADD DUP5 ADD MSTORE PUSH1 0x1F ADD PUSH1 0x1F NOT AND ADD ADD SWAP1 JUMP JUMPDEST PUSH8 0xFFFFFFFFFFFFFFFF DUP2 GT PUSH2 0x564 JUMPI PUSH1 0x5 SHL PUSH1 0x20 ADD SWAP1 JUMP JUMPDEST SWAP1 PUSH2 0x234C DUP3 PUSH2 0x232A JUMP JUMPDEST PUSH2 0x2359 PUSH1 0x40 MLOAD SWAP2 DUP3 PUSH2 0x1FA0 JUMP JUMPDEST DUP3 DUP2 MSTORE DUP1 SWAP3 PUSH2 0x236A PUSH1 0x1F NOT SWAP2 PUSH2 0x232A JUMP JUMPDEST ADD SWAP1 PUSH1 0x20 CALLDATASIZE SWAP2 ADD CALLDATACOPY JUMP JUMPDEST DUP1 MLOAD DUP3 LT ISZERO PUSH2 0x218C JUMPI PUSH1 0x20 SWAP2 PUSH1 0x5 SHL ADD ADD SWAP1 JUMP JUMPDEST PUSH1 0x1 PUSH1 0x1 PUSH1 0xA0 SHL SUB AND PUSH1 0x0 SWAP1 DUP2 MSTORE PUSH1 0x2 PUSH1 0x20 MSTORE PUSH1 0x40 SWAP1 KECCAK256 PUSH1 0x4 DUP2 ADD SLOAD ISZERO DUP1 ISZERO PUSH2 0x23CF JUMPI JUMPDEST PUSH2 0x22A1 JUMPI PUSH2 0x23C0 PUSH1 0x11 PUSH1 0x3C SWAP3 ADD SLOAD TIMESTAMP PUSH2 0x21DD JUMP JUMPDEST MOD PUSH1 0x3C SUB PUSH1 0x3C DUP2 GT PUSH2 0x7CF JUMPI SWAP1 JUMP JUMPDEST POP PUSH1 0xC DUP2 ADD SLOAD ISZERO PUSH2 0x23AC JUMP JUMPDEST PUSH1 0x2 PUSH1 0x1 SLOAD EQ PUSH2 0x23EC JUMPI PUSH1 0x2 PUSH1 0x1 SSTORE JUMP JUMPDEST PUSH1 0x40 MLOAD PUSH4 0x3EE5AEB5 PUSH1 0xE0 SHL DUP2 MSTORE PUSH1 0x4 SWAP1 REVERT JUMPDEST DUP2 ISZERO PUSH2 0x246D JUMPI PUSH1 0x1 SWAP2 PUSH1 0x1 SWAP3 PUSH1 0x0 SWAP2 JUMPDEST DUP1 DUP4 LT PUSH2 0x2438 JUMPI POP POP POP DUP2 ISZERO PUSH2 0x2422 JUMPI DIV SWAP1 JUMP JUMPDEST PUSH4 0x4E487B71 PUSH1 0xE0 SHL PUSH1 0x0 MSTORE PUSH1 0x12 PUSH1 0x4 MSTORE PUSH1 0x24 PUSH1 0x0 REVERT JUMPDEST SWAP1 SWAP2 SWAP4 SWAP3 PUSH1 0xF SWAP1 DUP2 DUP2 MUL SWAP2 DUP2 DUP4 DIV EQ SWAP1 ISZERO OR ISZERO PUSH2 0x7CF JUMPI SWAP3 PUSH1 0xA SWAP1 DUP2 DUP2 MUL SWAP2 DUP2 DUP4 DIV EQ SWAP1 ISZERO OR ISZERO PUSH2 0x7CF JUMPI SWAP4 DUP3 ADD SWAP2 SWAP1 PUSH2 0x240E JUMP JUMPDEST SWAP1 POP SWAP1 JUMP JUMPDEST PUSH1 0x1 PUSH1 0x1 PUSH1 0xA0 SHL SUB AND PUSH1 0x0 DUP2 DUP2 MSTORE PUSH1 0x2 PUSH1 0x20 MSTORE PUSH1 0x40 SWAP1 KECCAK256 PUSH1 0x4 DUP2 ADD SLOAD ISZERO DUP1 ISZERO PUSH2 0x2526 JUMPI JUMPDEST PUSH2 0x2522 JUMPI PUSH1 0x11 DUP2 ADD SWAP1 PUSH2 0x24AA DUP3 SLOAD TIMESTAMP PUSH2 0x21DD JUMP JUMPDEST DUP1 ISZERO PUSH2 0x251C JUMPI PUSH2 0x24C1 PUSH1 0x3C DUP3 DIV PUSH1 0xC DUP5 ADD SLOAD PUSH2 0x21EA JUMP JUMPDEST SWAP1 DUP2 PUSH2 0x24CF JUMPI JUMPDEST POP POP POP POP POP JUMP JUMPDEST PUSH1 0x2 PUSH1 0x40 SWAP4 PUSH32 0x6ED0C81F2EB08CA19CF12AAB8DFA5D3566D3140926B3E0035B8423029996C185 SWAP6 TIMESTAMP SWAP1 SSTORE ADD PUSH2 0x2505 DUP4 DUP3 SLOAD PUSH2 0x21FD JUMP JUMPDEST SWAP1 SSTORE DUP3 MLOAD SWAP2 DUP3 MSTORE PUSH1 0x20 DUP3 ADD MSTORE LOG2 CODESIZE DUP1 DUP1 DUP1 DUP1 PUSH2 0x24C8 JUMP JUMPDEST POP POP POP POP JUMP JUMPDEST POP POP JUMP JUMPDEST POP PUSH1 0xC DUP2 ADD SLOAD ISZERO PUSH2 0x2496 JUMP JUMPDEST PUSH1 0x0 SLOAD PUSH1 0x1 PUSH1 0x1 PUSH1 0xA0 SHL SUB AND CALLER SUB PUSH2 0x2546 JUMPI JUMP JUMPDEST PUSH1 0x40 MLOAD PUSH4 0x118CDAA7 PUSH1 0xE0 SHL DUP2 MSTORE CALLER PUSH1 0x4 DUP3 ADD MSTORE PUSH1 0x24 SWAP1 REVERT JUMPDEST PUSH1 0x6 DUP1 SLOAD PUSH1 0x1 SWAP1 DUP2 DUP2 LT ISZERO PUSH2 0x271D JUMPI DUP1 JUMPDEST PUSH2 0x2578 DUP2 PUSH2 0x2342 JUMP JUMPDEST SWAP4 PUSH2 0x2582 DUP3 PUSH2 0x2342 JUMP JUMPDEST PUSH1 0x0 JUMPDEST DUP5 DUP2 LT PUSH2 0x25C0 JUMPI POP POP POP POP POP POP DUP1 MLOAD ISZERO DUP1 ISZERO PUSH2 0x25AC JUMPI POP POP PUSH1 0x0 SLOAD PUSH1 0x1 PUSH1 0x1 PUSH1 0xA0 SHL SUB AND SWAP1 JUMP JUMPDEST PUSH2 0x218C JUMPI PUSH1 0x20 ADD MLOAD PUSH1 0x1 PUSH1 0x1 PUSH1 0xA0 SHL SUB AND SWAP1 JUMP JUMPDEST DUP1 PUSH2 0x25CB DUP8 SWAP3 PUSH2 0x2155 JUMP JUMPDEST PUSH1 0x1 DUP1 PUSH1 0xA0 SHL SUB DUP1 SWAP3 SLOAD PUSH1 0x3 SWAP3 DUP4 SHL SHR AND PUSH1 0x0 MSTORE PUSH2 0x263F PUSH1 0x2 PUSH1 0x8 PUSH1 0x20 SWAP2 DUP1 DUP4 MSTORE PUSH1 0x40 SWAP1 PUSH2 0x261E DUP12 DUP4 PUSH1 0x0 KECCAK256 ADD SLOAD DUP9 PUSH2 0x2603 DUP12 PUSH2 0x2155 JUMP JUMPDEST SWAP1 SLOAD SWAP1 DUP11 SHL SHR AND PUSH1 0x0 MSTORE DUP3 DUP7 MSTORE PUSH1 0x7 DUP5 PUSH1 0x0 KECCAK256 ADD SLOAD SWAP1 PUSH2 0x21FD JUMP JUMPDEST SWAP4 DUP8 PUSH2 0x2629 DUP11 PUSH2 0x2155 JUMP JUMPDEST SWAP1 SLOAD SWAP1 DUP10 SHL SHR AND PUSH1 0x0 MSTORE MSTORE PUSH1 0x0 KECCAK256 ADD SLOAD SWAP1 PUSH2 0x21FD JUMP JUMPDEST SWAP1 PUSH1 0x0 JUMPDEST DUP9 DUP2 LT PUSH2 0x2655 JUMPI JUMPDEST POP POP POP POP ADD PUSH2 0x2585 JUMP JUMPDEST PUSH2 0x2665 DUP2 DUP9 SWAP8 SWAP4 SWAP5 SWAP6 SWAP7 SWAP8 PUSH2 0x2374 JUMP JUMPDEST MLOAD DUP5 GT PUSH2 0x2678 JUMPI ADD SWAP1 DUP10 SWAP5 SWAP4 SWAP3 SWAP2 PUSH2 0x2643 JUMP JUMPDEST SWAP3 SWAP4 SWAP2 SWAP1 POP PUSH1 0x0 NOT DUP9 DUP2 ADD DUP10 DUP2 GT PUSH2 0x7CF JUMPI SWAP1 DUP12 SWAP7 SWAP6 SWAP5 SWAP4 SWAP3 SWAP2 JUMPDEST DUP5 DUP2 GT PUSH2 0x26CC JUMPI POP POP SWAP1 PUSH2 0x26C2 SWAP3 SWAP2 PUSH2 0x26AB DUP7 PUSH2 0x2155 JUMP JUMPDEST SWAP1 SLOAD SWAP2 SHL SHR AND PUSH2 0x26BB DUP3 DUP14 PUSH2 0x2374 JUMP JUMPDEST MSTORE DUP6 PUSH2 0x2374 JUMP JUMPDEST MSTORE CODESIZE DUP1 DUP1 DUP1 PUSH2 0x264B JUMP JUMPDEST SWAP1 DUP1 SWAP3 SWAP4 SWAP5 SWAP6 SWAP7 SWAP8 POP DUP2 ADD SWAP1 DUP1 DUP3 GT PUSH2 0x7CF JUMPI PUSH2 0x2705 DUP3 DUP16 PUSH2 0x26FE DUP5 DUP10 PUSH2 0x26F6 PUSH2 0x2710 SWAP9 DUP6 PUSH2 0x2374 JUMP JUMPDEST MLOAD AND SWAP3 PUSH2 0x2374 JUMP JUMPDEST MSTORE DUP11 PUSH2 0x2374 JUMP JUMPDEST MLOAD PUSH2 0xAD4 DUP3 DUP12 PUSH2 0x2374 JUMP JUMPDEST SWAP1 DUP12 SWAP7 SWAP6 SWAP5 SWAP4 SWAP3 SWAP2 PUSH2 0x2693 JUMP JUMPDEST PUSH1 0x1 PUSH2 0x256F JUMP JUMPDEST PUSH1 0x6 DUP1 SLOAD PUSH1 0x2 SWAP2 SWAP1 DUP3 DUP2 LT ISZERO PUSH2 0x2883 JUMPI DUP1 JUMPDEST PUSH2 0x273F DUP2 PUSH2 0x2342 JUMP JUMPDEST SWAP4 PUSH2 0x2749 DUP3 PUSH2 0x2342 JUMP JUMPDEST SWAP1 PUSH1 0x0 JUMPDEST DUP5 DUP2 LT PUSH2 0x278D JUMPI POP POP POP POP POP POP DUP1 MLOAD PUSH1 0x1 DUP2 GT PUSH2 0x2775 JUMPI POP POP PUSH1 0x0 SLOAD PUSH1 0x1 PUSH1 0x1 PUSH1 0xA0 SHL SUB AND SWAP1 JUMP JUMPDEST PUSH1 0x1 LT ISZERO PUSH2 0x218C JUMPI PUSH1 0x40 ADD MLOAD PUSH1 0x1 PUSH1 0x1 PUSH1 0xA0 SHL SUB AND SWAP1 JUMP JUMPDEST PUSH2 0x2796 DUP2 PUSH2 0x2155 JUMP JUMPDEST PUSH1 0x1 DUP1 PUSH1 0xA0 SHL SUB DUP1 SWAP3 SLOAD PUSH1 0x3 SWAP3 DUP4 SHL SHR AND PUSH1 0x0 MSTORE PUSH2 0x27CB PUSH1 0x20 DUP6 DUP2 MSTORE PUSH1 0x8 PUSH1 0x40 DUP8 PUSH2 0x261E DUP14 DUP4 PUSH1 0x0 KECCAK256 ADD SLOAD DUP9 PUSH2 0x2603 DUP12 PUSH2 0x2155 JUMP JUMPDEST SWAP1 PUSH1 0x0 JUMPDEST DUP8 DUP2 LT PUSH2 0x27E3 JUMPI JUMPDEST POP POP POP POP PUSH1 0x1 ADD PUSH2 0x274D JUMP JUMPDEST PUSH2 0x27ED DUP2 DUP9 PUSH2 0x2374 JUMP JUMPDEST MLOAD DUP4 GT PUSH2 0x27FC JUMPI PUSH1 0x1 ADD PUSH2 0x27CF JUMP JUMPDEST SWAP2 SWAP3 SWAP1 PUSH1 0x0 NOT DUP9 DUP2 ADD DUP10 DUP2 GT PUSH2 0x7CF JUMPI JUMPDEST DUP5 DUP2 GT PUSH2 0x284A JUMPI POP POP SWAP2 PUSH2 0x2840 SWAP2 DUP6 SWAP5 SWAP4 PUSH2 0x2829 PUSH1 0x1 SWAP8 PUSH2 0x2155 JUMP JUMPDEST SWAP1 SLOAD SWAP2 SHL SHR AND PUSH2 0x2839 DUP3 DUP14 PUSH2 0x2374 JUMP JUMPDEST MSTORE DUP7 PUSH2 0x2374 JUMP JUMPDEST MSTORE SWAP1 CODESIZE DUP1 DUP1 PUSH2 0x27D7 JUMP JUMPDEST DUP2 DUP2 ADD SWAP1 DUP1 DUP3 GT PUSH2 0x7CF JUMPI PUSH2 0x2873 DUP3 DUP16 PUSH2 0x286C DUP5 DUP10 PUSH2 0x26F6 PUSH2 0x287E SWAP9 DUP6 PUSH2 0x2374 JUMP JUMPDEST MSTORE DUP12 PUSH2 0x2374 JUMP JUMPDEST MLOAD PUSH2 0xAD4 DUP3 DUP13 PUSH2 0x2374 JUMP JUMPDEST PUSH2 0x280D JUMP JUMPDEST PUSH1 0x2 PUSH2 0x2736 JUMP JUMPDEST PUSH1 0x6 DUP1 SLOAD PUSH1 0x3 SWAP2 SWAP1 DUP3 DUP2 LT ISZERO PUSH2 0x2A11 JUMPI DUP1 JUMPDEST PUSH2 0x28A5 DUP2 PUSH2 0x2342 JUMP JUMPDEST SWAP4 PUSH2 0x28AF DUP3 PUSH2 0x2342 JUMP JUMPDEST PUSH1 0x0 JUMPDEST DUP5 DUP2 LT PUSH2 0x28F2 JUMPI POP POP POP POP POP POP DUP1 MLOAD PUSH1 0x2 DUP2 GT PUSH2 0x28DA JUMPI POP POP PUSH1 0x0 SLOAD PUSH1 0x1 PUSH1 0x1 PUSH1 0xA0 SHL SUB AND SWAP1 JUMP JUMPDEST PUSH1 0x2 LT ISZERO PUSH2 0x218C JUMPI PUSH1 0x60 ADD MLOAD PUSH1 0x1 PUSH1 0x1 PUSH1 0xA0 SHL SUB AND SWAP1 JUMP JUMPDEST PUSH2 0x28FB DUP2 PUSH2 0x2155 JUMP JUMPDEST SWAP1 PUSH1 0x1 DUP1 PUSH1 0xA0 SHL SUB SWAP2 DUP3 SWAP2 SLOAD SWAP1 DUP7 SHL SHR AND PUSH1 0x0 MSTORE PUSH2 0x296F PUSH1 0x2 PUSH1 0x8 PUSH1 0x20 SWAP2 DUP1 DUP4 MSTORE PUSH1 0x40 SWAP1 PUSH2 0x294E DUP13 DUP4 PUSH1 0x0 KECCAK256 ADD SLOAD DUP8 PUSH2 0x2933 DUP11 PUSH2 0x2155 JUMP JUMPDEST SWAP1 SLOAD SWAP1 DUP14 SHL SHR AND PUSH1 0x0 MSTORE DUP3 DUP7 MSTORE PUSH1 0x7 DUP5 PUSH1 0x0 KECCAK256 ADD SLOAD SWAP1 PUSH2 0x21FD JUMP JUMPDEST SWAP4 DUP7 PUSH2 0x2959 DUP10 PUSH2 0x2155 JUMP JUMPDEST SWAP1 SLOAD SWAP1 DUP13 SHL SHR AND PUSH1 0x0 MSTORE MSTORE PUSH1 0x0 KECCAK256 ADD SLOAD SWAP1 PUSH2 0x21FD JUMP JUMPDEST PUSH1 0x0 JUMPDEST DUP7 DUP2 LT PUSH2 0x2985 JUMPI JUMPDEST POP POP POP PUSH1 0x1 ADD PUSH2 0x28B2 JUMP JUMPDEST PUSH2 0x298F DUP2 DUP7 PUSH2 0x2374 JUMP JUMPDEST MLOAD DUP3 GT PUSH2 0x299E JUMPI PUSH1 0x1 ADD PUSH2 0x2972 JUMP JUMPDEST SWAP1 SWAP2 PUSH1 0x0 NOT DUP8 DUP2 ADD DUP9 DUP2 GT PUSH2 0x7CF JUMPI JUMPDEST DUP4 DUP2 GT PUSH2 0x29E3 JUMPI POP POP DUP4 SWAP3 SWAP2 PUSH2 0x29DA SWAP2 PUSH2 0x29C9 PUSH1 0x1 SWAP7 PUSH2 0x2155 JUMP JUMPDEST SWAP1 SLOAD SWAP1 DUP10 SHL SHR AND PUSH2 0x26BB DUP3 DUP14 PUSH2 0x2374 JUMP JUMPDEST MSTORE SWAP1 CODESIZE DUP1 PUSH2 0x297A JUMP JUMPDEST DUP2 DUP2 ADD SWAP1 DUP1 DUP3 GT PUSH2 0x7CF JUMPI PUSH2 0xAC9 DUP3 DUP15 PUSH2 0x2A05 DUP5 DUP9 PUSH2 0x26F6 PUSH2 0x2A0C SWAP9 DUP6 PUSH2 0x2374 JUMP JUMPDEST MSTORE DUP10 PUSH2 0x2374 JUMP JUMPDEST PUSH2 0x29AE JUMP JUMPDEST DUP3 PUSH2 0x289C JUMP INVALID LOG2 PUSH5 0x6970667358 0x22 SLT KECCAK256 0xA5 ORIGIN DUP14 PUSH19 0x4DF8F1C25BEA62D243E9B421EBFBF4D368100B PUSH29 0xB385786AEFD63ACF64736F6C6343000818003300000000000000000000 "},"methodIdentifiers":{"accounts(address)":"5e5c06e2","addUpgrade(string,uint256,uint256,uint256,uint256,uint256,uint256,uint256)":"ece2e4ba","attack(address)":"d018db3e","buyUpgrade(uint256)":"a5a2cb19","checkIn()":"183ff085","claimGPM()":"1771ec63","createAccount(string,bool,uint256)":"ab2611ee","getClaimableGold(address)":"68780125","getRanking(uint256)":"bea2dc14","getShipsAt(uint256)":"b7df5b5d","getTimeUntilNextGPM(address)":"d85bf0b1","getUpgradeCost(uint256,address)":"5722bb51","nextUpgradeId()":"d2fabb18","owner()":"8da5cb5b","players(uint256)":"f71d96cb","purchaseCounts(address,uint256)":"35d93897","renounceOwnership()":"715018a6","repairShip(bool,bool)":"683591a8","rescueXTZ()":"d4826b6c","transferOwnership(address)":"f2fde38b","travel(uint256,bool)":"74aa3a98","upgrades(uint256)":"7386bbc5"}}}}}