{"contracts/SeasOfLinkardia.sol":{"SeasOfLinkardia":{"abi":[{"inputs":[],"stateMutability":"nonpayable","type":"constructor"},{"inputs":[{"internalType":"address","name":"owner","type":"address"}],"name":"OwnableInvalidOwner","type":"error"},{"inputs":[{"internalType":"address","name":"account","type":"address"}],"name":"OwnableUnauthorizedAccount","type":"error"},{"inputs":[],"name":"ReentrancyGuardReentrantCall","type":"error"},{"anonymous":false,"inputs":[{"indexed":true,"internalType":"address","name":"user","type":"address"},{"indexed":false,"internalType":"string","name":"boatName","type":"string"},{"indexed":false,"internalType":"bool","name":"isPirate","type":"bool"}],"name":"AccountCreated","type":"event"},{"anonymous":false,"inputs":[{"indexed":true,"internalType":"address","name":"user","type":"address"},{"indexed":false,"internalType":"uint256","name":"streak","type":"uint256"},{"indexed":false,"internalType":"uint256","name":"reward","type":"uint256"}],"name":"CheckIn","type":"event"},{"anonymous":false,"inputs":[{"indexed":true,"internalType":"address","name":"user","type":"address"},{"indexed":false,"internalType":"uint256","name":"crewHired","type":"uint256"},{"indexed":false,"internalType":"uint256","name":"cost","type":"uint256"}],"name":"CrewHired","type":"event"},{"anonymous":false,"inputs":[{"indexed":true,"internalType":"address","name":"user","type":"address"},{"indexed":false,"internalType":"uint256","name":"amount","type":"uint256"},{"indexed":false,"internalType":"uint256","name":"timeElapsed","type":"uint256"}],"name":"GPMClaimed","type":"event"},{"anonymous":false,"inputs":[{"indexed":true,"internalType":"address","name":"previousOwner","type":"address"},{"indexed":true,"internalType":"address","name":"newOwner","type":"address"}],"name":"OwnershipTransferred","type":"event"},{"anonymous":false,"inputs":[{"indexed":true,"internalType":"address","name":"attacker","type":"address"},{"indexed":true,"internalType":"address","name":"defender","type":"address"},{"indexed":false,"internalType":"bool","name":"destroyed","type":"bool"}],"name":"ShipAttacked","type":"event"},{"anonymous":false,"inputs":[{"indexed":true,"internalType":"address","name":"user","type":"address"},{"indexed":false,"internalType":"uint256","name":"cost","type":"uint256"},{"indexed":false,"internalType":"bool","name":"atPort","type":"bool"}],"name":"ShipRepaired","type":"event"},{"anonymous":false,"inputs":[{"indexed":true,"internalType":"address","name":"user","type":"address"},{"indexed":false,"internalType":"uint256","name":"toLocation","type":"uint256"},{"indexed":false,"internalType":"uint256","name":"arriveAt","type":"uint256"},{"indexed":false,"internalType":"bool","name":"fast","type":"bool"}],"name":"TravelStarted","type":"event"},{"anonymous":false,"inputs":[{"indexed":true,"internalType":"uint256","name":"id","type":"uint256"},{"indexed":false,"internalType":"string","name":"name","type":"string"}],"name":"UpgradeAdded","type":"event"},{"anonymous":false,"inputs":[{"indexed":true,"internalType":"address","name":"user","type":"address"},{"indexed":true,"internalType":"uint256","name":"id","type":"uint256"}],"name":"UpgradePurchased","type":"event"},{"inputs":[{"internalType":"address","name":"","type":"address"}],"name":"accounts","outputs":[{"internalType":"string","name":"boatName","type":"string"},{"internalType":"bool","name":"isPirate","type":"bool"},{"internalType":"uint256","name":"gold","type":"uint256"},{"internalType":"uint256","name":"diamonds","type":"uint256"},{"internalType":"uint256","name":"hp","type":"uint256"},{"internalType":"uint256","name":"maxHp","type":"uint256"},{"internalType":"uint256","name":"speed","type":"uint256"},{"internalType":"uint256","name":"attack","type":"uint256"},{"internalType":"uint256","name":"defense","type":"uint256"},{"internalType":"uint256","name":"crew","type":"uint256"},{"internalType":"uint256","name":"maxCrew","type":"uint256"},{"internalType":"uint256","name":"location","type":"uint256"},{"internalType":"uint256","name":"gpm","type":"uint256"},{"internalType":"uint256","name":"lastCheckIn","type":"uint256"},{"internalType":"uint256","name":"checkInStreak","type":"uint256"},{"internalType":"uint256","name":"lastWrecked","type":"uint256"},{"internalType":"uint256","name":"travelEnd","type":"uint256"},{"internalType":"uint256","name":"lastGPMClaim","type":"uint256"}],"stateMutability":"view","type":"function"},{"inputs":[{"internalType":"string","name":"name","type":"string"},{"internalType":"uint256","name":"cost","type":"uint256"},{"internalType":"uint256","name":"gpmBonus","type":"uint256"},{"internalType":"uint256","name":"maxHpBonus","type":"uint256"},{"internalType":"uint256","name":"speedBonus","type":"uint256"},{"internalType":"uint256","name":"attackBonus","type":"uint256"},{"internalType":"uint256","name":"defenseBonus","type":"uint256"},{"internalType":"uint256","name":"maxCrewBonus","type":"uint256"}],"name":"addUpgrade","outputs":[],"stateMutability":"nonpayable","type":"function"},{"inputs":[{"internalType":"address","name":"defender","type":"address"}],"name":"attack","outputs":[],"stateMutability":"nonpayable","type":"function"},{"inputs":[{"internalType":"uint256","name":"id","type":"uint256"}],"name":"buyUpgrade","outputs":[],"stateMutability":"nonpayable","type":"function"},{"inputs":[],"name":"checkIn","outputs":[],"stateMutability":"nonpayable","type":"function"},{"inputs":[],"name":"claimGPM","outputs":[],"stateMutability":"nonpayable","type":"function"},{"inputs":[{"internalType":"string","name":"_boatName","type":"string"},{"internalType":"bool","name":"_isPirate","type":"bool"},{"internalType":"uint256","name":"_startLocation","type":"uint256"}],"name":"createAccount","outputs":[],"stateMutability":"nonpayable","type":"function"},{"inputs":[{"internalType":"address","name":"player","type":"address"}],"name":"getClaimableGold","outputs":[{"internalType":"uint256","name":"","type":"uint256"}],"stateMutability":"view","type":"function"},{"inputs":[{"internalType":"address","name":"player","type":"address"}],"name":"getHireCrewCost","outputs":[{"internalType":"uint256","name":"","type":"uint256"}],"stateMutability":"view","type":"function"},{"inputs":[{"internalType":"uint256","name":"n","type":"uint256"}],"name":"getRanking","outputs":[{"internalType":"address[]","name":"","type":"address[]"},{"internalType":"uint256[]","name":"","type":"uint256[]"}],"stateMutability":"view","type":"function"},{"inputs":[{"internalType":"address","name":"player","type":"address"}],"name":"getRepairCost","outputs":[{"internalType":"uint256","name":"","type":"uint256"}],"stateMutability":"view","type":"function"},{"inputs":[{"internalType":"uint256","name":"loc","type":"uint256"}],"name":"getShipsAt","outputs":[{"internalType":"address[]","name":"","type":"address[]"},{"internalType":"string[]","name":"","type":"string[]"},{"internalType":"uint256[]","name":"","type":"uint256[]"}],"stateMutability":"view","type":"function"},{"inputs":[{"internalType":"address","name":"player","type":"address"}],"name":"getTimeUntilNextGPM","outputs":[{"internalType":"uint256","name":"","type":"uint256"}],"stateMutability":"view","type":"function"},{"inputs":[{"internalType":"uint256","name":"id","type":"uint256"},{"internalType":"address","name":"player","type":"address"}],"name":"getUpgradeCost","outputs":[{"internalType":"uint256","name":"","type":"uint256"}],"stateMutability":"view","type":"function"},{"inputs":[],"name":"hireCrew","outputs":[],"stateMutability":"nonpayable","type":"function"},{"inputs":[{"internalType":"uint256","name":"location","type":"uint256"}],"name":"isPort","outputs":[{"internalType":"bool","name":"","type":"bool"}],"stateMutability":"pure","type":"function"},{"inputs":[],"name":"nextUpgradeId","outputs":[{"internalType":"uint256","name":"","type":"uint256"}],"stateMutability":"view","type":"function"},{"inputs":[],"name":"owner","outputs":[{"internalType":"address","name":"","type":"address"}],"stateMutability":"view","type":"function"},{"inputs":[{"internalType":"uint256","name":"","type":"uint256"}],"name":"players","outputs":[{"internalType":"address","name":"","type":"address"}],"stateMutability":"view","type":"function"},{"inputs":[{"internalType":"address","name":"","type":"address"},{"internalType":"uint256","name":"","type":"uint256"}],"name":"purchaseCounts","outputs":[{"internalType":"uint256","name":"","type":"uint256"}],"stateMutability":"view","type":"function"},{"inputs":[],"name":"renounceOwnership","outputs":[],"stateMutability":"nonpayable","type":"function"},{"inputs":[{"internalType":"bool","name":"atPort","type":"bool"},{"internalType":"bool","name":"useDiamond","type":"bool"}],"name":"repairShip","outputs":[],"stateMutability":"payable","type":"function"},{"inputs":[],"name":"rescueXTZ","outputs":[],"stateMutability":"nonpayable","type":"function"},{"inputs":[{"internalType":"address","name":"newOwner","type":"address"}],"name":"transferOwnership","outputs":[],"stateMutability":"nonpayable","type":"function"},{"inputs":[{"internalType":"uint256","name":"toLocation","type":"uint256"},{"internalType":"bool","name":"fast","type":"bool"}],"name":"travel","outputs":[],"stateMutability":"payable","type":"function"},{"inputs":[{"internalType":"uint256","name":"","type":"uint256"}],"name":"upgrades","outputs":[{"internalType":"string","name":"name","type":"string"},{"internalType":"uint256","name":"cost","type":"uint256"},{"internalType":"uint256","name":"gpmBonus","type":"uint256"},{"internalType":"uint256","name":"maxHpBonus","type":"uint256"},{"internalType":"uint256","name":"speedBonus","type":"uint256"},{"internalType":"uint256","name":"attackBonus","type":"uint256"},{"internalType":"uint256","name":"defenseBonus","type":"uint256"},{"internalType":"uint256","name":"maxCrewBonus","type":"uint256"}],"stateMutability":"view","type":"function"},{"stateMutability":"payable","type":"receive"}],"evm":{"bytecode":{"linkReferences":{},"object":"6080806040523461007e5733156100685760008054336001600160a01b03198216811783556040519290916001600160a01b0316907f8be0079c531659141344cd1fd0a4f28419497f9722a3daafe3b4186f6b6457e09080a360018055612e1190816100848239f35b631e4fbdf760e01b815260006004820152602490fd5b600080fdfe6101206040526004361015610140575b361561001a57600080fd5b61002261279f565b34678ac7230489e80000036100cd5760015b3360005260026020526100506003604060002001918254612444565b905561005a612922565b610062612ae8565b9061006b612c4e565b916000808080673782dace9d90000060018060a01b0380971682f1156100c15760008080671bc16d674ec800008582951682f1156100c15760008080670de0b6b3a76400008194861682f1156100c15760018055005b6040513d6000823e3d90fd5b34680270801d946c940000036100e4576005610034565b346804e1003b28d9280000036100fb57600a610034565b60405162461bcd60e51b815260206004820152601760248201527f496e76616c6964206469616d6f6e64207061636b6167650000000000000000006044820152606490fd5b60003560e01c80631771ec631461203a578063183ff08514611f0057806324aa225b14611ed857806335d9389714611e905780634c8df03714611e6d5780635722bb5114611e015780635e5c06e214611ca6578063683591a8146119c2578063687801251461199f5780636c79b3bb1461197c578063715018a6146119235780637386bbc51461189257806374aa3a98146115ea5780638da5cb5b146115c1578063a5a2cb1914611438578063ab2611ee14610fdd578063b7df5b5d14610cc5578063be4becd314610b6e578063bea2dc141461099e578063d018db3e14610629578063d2fabb181461060b578063d4826b6c146105d1578063d85bf0b1146105a6578063ece2e4ba14610338578063f2fde38b146102aa5763f71d96cb0361000f57346102a55760203660031901126102a5576004356006548110156102a55761028c60209161239c565b905460405160039290921b1c6001600160a01b03168152f35b600080fd5b346102a55760203660031901126102a5576102c3612197565b6102cb6128f6565b6001600160a01b0390811690811561031f57600054826bffffffffffffffffffffffff60a01b821617600055167f8be0079c531659141344cd1fd0a4f28419497f9722a3daafe3b4186f6b6457e0600080a3005b604051631e4fbdf760e01b815260006004820152602490fd5b346102a557610100806003193601126102a55760043567ffffffffffffffff81116102a55761036b9036906004016122fd565b6103736128f6565b60405192830183811067ffffffffffffffff8211176105905760405261039a368284612686565b8352602435602084015260443560408401526064356060840152608435608084015260a43560a084015260c43560c084015260e43560e084015260055460005260036020526040600020835180519067ffffffffffffffff82116105905761040283546121ad565b601f811161054c575b50602090601f83116001146104da57958260079360e0936104ca996000926104cf575b50508160011b916000199060031b1c19161784555b6020810151600185015560408101516002850155606081015160038501556080810151600485015560a0810151600585015560c0810151600685015501519101557fbce75db7677467da57e0a1c1497e4a7c42d79d4071dbb0578df54307e986fe076005549283926104c26040519283926020845260208401916126cd565b0390a2612677565b600555005b01519050898061042e565b908360005260206000209160005b601f198516811061053457508360e0936104ca9993600193600797601f1981161061051b575b505050811b018455610443565b015160001960f88460031b161c1916905589808061050e565b919260206001819286850151815501940192016104e8565b836000526020600020601f840160051c810160208510610589575b601f830160051c8201811061057d57505061040b565b60008155600101610567565b5080610567565b634e487b7160e01b600052604160045260246000fd5b346102a55760203660031901126102a55760206105c96105c4612197565b61274c565b604051908152f35b346102a55760003660031901126102a5576105ea6128f6565b600080808047818115610602575b3390f1156100c157005b506108fc6105f8565b346102a55760003660031901126102a5576020600554604051908152f35b346102a5576020806003193601126102a557610643612197565b61064b61279f565b336000526002825260406000209060018060a01b0316918260005260406000209060048301928354151580610991575b156109565760ff60018201541660ff60018501541615159015151461091e57600b810154600b84015481036108e1576010820154421015806108d3575b156108a2576106c690612451565b610852576007810154600884015480821115610848576106e591612424565b925b600781015460088301548082111561083f5761070291612424565b600482018054909581811061082f575050600085555b85549081811061081f575050600085555b6000935415610783575b507f1d099e3da7a64d91bf9ed0e41aceaf6a8e2c1fc0d072ef2779f2ea6988d2798892935415610770575b5060405192151583523392a360018055005b60006009820155600f429101558461075e565b92506000600984015542600f8401556009810154926032840293808504603214901517156108095760020180547f1d099e3da7a64d91bf9ed0e41aceaf6a8e2c1fc0d072ef2779f2ea6988d27988949190808311610801575b826107e691612424565b90556107f760028301918254612444565b9055600192610733565b9150816107dc565b634e487b7160e01b600052601160045260246000fd5b61082891612424565b8555610729565b61083891612424565b8555610718565b50506000610702565b50506000926106e7565b60405162461bcd60e51b815260048101839052602260248201527f43616e6e6f742061747461636b20617420706f727473202d2073616665206172604482015261656160f01b6064820152608490fd5b60405162461bcd60e51b8152600481018490526009602482015268125b881d1c985d995b60ba1b6044820152606490fd5b5060108401544210156106b8565b60405162461bcd60e51b815260048101849052601560248201527426bab9ba1031329039b0b6b2903637b1b0ba34b7b760591b6044820152606490fd5b60405162461bcd60e51b815260048101839052601060248201526f29b0b6b29030b33334b634b0ba34b7b760811b6044820152606490fd5b60405162461bcd60e51b815260048101839052601360248201527213db99481cda1a5c081a5cc81ddc9958dad959606a1b6044820152606490fd5b506004830154151561067b565b346102a55760203660031901126102a55760065460043580821015610b695750805b6109c981612706565b916109d382612706565b9160005b828110610a0c576109fa85610a088660405193849360408552604085019061232b565b908382036020850152612368565b0390f35b610a158161239c565b905460018060a01b039160031b1c16600052610a98600280602052610a6a600660406000200154610a458561239c565b60018060a01b0391549060031b1c166000528260205260076040600020015490612444565b90610a748461239c565b60018060a01b0391549060031b1c1660005260205260086040600020015490612444565b60005b838110610aad575b50506001016109d7565b610ab78187612738565b518211610ac657600101610a9b565b6000198401848111610809575b818111610b13575090610b0b8392610aec60019561239c565b868060a01b0391549060031b1c16610b04828b612738565b5287612738565b529086610aa3565b8060001981011161080957610b64906001600160a01b03610b3860001983018b612738565b5116610b44828b612738565b52610b53600019820189612738565b51610b5e828a612738565b5261259d565b610ad3565b6109c0565b346102a55760003660031901126102a557610b8761279f565b3360005260026020526040600020610ba4600482015415156123e9565b610bb1600b820154612451565b15610c8c5760098101908154600a82019081541115610c4757610bd333612836565b54610bdf835482612424565b92600a840292848404600a148515171561080957600201610c0d848254610c0882821015612524565b612424565b90555560405191825260208201527f868567670ec4defb3adfce8655df1b0aafa7f429cdb1f700ffe925b1aa98356060403392a260018055005b60405162461bcd60e51b815260206004820152601760248201527f4372657720616c7265616479206174206d6178696d756d0000000000000000006044820152606490fd5b60405162461bcd60e51b8152602060048201526011602482015270135d5cdd08189948185d0818481c1bdc9d607a1b6044820152606490fd5b346102a5576020806003193601126102a55760068054916000919060043590835b858110610f4f5750610cf784612706565b94610d01856126ee565b93610d0f60405195866121e7565b858552610d1b866126ee565b601f199690870160005b818110610f40575050610d3790612706565b9360009060005b848110610dcf57610d61898b8a8a8a60405195869460608652606086019061232b565b908482038186015283519182815281810182808560051b8401019601976000925b858410610d9d578880610a088a8a8382036040850152612368565b91938080979950610dbb898486600196989a9c030188528c516122ae565b9a0194019401918997959398969491610d82565b89610ddd829a98999a61239c565b919060018060a01b03809154600394851b1c1660005288878d60029485845288600b604060002001541480610f17575b610e25575b5050505050505060010197969597610d3e565b8786889587610ebc8e9a97859f8060019f99610f0a9f99610e62610efa9f9c9488610ed69d610e56610e979861239c565b9054911b1c1692612738565b52858d610e6e8b61239c565b9054911b1c16600052878752610e876040600020612209565b610e918383612738565b52612738565b5082610ea28761239c565b9054908c1b1c16600052848452604060002001549461239c565b905490891b1c166000525260076040600020015490612444565b92610ee08a61239c565b9054911b1c166000528a5260086040600020015490612444565b610f04828c612738565b52612677565b92908b8088878d8f610e12565b5084610f228961239c565b905490891b1c16600052858452601060406000200154421015610e0d565b60608882018701528501610d25565b610f5c819593949561239c565b9060018060a01b03809154600393841b1c1660005260029081855286600b60406000200154149283610fb1575b505050610f9d575b60010193929193610ce6565b91610fa9600191612677565b929050610f91565b90919250610fbe8461239c565b9054911b1c166000528252601060406000200154421015878080610f89565b346102a55760603660031901126102a55760043567ffffffffffffffff81116102a55761100e9036906004016122fd565b906110176122ee565b918015158061142d575b156113e857606480604435116113ad57336000526002602052604060002060048101541590816113a0575b50156113685760405190610240820182811067ffffffffffffffff8211176105905760405261107c368486612686565b825284151560208301528060408301526000606083015280608083015260a0820152600160c0820152600160e082015260016101008201526001610120820152600a610140820152604435610160820152600061018082015260006101a082015260006101c082015260006101e0820152600061020082015242610220820152336000526002602052604060002090805180519067ffffffffffffffff82116105905761112984546121ad565b601f8111611324575b50602090601f83116001146112b457918060119492610220946000926112a9575b50508160011b916000199060031b1c19161784555b600184016020820151151560ff8019835416911617905560408101516002850155606081015160038501556080810151600485015560a0810151600585015560c0810151600685015560e0810151600785015561010081015160088501556101208101516009850155610140810151600a850155610160810151600b850155610180810151600c8501556101a0810151600d8501556101c0810151600e8501556101e0810151600f8501556102008101516010850155015191015560065468010000000000000000811015610590577f47456e7ec68e981a8f02d9c9528370adea595c1b26225be6797e6d441c47fc029261126c826001611299940160065561239c565b81546001600160a01b0360039290921b91821b19163390911b1790556040805181815293908401916126cd565b92151560208201528033930390a2005b015190508980611153565b908460005260206000209160005b601f198516811061130c575092601194926001926102209583601f198116106112f3575b505050811b018455611168565b015160001960f88460031b161c191690558980806112e6565b919260206001819286850151815501940192016112c2565b846000526020600020601f840160051c810160208510611361575b601f830160051c82018110611355575050611132565b6000815560010161133f565b508061133f565b60405162461bcd60e51b8152602060048201526013602482015272105b1c9958591e481a185cc81858d8dbdd5b9d606a1b6044820152fd5b600991500154158561104c565b60405162461bcd60e51b815260206004820152601660248201527504c6f636174696f6e206d75737420626520302d3130360541b6044820152fd5b60405162461bcd60e51b815260206004820152601860248201527f426f6174206e616d6520696e76616c6964206c656e67746800000000000000006044820152606490fd5b50600c811115611021565b346102a5576020806003193601126102a5576004359061145661279f565b816000526003815260096007604060002033600052600284526040600020936114b160018301611488815415156124e4565b61149133612836565b3360005260048352604060002088600052835260406000205490546127c2565b6114c760028701918254610c0882821015612524565b90553360005260048152604060002090866000525260406000206114eb8154612677565b90556002810154611501600c8601918254612444565b905560038101805461151860058701918254612444565b90555461152a60048601918254612444565b9055600481015461154060068601918254612444565b90556005810154611555838601918254612444565b9055600681015461156b60088601918254612444565b905501549161157f600a8201938454612444565b80935501818154116115b9575b82337fcf52c8aa8ed6b7d560b4e75db6ab973723de269d5580985c8880844d4ed6d7c0600080a360018055005b55818061158c565b346102a55760003660031901126102a5576000546040516001600160a01b039091168152602090f35b60403660031901126102a5576004356116016122ee565b61160961279f565b33600052602060028152604060002090611628600483015415156123e9565b6010820191825442106118595760649081861161182357600b81019182548088146117f05787818111156117e1579061166091612424565b915b610e1092838102908082048514811517156108095760068301549061012c918281029281840414901517156108095761169a91612431565b8181106117d25750506000925b871561178c5783049034611756576003019182549082821061171e5750916116d5899594926116de94612424565b90555b42612444565b80945555604051938452830152151560408201527f9782a86993c9e75e77fdbba3381a28a46e4f356e9516e67313bd4bd859c88a3f60603392a260018055005b60405162461bcd60e51b81526004810188905260136024820152724e6f7420656e6f756768206469616d6f6e647360681b6044820152fd5b60405162461bcd60e51b815260048101879052600f60248201526e14185e481d9a5848191a585b5bdb99608a1b60448201528390fd5b50503461179f5750906116de86926116d8565b60405162461bcd60e51b815260048101859052600e60248201526d2237b713ba1039b2b732102c2a2d60911b6044820152fd5b6117db91612424565b926116a7565b6117ea91612424565b91611662565b5060405162461bcd60e51b815260048101859052600d60248201526c29b0b6b2903637b1b0ba34b7b760991b6044820152fd5b50906040519062461bcd60e51b82526004820152601060248201526f131bd8d85d1a5bdb881a5b9d985b1a5960821b6044820152fd5b60405162461bcd60e51b8152600481018390526011602482015270416c72656164792074726176656c696e6760781b6044820152606490fd5b346102a55760203660031901126102a55760043560005260036020526118fb60406000206118bf81612209565b90600181015490600281015490600381015460048201546005830154916007600685015494015494604051988998610100808b528a01906122ae565b96602089015260408801526060870152608086015260a085015260c084015260e08301520390f35b346102a55760003660031901126102a55761193c6128f6565b600080546001600160a01b0319811682556001600160a01b03167f8be0079c531659141344cd1fd0a4f28419497f9722a3daafe3b4186f6b6457e08280a3005b346102a55760203660031901126102a55760206105c961199a612197565b612600565b346102a55760203660031901126102a55760206105c96119bd612197565b6125aa565b60403660031901126102a557600435801515908181036102a5576119e46122ee565b916119ed61279f565b33600052602060028152604060002092600484018054611c6e57600f85019182546146508101809111610809574210611c2957600586019687546009810180911161080957600a9004600581029080820460051490151715610809578092600014611bc55750611a60600b880154612451565b15611b9257808115611b84575b15611b485715611ad657506003600093949501611a978154611a926001821015612562565b61259d565b905582955b5490555b556040519283528201527f373b52989f2ba23b87f95fd574ec63c228517395d926f37ac176151452f3ab4660403392a260018055005b94600290611ae333612836565b0195865496868810611b0557611afe87600096979899612424565b9055611a9c565b6064856040519062461bcd60e51b825280600483015260248201527f4e6f7420656e6f75676820676f6c64206166746572206175746f2d636c61696d6044820152fd5b60405162461bcd60e51b8152600481018690526014602482015273139959590819dbdb19081bdc88191a585b5bdb9960621b6044820152606490fd5b508160028801541015611a6d565b60405162461bcd60e51b815260048101869052600b60248201526a139bdd08185d081c1bdc9d60aa1b6044820152606490fd5b90969293949596600014611bfc5750509060036000939201611bef8154611a926001821015612562565b905582955b549055611aa0565b611c2260026000969594611c129a949a33612836565b01918254610c0882821015612524565b9055611bf4565b60405162461bcd60e51b815260048101859052601a60248201527f4e6f7420726561647920666f72206261736963207265706169720000000000006044820152606490fd5b60405162461bcd60e51b815260048101849052601060248201526f14da1a5c081b9bdd081ddc9958dad95960821b6044820152606490fd5b346102a55760203660031901126102a5576001600160a01b03611cc7612197565b1660005260026020526040600020611cde81612209565b90600181015460ff1660a052600281015460e05260038101546101005260048101549160058201546006830154600784015460088501546009860154600a87015490600b88015492600c89015494600d8a015496600e8b015498600f8c01549a60108d01549c6011015460805260405160c0526102408060c0515260c05101611d66916122ae565b9c60a051151560c0516020015260e05160c051604001526101005160c0516060015260c0516080015260c05160a0015260c05160c0015260c05160e0015260c051610100015260c051610120015260c051610140015260c051610160015260c051610180015260c0516101a0015260c0516101c0015260c0516101e0015260c051610200015260805160c051610220015260c051900360c051f35b346102a55760403660031901126102a5576024356001600160a01b03811690600435908290036102a557602091816105c9926000526003845260016040600020015491611e4f8315156124e4565b600052600484526040600020906000528352604060002054906127c2565b346102a55760203660031901126102a55760206105c9611e8b612197565b61247a565b346102a55760403660031901126102a5576001600160a01b03611eb1612197565b16600052600460205260406000206024356000526020526020604060002054604051908152f35b346102a55760203660031901126102a5576020611ef6600435612451565b6040519015158152f35b346102a55760003660031901126102a5573360005260026020526040600020611f2e600482015415156123e9565b62015180804204600d83019182540481811015611ff55760001982019182116108095703611fe957600e82018054906001820180921161080957555b42905560098101549060198202918083046019149015171561080957600e81015491826005029060058204840361080957600291611fa791612444565b9101611fb4828254612444565b905560405191825260208201527fb9cfea4717f167774a6e8643c33472935d3ef918453525eefca6936078b7cfdd60403392a2005b6001600e830155611f6a565b60405162461bcd60e51b815260206004820152601860248201527f416c726561647920636865636b656420696e20746f64617900000000000000006044820152606490fd5b346102a55760003660031901126102a55761205361279f565b3360005260026020526040600020612070600482015415156123e9565b600c8101548015612160576011820161208a815442612424565b9182156121295761209f90603c840490612431565b9283156120f157600291429055016120b8838254612444565b905560405191825260208201527f6ed0c81f2eb08ca19cf12aab8dfa5d3566d3140926b3e0035b8423029996c18560403392a260018055005b60405162461bcd60e51b815260206004820152601060248201526f4e6f20676f6c6420746f20636c61696d60801b6044820152606490fd5b60405162461bcd60e51b815260206004820152600f60248201526e139bc81d1a5b5948195b185c1cd959608a1b6044820152606490fd5b60405162461bcd60e51b815260206004820152600f60248201526e4e6f2047504d20746f20636c61696d60881b6044820152606490fd5b600435906001600160a01b03821682036102a557565b90600182811c921680156121dd575b60208310146121c757565b634e487b7160e01b600052602260045260246000fd5b91607f16916121bc565b90601f8019910116810190811067ffffffffffffffff82111761059057604052565b9060405191826000825461221c816121ad565b9081845260209460019160018116908160001461228c575060011461224d575b50505061224b925003836121e7565b565b600090815285812095935091905b81831061227457505061224b935082010138808061223c565b8554888401850152948501948794509183019161225b565b9250505061224b94925060ff191682840152151560051b82010138808061223c565b919082519283825260005b8481106122da575050826000602080949584010152601f8019910116010190565b6020818301810151848301820152016122b9565b6024359081151582036102a557565b9181601f840112156102a55782359167ffffffffffffffff83116102a557602083818601950101116102a557565b90815180825260208080930193019160005b82811061234b575050505090565b83516001600160a01b03168552938101939281019260010161233d565b90815180825260208080930193019160005b828110612388575050505090565b83518552938101939281019260010161237a565b6006548110156123d35760066000527ff652222313e28459528d920b65115c16c04f3efc82aaedc97be59f3f377c0d3f0190600090565b634e487b7160e01b600052603260045260246000fd5b156123f057565b60405162461bcd60e51b815260206004820152600c60248201526b14da1a5c081ddc9958dad95960a21b6044820152606490fd5b9190820391821161080957565b8181029291811591840414171561080957565b9190820180921161080957565b6019811490811561246f575b8115612467575090565b605991501490565b60378114915061245d565b6001600160a01b0316600090815260026020526040902060048101541580156124d2575b6124cc57806009600a6124b693015491015490612424565b600a810290808204600a14901517156108095790565b50600090565b506009810154600a820154111561249e565b156124eb57565b60405162461bcd60e51b8152602060048201526011602482015270155c19dc985919481b9bdd08195e1a5cdd607a1b6044820152606490fd5b1561252b57565b60405162461bcd60e51b815260206004820152600f60248201526e139bdd08195b9bdd59da0819dbdb19608a1b6044820152606490fd5b1561256957565b60405162461bcd60e51b815260206004820152600c60248201526b1399595908191a585b5bdb9960a21b6044820152606490fd5b8015610809576000190190565b6001600160a01b0316600090815260026020526040902060048101541580156125f4575b6124cc5780600c603c6125e860116125f195015442612424565b04910154612431565b90565b50600c810154156125ce565b6001600160a01b03166000908152600260205260408120600481015461267357600501546009810180911161265f57600a90049060058202918083046005149015171561264b575090565b634e487b7160e01b81526011600452602490fd5b634e487b7160e01b82526011600452602482fd5b5090565b60001981146108095760010190565b92919267ffffffffffffffff821161059057604051916126b0601f8201601f1916602001846121e7565b8294818452818301116102a5578281602093846000960137010152565b908060209392818452848401376000828201840152601f01601f1916010190565b67ffffffffffffffff81116105905760051b60200190565b90612710826126ee565b61271d60405191826121e7565b828152809261272e601f19916126ee565b0190602036910137565b80518210156123d35760209160051b010190565b6001600160a01b031660009081526002602052604090206004810154158015612793575b6124cc576127846011603c92015442612424565b06603c03603c81116108095790565b50600c81015415612770565b6002600154146127b0576002600155565b604051633ee5aeb560e01b8152600490fd5b8115612831576001916001926000915b8083106127fc5750505081156127e6570490565b634e487b7160e01b600052601260045260246000fd5b90919392600f908181029181830414901517156108095792600a908181029181830414901517156108095793820191906127d2565b905090565b6001600160a01b0316600081815260026020526040902060048101541580156128ea575b6128e657601181019061286e825442612424565b80156128e057612885603c8204600c840154612431565b9081612893575b5050505050565b60026040937f6ed0c81f2eb08ca19cf12aab8dfa5d3566d3140926b3e0035b8423029996c18595429055016128c9838254612444565b905582519182526020820152a2388080808061288c565b50505050565b5050565b50600c8101541561285a565b6000546001600160a01b0316330361290a57565b60405163118cdaa760e01b8152336004820152602490fd5b6006805460019081811015612ae157805b61293c81612706565b9361294682612706565b60005b8481106129845750505050505080511580156129705750506000546001600160a01b031690565b6123d357602001516001600160a01b031690565b8061298f879261239c565b60018060a01b03809254600392831b1c16600052612a03600260086020918083526040906129e28b836000200154886129c78b61239c565b9054908a1b1c16600052828652600784600020015490612444565b93876129ed8a61239c565b905490891b1c1660005252600020015490612444565b9060005b888110612a19575b5050505001612949565b612a298188979394959697612738565b518411612a3c5701908994939291612a07565b929391905060001988810189811161080957908b9695949392915b848111612a9057505090612a869291612a6f8661239c565b9054911b1c16612a7f828d612738565b5285612738565b5238808080612a0f565b90809293949596975081019080821161080957612ac9828f612ac28489612aba612ad49885612738565b511692612738565b528a612738565b51610b5e828b612738565b908b969594939291612a57565b6001612933565b600680546002919082811015612c4757805b612b0381612706565b93612b0d82612706565b9060005b848110612b5157505050505050805160018111612b395750506000546001600160a01b031690565b600110156123d357604001516001600160a01b031690565b612b5a8161239c565b60018060a01b03809254600392831b1c16600052612b8f602085815260086040876129e28d836000200154886129c78b61239c565b9060005b878110612ba7575b50505050600101612b11565b612bb18188612738565b518311612bc057600101612b93565b919290600019888101898111610809575b848111612c0e57505091612c0491859493612bed60019761239c565b9054911b1c16612bfd828d612738565b5286612738565b5290388080612b9b565b8181019080821161080957612c37828f612c308489612aba612c429885612738565b528b612738565b51610b5e828c612738565b612bd1565b6002612afa565b600680546003919082811015612dd557805b612c6981612706565b93612c7382612706565b60005b848110612cb657505050505050805160028111612c9e5750506000546001600160a01b031690565b600210156123d357606001516001600160a01b031690565b612cbf8161239c565b9060018060a01b039182915490861b1c16600052612d3360026008602091808352604090612d128c83600020015487612cf78a61239c565b9054908d1b1c16600052828652600784600020015490612444565b9386612d1d8961239c565b9054908c1b1c1660005252600020015490612444565b60005b868110612d49575b505050600101612c76565b612d538186612738565b518211612d6257600101612d36565b9091600019878101888111610809575b838111612da7575050839291612d9e91612d8d60019661239c565b905490891b1c16612a7f828d612738565b52903880612d3e565b8181019080821161080957610b53828e612dc98488612aba612dd09885612738565b5289612738565b612d72565b82612c6056fea26469706673582212209acc7d90b6fa9f7a94e0131ff0112e64e0a0d2a38da79aa674dafd3c01cffbc964736f6c63430008180033","opcodes":"PUSH1 0x80 DUP1 PUSH1 0x40 MSTORE CALLVALUE PUSH2 0x7E JUMPI CALLER ISZERO PUSH2 0x68 JUMPI PUSH1 0x0 DUP1 SLOAD CALLER PUSH1 0x1 PUSH1 0x1 PUSH1 0xA0 SHL SUB NOT DUP3 AND DUP2 OR DUP4 SSTORE PUSH1 0x40 MLOAD SWAP3 SWAP1 SWAP2 PUSH1 0x1 PUSH1 0x1 PUSH1 0xA0 SHL SUB AND SWAP1 PUSH32 0x8BE0079C531659141344CD1FD0A4F28419497F9722A3DAAFE3B4186F6B6457E0 SWAP1 DUP1 LOG3 PUSH1 0x1 DUP1 SSTORE PUSH2 0x2E11 SWAP1 DUP2 PUSH2 0x84 DUP3 CODECOPY RETURN JUMPDEST PUSH4 0x1E4FBDF7 PUSH1 0xE0 SHL DUP2 MSTORE PUSH1 0x0 PUSH1 0x4 DUP3 ADD MSTORE PUSH1 0x24 SWAP1 REVERT JUMPDEST PUSH1 0x0 DUP1 REVERT INVALID PUSH2 0x120 PUSH1 0x40 MSTORE PUSH1 0x4 CALLDATASIZE LT ISZERO PUSH2 0x140 JUMPI JUMPDEST CALLDATASIZE ISZERO PUSH2 0x1A JUMPI PUSH1 0x0 DUP1 REVERT JUMPDEST PUSH2 0x22 PUSH2 0x279F JUMP JUMPDEST CALLVALUE PUSH8 0x8AC7230489E80000 SUB PUSH2 0xCD JUMPI PUSH1 0x1 JUMPDEST CALLER PUSH1 0x0 MSTORE PUSH1 0x2 PUSH1 0x20 MSTORE PUSH2 0x50 PUSH1 0x3 PUSH1 0x40 PUSH1 0x0 KECCAK256 ADD SWAP2 DUP3 SLOAD PUSH2 0x2444 JUMP JUMPDEST SWAP1 SSTORE PUSH2 0x5A PUSH2 0x2922 JUMP JUMPDEST PUSH2 0x62 PUSH2 0x2AE8 JUMP JUMPDEST SWAP1 PUSH2 0x6B PUSH2 0x2C4E JUMP JUMPDEST SWAP2 PUSH1 0x0 DUP1 DUP1 DUP1 PUSH8 0x3782DACE9D900000 PUSH1 0x1 DUP1 PUSH1 0xA0 SHL SUB DUP1 SWAP8 AND DUP3 CALL ISZERO PUSH2 0xC1 JUMPI PUSH1 0x0 DUP1 DUP1 PUSH8 0x1BC16D674EC80000 DUP6 DUP3 SWAP6 AND DUP3 CALL ISZERO PUSH2 0xC1 JUMPI PUSH1 0x0 DUP1 DUP1 PUSH8 0xDE0B6B3A7640000 DUP2 SWAP5 DUP7 AND DUP3 CALL ISZERO PUSH2 0xC1 JUMPI PUSH1 0x1 DUP1 SSTORE STOP JUMPDEST PUSH1 0x40 MLOAD RETURNDATASIZE PUSH1 0x0 DUP3 RETURNDATACOPY RETURNDATASIZE SWAP1 REVERT JUMPDEST CALLVALUE PUSH9 0x270801D946C940000 SUB PUSH2 0xE4 JUMPI PUSH1 0x5 PUSH2 0x34 JUMP JUMPDEST CALLVALUE PUSH9 0x4E1003B28D9280000 SUB PUSH2 0xFB JUMPI PUSH1 0xA PUSH2 0x34 JUMP JUMPDEST PUSH1 0x40 MLOAD PUSH3 0x461BCD PUSH1 0xE5 SHL DUP2 MSTORE PUSH1 0x20 PUSH1 0x4 DUP3 ADD MSTORE PUSH1 0x17 PUSH1 0x24 DUP3 ADD MSTORE PUSH32 0x496E76616C6964206469616D6F6E64207061636B616765000000000000000000 PUSH1 0x44 DUP3 ADD MSTORE PUSH1 0x64 SWAP1 REVERT JUMPDEST PUSH1 0x0 CALLDATALOAD PUSH1 0xE0 SHR DUP1 PUSH4 0x1771EC63 EQ PUSH2 0x203A JUMPI DUP1 PUSH4 0x183FF085 EQ PUSH2 0x1F00 JUMPI DUP1 PUSH4 0x24AA225B EQ PUSH2 0x1ED8 JUMPI DUP1 PUSH4 0x35D93897 EQ PUSH2 0x1E90 JUMPI DUP1 PUSH4 0x4C8DF037 EQ PUSH2 0x1E6D JUMPI DUP1 PUSH4 0x5722BB51 EQ PUSH2 0x1E01 JUMPI DUP1 PUSH4 0x5E5C06E2 EQ PUSH2 0x1CA6 JUMPI DUP1 PUSH4 0x683591A8 EQ PUSH2 0x19C2 JUMPI DUP1 PUSH4 0x68780125 EQ PUSH2 0x199F JUMPI DUP1 PUSH4 0x6C79B3BB EQ PUSH2 0x197C JUMPI DUP1 PUSH4 0x715018A6 EQ PUSH2 0x1923 JUMPI DUP1 PUSH4 0x7386BBC5 EQ PUSH2 0x1892 JUMPI DUP1 PUSH4 0x74AA3A98 EQ PUSH2 0x15EA JUMPI DUP1 PUSH4 0x8DA5CB5B EQ PUSH2 0x15C1 JUMPI DUP1 PUSH4 0xA5A2CB19 EQ PUSH2 0x1438 JUMPI DUP1 PUSH4 0xAB2611EE EQ PUSH2 0xFDD JUMPI DUP1 PUSH4 0xB7DF5B5D EQ PUSH2 0xCC5 JUMPI DUP1 PUSH4 0xBE4BECD3 EQ PUSH2 0xB6E JUMPI DUP1 PUSH4 0xBEA2DC14 EQ PUSH2 0x99E JUMPI DUP1 PUSH4 0xD018DB3E EQ PUSH2 0x629 JUMPI DUP1 PUSH4 0xD2FABB18 EQ PUSH2 0x60B JUMPI DUP1 PUSH4 0xD4826B6C EQ PUSH2 0x5D1 JUMPI DUP1 PUSH4 0xD85BF0B1 EQ PUSH2 0x5A6 JUMPI DUP1 PUSH4 0xECE2E4BA EQ PUSH2 0x338 JUMPI DUP1 PUSH4 0xF2FDE38B EQ PUSH2 0x2AA JUMPI PUSH4 0xF71D96CB SUB PUSH2 0xF JUMPI CALLVALUE PUSH2 0x2A5 JUMPI PUSH1 0x20 CALLDATASIZE PUSH1 0x3 NOT ADD SLT PUSH2 0x2A5 JUMPI PUSH1 0x4 CALLDATALOAD PUSH1 0x6 SLOAD DUP2 LT ISZERO PUSH2 0x2A5 JUMPI PUSH2 0x28C PUSH1 0x20 SWAP2 PUSH2 0x239C JUMP JUMPDEST SWAP1 SLOAD PUSH1 0x40 MLOAD PUSH1 0x3 SWAP3 SWAP1 SWAP3 SHL SHR PUSH1 0x1 PUSH1 0x1 PUSH1 0xA0 SHL SUB AND DUP2 MSTORE RETURN JUMPDEST PUSH1 0x0 DUP1 REVERT JUMPDEST CALLVALUE PUSH2 0x2A5 JUMPI PUSH1 0x20 CALLDATASIZE PUSH1 0x3 NOT ADD SLT PUSH2 0x2A5 JUMPI PUSH2 0x2C3 PUSH2 0x2197 JUMP JUMPDEST PUSH2 0x2CB PUSH2 0x28F6 JUMP JUMPDEST PUSH1 0x1 PUSH1 0x1 PUSH1 0xA0 SHL SUB SWAP1 DUP2 AND SWAP1 DUP2 ISZERO PUSH2 0x31F JUMPI PUSH1 0x0 SLOAD DUP3 PUSH12 0xFFFFFFFFFFFFFFFFFFFFFFFF PUSH1 0xA0 SHL DUP3 AND OR PUSH1 0x0 SSTORE AND PUSH32 0x8BE0079C531659141344CD1FD0A4F28419497F9722A3DAAFE3B4186F6B6457E0 PUSH1 0x0 DUP1 LOG3 STOP JUMPDEST PUSH1 0x40 MLOAD PUSH4 0x1E4FBDF7 PUSH1 0xE0 SHL DUP2 MSTORE PUSH1 0x0 PUSH1 0x4 DUP3 ADD MSTORE PUSH1 0x24 SWAP1 REVERT JUMPDEST CALLVALUE PUSH2 0x2A5 JUMPI PUSH2 0x100 DUP1 PUSH1 0x3 NOT CALLDATASIZE ADD SLT PUSH2 0x2A5 JUMPI PUSH1 0x4 CALLDATALOAD PUSH8 0xFFFFFFFFFFFFFFFF DUP2 GT PUSH2 0x2A5 JUMPI PUSH2 0x36B SWAP1 CALLDATASIZE SWAP1 PUSH1 0x4 ADD PUSH2 0x22FD JUMP JUMPDEST PUSH2 0x373 PUSH2 0x28F6 JUMP JUMPDEST PUSH1 0x40 MLOAD SWAP3 DUP4 ADD DUP4 DUP2 LT PUSH8 0xFFFFFFFFFFFFFFFF DUP3 GT OR PUSH2 0x590 JUMPI PUSH1 0x40 MSTORE PUSH2 0x39A CALLDATASIZE DUP3 DUP5 PUSH2 0x2686 JUMP JUMPDEST DUP4 MSTORE PUSH1 0x24 CALLDATALOAD PUSH1 0x20 DUP5 ADD MSTORE PUSH1 0x44 CALLDATALOAD PUSH1 0x40 DUP5 ADD MSTORE PUSH1 0x64 CALLDATALOAD PUSH1 0x60 DUP5 ADD MSTORE PUSH1 0x84 CALLDATALOAD PUSH1 0x80 DUP5 ADD MSTORE PUSH1 0xA4 CALLDATALOAD PUSH1 0xA0 DUP5 ADD MSTORE PUSH1 0xC4 CALLDATALOAD PUSH1 0xC0 DUP5 ADD MSTORE PUSH1 0xE4 CALLDATALOAD PUSH1 0xE0 DUP5 ADD MSTORE PUSH1 0x5 SLOAD PUSH1 0x0 MSTORE PUSH1 0x3 PUSH1 0x20 MSTORE PUSH1 0x40 PUSH1 0x0 KECCAK256 DUP4 MLOAD DUP1 MLOAD SWAP1 PUSH8 0xFFFFFFFFFFFFFFFF DUP3 GT PUSH2 0x590 JUMPI PUSH2 0x402 DUP4 SLOAD PUSH2 0x21AD JUMP JUMPDEST PUSH1 0x1F DUP2 GT PUSH2 0x54C JUMPI JUMPDEST POP PUSH1 0x20 SWAP1 PUSH1 0x1F DUP4 GT PUSH1 0x1 EQ PUSH2 0x4DA JUMPI SWAP6 DUP3 PUSH1 0x7 SWAP4 PUSH1 0xE0 SWAP4 PUSH2 0x4CA SWAP10 PUSH1 0x0 SWAP3 PUSH2 0x4CF JUMPI JUMPDEST POP POP DUP2 PUSH1 0x1 SHL SWAP2 PUSH1 0x0 NOT SWAP1 PUSH1 0x3 SHL SHR NOT AND OR DUP5 SSTORE JUMPDEST PUSH1 0x20 DUP2 ADD MLOAD PUSH1 0x1 DUP6 ADD SSTORE PUSH1 0x40 DUP2 ADD MLOAD PUSH1 0x2 DUP6 ADD SSTORE PUSH1 0x60 DUP2 ADD MLOAD PUSH1 0x3 DUP6 ADD SSTORE PUSH1 0x80 DUP2 ADD MLOAD PUSH1 0x4 DUP6 ADD SSTORE PUSH1 0xA0 DUP2 ADD MLOAD PUSH1 0x5 DUP6 ADD SSTORE PUSH1 0xC0 DUP2 ADD MLOAD PUSH1 0x6 DUP6 ADD SSTORE ADD MLOAD SWAP2 ADD SSTORE PUSH32 0xBCE75DB7677467DA57E0A1C1497E4A7C42D79D4071DBB0578DF54307E986FE07 PUSH1 0x5 SLOAD SWAP3 DUP4 SWAP3 PUSH2 0x4C2 PUSH1 0x40 MLOAD SWAP3 DUP4 SWAP3 PUSH1 0x20 DUP5 MSTORE PUSH1 0x20 DUP5 ADD SWAP2 PUSH2 0x26CD JUMP JUMPDEST SUB SWAP1 LOG2 PUSH2 0x2677 JUMP JUMPDEST PUSH1 0x5 SSTORE STOP JUMPDEST ADD MLOAD SWAP1 POP DUP10 DUP1 PUSH2 0x42E JUMP JUMPDEST SWAP1 DUP4 PUSH1 0x0 MSTORE PUSH1 0x20 PUSH1 0x0 KECCAK256 SWAP2 PUSH1 0x0 JUMPDEST PUSH1 0x1F NOT DUP6 AND DUP2 LT PUSH2 0x534 JUMPI POP DUP4 PUSH1 0xE0 SWAP4 PUSH2 0x4CA SWAP10 SWAP4 PUSH1 0x1 SWAP4 PUSH1 0x7 SWAP8 PUSH1 0x1F NOT DUP2 AND LT PUSH2 0x51B JUMPI JUMPDEST POP POP POP DUP2 SHL ADD DUP5 SSTORE PUSH2 0x443 JUMP JUMPDEST ADD MLOAD PUSH1 0x0 NOT PUSH1 0xF8 DUP5 PUSH1 0x3 SHL AND SHR NOT AND SWAP1 SSTORE DUP10 DUP1 DUP1 PUSH2 0x50E JUMP JUMPDEST SWAP2 SWAP3 PUSH1 0x20 PUSH1 0x1 DUP2 SWAP3 DUP7 DUP6 ADD MLOAD DUP2 SSTORE ADD SWAP5 ADD SWAP3 ADD PUSH2 0x4E8 JUMP JUMPDEST DUP4 PUSH1 0x0 MSTORE PUSH1 0x20 PUSH1 0x0 KECCAK256 PUSH1 0x1F DUP5 ADD PUSH1 0x5 SHR DUP2 ADD PUSH1 0x20 DUP6 LT PUSH2 0x589 JUMPI JUMPDEST PUSH1 0x1F DUP4 ADD PUSH1 0x5 SHR DUP3 ADD DUP2 LT PUSH2 0x57D JUMPI POP POP PUSH2 0x40B JUMP JUMPDEST PUSH1 0x0 DUP2 SSTORE PUSH1 0x1 ADD PUSH2 0x567 JUMP JUMPDEST POP DUP1 PUSH2 0x567 JUMP JUMPDEST PUSH4 0x4E487B71 PUSH1 0xE0 SHL PUSH1 0x0 MSTORE PUSH1 0x41 PUSH1 0x4 MSTORE PUSH1 0x24 PUSH1 0x0 REVERT JUMPDEST CALLVALUE PUSH2 0x2A5 JUMPI PUSH1 0x20 CALLDATASIZE PUSH1 0x3 NOT ADD SLT PUSH2 0x2A5 JUMPI PUSH1 0x20 PUSH2 0x5C9 PUSH2 0x5C4 PUSH2 0x2197 JUMP JUMPDEST PUSH2 0x274C JUMP JUMPDEST PUSH1 0x40 MLOAD SWAP1 DUP2 MSTORE RETURN JUMPDEST CALLVALUE PUSH2 0x2A5 JUMPI PUSH1 0x0 CALLDATASIZE PUSH1 0x3 NOT ADD SLT PUSH2 0x2A5 JUMPI PUSH2 0x5EA PUSH2 0x28F6 JUMP JUMPDEST PUSH1 0x0 DUP1 DUP1 DUP1 SELFBALANCE DUP2 DUP2 ISZERO PUSH2 0x602 JUMPI JUMPDEST CALLER SWAP1 CALL ISZERO PUSH2 0xC1 JUMPI STOP JUMPDEST POP PUSH2 0x8FC PUSH2 0x5F8 JUMP JUMPDEST CALLVALUE PUSH2 0x2A5 JUMPI PUSH1 0x0 CALLDATASIZE PUSH1 0x3 NOT ADD SLT PUSH2 0x2A5 JUMPI PUSH1 0x20 PUSH1 0x5 SLOAD PUSH1 0x40 MLOAD SWAP1 DUP2 MSTORE RETURN JUMPDEST CALLVALUE PUSH2 0x2A5 JUMPI PUSH1 0x20 DUP1 PUSH1 0x3 NOT CALLDATASIZE ADD SLT PUSH2 0x2A5 JUMPI PUSH2 0x643 PUSH2 0x2197 JUMP JUMPDEST PUSH2 0x64B PUSH2 0x279F JUMP JUMPDEST CALLER PUSH1 0x0 MSTORE PUSH1 0x2 DUP3 MSTORE PUSH1 0x40 PUSH1 0x0 KECCAK256 SWAP1 PUSH1 0x1 DUP1 PUSH1 0xA0 SHL SUB AND SWAP2 DUP3 PUSH1 0x0 MSTORE PUSH1 0x40 PUSH1 0x0 KECCAK256 SWAP1 PUSH1 0x4 DUP4 ADD SWAP3 DUP4 SLOAD ISZERO ISZERO DUP1 PUSH2 0x991 JUMPI JUMPDEST ISZERO PUSH2 0x956 JUMPI PUSH1 0xFF PUSH1 0x1 DUP3 ADD SLOAD AND PUSH1 0xFF PUSH1 0x1 DUP6 ADD SLOAD AND ISZERO ISZERO SWAP1 ISZERO ISZERO EQ PUSH2 0x91E JUMPI PUSH1 0xB DUP2 ADD SLOAD PUSH1 0xB DUP5 ADD SLOAD DUP2 SUB PUSH2 0x8E1 JUMPI PUSH1 0x10 DUP3 ADD SLOAD TIMESTAMP LT ISZERO DUP1 PUSH2 0x8D3 JUMPI JUMPDEST ISZERO PUSH2 0x8A2 JUMPI PUSH2 0x6C6 SWAP1 PUSH2 0x2451 JUMP JUMPDEST PUSH2 0x852 JUMPI PUSH1 0x7 DUP2 ADD SLOAD PUSH1 0x8 DUP5 ADD SLOAD DUP1 DUP3 GT ISZERO PUSH2 0x848 JUMPI PUSH2 0x6E5 SWAP2 PUSH2 0x2424 JUMP JUMPDEST SWAP3 JUMPDEST PUSH1 0x7 DUP2 ADD SLOAD PUSH1 0x8 DUP4 ADD SLOAD DUP1 DUP3 GT ISZERO PUSH2 0x83F JUMPI PUSH2 0x702 SWAP2 PUSH2 0x2424 JUMP JUMPDEST PUSH1 0x4 DUP3 ADD DUP1 SLOAD SWAP1 SWAP6 DUP2 DUP2 LT PUSH2 0x82F JUMPI POP POP PUSH1 0x0 DUP6 SSTORE JUMPDEST DUP6 SLOAD SWAP1 DUP2 DUP2 LT PUSH2 0x81F JUMPI POP POP PUSH1 0x0 DUP6 SSTORE JUMPDEST PUSH1 0x0 SWAP4 SLOAD ISZERO PUSH2 0x783 JUMPI JUMPDEST POP PUSH32 0x1D099E3DA7A64D91BF9ED0E41ACEAF6A8E2C1FC0D072EF2779F2EA6988D27988 SWAP3 SWAP4 SLOAD ISZERO PUSH2 0x770 JUMPI JUMPDEST POP PUSH1 0x40 MLOAD SWAP3 ISZERO ISZERO DUP4 MSTORE CALLER SWAP3 LOG3 PUSH1 0x1 DUP1 SSTORE STOP JUMPDEST PUSH1 0x0 PUSH1 0x9 DUP3 ADD SSTORE PUSH1 0xF TIMESTAMP SWAP2 ADD SSTORE DUP5 PUSH2 0x75E JUMP JUMPDEST SWAP3 POP PUSH1 0x0 PUSH1 0x9 DUP5 ADD SSTORE TIMESTAMP PUSH1 0xF DUP5 ADD SSTORE PUSH1 0x9 DUP2 ADD SLOAD SWAP3 PUSH1 0x32 DUP5 MUL SWAP4 DUP1 DUP6 DIV PUSH1 0x32 EQ SWAP1 ISZERO OR ISZERO PUSH2 0x809 JUMPI PUSH1 0x2 ADD DUP1 SLOAD PUSH32 0x1D099E3DA7A64D91BF9ED0E41ACEAF6A8E2C1FC0D072EF2779F2EA6988D27988 SWAP5 SWAP2 SWAP1 DUP1 DUP4 GT PUSH2 0x801 JUMPI JUMPDEST DUP3 PUSH2 0x7E6 SWAP2 PUSH2 0x2424 JUMP JUMPDEST SWAP1 SSTORE PUSH2 0x7F7 PUSH1 0x2 DUP4 ADD SWAP2 DUP3 SLOAD PUSH2 0x2444 JUMP JUMPDEST SWAP1 SSTORE PUSH1 0x1 SWAP3 PUSH2 0x733 JUMP JUMPDEST SWAP2 POP DUP2 PUSH2 0x7DC JUMP JUMPDEST PUSH4 0x4E487B71 PUSH1 0xE0 SHL PUSH1 0x0 MSTORE PUSH1 0x11 PUSH1 0x4 MSTORE PUSH1 0x24 PUSH1 0x0 REVERT JUMPDEST PUSH2 0x828 SWAP2 PUSH2 0x2424 JUMP JUMPDEST DUP6 SSTORE PUSH2 0x729 JUMP JUMPDEST PUSH2 0x838 SWAP2 PUSH2 0x2424 JUMP JUMPDEST DUP6 SSTORE PUSH2 0x718 JUMP JUMPDEST POP POP PUSH1 0x0 PUSH2 0x702 JUMP JUMPDEST POP POP PUSH1 0x0 SWAP3 PUSH2 0x6E7 JUMP JUMPDEST PUSH1 0x40 MLOAD PUSH3 0x461BCD PUSH1 0xE5 SHL DUP2 MSTORE PUSH1 0x4 DUP2 ADD DUP4 SWAP1 MSTORE PUSH1 0x22 PUSH1 0x24 DUP3 ADD MSTORE PUSH32 0x43616E6E6F742061747461636B20617420706F727473202D2073616665206172 PUSH1 0x44 DUP3 ADD MSTORE PUSH2 0x6561 PUSH1 0xF0 SHL PUSH1 0x64 DUP3 ADD MSTORE PUSH1 0x84 SWAP1 REVERT JUMPDEST PUSH1 0x40 MLOAD PUSH3 0x461BCD PUSH1 0xE5 SHL DUP2 MSTORE PUSH1 0x4 DUP2 ADD DUP5 SWAP1 MSTORE PUSH1 0x9 PUSH1 0x24 DUP3 ADD MSTORE PUSH9 0x125B881D1C985D995B PUSH1 0xBA SHL PUSH1 0x44 DUP3 ADD MSTORE PUSH1 0x64 SWAP1 REVERT JUMPDEST POP PUSH1 0x10 DUP5 ADD SLOAD TIMESTAMP LT ISZERO PUSH2 0x6B8 JUMP JUMPDEST PUSH1 0x40 MLOAD PUSH3 0x461BCD PUSH1 0xE5 SHL DUP2 MSTORE PUSH1 0x4 DUP2 ADD DUP5 SWAP1 MSTORE PUSH1 0x15 PUSH1 0x24 DUP3 ADD MSTORE PUSH21 0x26BAB9BA1031329039B0B6B2903637B1B0BA34B7B7 PUSH1 0x59 SHL PUSH1 0x44 DUP3 ADD MSTORE PUSH1 0x64 SWAP1 REVERT JUMPDEST PUSH1 0x40 MLOAD PUSH3 0x461BCD PUSH1 0xE5 SHL DUP2 MSTORE PUSH1 0x4 DUP2 ADD DUP4 SWAP1 MSTORE PUSH1 0x10 PUSH1 0x24 DUP3 ADD MSTORE PUSH16 0x29B0B6B29030B33334B634B0BA34B7B7 PUSH1 0x81 SHL PUSH1 0x44 DUP3 ADD MSTORE PUSH1 0x64 SWAP1 REVERT JUMPDEST PUSH1 0x40 MLOAD PUSH3 0x461BCD PUSH1 0xE5 SHL DUP2 MSTORE PUSH1 0x4 DUP2 ADD DUP4 SWAP1 MSTORE PUSH1 0x13 PUSH1 0x24 DUP3 ADD MSTORE PUSH19 0x13DB99481CDA1A5C081A5CC81DDC9958DAD959 PUSH1 0x6A SHL PUSH1 0x44 DUP3 ADD MSTORE PUSH1 0x64 SWAP1 REVERT JUMPDEST POP PUSH1 0x4 DUP4 ADD SLOAD ISZERO ISZERO PUSH2 0x67B JUMP JUMPDEST CALLVALUE PUSH2 0x2A5 JUMPI PUSH1 0x20 CALLDATASIZE PUSH1 0x3 NOT ADD SLT PUSH2 0x2A5 JUMPI PUSH1 0x6 SLOAD PUSH1 0x4 CALLDATALOAD DUP1 DUP3 LT ISZERO PUSH2 0xB69 JUMPI POP DUP1 JUMPDEST PUSH2 0x9C9 DUP2 PUSH2 0x2706 JUMP JUMPDEST SWAP2 PUSH2 0x9D3 DUP3 PUSH2 0x2706 JUMP JUMPDEST SWAP2 PUSH1 0x0 JUMPDEST DUP3 DUP2 LT PUSH2 0xA0C JUMPI PUSH2 0x9FA DUP6 PUSH2 0xA08 DUP7 PUSH1 0x40 MLOAD SWAP4 DUP5 SWAP4 PUSH1 0x40 DUP6 MSTORE PUSH1 0x40 DUP6 ADD SWAP1 PUSH2 0x232B JUMP JUMPDEST SWAP1 DUP4 DUP3 SUB PUSH1 0x20 DUP6 ADD MSTORE PUSH2 0x2368 JUMP JUMPDEST SUB SWAP1 RETURN JUMPDEST PUSH2 0xA15 DUP2 PUSH2 0x239C JUMP JUMPDEST SWAP1 SLOAD PUSH1 0x1 DUP1 PUSH1 0xA0 SHL SUB SWAP2 PUSH1 0x3 SHL SHR AND PUSH1 0x0 MSTORE PUSH2 0xA98 PUSH1 0x2 DUP1 PUSH1 0x20 MSTORE PUSH2 0xA6A PUSH1 0x6 PUSH1 0x40 PUSH1 0x0 KECCAK256 ADD SLOAD PUSH2 0xA45 DUP6 PUSH2 0x239C JUMP JUMPDEST PUSH1 0x1 DUP1 PUSH1 0xA0 SHL SUB SWAP2 SLOAD SWAP1 PUSH1 0x3 SHL SHR AND PUSH1 0x0 MSTORE DUP3 PUSH1 0x20 MSTORE PUSH1 0x7 PUSH1 0x40 PUSH1 0x0 KECCAK256 ADD SLOAD SWAP1 PUSH2 0x2444 JUMP JUMPDEST SWAP1 PUSH2 0xA74 DUP5 PUSH2 0x239C JUMP JUMPDEST PUSH1 0x1 DUP1 PUSH1 0xA0 SHL SUB SWAP2 SLOAD SWAP1 PUSH1 0x3 SHL SHR AND PUSH1 0x0 MSTORE PUSH1 0x20 MSTORE PUSH1 0x8 PUSH1 0x40 PUSH1 0x0 KECCAK256 ADD SLOAD SWAP1 PUSH2 0x2444 JUMP JUMPDEST PUSH1 0x0 JUMPDEST DUP4 DUP2 LT PUSH2 0xAAD JUMPI JUMPDEST POP POP PUSH1 0x1 ADD PUSH2 0x9D7 JUMP JUMPDEST PUSH2 0xAB7 DUP2 DUP8 PUSH2 0x2738 JUMP JUMPDEST MLOAD DUP3 GT PUSH2 0xAC6 JUMPI PUSH1 0x1 ADD PUSH2 0xA9B JUMP JUMPDEST PUSH1 0x0 NOT DUP5 ADD DUP5 DUP2 GT PUSH2 0x809 JUMPI JUMPDEST DUP2 DUP2 GT PUSH2 0xB13 JUMPI POP SWAP1 PUSH2 0xB0B DUP4 SWAP3 PUSH2 0xAEC PUSH1 0x1 SWAP6 PUSH2 0x239C JUMP JUMPDEST DUP7 DUP1 PUSH1 0xA0 SHL SUB SWAP2 SLOAD SWAP1 PUSH1 0x3 SHL SHR AND PUSH2 0xB04 DUP3 DUP12 PUSH2 0x2738 JUMP JUMPDEST MSTORE DUP8 PUSH2 0x2738 JUMP JUMPDEST MSTORE SWAP1 DUP7 PUSH2 0xAA3 JUMP JUMPDEST DUP1 PUSH1 0x0 NOT DUP2 ADD GT PUSH2 0x809 JUMPI PUSH2 0xB64 SWAP1 PUSH1 0x1 PUSH1 0x1 PUSH1 0xA0 SHL SUB PUSH2 0xB38 PUSH1 0x0 NOT DUP4 ADD DUP12 PUSH2 0x2738 JUMP JUMPDEST MLOAD AND PUSH2 0xB44 DUP3 DUP12 PUSH2 0x2738 JUMP JUMPDEST MSTORE PUSH2 0xB53 PUSH1 0x0 NOT DUP3 ADD DUP10 PUSH2 0x2738 JUMP JUMPDEST MLOAD PUSH2 0xB5E DUP3 DUP11 PUSH2 0x2738 JUMP JUMPDEST MSTORE PUSH2 0x259D JUMP JUMPDEST PUSH2 0xAD3 JUMP JUMPDEST PUSH2 0x9C0 JUMP JUMPDEST CALLVALUE PUSH2 0x2A5 JUMPI PUSH1 0x0 CALLDATASIZE PUSH1 0x3 NOT ADD SLT PUSH2 0x2A5 JUMPI PUSH2 0xB87 PUSH2 0x279F JUMP JUMPDEST CALLER PUSH1 0x0 MSTORE PUSH1 0x2 PUSH1 0x20 MSTORE PUSH1 0x40 PUSH1 0x0 KECCAK256 PUSH2 0xBA4 PUSH1 0x4 DUP3 ADD SLOAD ISZERO ISZERO PUSH2 0x23E9 JUMP JUMPDEST PUSH2 0xBB1 PUSH1 0xB DUP3 ADD SLOAD PUSH2 0x2451 JUMP JUMPDEST ISZERO PUSH2 0xC8C JUMPI PUSH1 0x9 DUP2 ADD SWAP1 DUP2 SLOAD PUSH1 0xA DUP3 ADD SWAP1 DUP2 SLOAD GT ISZERO PUSH2 0xC47 JUMPI PUSH2 0xBD3 CALLER PUSH2 0x2836 JUMP JUMPDEST SLOAD PUSH2 0xBDF DUP4 SLOAD DUP3 PUSH2 0x2424 JUMP JUMPDEST SWAP3 PUSH1 0xA DUP5 MUL SWAP3 DUP5 DUP5 DIV PUSH1 0xA EQ DUP6 ISZERO OR ISZERO PUSH2 0x809 JUMPI PUSH1 0x2 ADD PUSH2 0xC0D DUP5 DUP3 SLOAD PUSH2 0xC08 DUP3 DUP3 LT ISZERO PUSH2 0x2524 JUMP JUMPDEST PUSH2 0x2424 JUMP JUMPDEST SWAP1 SSTORE SSTORE PUSH1 0x40 MLOAD SWAP2 DUP3 MSTORE PUSH1 0x20 DUP3 ADD MSTORE PUSH32 0x868567670EC4DEFB3ADFCE8655DF1B0AAFA7F429CDB1F700FFE925B1AA983560 PUSH1 0x40 CALLER SWAP3 LOG2 PUSH1 0x1 DUP1 SSTORE STOP JUMPDEST PUSH1 0x40 MLOAD PUSH3 0x461BCD PUSH1 0xE5 SHL DUP2 MSTORE PUSH1 0x20 PUSH1 0x4 DUP3 ADD MSTORE PUSH1 0x17 PUSH1 0x24 DUP3 ADD MSTORE PUSH32 0x4372657720616C7265616479206174206D6178696D756D000000000000000000 PUSH1 0x44 DUP3 ADD MSTORE PUSH1 0x64 SWAP1 REVERT JUMPDEST PUSH1 0x40 MLOAD PUSH3 0x461BCD PUSH1 0xE5 SHL DUP2 MSTORE PUSH1 0x20 PUSH1 0x4 DUP3 ADD MSTORE PUSH1 0x11 PUSH1 0x24 DUP3 ADD MSTORE PUSH17 0x135D5CDD08189948185D0818481C1BDC9D PUSH1 0x7A SHL PUSH1 0x44 DUP3 ADD MSTORE PUSH1 0x64 SWAP1 REVERT JUMPDEST CALLVALUE PUSH2 0x2A5 JUMPI PUSH1 0x20 DUP1 PUSH1 0x3 NOT CALLDATASIZE ADD SLT PUSH2 0x2A5 JUMPI PUSH1 0x6 DUP1 SLOAD SWAP2 PUSH1 0x0 SWAP2 SWAP1 PUSH1 0x4 CALLDATALOAD SWAP1 DUP4 JUMPDEST DUP6 DUP2 LT PUSH2 0xF4F JUMPI POP PUSH2 0xCF7 DUP5 PUSH2 0x2706 JUMP JUMPDEST SWAP5 PUSH2 0xD01 DUP6 PUSH2 0x26EE JUMP JUMPDEST SWAP4 PUSH2 0xD0F PUSH1 0x40 MLOAD SWAP6 DUP7 PUSH2 0x21E7 JUMP JUMPDEST DUP6 DUP6 MSTORE PUSH2 0xD1B DUP7 PUSH2 0x26EE JUMP JUMPDEST PUSH1 0x1F NOT SWAP7 SWAP1 DUP8 ADD PUSH1 0x0 JUMPDEST DUP2 DUP2 LT PUSH2 0xF40 JUMPI POP POP PUSH2 0xD37 SWAP1 PUSH2 0x2706 JUMP JUMPDEST SWAP4 PUSH1 0x0 SWAP1 PUSH1 0x0 JUMPDEST DUP5 DUP2 LT PUSH2 0xDCF JUMPI PUSH2 0xD61 DUP10 DUP12 DUP11 DUP11 DUP11 PUSH1 0x40 MLOAD SWAP6 DUP7 SWAP5 PUSH1 0x60 DUP7 MSTORE PUSH1 0x60 DUP7 ADD SWAP1 PUSH2 0x232B JUMP JUMPDEST SWAP1 DUP5 DUP3 SUB DUP2 DUP7 ADD MSTORE DUP4 MLOAD SWAP2 DUP3 DUP2 MSTORE DUP2 DUP2 ADD DUP3 DUP1 DUP6 PUSH1 0x5 SHL DUP5 ADD ADD SWAP7 ADD SWAP8 PUSH1 0x0 SWAP3 JUMPDEST DUP6 DUP5 LT PUSH2 0xD9D JUMPI DUP9 DUP1 PUSH2 0xA08 DUP11 DUP11 DUP4 DUP3 SUB PUSH1 0x40 DUP6 ADD MSTORE PUSH2 0x2368 JUMP JUMPDEST SWAP2 SWAP4 DUP1 DUP1 SWAP8 SWAP10 POP PUSH2 0xDBB DUP10 DUP5 DUP7 PUSH1 0x1 SWAP7 SWAP9 SWAP11 SWAP13 SUB ADD DUP9 MSTORE DUP13 MLOAD PUSH2 0x22AE JUMP JUMPDEST SWAP11 ADD SWAP5 ADD SWAP5 ADD SWAP2 DUP10 SWAP8 SWAP6 SWAP4 SWAP9 SWAP7 SWAP5 SWAP2 PUSH2 0xD82 JUMP JUMPDEST DUP10 PUSH2 0xDDD DUP3 SWAP11 SWAP9 SWAP10 SWAP11 PUSH2 0x239C JUMP JUMPDEST SWAP2 SWAP1 PUSH1 0x1 DUP1 PUSH1 0xA0 SHL SUB DUP1 SWAP2 SLOAD PUSH1 0x3 SWAP5 DUP6 SHL SHR AND PUSH1 0x0 MSTORE DUP9 DUP8 DUP14 PUSH1 0x2 SWAP5 DUP6 DUP5 MSTORE DUP9 PUSH1 0xB PUSH1 0x40 PUSH1 0x0 KECCAK256 ADD SLOAD EQ DUP1 PUSH2 0xF17 JUMPI JUMPDEST PUSH2 0xE25 JUMPI JUMPDEST POP POP POP POP POP POP POP PUSH1 0x1 ADD SWAP8 SWAP7 SWAP6 SWAP8 PUSH2 0xD3E JUMP JUMPDEST DUP8 DUP7 DUP9 SWAP6 DUP8 PUSH2 0xEBC DUP15 SWAP11 SWAP8 DUP6 SWAP16 DUP1 PUSH1 0x1 SWAP16 SWAP10 PUSH2 0xF0A SWAP16 SWAP10 PUSH2 0xE62 PUSH2 0xEFA SWAP16 SWAP13 SWAP5 DUP9 PUSH2 0xED6 SWAP14 PUSH2 0xE56 PUSH2 0xE97 SWAP9 PUSH2 0x239C JUMP JUMPDEST SWAP1 SLOAD SWAP2 SHL SHR AND SWAP3 PUSH2 0x2738 JUMP JUMPDEST MSTORE DUP6 DUP14 PUSH2 0xE6E DUP12 PUSH2 0x239C JUMP JUMPDEST SWAP1 SLOAD SWAP2 SHL SHR AND PUSH1 0x0 MSTORE DUP8 DUP8 MSTORE PUSH2 0xE87 PUSH1 0x40 PUSH1 0x0 KECCAK256 PUSH2 0x2209 JUMP JUMPDEST PUSH2 0xE91 DUP4 DUP4 PUSH2 0x2738 JUMP JUMPDEST MSTORE PUSH2 0x2738 JUMP JUMPDEST POP DUP3 PUSH2 0xEA2 DUP8 PUSH2 0x239C JUMP JUMPDEST SWAP1 SLOAD SWAP1 DUP13 SHL SHR AND PUSH1 0x0 MSTORE DUP5 DUP5 MSTORE PUSH1 0x40 PUSH1 0x0 KECCAK256 ADD SLOAD SWAP5 PUSH2 0x239C JUMP JUMPDEST SWAP1 SLOAD SWAP1 DUP10 SHL SHR AND PUSH1 0x0 MSTORE MSTORE PUSH1 0x7 PUSH1 0x40 PUSH1 0x0 KECCAK256 ADD SLOAD SWAP1 PUSH2 0x2444 JUMP JUMPDEST SWAP3 PUSH2 0xEE0 DUP11 PUSH2 0x239C JUMP JUMPDEST SWAP1 SLOAD SWAP2 SHL SHR AND PUSH1 0x0 MSTORE DUP11 MSTORE PUSH1 0x8 PUSH1 0x40 PUSH1 0x0 KECCAK256 ADD SLOAD SWAP1 PUSH2 0x2444 JUMP JUMPDEST PUSH2 0xF04 DUP3 DUP13 PUSH2 0x2738 JUMP JUMPDEST MSTORE PUSH2 0x2677 JUMP JUMPDEST SWAP3 SWAP1 DUP12 DUP1 DUP9 DUP8 DUP14 DUP16 PUSH2 0xE12 JUMP JUMPDEST POP DUP5 PUSH2 0xF22 DUP10 PUSH2 0x239C JUMP JUMPDEST SWAP1 SLOAD SWAP1 DUP10 SHL SHR AND PUSH1 0x0 MSTORE DUP6 DUP5 MSTORE PUSH1 0x10 PUSH1 0x40 PUSH1 0x0 KECCAK256 ADD SLOAD TIMESTAMP LT ISZERO PUSH2 0xE0D JUMP JUMPDEST PUSH1 0x60 DUP9 DUP3 ADD DUP8 ADD MSTORE DUP6 ADD PUSH2 0xD25 JUMP JUMPDEST PUSH2 0xF5C DUP2 SWAP6 SWAP4 SWAP5 SWAP6 PUSH2 0x239C JUMP JUMPDEST SWAP1 PUSH1 0x1 DUP1 PUSH1 0xA0 SHL SUB DUP1 SWAP2 SLOAD PUSH1 0x3 SWAP4 DUP5 SHL SHR AND PUSH1 0x0 MSTORE PUSH1 0x2 SWAP1 DUP2 DUP6 MSTORE DUP7 PUSH1 0xB PUSH1 0x40 PUSH1 0x0 KECCAK256 ADD SLOAD EQ SWAP3 DUP4 PUSH2 0xFB1 JUMPI JUMPDEST POP POP POP PUSH2 0xF9D JUMPI JUMPDEST PUSH1 0x1 ADD SWAP4 SWAP3 SWAP2 SWAP4 PUSH2 0xCE6 JUMP JUMPDEST SWAP2 PUSH2 0xFA9 PUSH1 0x1 SWAP2 PUSH2 0x2677 JUMP JUMPDEST SWAP3 SWAP1 POP PUSH2 0xF91 JUMP JUMPDEST SWAP1 SWAP2 SWAP3 POP PUSH2 0xFBE DUP5 PUSH2 0x239C JUMP JUMPDEST SWAP1 SLOAD SWAP2 SHL SHR AND PUSH1 0x0 MSTORE DUP3 MSTORE PUSH1 0x10 PUSH1 0x40 PUSH1 0x0 KECCAK256 ADD SLOAD TIMESTAMP LT ISZERO DUP8 DUP1 DUP1 PUSH2 0xF89 JUMP JUMPDEST CALLVALUE PUSH2 0x2A5 JUMPI PUSH1 0x60 CALLDATASIZE PUSH1 0x3 NOT ADD SLT PUSH2 0x2A5 JUMPI PUSH1 0x4 CALLDATALOAD PUSH8 0xFFFFFFFFFFFFFFFF DUP2 GT PUSH2 0x2A5 JUMPI PUSH2 0x100E SWAP1 CALLDATASIZE SWAP1 PUSH1 0x4 ADD PUSH2 0x22FD JUMP JUMPDEST SWAP1 PUSH2 0x1017 PUSH2 0x22EE JUMP JUMPDEST SWAP2 DUP1 ISZERO ISZERO DUP1 PUSH2 0x142D JUMPI JUMPDEST ISZERO PUSH2 0x13E8 JUMPI PUSH1 0x64 DUP1 PUSH1 0x44 CALLDATALOAD GT PUSH2 0x13AD JUMPI CALLER PUSH1 0x0 MSTORE PUSH1 0x2 PUSH1 0x20 MSTORE PUSH1 0x40 PUSH1 0x0 KECCAK256 PUSH1 0x4 DUP2 ADD SLOAD ISZERO SWAP1 DUP2 PUSH2 0x13A0 JUMPI JUMPDEST POP ISZERO PUSH2 0x1368 JUMPI PUSH1 0x40 MLOAD SWAP1 PUSH2 0x240 DUP3 ADD DUP3 DUP2 LT PUSH8 0xFFFFFFFFFFFFFFFF DUP3 GT OR PUSH2 0x590 JUMPI PUSH1 0x40 MSTORE PUSH2 0x107C CALLDATASIZE DUP5 DUP7 PUSH2 0x2686 JUMP JUMPDEST DUP3 MSTORE DUP5 ISZERO ISZERO PUSH1 0x20 DUP4 ADD MSTORE DUP1 PUSH1 0x40 DUP4 ADD MSTORE PUSH1 0x0 PUSH1 0x60 DUP4 ADD MSTORE DUP1 PUSH1 0x80 DUP4 ADD MSTORE PUSH1 0xA0 DUP3 ADD MSTORE PUSH1 0x1 PUSH1 0xC0 DUP3 ADD MSTORE PUSH1 0x1 PUSH1 0xE0 DUP3 ADD MSTORE PUSH1 0x1 PUSH2 0x100 DUP3 ADD MSTORE PUSH1 0x1 PUSH2 0x120 DUP3 ADD MSTORE PUSH1 0xA PUSH2 0x140 DUP3 ADD MSTORE PUSH1 0x44 CALLDATALOAD PUSH2 0x160 DUP3 ADD MSTORE PUSH1 0x0 PUSH2 0x180 DUP3 ADD MSTORE PUSH1 0x0 PUSH2 0x1A0 DUP3 ADD MSTORE PUSH1 0x0 PUSH2 0x1C0 DUP3 ADD MSTORE PUSH1 0x0 PUSH2 0x1E0 DUP3 ADD MSTORE PUSH1 0x0 PUSH2 0x200 DUP3 ADD MSTORE TIMESTAMP PUSH2 0x220 DUP3 ADD MSTORE CALLER PUSH1 0x0 MSTORE PUSH1 0x2 PUSH1 0x20 MSTORE PUSH1 0x40 PUSH1 0x0 KECCAK256 SWAP1 DUP1 MLOAD DUP1 MLOAD SWAP1 PUSH8 0xFFFFFFFFFFFFFFFF DUP3 GT PUSH2 0x590 JUMPI PUSH2 0x1129 DUP5 SLOAD PUSH2 0x21AD JUMP JUMPDEST PUSH1 0x1F DUP2 GT PUSH2 0x1324 JUMPI JUMPDEST POP PUSH1 0x20 SWAP1 PUSH1 0x1F DUP4 GT PUSH1 0x1 EQ PUSH2 0x12B4 JUMPI SWAP2 DUP1 PUSH1 0x11 SWAP5 SWAP3 PUSH2 0x220 SWAP5 PUSH1 0x0 SWAP3 PUSH2 0x12A9 JUMPI JUMPDEST POP POP DUP2 PUSH1 0x1 SHL SWAP2 PUSH1 0x0 NOT SWAP1 PUSH1 0x3 SHL SHR NOT AND OR DUP5 SSTORE JUMPDEST PUSH1 0x1 DUP5 ADD PUSH1 0x20 DUP3 ADD MLOAD ISZERO ISZERO PUSH1 0xFF DUP1 NOT DUP4 SLOAD AND SWAP2 AND OR SWAP1 SSTORE PUSH1 0x40 DUP2 ADD MLOAD PUSH1 0x2 DUP6 ADD SSTORE PUSH1 0x60 DUP2 ADD MLOAD PUSH1 0x3 DUP6 ADD SSTORE PUSH1 0x80 DUP2 ADD MLOAD PUSH1 0x4 DUP6 ADD SSTORE PUSH1 0xA0 DUP2 ADD MLOAD PUSH1 0x5 DUP6 ADD SSTORE PUSH1 0xC0 DUP2 ADD MLOAD PUSH1 0x6 DUP6 ADD SSTORE PUSH1 0xE0 DUP2 ADD MLOAD PUSH1 0x7 DUP6 ADD SSTORE PUSH2 0x100 DUP2 ADD MLOAD PUSH1 0x8 DUP6 ADD SSTORE PUSH2 0x120 DUP2 ADD MLOAD PUSH1 0x9 DUP6 ADD SSTORE PUSH2 0x140 DUP2 ADD MLOAD PUSH1 0xA DUP6 ADD SSTORE PUSH2 0x160 DUP2 ADD MLOAD PUSH1 0xB DUP6 ADD SSTORE PUSH2 0x180 DUP2 ADD MLOAD PUSH1 0xC DUP6 ADD SSTORE PUSH2 0x1A0 DUP2 ADD MLOAD PUSH1 0xD DUP6 ADD SSTORE PUSH2 0x1C0 DUP2 ADD MLOAD PUSH1 0xE DUP6 ADD SSTORE PUSH2 0x1E0 DUP2 ADD MLOAD PUSH1 0xF DUP6 ADD SSTORE PUSH2 0x200 DUP2 ADD MLOAD PUSH1 0x10 DUP6 ADD SSTORE ADD MLOAD SWAP2 ADD SSTORE PUSH1 0x6 SLOAD PUSH9 0x10000000000000000 DUP2 LT ISZERO PUSH2 0x590 JUMPI PUSH32 0x47456E7EC68E981A8F02D9C9528370ADEA595C1B26225BE6797E6D441C47FC02 SWAP3 PUSH2 0x126C DUP3 PUSH1 0x1 PUSH2 0x1299 SWAP5 ADD PUSH1 0x6 SSTORE PUSH2 0x239C JUMP JUMPDEST DUP2 SLOAD PUSH1 0x1 PUSH1 0x1 PUSH1 0xA0 SHL SUB PUSH1 0x3 SWAP3 SWAP1 SWAP3 SHL SWAP2 DUP3 SHL NOT AND CALLER SWAP1 SWAP2 SHL OR SWAP1 SSTORE PUSH1 0x40 DUP1 MLOAD DUP2 DUP2 MSTORE SWAP4 SWAP1 DUP5 ADD SWAP2 PUSH2 0x26CD JUMP JUMPDEST SWAP3 ISZERO ISZERO PUSH1 0x20 DUP3 ADD MSTORE DUP1 CALLER SWAP4 SUB SWAP1 LOG2 STOP JUMPDEST ADD MLOAD SWAP1 POP DUP10 DUP1 PUSH2 0x1153 JUMP JUMPDEST SWAP1 DUP5 PUSH1 0x0 MSTORE PUSH1 0x20 PUSH1 0x0 KECCAK256 SWAP2 PUSH1 0x0 JUMPDEST PUSH1 0x1F NOT DUP6 AND DUP2 LT PUSH2 0x130C JUMPI POP SWAP3 PUSH1 0x11 SWAP5 SWAP3 PUSH1 0x1 SWAP3 PUSH2 0x220 SWAP6 DUP4 PUSH1 0x1F NOT DUP2 AND LT PUSH2 0x12F3 JUMPI JUMPDEST POP POP POP DUP2 SHL ADD DUP5 SSTORE PUSH2 0x1168 JUMP JUMPDEST ADD MLOAD PUSH1 0x0 NOT PUSH1 0xF8 DUP5 PUSH1 0x3 SHL AND SHR NOT AND SWAP1 SSTORE DUP10 DUP1 DUP1 PUSH2 0x12E6 JUMP JUMPDEST SWAP2 SWAP3 PUSH1 0x20 PUSH1 0x1 DUP2 SWAP3 DUP7 DUP6 ADD MLOAD DUP2 SSTORE ADD SWAP5 ADD SWAP3 ADD PUSH2 0x12C2 JUMP JUMPDEST DUP5 PUSH1 0x0 MSTORE PUSH1 0x20 PUSH1 0x0 KECCAK256 PUSH1 0x1F DUP5 ADD PUSH1 0x5 SHR DUP2 ADD PUSH1 0x20 DUP6 LT PUSH2 0x1361 JUMPI JUMPDEST PUSH1 0x1F DUP4 ADD PUSH1 0x5 SHR DUP3 ADD DUP2 LT PUSH2 0x1355 JUMPI POP POP PUSH2 0x1132 JUMP JUMPDEST PUSH1 0x0 DUP2 SSTORE PUSH1 0x1 ADD PUSH2 0x133F JUMP JUMPDEST POP DUP1 PUSH2 0x133F JUMP JUMPDEST PUSH1 0x40 MLOAD PUSH3 0x461BCD PUSH1 0xE5 SHL DUP2 MSTORE PUSH1 0x20 PUSH1 0x4 DUP3 ADD MSTORE PUSH1 0x13 PUSH1 0x24 DUP3 ADD MSTORE PUSH19 0x105B1C9958591E481A185CC81858D8DBDD5B9D PUSH1 0x6A SHL PUSH1 0x44 DUP3 ADD MSTORE REVERT JUMPDEST PUSH1 0x9 SWAP2 POP ADD SLOAD ISZERO DUP6 PUSH2 0x104C JUMP JUMPDEST PUSH1 0x40 MLOAD PUSH3 0x461BCD PUSH1 0xE5 SHL DUP2 MSTORE PUSH1 0x20 PUSH1 0x4 DUP3 ADD MSTORE PUSH1 0x16 PUSH1 0x24 DUP3 ADD MSTORE PUSH22 0x4C6F636174696F6E206D75737420626520302D31303 PUSH1 0x54 SHL PUSH1 0x44 DUP3 ADD MSTORE REVERT JUMPDEST PUSH1 0x40 MLOAD PUSH3 0x461BCD PUSH1 0xE5 SHL DUP2 MSTORE PUSH1 0x20 PUSH1 0x4 DUP3 ADD MSTORE PUSH1 0x18 PUSH1 0x24 DUP3 ADD MSTORE PUSH32 0x426F6174206E616D6520696E76616C6964206C656E6774680000000000000000 PUSH1 0x44 DUP3 ADD MSTORE PUSH1 0x64 SWAP1 REVERT JUMPDEST POP PUSH1 0xC DUP2 GT ISZERO PUSH2 0x1021 JUMP JUMPDEST CALLVALUE PUSH2 0x2A5 JUMPI PUSH1 0x20 DUP1 PUSH1 0x3 NOT CALLDATASIZE ADD SLT PUSH2 0x2A5 JUMPI PUSH1 0x4 CALLDATALOAD SWAP1 PUSH2 0x1456 PUSH2 0x279F JUMP JUMPDEST DUP2 PUSH1 0x0 MSTORE PUSH1 0x3 DUP2 MSTORE PUSH1 0x9 PUSH1 0x7 PUSH1 0x40 PUSH1 0x0 KECCAK256 CALLER PUSH1 0x0 MSTORE PUSH1 0x2 DUP5 MSTORE PUSH1 0x40 PUSH1 0x0 KECCAK256 SWAP4 PUSH2 0x14B1 PUSH1 0x1 DUP4 ADD PUSH2 0x1488 DUP2 SLOAD ISZERO ISZERO PUSH2 0x24E4 JUMP JUMPDEST PUSH2 0x1491 CALLER PUSH2 0x2836 JUMP JUMPDEST CALLER PUSH1 0x0 MSTORE PUSH1 0x4 DUP4 MSTORE PUSH1 0x40 PUSH1 0x0 KECCAK256 DUP9 PUSH1 0x0 MSTORE DUP4 MSTORE PUSH1 0x40 PUSH1 0x0 KECCAK256 SLOAD SWAP1 SLOAD PUSH2 0x27C2 JUMP JUMPDEST PUSH2 0x14C7 PUSH1 0x2 DUP8 ADD SWAP2 DUP3 SLOAD PUSH2 0xC08 DUP3 DUP3 LT ISZERO PUSH2 0x2524 JUMP JUMPDEST SWAP1 SSTORE CALLER PUSH1 0x0 MSTORE PUSH1 0x4 DUP2 MSTORE PUSH1 0x40 PUSH1 0x0 KECCAK256 SWAP1 DUP7 PUSH1 0x0 MSTORE MSTORE PUSH1 0x40 PUSH1 0x0 KECCAK256 PUSH2 0x14EB DUP2 SLOAD PUSH2 0x2677 JUMP JUMPDEST SWAP1 SSTORE PUSH1 0x2 DUP2 ADD SLOAD PUSH2 0x1501 PUSH1 0xC DUP7 ADD SWAP2 DUP3 SLOAD PUSH2 0x2444 JUMP JUMPDEST SWAP1 SSTORE PUSH1 0x3 DUP2 ADD DUP1 SLOAD PUSH2 0x1518 PUSH1 0x5 DUP8 ADD SWAP2 DUP3 SLOAD PUSH2 0x2444 JUMP JUMPDEST SWAP1 SSTORE SLOAD PUSH2 0x152A PUSH1 0x4 DUP7 ADD SWAP2 DUP3 SLOAD PUSH2 0x2444 JUMP JUMPDEST SWAP1 SSTORE PUSH1 0x4 DUP2 ADD SLOAD PUSH2 0x1540 PUSH1 0x6 DUP7 ADD SWAP2 DUP3 SLOAD PUSH2 0x2444 JUMP JUMPDEST SWAP1 SSTORE PUSH1 0x5 DUP2 ADD SLOAD PUSH2 0x1555 DUP4 DUP7 ADD SWAP2 DUP3 SLOAD PUSH2 0x2444 JUMP JUMPDEST SWAP1 SSTORE PUSH1 0x6 DUP2 ADD SLOAD PUSH2 0x156B PUSH1 0x8 DUP7 ADD SWAP2 DUP3 SLOAD PUSH2 0x2444 JUMP JUMPDEST SWAP1 SSTORE ADD SLOAD SWAP2 PUSH2 0x157F PUSH1 0xA DUP3 ADD SWAP4 DUP5 SLOAD PUSH2 0x2444 JUMP JUMPDEST DUP1 SWAP4 SSTORE ADD DUP2 DUP2 SLOAD GT PUSH2 0x15B9 JUMPI JUMPDEST DUP3 CALLER PUSH32 0xCF52C8AA8ED6B7D560B4E75DB6AB973723DE269D5580985C8880844D4ED6D7C0 PUSH1 0x0 DUP1 LOG3 PUSH1 0x1 DUP1 SSTORE STOP JUMPDEST SSTORE DUP2 DUP1 PUSH2 0x158C JUMP JUMPDEST CALLVALUE PUSH2 0x2A5 JUMPI PUSH1 0x0 CALLDATASIZE PUSH1 0x3 NOT ADD SLT PUSH2 0x2A5 JUMPI PUSH1 0x0 SLOAD PUSH1 0x40 MLOAD PUSH1 0x1 PUSH1 0x1 PUSH1 0xA0 SHL SUB SWAP1 SWAP2 AND DUP2 MSTORE PUSH1 0x20 SWAP1 RETURN JUMPDEST PUSH1 0x40 CALLDATASIZE PUSH1 0x3 NOT ADD SLT PUSH2 0x2A5 JUMPI PUSH1 0x4 CALLDATALOAD PUSH2 0x1601 PUSH2 0x22EE JUMP JUMPDEST PUSH2 0x1609 PUSH2 0x279F JUMP JUMPDEST CALLER PUSH1 0x0 MSTORE PUSH1 0x20 PUSH1 0x2 DUP2 MSTORE PUSH1 0x40 PUSH1 0x0 KECCAK256 SWAP1 PUSH2 0x1628 PUSH1 0x4 DUP4 ADD SLOAD ISZERO ISZERO PUSH2 0x23E9 JUMP JUMPDEST PUSH1 0x10 DUP3 ADD SWAP2 DUP3 SLOAD TIMESTAMP LT PUSH2 0x1859 JUMPI PUSH1 0x64 SWAP1 DUP2 DUP7 GT PUSH2 0x1823 JUMPI PUSH1 0xB DUP2 ADD SWAP2 DUP3 SLOAD DUP1 DUP9 EQ PUSH2 0x17F0 JUMPI DUP8 DUP2 DUP2 GT ISZERO PUSH2 0x17E1 JUMPI SWAP1 PUSH2 0x1660 SWAP2 PUSH2 0x2424 JUMP JUMPDEST SWAP2 JUMPDEST PUSH2 0xE10 SWAP3 DUP4 DUP2 MUL SWAP1 DUP1 DUP3 DIV DUP6 EQ DUP2 ISZERO OR ISZERO PUSH2 0x809 JUMPI PUSH1 0x6 DUP4 ADD SLOAD SWAP1 PUSH2 0x12C SWAP2 DUP3 DUP2 MUL SWAP3 DUP2 DUP5 DIV EQ SWAP1 ISZERO OR ISZERO PUSH2 0x809 JUMPI PUSH2 0x169A SWAP2 PUSH2 0x2431 JUMP JUMPDEST DUP2 DUP2 LT PUSH2 0x17D2 JUMPI POP POP PUSH1 0x0 SWAP3 JUMPDEST DUP8 ISZERO PUSH2 0x178C JUMPI DUP4 DIV SWAP1 CALLVALUE PUSH2 0x1756 JUMPI PUSH1 0x3 ADD SWAP2 DUP3 SLOAD SWAP1 DUP3 DUP3 LT PUSH2 0x171E JUMPI POP SWAP2 PUSH2 0x16D5 DUP10 SWAP6 SWAP5 SWAP3 PUSH2 0x16DE SWAP5 PUSH2 0x2424 JUMP JUMPDEST SWAP1 SSTORE JUMPDEST TIMESTAMP PUSH2 0x2444 JUMP JUMPDEST DUP1 SWAP5 SSTORE SSTORE PUSH1 0x40 MLOAD SWAP4 DUP5 MSTORE DUP4 ADD MSTORE ISZERO ISZERO PUSH1 0x40 DUP3 ADD MSTORE PUSH32 0x9782A86993C9E75E77FDBBA3381A28A46E4F356E9516E67313BD4BD859C88A3F PUSH1 0x60 CALLER SWAP3 LOG2 PUSH1 0x1 DUP1 SSTORE STOP JUMPDEST PUSH1 0x40 MLOAD PUSH3 0x461BCD PUSH1 0xE5 SHL DUP2 MSTORE PUSH1 0x4 DUP2 ADD DUP9 SWAP1 MSTORE PUSH1 0x13 PUSH1 0x24 DUP3 ADD MSTORE PUSH19 0x4E6F7420656E6F756768206469616D6F6E6473 PUSH1 0x68 SHL PUSH1 0x44 DUP3 ADD MSTORE REVERT JUMPDEST PUSH1 0x40 MLOAD PUSH3 0x461BCD PUSH1 0xE5 SHL DUP2 MSTORE PUSH1 0x4 DUP2 ADD DUP8 SWAP1 MSTORE PUSH1 0xF PUSH1 0x24 DUP3 ADD MSTORE PUSH15 0x14185E481D9A5848191A585B5BDB99 PUSH1 0x8A SHL PUSH1 0x44 DUP3 ADD MSTORE DUP4 SWAP1 REVERT JUMPDEST POP POP CALLVALUE PUSH2 0x179F JUMPI POP SWAP1 PUSH2 0x16DE DUP7 SWAP3 PUSH2 0x16D8 JUMP JUMPDEST PUSH1 0x40 MLOAD PUSH3 0x461BCD PUSH1 0xE5 SHL DUP2 MSTORE PUSH1 0x4 DUP2 ADD DUP6 SWAP1 MSTORE PUSH1 0xE PUSH1 0x24 DUP3 ADD MSTORE PUSH14 0x2237B713BA1039B2B732102C2A2D PUSH1 0x91 SHL PUSH1 0x44 DUP3 ADD MSTORE REVERT JUMPDEST PUSH2 0x17DB SWAP2 PUSH2 0x2424 JUMP JUMPDEST SWAP3 PUSH2 0x16A7 JUMP JUMPDEST PUSH2 0x17EA SWAP2 PUSH2 0x2424 JUMP JUMPDEST SWAP2 PUSH2 0x1662 JUMP JUMPDEST POP PUSH1 0x40 MLOAD PUSH3 0x461BCD PUSH1 0xE5 SHL DUP2 MSTORE PUSH1 0x4 DUP2 ADD DUP6 SWAP1 MSTORE PUSH1 0xD PUSH1 0x24 DUP3 ADD MSTORE PUSH13 0x29B0B6B2903637B1B0BA34B7B7 PUSH1 0x99 SHL PUSH1 0x44 DUP3 ADD MSTORE REVERT JUMPDEST POP SWAP1 PUSH1 0x40 MLOAD SWAP1 PUSH3 0x461BCD PUSH1 0xE5 SHL DUP3 MSTORE PUSH1 0x4 DUP3 ADD MSTORE PUSH1 0x10 PUSH1 0x24 DUP3 ADD MSTORE PUSH16 0x131BD8D85D1A5BDB881A5B9D985B1A59 PUSH1 0x82 SHL PUSH1 0x44 DUP3 ADD MSTORE REVERT JUMPDEST PUSH1 0x40 MLOAD PUSH3 0x461BCD PUSH1 0xE5 SHL DUP2 MSTORE PUSH1 0x4 DUP2 ADD DUP4 SWAP1 MSTORE PUSH1 0x11 PUSH1 0x24 DUP3 ADD MSTORE PUSH17 0x416C72656164792074726176656C696E67 PUSH1 0x78 SHL PUSH1 0x44 DUP3 ADD MSTORE PUSH1 0x64 SWAP1 REVERT JUMPDEST CALLVALUE PUSH2 0x2A5 JUMPI PUSH1 0x20 CALLDATASIZE PUSH1 0x3 NOT ADD SLT PUSH2 0x2A5 JUMPI PUSH1 0x4 CALLDATALOAD PUSH1 0x0 MSTORE PUSH1 0x3 PUSH1 0x20 MSTORE PUSH2 0x18FB PUSH1 0x40 PUSH1 0x0 KECCAK256 PUSH2 0x18BF DUP2 PUSH2 0x2209 JUMP JUMPDEST SWAP1 PUSH1 0x1 DUP2 ADD SLOAD SWAP1 PUSH1 0x2 DUP2 ADD SLOAD SWAP1 PUSH1 0x3 DUP2 ADD SLOAD PUSH1 0x4 DUP3 ADD SLOAD PUSH1 0x5 DUP4 ADD SLOAD SWAP2 PUSH1 0x7 PUSH1 0x6 DUP6 ADD SLOAD SWAP5 ADD SLOAD SWAP5 PUSH1 0x40 MLOAD SWAP9 DUP10 SWAP9 PUSH2 0x100 DUP1 DUP12 MSTORE DUP11 ADD SWAP1 PUSH2 0x22AE JUMP JUMPDEST SWAP7 PUSH1 0x20 DUP10 ADD MSTORE PUSH1 0x40 DUP9 ADD MSTORE PUSH1 0x60 DUP8 ADD MSTORE PUSH1 0x80 DUP7 ADD MSTORE PUSH1 0xA0 DUP6 ADD MSTORE PUSH1 0xC0 DUP5 ADD MSTORE PUSH1 0xE0 DUP4 ADD MSTORE SUB SWAP1 RETURN JUMPDEST CALLVALUE PUSH2 0x2A5 JUMPI PUSH1 0x0 CALLDATASIZE PUSH1 0x3 NOT ADD SLT PUSH2 0x2A5 JUMPI PUSH2 0x193C PUSH2 0x28F6 JUMP JUMPDEST PUSH1 0x0 DUP1 SLOAD PUSH1 0x1 PUSH1 0x1 PUSH1 0xA0 SHL SUB NOT DUP2 AND DUP3 SSTORE PUSH1 0x1 PUSH1 0x1 PUSH1 0xA0 SHL SUB AND PUSH32 0x8BE0079C531659141344CD1FD0A4F28419497F9722A3DAAFE3B4186F6B6457E0 DUP3 DUP1 LOG3 STOP JUMPDEST CALLVALUE PUSH2 0x2A5 JUMPI PUSH1 0x20 CALLDATASIZE PUSH1 0x3 NOT ADD SLT PUSH2 0x2A5 JUMPI PUSH1 0x20 PUSH2 0x5C9 PUSH2 0x199A PUSH2 0x2197 JUMP JUMPDEST PUSH2 0x2600 JUMP JUMPDEST CALLVALUE PUSH2 0x2A5 JUMPI PUSH1 0x20 CALLDATASIZE PUSH1 0x3 NOT ADD SLT PUSH2 0x2A5 JUMPI PUSH1 0x20 PUSH2 0x5C9 PUSH2 0x19BD PUSH2 0x2197 JUMP JUMPDEST PUSH2 0x25AA JUMP JUMPDEST PUSH1 0x40 CALLDATASIZE PUSH1 0x3 NOT ADD SLT PUSH2 0x2A5 JUMPI PUSH1 0x4 CALLDATALOAD DUP1 ISZERO ISZERO SWAP1 DUP2 DUP2 SUB PUSH2 0x2A5 JUMPI PUSH2 0x19E4 PUSH2 0x22EE JUMP JUMPDEST SWAP2 PUSH2 0x19ED PUSH2 0x279F JUMP JUMPDEST CALLER PUSH1 0x0 MSTORE PUSH1 0x20 PUSH1 0x2 DUP2 MSTORE PUSH1 0x40 PUSH1 0x0 KECCAK256 SWAP3 PUSH1 0x4 DUP5 ADD DUP1 SLOAD PUSH2 0x1C6E JUMPI PUSH1 0xF DUP6 ADD SWAP2 DUP3 SLOAD PUSH2 0x4650 DUP2 ADD DUP1 SWAP2 GT PUSH2 0x809 JUMPI TIMESTAMP LT PUSH2 0x1C29 JUMPI PUSH1 0x5 DUP7 ADD SWAP7 DUP8 SLOAD PUSH1 0x9 DUP2 ADD DUP1 SWAP2 GT PUSH2 0x809 JUMPI PUSH1 0xA SWAP1 DIV PUSH1 0x5 DUP2 MUL SWAP1 DUP1 DUP3 DIV PUSH1 0x5 EQ SWAP1 ISZERO OR ISZERO PUSH2 0x809 JUMPI DUP1 SWAP3 PUSH1 0x0 EQ PUSH2 0x1BC5 JUMPI POP PUSH2 0x1A60 PUSH1 0xB DUP9 ADD SLOAD PUSH2 0x2451 JUMP JUMPDEST ISZERO PUSH2 0x1B92 JUMPI DUP1 DUP2 ISZERO PUSH2 0x1B84 JUMPI JUMPDEST ISZERO PUSH2 0x1B48 JUMPI ISZERO PUSH2 0x1AD6 JUMPI POP PUSH1 0x3 PUSH1 0x0 SWAP4 SWAP5 SWAP6 ADD PUSH2 0x1A97 DUP2 SLOAD PUSH2 0x1A92 PUSH1 0x1 DUP3 LT ISZERO PUSH2 0x2562 JUMP JUMPDEST PUSH2 0x259D JUMP JUMPDEST SWAP1 SSTORE DUP3 SWAP6 JUMPDEST SLOAD SWAP1 SSTORE JUMPDEST SSTORE PUSH1 0x40 MLOAD SWAP3 DUP4 MSTORE DUP3 ADD MSTORE PUSH32 0x373B52989F2BA23B87F95FD574EC63C228517395D926F37AC176151452F3AB46 PUSH1 0x40 CALLER SWAP3 LOG2 PUSH1 0x1 DUP1 SSTORE STOP JUMPDEST SWAP5 PUSH1 0x2 SWAP1 PUSH2 0x1AE3 CALLER PUSH2 0x2836 JUMP JUMPDEST ADD SWAP6 DUP7 SLOAD SWAP7 DUP7 DUP9 LT PUSH2 0x1B05 JUMPI PUSH2 0x1AFE DUP8 PUSH1 0x0 SWAP7 SWAP8 SWAP9 SWAP10 PUSH2 0x2424 JUMP JUMPDEST SWAP1 SSTORE PUSH2 0x1A9C JUMP JUMPDEST PUSH1 0x64 DUP6 PUSH1 0x40 MLOAD SWAP1 PUSH3 0x461BCD PUSH1 0xE5 SHL DUP3 MSTORE DUP1 PUSH1 0x4 DUP4 ADD MSTORE PUSH1 0x24 DUP3 ADD MSTORE PUSH32 0x4E6F7420656E6F75676820676F6C64206166746572206175746F2D636C61696D PUSH1 0x44 DUP3 ADD MSTORE REVERT JUMPDEST PUSH1 0x40 MLOAD PUSH3 0x461BCD PUSH1 0xE5 SHL DUP2 MSTORE PUSH1 0x4 DUP2 ADD DUP7 SWAP1 MSTORE PUSH1 0x14 PUSH1 0x24 DUP3 ADD MSTORE PUSH20 0x139959590819DBDB19081BDC88191A585B5BDB99 PUSH1 0x62 SHL PUSH1 0x44 DUP3 ADD MSTORE PUSH1 0x64 SWAP1 REVERT JUMPDEST POP DUP2 PUSH1 0x2 DUP9 ADD SLOAD LT ISZERO PUSH2 0x1A6D JUMP JUMPDEST PUSH1 0x40 MLOAD PUSH3 0x461BCD PUSH1 0xE5 SHL DUP2 MSTORE PUSH1 0x4 DUP2 ADD DUP7 SWAP1 MSTORE PUSH1 0xB PUSH1 0x24 DUP3 ADD MSTORE PUSH11 0x139BDD08185D081C1BDC9D PUSH1 0xAA SHL PUSH1 0x44 DUP3 ADD MSTORE PUSH1 0x64 SWAP1 REVERT JUMPDEST SWAP1 SWAP7 SWAP3 SWAP4 SWAP5 SWAP6 SWAP7 PUSH1 0x0 EQ PUSH2 0x1BFC JUMPI POP POP SWAP1 PUSH1 0x3 PUSH1 0x0 SWAP4 SWAP3 ADD PUSH2 0x1BEF DUP2 SLOAD PUSH2 0x1A92 PUSH1 0x1 DUP3 LT ISZERO PUSH2 0x2562 JUMP JUMPDEST SWAP1 SSTORE DUP3 SWAP6 JUMPDEST SLOAD SWAP1 SSTORE PUSH2 0x1AA0 JUMP JUMPDEST PUSH2 0x1C22 PUSH1 0x2 PUSH1 0x0 SWAP7 SWAP6 SWAP5 PUSH2 0x1C12 SWAP11 SWAP5 SWAP11 CALLER PUSH2 0x2836 JUMP JUMPDEST ADD SWAP2 DUP3 SLOAD PUSH2 0xC08 DUP3 DUP3 LT ISZERO PUSH2 0x2524 JUMP JUMPDEST SWAP1 SSTORE PUSH2 0x1BF4 JUMP JUMPDEST PUSH1 0x40 MLOAD PUSH3 0x461BCD PUSH1 0xE5 SHL DUP2 MSTORE PUSH1 0x4 DUP2 ADD DUP6 SWAP1 MSTORE PUSH1 0x1A PUSH1 0x24 DUP3 ADD MSTORE PUSH32 0x4E6F7420726561647920666F7220626173696320726570616972000000000000 PUSH1 0x44 DUP3 ADD MSTORE PUSH1 0x64 SWAP1 REVERT JUMPDEST PUSH1 0x40 MLOAD PUSH3 0x461BCD PUSH1 0xE5 SHL DUP2 MSTORE PUSH1 0x4 DUP2 ADD DUP5 SWAP1 MSTORE PUSH1 0x10 PUSH1 0x24 DUP3 ADD MSTORE PUSH16 0x14DA1A5C081B9BDD081DDC9958DAD959 PUSH1 0x82 SHL PUSH1 0x44 DUP3 ADD MSTORE PUSH1 0x64 SWAP1 REVERT JUMPDEST CALLVALUE PUSH2 0x2A5 JUMPI PUSH1 0x20 CALLDATASIZE PUSH1 0x3 NOT ADD SLT PUSH2 0x2A5 JUMPI PUSH1 0x1 PUSH1 0x1 PUSH1 0xA0 SHL SUB PUSH2 0x1CC7 PUSH2 0x2197 JUMP JUMPDEST AND PUSH1 0x0 MSTORE PUSH1 0x2 PUSH1 0x20 MSTORE PUSH1 0x40 PUSH1 0x0 KECCAK256 PUSH2 0x1CDE DUP2 PUSH2 0x2209 JUMP JUMPDEST SWAP1 PUSH1 0x1 DUP2 ADD SLOAD PUSH1 0xFF AND PUSH1 0xA0 MSTORE PUSH1 0x2 DUP2 ADD SLOAD PUSH1 0xE0 MSTORE PUSH1 0x3 DUP2 ADD SLOAD PUSH2 0x100 MSTORE PUSH1 0x4 DUP2 ADD SLOAD SWAP2 PUSH1 0x5 DUP3 ADD SLOAD PUSH1 0x6 DUP4 ADD SLOAD PUSH1 0x7 DUP5 ADD SLOAD PUSH1 0x8 DUP6 ADD SLOAD PUSH1 0x9 DUP7 ADD SLOAD PUSH1 0xA DUP8 ADD SLOAD SWAP1 PUSH1 0xB DUP9 ADD SLOAD SWAP3 PUSH1 0xC DUP10 ADD SLOAD SWAP5 PUSH1 0xD DUP11 ADD SLOAD SWAP7 PUSH1 0xE DUP12 ADD SLOAD SWAP9 PUSH1 0xF DUP13 ADD SLOAD SWAP11 PUSH1 0x10 DUP14 ADD SLOAD SWAP13 PUSH1 0x11 ADD SLOAD PUSH1 0x80 MSTORE PUSH1 0x40 MLOAD PUSH1 0xC0 MSTORE PUSH2 0x240 DUP1 PUSH1 0xC0 MLOAD MSTORE PUSH1 0xC0 MLOAD ADD PUSH2 0x1D66 SWAP2 PUSH2 0x22AE JUMP JUMPDEST SWAP13 PUSH1 0xA0 MLOAD ISZERO ISZERO PUSH1 0xC0 MLOAD PUSH1 0x20 ADD MSTORE PUSH1 0xE0 MLOAD PUSH1 0xC0 MLOAD PUSH1 0x40 ADD MSTORE PUSH2 0x100 MLOAD PUSH1 0xC0 MLOAD PUSH1 0x60 ADD MSTORE PUSH1 0xC0 MLOAD PUSH1 0x80 ADD MSTORE PUSH1 0xC0 MLOAD PUSH1 0xA0 ADD MSTORE PUSH1 0xC0 MLOAD PUSH1 0xC0 ADD MSTORE PUSH1 0xC0 MLOAD PUSH1 0xE0 ADD MSTORE PUSH1 0xC0 MLOAD PUSH2 0x100 ADD MSTORE PUSH1 0xC0 MLOAD PUSH2 0x120 ADD MSTORE PUSH1 0xC0 MLOAD PUSH2 0x140 ADD MSTORE PUSH1 0xC0 MLOAD PUSH2 0x160 ADD MSTORE PUSH1 0xC0 MLOAD PUSH2 0x180 ADD MSTORE PUSH1 0xC0 MLOAD PUSH2 0x1A0 ADD MSTORE PUSH1 0xC0 MLOAD PUSH2 0x1C0 ADD MSTORE PUSH1 0xC0 MLOAD PUSH2 0x1E0 ADD MSTORE PUSH1 0xC0 MLOAD PUSH2 0x200 ADD MSTORE PUSH1 0x80 MLOAD PUSH1 0xC0 MLOAD PUSH2 0x220 ADD MSTORE PUSH1 0xC0 MLOAD SWAP1 SUB PUSH1 0xC0 MLOAD RETURN JUMPDEST CALLVALUE PUSH2 0x2A5 JUMPI PUSH1 0x40 CALLDATASIZE PUSH1 0x3 NOT ADD SLT PUSH2 0x2A5 JUMPI PUSH1 0x24 CALLDATALOAD PUSH1 0x1 PUSH1 0x1 PUSH1 0xA0 SHL SUB DUP2 AND SWAP1 PUSH1 0x4 CALLDATALOAD SWAP1 DUP3 SWAP1 SUB PUSH2 0x2A5 JUMPI PUSH1 0x20 SWAP2 DUP2 PUSH2 0x5C9 SWAP3 PUSH1 0x0 MSTORE PUSH1 0x3 DUP5 MSTORE PUSH1 0x1 PUSH1 0x40 PUSH1 0x0 KECCAK256 ADD SLOAD SWAP2 PUSH2 0x1E4F DUP4 ISZERO ISZERO PUSH2 0x24E4 JUMP JUMPDEST PUSH1 0x0 MSTORE PUSH1 0x4 DUP5 MSTORE PUSH1 0x40 PUSH1 0x0 KECCAK256 SWAP1 PUSH1 0x0 MSTORE DUP4 MSTORE PUSH1 0x40 PUSH1 0x0 KECCAK256 SLOAD SWAP1 PUSH2 0x27C2 JUMP JUMPDEST CALLVALUE PUSH2 0x2A5 JUMPI PUSH1 0x20 CALLDATASIZE PUSH1 0x3 NOT ADD SLT PUSH2 0x2A5 JUMPI PUSH1 0x20 PUSH2 0x5C9 PUSH2 0x1E8B PUSH2 0x2197 JUMP JUMPDEST PUSH2 0x247A JUMP JUMPDEST CALLVALUE PUSH2 0x2A5 JUMPI PUSH1 0x40 CALLDATASIZE PUSH1 0x3 NOT ADD SLT PUSH2 0x2A5 JUMPI PUSH1 0x1 PUSH1 0x1 PUSH1 0xA0 SHL SUB PUSH2 0x1EB1 PUSH2 0x2197 JUMP JUMPDEST AND PUSH1 0x0 MSTORE PUSH1 0x4 PUSH1 0x20 MSTORE PUSH1 0x40 PUSH1 0x0 KECCAK256 PUSH1 0x24 CALLDATALOAD PUSH1 0x0 MSTORE PUSH1 0x20 MSTORE PUSH1 0x20 PUSH1 0x40 PUSH1 0x0 KECCAK256 SLOAD PUSH1 0x40 MLOAD SWAP1 DUP2 MSTORE RETURN JUMPDEST CALLVALUE PUSH2 0x2A5 JUMPI PUSH1 0x20 CALLDATASIZE PUSH1 0x3 NOT ADD SLT PUSH2 0x2A5 JUMPI PUSH1 0x20 PUSH2 0x1EF6 PUSH1 0x4 CALLDATALOAD PUSH2 0x2451 JUMP JUMPDEST PUSH1 0x40 MLOAD SWAP1 ISZERO ISZERO DUP2 MSTORE RETURN JUMPDEST CALLVALUE PUSH2 0x2A5 JUMPI PUSH1 0x0 CALLDATASIZE PUSH1 0x3 NOT ADD SLT PUSH2 0x2A5 JUMPI CALLER PUSH1 0x0 MSTORE PUSH1 0x2 PUSH1 0x20 MSTORE PUSH1 0x40 PUSH1 0x0 KECCAK256 PUSH2 0x1F2E PUSH1 0x4 DUP3 ADD SLOAD ISZERO ISZERO PUSH2 0x23E9 JUMP JUMPDEST PUSH3 0x15180 DUP1 TIMESTAMP DIV PUSH1 0xD DUP4 ADD SWAP2 DUP3 SLOAD DIV DUP2 DUP2 LT ISZERO PUSH2 0x1FF5 JUMPI PUSH1 0x0 NOT DUP3 ADD SWAP2 DUP3 GT PUSH2 0x809 JUMPI SUB PUSH2 0x1FE9 JUMPI PUSH1 0xE DUP3 ADD DUP1 SLOAD SWAP1 PUSH1 0x1 DUP3 ADD DUP1 SWAP3 GT PUSH2 0x809 JUMPI SSTORE JUMPDEST TIMESTAMP SWAP1 SSTORE PUSH1 0x9 DUP2 ADD SLOAD SWAP1 PUSH1 0x19 DUP3 MUL SWAP2 DUP1 DUP4 DIV PUSH1 0x19 EQ SWAP1 ISZERO OR ISZERO PUSH2 0x809 JUMPI PUSH1 0xE DUP2 ADD SLOAD SWAP2 DUP3 PUSH1 0x5 MUL SWAP1 PUSH1 0x5 DUP3 DIV DUP5 SUB PUSH2 0x809 JUMPI PUSH1 0x2 SWAP2 PUSH2 0x1FA7 SWAP2 PUSH2 0x2444 JUMP JUMPDEST SWAP2 ADD PUSH2 0x1FB4 DUP3 DUP3 SLOAD PUSH2 0x2444 JUMP JUMPDEST SWAP1 SSTORE PUSH1 0x40 MLOAD SWAP2 DUP3 MSTORE PUSH1 0x20 DUP3 ADD MSTORE PUSH32 0xB9CFEA4717F167774A6E8643C33472935D3EF918453525EEFCA6936078B7CFDD PUSH1 0x40 CALLER SWAP3 LOG2 STOP JUMPDEST PUSH1 0x1 PUSH1 0xE DUP4 ADD SSTORE PUSH2 0x1F6A JUMP JUMPDEST PUSH1 0x40 MLOAD PUSH3 0x461BCD PUSH1 0xE5 SHL DUP2 MSTORE PUSH1 0x20 PUSH1 0x4 DUP3 ADD MSTORE PUSH1 0x18 PUSH1 0x24 DUP3 ADD MSTORE PUSH32 0x416C726561647920636865636B656420696E20746F6461790000000000000000 PUSH1 0x44 DUP3 ADD MSTORE PUSH1 0x64 SWAP1 REVERT JUMPDEST CALLVALUE PUSH2 0x2A5 JUMPI PUSH1 0x0 CALLDATASIZE PUSH1 0x3 NOT ADD SLT PUSH2 0x2A5 JUMPI PUSH2 0x2053 PUSH2 0x279F JUMP JUMPDEST CALLER PUSH1 0x0 MSTORE PUSH1 0x2 PUSH1 0x20 MSTORE PUSH1 0x40 PUSH1 0x0 KECCAK256 PUSH2 0x2070 PUSH1 0x4 DUP3 ADD SLOAD ISZERO ISZERO PUSH2 0x23E9 JUMP JUMPDEST PUSH1 0xC DUP2 ADD SLOAD DUP1 ISZERO PUSH2 0x2160 JUMPI PUSH1 0x11 DUP3 ADD PUSH2 0x208A DUP2 SLOAD TIMESTAMP PUSH2 0x2424 JUMP JUMPDEST SWAP2 DUP3 ISZERO PUSH2 0x2129 JUMPI PUSH2 0x209F SWAP1 PUSH1 0x3C DUP5 DIV SWAP1 PUSH2 0x2431 JUMP JUMPDEST SWAP3 DUP4 ISZERO PUSH2 0x20F1 JUMPI PUSH1 0x2 SWAP2 TIMESTAMP SWAP1 SSTORE ADD PUSH2 0x20B8 DUP4 DUP3 SLOAD PUSH2 0x2444 JUMP JUMPDEST SWAP1 SSTORE PUSH1 0x40 MLOAD SWAP2 DUP3 MSTORE PUSH1 0x20 DUP3 ADD MSTORE PUSH32 0x6ED0C81F2EB08CA19CF12AAB8DFA5D3566D3140926B3E0035B8423029996C185 PUSH1 0x40 CALLER SWAP3 LOG2 PUSH1 0x1 DUP1 SSTORE STOP JUMPDEST PUSH1 0x40 MLOAD PUSH3 0x461BCD PUSH1 0xE5 SHL DUP2 MSTORE PUSH1 0x20 PUSH1 0x4 DUP3 ADD MSTORE PUSH1 0x10 PUSH1 0x24 DUP3 ADD MSTORE PUSH16 0x4E6F20676F6C6420746F20636C61696D PUSH1 0x80 SHL PUSH1 0x44 DUP3 ADD MSTORE PUSH1 0x64 SWAP1 REVERT JUMPDEST PUSH1 0x40 MLOAD PUSH3 0x461BCD PUSH1 0xE5 SHL DUP2 MSTORE PUSH1 0x20 PUSH1 0x4 DUP3 ADD MSTORE PUSH1 0xF PUSH1 0x24 DUP3 ADD MSTORE PUSH15 0x139BC81D1A5B5948195B185C1CD959 PUSH1 0x8A SHL PUSH1 0x44 DUP3 ADD MSTORE PUSH1 0x64 SWAP1 REVERT JUMPDEST PUSH1 0x40 MLOAD PUSH3 0x461BCD PUSH1 0xE5 SHL DUP2 MSTORE PUSH1 0x20 PUSH1 0x4 DUP3 ADD MSTORE PUSH1 0xF PUSH1 0x24 DUP3 ADD MSTORE PUSH15 0x4E6F2047504D20746F20636C61696D PUSH1 0x88 SHL PUSH1 0x44 DUP3 ADD MSTORE PUSH1 0x64 SWAP1 REVERT JUMPDEST PUSH1 0x4 CALLDATALOAD SWAP1 PUSH1 0x1 PUSH1 0x1 PUSH1 0xA0 SHL SUB DUP3 AND DUP3 SUB PUSH2 0x2A5 JUMPI JUMP JUMPDEST SWAP1 PUSH1 0x1 DUP3 DUP2 SHR SWAP3 AND DUP1 ISZERO PUSH2 0x21DD JUMPI JUMPDEST PUSH1 0x20 DUP4 LT EQ PUSH2 0x21C7 JUMPI JUMP JUMPDEST PUSH4 0x4E487B71 PUSH1 0xE0 SHL PUSH1 0x0 MSTORE PUSH1 0x22 PUSH1 0x4 MSTORE PUSH1 0x24 PUSH1 0x0 REVERT JUMPDEST SWAP2 PUSH1 0x7F AND SWAP2 PUSH2 0x21BC JUMP JUMPDEST SWAP1 PUSH1 0x1F DUP1 NOT SWAP2 ADD AND DUP2 ADD SWAP1 DUP2 LT PUSH8 0xFFFFFFFFFFFFFFFF DUP3 GT OR PUSH2 0x590 JUMPI PUSH1 0x40 MSTORE JUMP JUMPDEST SWAP1 PUSH1 0x40 MLOAD SWAP2 DUP3 PUSH1 0x0 DUP3 SLOAD PUSH2 0x221C DUP2 PUSH2 0x21AD JUMP JUMPDEST SWAP1 DUP2 DUP5 MSTORE PUSH1 0x20 SWAP5 PUSH1 0x1 SWAP2 PUSH1 0x1 DUP2 AND SWAP1 DUP2 PUSH1 0x0 EQ PUSH2 0x228C JUMPI POP PUSH1 0x1 EQ PUSH2 0x224D JUMPI JUMPDEST POP POP POP PUSH2 0x224B SWAP3 POP SUB DUP4 PUSH2 0x21E7 JUMP JUMPDEST JUMP JUMPDEST PUSH1 0x0 SWAP1 DUP2 MSTORE DUP6 DUP2 KECCAK256 SWAP6 SWAP4 POP SWAP2 SWAP1 JUMPDEST DUP2 DUP4 LT PUSH2 0x2274 JUMPI POP POP PUSH2 0x224B SWAP4 POP DUP3 ADD ADD CODESIZE DUP1 DUP1 PUSH2 0x223C JUMP JUMPDEST DUP6 SLOAD DUP9 DUP5 ADD DUP6 ADD MSTORE SWAP5 DUP6 ADD SWAP5 DUP8 SWAP5 POP SWAP2 DUP4 ADD SWAP2 PUSH2 0x225B JUMP JUMPDEST SWAP3 POP POP POP PUSH2 0x224B SWAP5 SWAP3 POP PUSH1 0xFF NOT AND DUP3 DUP5 ADD MSTORE ISZERO ISZERO PUSH1 0x5 SHL DUP3 ADD ADD CODESIZE DUP1 DUP1 PUSH2 0x223C JUMP JUMPDEST SWAP2 SWAP1 DUP3 MLOAD SWAP3 DUP4 DUP3 MSTORE PUSH1 0x0 JUMPDEST DUP5 DUP2 LT PUSH2 0x22DA JUMPI POP POP DUP3 PUSH1 0x0 PUSH1 0x20 DUP1 SWAP5 SWAP6 DUP5 ADD ADD MSTORE PUSH1 0x1F DUP1 NOT SWAP2 ADD AND ADD ADD SWAP1 JUMP JUMPDEST PUSH1 0x20 DUP2 DUP4 ADD DUP2 ADD MLOAD DUP5 DUP4 ADD DUP3 ADD MSTORE ADD PUSH2 0x22B9 JUMP JUMPDEST PUSH1 0x24 CALLDATALOAD SWAP1 DUP2 ISZERO ISZERO DUP3 SUB PUSH2 0x2A5 JUMPI JUMP JUMPDEST SWAP2 DUP2 PUSH1 0x1F DUP5 ADD SLT ISZERO PUSH2 0x2A5 JUMPI DUP3 CALLDATALOAD SWAP2 PUSH8 0xFFFFFFFFFFFFFFFF DUP4 GT PUSH2 0x2A5 JUMPI PUSH1 0x20 DUP4 DUP2 DUP7 ADD SWAP6 ADD ADD GT PUSH2 0x2A5 JUMPI JUMP JUMPDEST SWAP1 DUP2 MLOAD DUP1 DUP3 MSTORE PUSH1 0x20 DUP1 DUP1 SWAP4 ADD SWAP4 ADD SWAP2 PUSH1 0x0 JUMPDEST DUP3 DUP2 LT PUSH2 0x234B JUMPI POP POP POP POP SWAP1 JUMP JUMPDEST DUP4 MLOAD PUSH1 0x1 PUSH1 0x1 PUSH1 0xA0 SHL SUB AND DUP6 MSTORE SWAP4 DUP2 ADD SWAP4 SWAP3 DUP2 ADD SWAP3 PUSH1 0x1 ADD PUSH2 0x233D JUMP JUMPDEST SWAP1 DUP2 MLOAD DUP1 DUP3 MSTORE PUSH1 0x20 DUP1 DUP1 SWAP4 ADD SWAP4 ADD SWAP2 PUSH1 0x0 JUMPDEST DUP3 DUP2 LT PUSH2 0x2388 JUMPI POP POP POP POP SWAP1 JUMP JUMPDEST DUP4 MLOAD DUP6 MSTORE SWAP4 DUP2 ADD SWAP4 SWAP3 DUP2 ADD SWAP3 PUSH1 0x1 ADD PUSH2 0x237A JUMP JUMPDEST PUSH1 0x6 SLOAD DUP2 LT ISZERO PUSH2 0x23D3 JUMPI PUSH1 0x6 PUSH1 0x0 MSTORE PUSH32 0xF652222313E28459528D920B65115C16C04F3EFC82AAEDC97BE59F3F377C0D3F ADD SWAP1 PUSH1 0x0 SWAP1 JUMP JUMPDEST PUSH4 0x4E487B71 PUSH1 0xE0 SHL PUSH1 0x0 MSTORE PUSH1 0x32 PUSH1 0x4 MSTORE PUSH1 0x24 PUSH1 0x0 REVERT JUMPDEST ISZERO PUSH2 0x23F0 JUMPI JUMP JUMPDEST PUSH1 0x40 MLOAD PUSH3 0x461BCD PUSH1 0xE5 SHL DUP2 MSTORE PUSH1 0x20 PUSH1 0x4 DUP3 ADD MSTORE PUSH1 0xC PUSH1 0x24 DUP3 ADD MSTORE PUSH12 0x14DA1A5C081DDC9958DAD959 PUSH1 0xA2 SHL PUSH1 0x44 DUP3 ADD MSTORE PUSH1 0x64 SWAP1 REVERT JUMPDEST SWAP2 SWAP1 DUP3 SUB SWAP2 DUP3 GT PUSH2 0x809 JUMPI JUMP JUMPDEST DUP2 DUP2 MUL SWAP3 SWAP2 DUP2 ISZERO SWAP2 DUP5 DIV EQ OR ISZERO PUSH2 0x809 JUMPI JUMP JUMPDEST SWAP2 SWAP1 DUP3 ADD DUP1 SWAP3 GT PUSH2 0x809 JUMPI JUMP JUMPDEST PUSH1 0x19 DUP2 EQ SWAP1 DUP2 ISZERO PUSH2 0x246F JUMPI JUMPDEST DUP2 ISZERO PUSH2 0x2467 JUMPI POP SWAP1 JUMP JUMPDEST PUSH1 0x59 SWAP2 POP EQ SWAP1 JUMP JUMPDEST PUSH1 0x37 DUP2 EQ SWAP2 POP PUSH2 0x245D JUMP JUMPDEST PUSH1 0x1 PUSH1 0x1 PUSH1 0xA0 SHL SUB AND PUSH1 0x0 SWAP1 DUP2 MSTORE PUSH1 0x2 PUSH1 0x20 MSTORE PUSH1 0x40 SWAP1 KECCAK256 PUSH1 0x4 DUP2 ADD SLOAD ISZERO DUP1 ISZERO PUSH2 0x24D2 JUMPI JUMPDEST PUSH2 0x24CC JUMPI DUP1 PUSH1 0x9 PUSH1 0xA PUSH2 0x24B6 SWAP4 ADD SLOAD SWAP2 ADD SLOAD SWAP1 PUSH2 0x2424 JUMP JUMPDEST PUSH1 0xA DUP2 MUL SWAP1 DUP1 DUP3 DIV PUSH1 0xA EQ SWAP1 ISZERO OR ISZERO PUSH2 0x809 JUMPI SWAP1 JUMP JUMPDEST POP PUSH1 0x0 SWAP1 JUMP JUMPDEST POP PUSH1 0x9 DUP2 ADD SLOAD PUSH1 0xA DUP3 ADD SLOAD GT ISZERO PUSH2 0x249E JUMP JUMPDEST ISZERO PUSH2 0x24EB JUMPI JUMP JUMPDEST PUSH1 0x40 MLOAD PUSH3 0x461BCD PUSH1 0xE5 SHL DUP2 MSTORE PUSH1 0x20 PUSH1 0x4 DUP3 ADD MSTORE PUSH1 0x11 PUSH1 0x24 DUP3 ADD MSTORE PUSH17 0x155C19DC985919481B9BDD08195E1A5CDD PUSH1 0x7A SHL PUSH1 0x44 DUP3 ADD MSTORE PUSH1 0x64 SWAP1 REVERT JUMPDEST ISZERO PUSH2 0x252B JUMPI JUMP JUMPDEST PUSH1 0x40 MLOAD PUSH3 0x461BCD PUSH1 0xE5 SHL DUP2 MSTORE PUSH1 0x20 PUSH1 0x4 DUP3 ADD MSTORE PUSH1 0xF PUSH1 0x24 DUP3 ADD MSTORE PUSH15 0x139BDD08195B9BDD59DA0819DBDB19 PUSH1 0x8A SHL PUSH1 0x44 DUP3 ADD MSTORE PUSH1 0x64 SWAP1 REVERT JUMPDEST ISZERO PUSH2 0x2569 JUMPI JUMP JUMPDEST PUSH1 0x40 MLOAD PUSH3 0x461BCD PUSH1 0xE5 SHL DUP2 MSTORE PUSH1 0x20 PUSH1 0x4 DUP3 ADD MSTORE PUSH1 0xC PUSH1 0x24 DUP3 ADD MSTORE PUSH12 0x1399595908191A585B5BDB99 PUSH1 0xA2 SHL PUSH1 0x44 DUP3 ADD MSTORE PUSH1 0x64 SWAP1 REVERT JUMPDEST DUP1 ISZERO PUSH2 0x809 JUMPI PUSH1 0x0 NOT ADD SWAP1 JUMP JUMPDEST PUSH1 0x1 PUSH1 0x1 PUSH1 0xA0 SHL SUB AND PUSH1 0x0 SWAP1 DUP2 MSTORE PUSH1 0x2 PUSH1 0x20 MSTORE PUSH1 0x40 SWAP1 KECCAK256 PUSH1 0x4 DUP2 ADD SLOAD ISZERO DUP1 ISZERO PUSH2 0x25F4 JUMPI JUMPDEST PUSH2 0x24CC JUMPI DUP1 PUSH1 0xC PUSH1 0x3C PUSH2 0x25E8 PUSH1 0x11 PUSH2 0x25F1 SWAP6 ADD SLOAD TIMESTAMP PUSH2 0x2424 JUMP JUMPDEST DIV SWAP2 ADD SLOAD PUSH2 0x2431 JUMP JUMPDEST SWAP1 JUMP JUMPDEST POP PUSH1 0xC DUP2 ADD SLOAD ISZERO PUSH2 0x25CE JUMP JUMPDEST PUSH1 0x1 PUSH1 0x1 PUSH1 0xA0 SHL SUB AND PUSH1 0x0 SWAP1 DUP2 MSTORE PUSH1 0x2 PUSH1 0x20 MSTORE PUSH1 0x40 DUP2 KECCAK256 PUSH1 0x4 DUP2 ADD SLOAD PUSH2 0x2673 JUMPI PUSH1 0x5 ADD SLOAD PUSH1 0x9 DUP2 ADD DUP1 SWAP2 GT PUSH2 0x265F JUMPI PUSH1 0xA SWAP1 DIV SWAP1 PUSH1 0x5 DUP3 MUL SWAP2 DUP1 DUP4 DIV PUSH1 0x5 EQ SWAP1 ISZERO OR ISZERO PUSH2 0x264B JUMPI POP SWAP1 JUMP JUMPDEST PUSH4 0x4E487B71 PUSH1 0xE0 SHL DUP2 MSTORE PUSH1 0x11 PUSH1 0x4 MSTORE PUSH1 0x24 SWAP1 REVERT JUMPDEST PUSH4 0x4E487B71 PUSH1 0xE0 SHL DUP3 MSTORE PUSH1 0x11 PUSH1 0x4 MSTORE PUSH1 0x24 DUP3 REVERT JUMPDEST POP SWAP1 JUMP JUMPDEST PUSH1 0x0 NOT DUP2 EQ PUSH2 0x809 JUMPI PUSH1 0x1 ADD SWAP1 JUMP JUMPDEST SWAP3 SWAP2 SWAP3 PUSH8 0xFFFFFFFFFFFFFFFF DUP3 GT PUSH2 0x590 JUMPI PUSH1 0x40 MLOAD SWAP2 PUSH2 0x26B0 PUSH1 0x1F DUP3 ADD PUSH1 0x1F NOT AND PUSH1 0x20 ADD DUP5 PUSH2 0x21E7 JUMP JUMPDEST DUP3 SWAP5 DUP2 DUP5 MSTORE DUP2 DUP4 ADD GT PUSH2 0x2A5 JUMPI DUP3 DUP2 PUSH1 0x20 SWAP4 DUP5 PUSH1 0x0 SWAP7 ADD CALLDATACOPY ADD ADD MSTORE JUMP JUMPDEST SWAP1 DUP1 PUSH1 0x20 SWAP4 SWAP3 DUP2 DUP5 MSTORE DUP5 DUP5 ADD CALLDATACOPY PUSH1 0x0 DUP3 DUP3 ADD DUP5 ADD MSTORE PUSH1 0x1F ADD PUSH1 0x1F NOT AND ADD ADD SWAP1 JUMP JUMPDEST PUSH8 0xFFFFFFFFFFFFFFFF DUP2 GT PUSH2 0x590 JUMPI PUSH1 0x5 SHL PUSH1 0x20 ADD SWAP1 JUMP JUMPDEST SWAP1 PUSH2 0x2710 DUP3 PUSH2 0x26EE JUMP JUMPDEST PUSH2 0x271D PUSH1 0x40 MLOAD SWAP2 DUP3 PUSH2 0x21E7 JUMP JUMPDEST DUP3 DUP2 MSTORE DUP1 SWAP3 PUSH2 0x272E PUSH1 0x1F NOT SWAP2 PUSH2 0x26EE JUMP JUMPDEST ADD SWAP1 PUSH1 0x20 CALLDATASIZE SWAP2 ADD CALLDATACOPY JUMP JUMPDEST DUP1 MLOAD DUP3 LT ISZERO PUSH2 0x23D3 JUMPI PUSH1 0x20 SWAP2 PUSH1 0x5 SHL ADD ADD SWAP1 JUMP JUMPDEST PUSH1 0x1 PUSH1 0x1 PUSH1 0xA0 SHL SUB AND PUSH1 0x0 SWAP1 DUP2 MSTORE PUSH1 0x2 PUSH1 0x20 MSTORE PUSH1 0x40 SWAP1 KECCAK256 PUSH1 0x4 DUP2 ADD SLOAD ISZERO DUP1 ISZERO PUSH2 0x2793 JUMPI JUMPDEST PUSH2 0x24CC JUMPI PUSH2 0x2784 PUSH1 0x11 PUSH1 0x3C SWAP3 ADD SLOAD TIMESTAMP PUSH2 0x2424 JUMP JUMPDEST MOD PUSH1 0x3C SUB PUSH1 0x3C DUP2 GT PUSH2 0x809 JUMPI SWAP1 JUMP JUMPDEST POP PUSH1 0xC DUP2 ADD SLOAD ISZERO PUSH2 0x2770 JUMP JUMPDEST PUSH1 0x2 PUSH1 0x1 SLOAD EQ PUSH2 0x27B0 JUMPI PUSH1 0x2 PUSH1 0x1 SSTORE JUMP JUMPDEST PUSH1 0x40 MLOAD PUSH4 0x3EE5AEB5 PUSH1 0xE0 SHL DUP2 MSTORE PUSH1 0x4 SWAP1 REVERT JUMPDEST DUP2 ISZERO PUSH2 0x2831 JUMPI PUSH1 0x1 SWAP2 PUSH1 0x1 SWAP3 PUSH1 0x0 SWAP2 JUMPDEST DUP1 DUP4 LT PUSH2 0x27FC JUMPI POP POP POP DUP2 ISZERO PUSH2 0x27E6 JUMPI DIV SWAP1 JUMP JUMPDEST PUSH4 0x4E487B71 PUSH1 0xE0 SHL PUSH1 0x0 MSTORE PUSH1 0x12 PUSH1 0x4 MSTORE PUSH1 0x24 PUSH1 0x0 REVERT JUMPDEST SWAP1 SWAP2 SWAP4 SWAP3 PUSH1 0xF SWAP1 DUP2 DUP2 MUL SWAP2 DUP2 DUP4 DIV EQ SWAP1 ISZERO OR ISZERO PUSH2 0x809 JUMPI SWAP3 PUSH1 0xA SWAP1 DUP2 DUP2 MUL SWAP2 DUP2 DUP4 DIV EQ SWAP1 ISZERO OR ISZERO PUSH2 0x809 JUMPI SWAP4 DUP3 ADD SWAP2 SWAP1 PUSH2 0x27D2 JUMP JUMPDEST SWAP1 POP SWAP1 JUMP JUMPDEST PUSH1 0x1 PUSH1 0x1 PUSH1 0xA0 SHL SUB AND PUSH1 0x0 DUP2 DUP2 MSTORE PUSH1 0x2 PUSH1 0x20 MSTORE PUSH1 0x40 SWAP1 KECCAK256 PUSH1 0x4 DUP2 ADD SLOAD ISZERO DUP1 ISZERO PUSH2 0x28EA JUMPI JUMPDEST PUSH2 0x28E6 JUMPI PUSH1 0x11 DUP2 ADD SWAP1 PUSH2 0x286E DUP3 SLOAD TIMESTAMP PUSH2 0x2424 JUMP JUMPDEST DUP1 ISZERO PUSH2 0x28E0 JUMPI PUSH2 0x2885 PUSH1 0x3C DUP3 DIV PUSH1 0xC DUP5 ADD SLOAD PUSH2 0x2431 JUMP JUMPDEST SWAP1 DUP2 PUSH2 0x2893 JUMPI JUMPDEST POP POP POP POP POP JUMP JUMPDEST PUSH1 0x2 PUSH1 0x40 SWAP4 PUSH32 0x6ED0C81F2EB08CA19CF12AAB8DFA5D3566D3140926B3E0035B8423029996C185 SWAP6 TIMESTAMP SWAP1 SSTORE ADD PUSH2 0x28C9 DUP4 DUP3 SLOAD PUSH2 0x2444 JUMP JUMPDEST SWAP1 SSTORE DUP3 MLOAD SWAP2 DUP3 MSTORE PUSH1 0x20 DUP3 ADD MSTORE LOG2 CODESIZE DUP1 DUP1 DUP1 DUP1 PUSH2 0x288C JUMP JUMPDEST POP POP POP POP JUMP JUMPDEST POP POP JUMP JUMPDEST POP PUSH1 0xC DUP2 ADD SLOAD ISZERO PUSH2 0x285A JUMP JUMPDEST PUSH1 0x0 SLOAD PUSH1 0x1 PUSH1 0x1 PUSH1 0xA0 SHL SUB AND CALLER SUB PUSH2 0x290A JUMPI JUMP JUMPDEST PUSH1 0x40 MLOAD PUSH4 0x118CDAA7 PUSH1 0xE0 SHL DUP2 MSTORE CALLER PUSH1 0x4 DUP3 ADD MSTORE PUSH1 0x24 SWAP1 REVERT JUMPDEST PUSH1 0x6 DUP1 SLOAD PUSH1 0x1 SWAP1 DUP2 DUP2 LT ISZERO PUSH2 0x2AE1 JUMPI DUP1 JUMPDEST PUSH2 0x293C DUP2 PUSH2 0x2706 JUMP JUMPDEST SWAP4 PUSH2 0x2946 DUP3 PUSH2 0x2706 JUMP JUMPDEST PUSH1 0x0 JUMPDEST DUP5 DUP2 LT PUSH2 0x2984 JUMPI POP POP POP POP POP POP DUP1 MLOAD ISZERO DUP1 ISZERO PUSH2 0x2970 JUMPI POP POP PUSH1 0x0 SLOAD PUSH1 0x1 PUSH1 0x1 PUSH1 0xA0 SHL SUB AND SWAP1 JUMP JUMPDEST PUSH2 0x23D3 JUMPI PUSH1 0x20 ADD MLOAD PUSH1 0x1 PUSH1 0x1 PUSH1 0xA0 SHL SUB AND SWAP1 JUMP JUMPDEST DUP1 PUSH2 0x298F DUP8 SWAP3 PUSH2 0x239C JUMP JUMPDEST PUSH1 0x1 DUP1 PUSH1 0xA0 SHL SUB DUP1 SWAP3 SLOAD PUSH1 0x3 SWAP3 DUP4 SHL SHR AND PUSH1 0x0 MSTORE PUSH2 0x2A03 PUSH1 0x2 PUSH1 0x8 PUSH1 0x20 SWAP2 DUP1 DUP4 MSTORE PUSH1 0x40 SWAP1 PUSH2 0x29E2 DUP12 DUP4 PUSH1 0x0 KECCAK256 ADD SLOAD DUP9 PUSH2 0x29C7 DUP12 PUSH2 0x239C JUMP JUMPDEST SWAP1 SLOAD SWAP1 DUP11 SHL SHR AND PUSH1 0x0 MSTORE DUP3 DUP7 MSTORE PUSH1 0x7 DUP5 PUSH1 0x0 KECCAK256 ADD SLOAD SWAP1 PUSH2 0x2444 JUMP JUMPDEST SWAP4 DUP8 PUSH2 0x29ED DUP11 PUSH2 0x239C JUMP JUMPDEST SWAP1 SLOAD SWAP1 DUP10 SHL SHR AND PUSH1 0x0 MSTORE MSTORE PUSH1 0x0 KECCAK256 ADD SLOAD SWAP1 PUSH2 0x2444 JUMP JUMPDEST SWAP1 PUSH1 0x0 JUMPDEST DUP9 DUP2 LT PUSH2 0x2A19 JUMPI JUMPDEST POP POP POP POP ADD PUSH2 0x2949 JUMP JUMPDEST PUSH2 0x2A29 DUP2 DUP9 SWAP8 SWAP4 SWAP5 SWAP6 SWAP7 SWAP8 PUSH2 0x2738 JUMP JUMPDEST MLOAD DUP5 GT PUSH2 0x2A3C JUMPI ADD SWAP1 DUP10 SWAP5 SWAP4 SWAP3 SWAP2 PUSH2 0x2A07 JUMP JUMPDEST SWAP3 SWAP4 SWAP2 SWAP1 POP PUSH1 0x0 NOT DUP9 DUP2 ADD DUP10 DUP2 GT PUSH2 0x809 JUMPI SWAP1 DUP12 SWAP7 SWAP6 SWAP5 SWAP4 SWAP3 SWAP2 JUMPDEST DUP5 DUP2 GT PUSH2 0x2A90 JUMPI POP POP SWAP1 PUSH2 0x2A86 SWAP3 SWAP2 PUSH2 0x2A6F DUP7 PUSH2 0x239C JUMP JUMPDEST SWAP1 SLOAD SWAP2 SHL SHR AND PUSH2 0x2A7F DUP3 DUP14 PUSH2 0x2738 JUMP JUMPDEST MSTORE DUP6 PUSH2 0x2738 JUMP JUMPDEST MSTORE CODESIZE DUP1 DUP1 DUP1 PUSH2 0x2A0F JUMP JUMPDEST SWAP1 DUP1 SWAP3 SWAP4 SWAP5 SWAP6 SWAP7 SWAP8 POP DUP2 ADD SWAP1 DUP1 DUP3 GT PUSH2 0x809 JUMPI PUSH2 0x2AC9 DUP3 DUP16 PUSH2 0x2AC2 DUP5 DUP10 PUSH2 0x2ABA PUSH2 0x2AD4 SWAP9 DUP6 PUSH2 0x2738 JUMP JUMPDEST MLOAD AND SWAP3 PUSH2 0x2738 JUMP JUMPDEST MSTORE DUP11 PUSH2 0x2738 JUMP JUMPDEST MLOAD PUSH2 0xB5E DUP3 DUP12 PUSH2 0x2738 JUMP JUMPDEST SWAP1 DUP12 SWAP7 SWAP6 SWAP5 SWAP4 SWAP3 SWAP2 PUSH2 0x2A57 JUMP JUMPDEST PUSH1 0x1 PUSH2 0x2933 JUMP JUMPDEST PUSH1 0x6 DUP1 SLOAD PUSH1 0x2 SWAP2 SWAP1 DUP3 DUP2 LT ISZERO PUSH2 0x2C47 JUMPI DUP1 JUMPDEST PUSH2 0x2B03 DUP2 PUSH2 0x2706 JUMP JUMPDEST SWAP4 PUSH2 0x2B0D DUP3 PUSH2 0x2706 JUMP JUMPDEST SWAP1 PUSH1 0x0 JUMPDEST DUP5 DUP2 LT PUSH2 0x2B51 JUMPI POP POP POP POP POP POP DUP1 MLOAD PUSH1 0x1 DUP2 GT PUSH2 0x2B39 JUMPI POP POP PUSH1 0x0 SLOAD PUSH1 0x1 PUSH1 0x1 PUSH1 0xA0 SHL SUB AND SWAP1 JUMP JUMPDEST PUSH1 0x1 LT ISZERO PUSH2 0x23D3 JUMPI PUSH1 0x40 ADD MLOAD PUSH1 0x1 PUSH1 0x1 PUSH1 0xA0 SHL SUB AND SWAP1 JUMP JUMPDEST PUSH2 0x2B5A DUP2 PUSH2 0x239C JUMP JUMPDEST PUSH1 0x1 DUP1 PUSH1 0xA0 SHL SUB DUP1 SWAP3 SLOAD PUSH1 0x3 SWAP3 DUP4 SHL SHR AND PUSH1 0x0 MSTORE PUSH2 0x2B8F PUSH1 0x20 DUP6 DUP2 MSTORE PUSH1 0x8 PUSH1 0x40 DUP8 PUSH2 0x29E2 DUP14 DUP4 PUSH1 0x0 KECCAK256 ADD SLOAD DUP9 PUSH2 0x29C7 DUP12 PUSH2 0x239C JUMP JUMPDEST SWAP1 PUSH1 0x0 JUMPDEST DUP8 DUP2 LT PUSH2 0x2BA7 JUMPI JUMPDEST POP POP POP POP PUSH1 0x1 ADD PUSH2 0x2B11 JUMP JUMPDEST PUSH2 0x2BB1 DUP2 DUP9 PUSH2 0x2738 JUMP JUMPDEST MLOAD DUP4 GT PUSH2 0x2BC0 JUMPI PUSH1 0x1 ADD PUSH2 0x2B93 JUMP JUMPDEST SWAP2 SWAP3 SWAP1 PUSH1 0x0 NOT DUP9 DUP2 ADD DUP10 DUP2 GT PUSH2 0x809 JUMPI JUMPDEST DUP5 DUP2 GT PUSH2 0x2C0E JUMPI POP POP SWAP2 PUSH2 0x2C04 SWAP2 DUP6 SWAP5 SWAP4 PUSH2 0x2BED PUSH1 0x1 SWAP8 PUSH2 0x239C JUMP JUMPDEST SWAP1 SLOAD SWAP2 SHL SHR AND PUSH2 0x2BFD DUP3 DUP14 PUSH2 0x2738 JUMP JUMPDEST MSTORE DUP7 PUSH2 0x2738 JUMP JUMPDEST MSTORE SWAP1 CODESIZE DUP1 DUP1 PUSH2 0x2B9B JUMP JUMPDEST DUP2 DUP2 ADD SWAP1 DUP1 DUP3 GT PUSH2 0x809 JUMPI PUSH2 0x2C37 DUP3 DUP16 PUSH2 0x2C30 DUP5 DUP10 PUSH2 0x2ABA PUSH2 0x2C42 SWAP9 DUP6 PUSH2 0x2738 JUMP JUMPDEST MSTORE DUP12 PUSH2 0x2738 JUMP JUMPDEST MLOAD PUSH2 0xB5E DUP3 DUP13 PUSH2 0x2738 JUMP JUMPDEST PUSH2 0x2BD1 JUMP JUMPDEST PUSH1 0x2 PUSH2 0x2AFA JUMP JUMPDEST PUSH1 0x6 DUP1 SLOAD PUSH1 0x3 SWAP2 SWAP1 DUP3 DUP2 LT ISZERO PUSH2 0x2DD5 JUMPI DUP1 JUMPDEST PUSH2 0x2C69 DUP2 PUSH2 0x2706 JUMP JUMPDEST SWAP4 PUSH2 0x2C73 DUP3 PUSH2 0x2706 JUMP JUMPDEST PUSH1 0x0 JUMPDEST DUP5 DUP2 LT PUSH2 0x2CB6 JUMPI POP POP POP POP POP POP DUP1 MLOAD PUSH1 0x2 DUP2 GT PUSH2 0x2C9E JUMPI POP POP PUSH1 0x0 SLOAD PUSH1 0x1 PUSH1 0x1 PUSH1 0xA0 SHL SUB AND SWAP1 JUMP JUMPDEST PUSH1 0x2 LT ISZERO PUSH2 0x23D3 JUMPI PUSH1 0x60 ADD MLOAD PUSH1 0x1 PUSH1 0x1 PUSH1 0xA0 SHL SUB AND SWAP1 JUMP JUMPDEST PUSH2 0x2CBF DUP2 PUSH2 0x239C JUMP JUMPDEST SWAP1 PUSH1 0x1 DUP1 PUSH1 0xA0 SHL SUB SWAP2 DUP3 SWAP2 SLOAD SWAP1 DUP7 SHL SHR AND PUSH1 0x0 MSTORE PUSH2 0x2D33 PUSH1 0x2 PUSH1 0x8 PUSH1 0x20 SWAP2 DUP1 DUP4 MSTORE PUSH1 0x40 SWAP1 PUSH2 0x2D12 DUP13 DUP4 PUSH1 0x0 KECCAK256 ADD SLOAD DUP8 PUSH2 0x2CF7 DUP11 PUSH2 0x239C JUMP JUMPDEST SWAP1 SLOAD SWAP1 DUP14 SHL SHR AND PUSH1 0x0 MSTORE DUP3 DUP7 MSTORE PUSH1 0x7 DUP5 PUSH1 0x0 KECCAK256 ADD SLOAD SWAP1 PUSH2 0x2444 JUMP JUMPDEST SWAP4 DUP7 PUSH2 0x2D1D DUP10 PUSH2 0x239C JUMP JUMPDEST SWAP1 SLOAD SWAP1 DUP13 SHL SHR AND PUSH1 0x0 MSTORE MSTORE PUSH1 0x0 KECCAK256 ADD SLOAD SWAP1 PUSH2 0x2444 JUMP JUMPDEST PUSH1 0x0 JUMPDEST DUP7 DUP2 LT PUSH2 0x2D49 JUMPI JUMPDEST POP POP POP PUSH1 0x1 ADD PUSH2 0x2C76 JUMP JUMPDEST PUSH2 0x2D53 DUP2 DUP7 PUSH2 0x2738 JUMP JUMPDEST MLOAD DUP3 GT PUSH2 0x2D62 JUMPI PUSH1 0x1 ADD PUSH2 0x2D36 JUMP JUMPDEST SWAP1 SWAP2 PUSH1 0x0 NOT DUP8 DUP2 ADD DUP9 DUP2 GT PUSH2 0x809 JUMPI JUMPDEST DUP4 DUP2 GT PUSH2 0x2DA7 JUMPI POP POP DUP4 SWAP3 SWAP2 PUSH2 0x2D9E SWAP2 PUSH2 0x2D8D PUSH1 0x1 SWAP7 PUSH2 0x239C JUMP JUMPDEST SWAP1 SLOAD SWAP1 DUP10 SHL SHR AND PUSH2 0x2A7F DUP3 DUP14 PUSH2 0x2738 JUMP JUMPDEST MSTORE SWAP1 CODESIZE DUP1 PUSH2 0x2D3E JUMP JUMPDEST DUP2 DUP2 ADD SWAP1 DUP1 DUP3 GT PUSH2 0x809 JUMPI PUSH2 0xB53 DUP3 DUP15 PUSH2 0x2DC9 DUP5 DUP9 PUSH2 0x2ABA PUSH2 0x2DD0 SWAP9 DUP6 PUSH2 0x2738 JUMP JUMPDEST MSTORE DUP10 PUSH2 0x2738 JUMP JUMPDEST PUSH2 0x2D72 JUMP JUMPDEST DUP3 PUSH2 0x2C60 JUMP INVALID LOG2 PUSH5 0x6970667358 0x22 SLT KECCAK256 SWAP11 0xCC PUSH30 0x90B6FA9F7A94E0131FF0112E64E0A0D2A38DA79AA674DAFD3C01CFFBC964 PUSH20 0x6F6C634300081800330000000000000000000000 "},"methodIdentifiers":{"accounts(address)":"5e5c06e2","addUpgrade(string,uint256,uint256,uint256,uint256,uint256,uint256,uint256)":"ece2e4ba","attack(address)":"d018db3e","buyUpgrade(uint256)":"a5a2cb19","checkIn()":"183ff085","claimGPM()":"1771ec63","createAccount(string,bool,uint256)":"ab2611ee","getClaimableGold(address)":"68780125","getHireCrewCost(address)":"4c8df037","getRanking(uint256)":"bea2dc14","getRepairCost(address)":"6c79b3bb","getShipsAt(uint256)":"b7df5b5d","getTimeUntilNextGPM(address)":"d85bf0b1","getUpgradeCost(uint256,address)":"5722bb51","hireCrew()":"be4becd3","isPort(uint256)":"24aa225b","nextUpgradeId()":"d2fabb18","owner()":"8da5cb5b","players(uint256)":"f71d96cb","purchaseCounts(address,uint256)":"35d93897","renounceOwnership()":"715018a6","repairShip(bool,bool)":"683591a8","rescueXTZ()":"d4826b6c","transferOwnership(address)":"f2fde38b","travel(uint256,bool)":"74aa3a98","upgrades(uint256)":"7386bbc5"}}}}}