{"contracts/SeasOfLinkardia.sol":{"SeasOfLinkardia":{"abi":[{"inputs":[],"stateMutability":"nonpayable","type":"constructor"},{"inputs":[{"internalType":"address","name":"owner","type":"address"}],"name":"OwnableInvalidOwner","type":"error"},{"inputs":[{"internalType":"address","name":"account","type":"address"}],"name":"OwnableUnauthorizedAccount","type":"error"},{"inputs":[],"name":"ReentrancyGuardReentrantCall","type":"error"},{"anonymous":false,"inputs":[{"indexed":true,"internalType":"address","name":"user","type":"address"},{"indexed":false,"internalType":"string","name":"boatName","type":"string"},{"indexed":false,"internalType":"bool","name":"isPirate","type":"bool"}],"name":"AccountCreated","type":"event"},{"anonymous":false,"inputs":[{"indexed":true,"internalType":"address","name":"user","type":"address"},{"indexed":false,"internalType":"uint256","name":"streak","type":"uint256"},{"indexed":false,"internalType":"uint256","name":"reward","type":"uint256"}],"name":"CheckIn","type":"event"},{"anonymous":false,"inputs":[{"indexed":true,"internalType":"address","name":"previousOwner","type":"address"},{"indexed":true,"internalType":"address","name":"newOwner","type":"address"}],"name":"OwnershipTransferred","type":"event"},{"anonymous":false,"inputs":[{"indexed":true,"internalType":"address","name":"attacker","type":"address"},{"indexed":true,"internalType":"address","name":"defender","type":"address"},{"indexed":false,"internalType":"bool","name":"destroyed","type":"bool"}],"name":"ShipAttacked","type":"event"},{"anonymous":false,"inputs":[{"indexed":true,"internalType":"address","name":"user","type":"address"},{"indexed":false,"internalType":"uint256","name":"toLocation","type":"uint256"},{"indexed":false,"internalType":"uint256","name":"arriveAt","type":"uint256"},{"indexed":false,"internalType":"bool","name":"fast","type":"bool"}],"name":"TravelStarted","type":"event"},{"anonymous":false,"inputs":[{"indexed":true,"internalType":"uint256","name":"id","type":"uint256"},{"indexed":false,"internalType":"string","name":"name","type":"string"}],"name":"UpgradeAdded","type":"event"},{"anonymous":false,"inputs":[{"indexed":true,"internalType":"address","name":"user","type":"address"},{"indexed":true,"internalType":"uint256","name":"id","type":"uint256"}],"name":"UpgradePurchased","type":"event"},{"inputs":[{"internalType":"address","name":"","type":"address"}],"name":"accounts","outputs":[{"internalType":"string","name":"boatName","type":"string"},{"internalType":"bool","name":"isPirate","type":"bool"},{"internalType":"uint256","name":"gold","type":"uint256"},{"internalType":"uint256","name":"diamonds","type":"uint256"},{"internalType":"uint256","name":"hp","type":"uint256"},{"internalType":"uint256","name":"maxHp","type":"uint256"},{"internalType":"uint256","name":"speed","type":"uint256"},{"internalType":"uint256","name":"attack","type":"uint256"},{"internalType":"uint256","name":"defense","type":"uint256"},{"internalType":"uint256","name":"crew","type":"uint256"},{"internalType":"uint256","name":"maxCrew","type":"uint256"},{"internalType":"uint256","name":"location","type":"uint256"},{"internalType":"uint256","name":"gpm","type":"uint256"},{"internalType":"uint256","name":"lastCheckIn","type":"uint256"},{"internalType":"uint256","name":"checkInStreak","type":"uint256"},{"internalType":"uint256","name":"lastWrecked","type":"uint256"},{"internalType":"uint256","name":"travelEnd","type":"uint256"}],"stateMutability":"view","type":"function"},{"inputs":[{"internalType":"string","name":"name","type":"string"},{"internalType":"uint256","name":"cost","type":"uint256"},{"internalType":"uint256","name":"gpmBonus","type":"uint256"},{"internalType":"uint256","name":"maxHpBonus","type":"uint256"},{"internalType":"uint256","name":"speedBonus","type":"uint256"},{"internalType":"uint256","name":"attackBonus","type":"uint256"},{"internalType":"uint256","name":"defenseBonus","type":"uint256"},{"internalType":"uint256","name":"maxCrewBonus","type":"uint256"}],"name":"addUpgrade","outputs":[],"stateMutability":"nonpayable","type":"function"},{"inputs":[{"internalType":"address","name":"defender","type":"address"}],"name":"attack","outputs":[],"stateMutability":"nonpayable","type":"function"},{"inputs":[{"internalType":"uint256","name":"id","type":"uint256"}],"name":"buyUpgrade","outputs":[],"stateMutability":"nonpayable","type":"function"},{"inputs":[],"name":"checkIn","outputs":[],"stateMutability":"nonpayable","type":"function"},{"inputs":[{"internalType":"string","name":"_boatName","type":"string"},{"internalType":"bool","name":"_isPirate","type":"bool"},{"internalType":"uint256","name":"_startLocation","type":"uint256"}],"name":"createAccount","outputs":[],"stateMutability":"nonpayable","type":"function"},{"inputs":[{"internalType":"uint256","name":"n","type":"uint256"}],"name":"getRanking","outputs":[{"internalType":"address[]","name":"","type":"address[]"},{"internalType":"uint256[]","name":"","type":"uint256[]"}],"stateMutability":"view","type":"function"},{"inputs":[{"internalType":"uint256","name":"loc","type":"uint256"}],"name":"getShipsAt","outputs":[{"internalType":"address[]","name":"","type":"address[]"},{"internalType":"string[]","name":"","type":"string[]"},{"internalType":"uint256[]","name":"","type":"uint256[]"}],"stateMutability":"view","type":"function"},{"inputs":[{"internalType":"uint256","name":"id","type":"uint256"},{"internalType":"address","name":"player","type":"address"}],"name":"getUpgradeCost","outputs":[{"internalType":"uint256","name":"","type":"uint256"}],"stateMutability":"view","type":"function"},{"inputs":[],"name":"nextUpgradeId","outputs":[{"internalType":"uint256","name":"","type":"uint256"}],"stateMutability":"view","type":"function"},{"inputs":[],"name":"owner","outputs":[{"internalType":"address","name":"","type":"address"}],"stateMutability":"view","type":"function"},{"inputs":[{"internalType":"uint256","name":"","type":"uint256"}],"name":"players","outputs":[{"internalType":"address","name":"","type":"address"}],"stateMutability":"view","type":"function"},{"inputs":[{"internalType":"address","name":"","type":"address"},{"internalType":"uint256","name":"","type":"uint256"}],"name":"purchaseCounts","outputs":[{"internalType":"uint256","name":"","type":"uint256"}],"stateMutability":"view","type":"function"},{"inputs":[],"name":"renounceOwnership","outputs":[],"stateMutability":"nonpayable","type":"function"},{"inputs":[{"internalType":"bool","name":"atPort","type":"bool"},{"internalType":"bool","name":"useDiamond","type":"bool"}],"name":"repairShip","outputs":[],"stateMutability":"payable","type":"function"},{"inputs":[],"name":"rescueXTZ","outputs":[],"stateMutability":"nonpayable","type":"function"},{"inputs":[{"internalType":"address","name":"newOwner","type":"address"}],"name":"transferOwnership","outputs":[],"stateMutability":"nonpayable","type":"function"},{"inputs":[{"internalType":"uint256","name":"toLocation","type":"uint256"},{"internalType":"bool","name":"fast","type":"bool"}],"name":"travel","outputs":[],"stateMutability":"payable","type":"function"},{"inputs":[{"internalType":"uint256","name":"","type":"uint256"}],"name":"upgrades","outputs":[{"internalType":"string","name":"name","type":"string"},{"internalType":"uint256","name":"cost","type":"uint256"},{"internalType":"uint256","name":"gpmBonus","type":"uint256"},{"internalType":"uint256","name":"maxHpBonus","type":"uint256"},{"internalType":"uint256","name":"speedBonus","type":"uint256"},{"internalType":"uint256","name":"attackBonus","type":"uint256"},{"internalType":"uint256","name":"defenseBonus","type":"uint256"},{"internalType":"uint256","name":"maxCrewBonus","type":"uint256"}],"stateMutability":"view","type":"function"},{"stateMutability":"payable","type":"receive"}],"evm":{"bytecode":{"linkReferences":{},"object":"6080806040523461007e5733156100685760008054336001600160a01b03198216811783556040519290916001600160a01b0316907f8be0079c531659141344cd1fd0a4f28419497f9722a3daafe3b4186f6b6457e09080a36001805561267f90816100848239f35b631e4fbdf760e01b815260006004820152602490fd5b600080fdfe6101006040526004361015610140575b361561001a57600080fd5b610022612141565b34678ac7230489e80000036100cd5760015b3360005260026020526100506003604060002001918254611f9e565b905561005a612190565b610062612356565b9061006b6124bc565b916000808080673782dace9d90000060018060a01b0380971682f1156100c15760008080671bc16d674ec800008582951682f1156100c15760008080670de0b6b3a76400008194861682f1156100c15760018055005b6040513d6000823e3d90fd5b34680270801d946c940000036100e4576005610034565b346804e1003b28d9280000036100fb57600a610034565b60405162461bcd60e51b815260206004820152601760248201527f496e76616c6964206469616d6f6e64207061636b6167650000000000000000006044820152606490fd5b60003560e01c8063183ff08514611bca57806335d9389714611b825780635722bb5114611b0e5780635e5c06e2146119ca578063683591a814611775578063715018a61461171c5780637386bbc51461168b57806374aa3a98146113dd5780638da5cb5b146113b4578063a5a2cb19146111f9578063ab2611ee14610db0578063b7df5b5d14610a98578063bea2dc14146108c8578063d018db3e146105b1578063d2fabb1814610593578063d4826b6c14610559578063ece2e4ba146102eb578063f2fde38b1461025d5763f71d96cb0361000f5734610258576020366003190112610258576004356006548110156102585761023f602091611f09565b905460405160039290921b1c6001600160a01b03168152f35b600080fd5b3461025857602036600319011261025857610276611d04565b61027e612164565b6001600160a01b039081169081156102d257600054826bffffffffffffffffffffffff60a01b821617600055167f8be0079c531659141344cd1fd0a4f28419497f9722a3daafe3b4186f6b6457e0600080a3005b604051631e4fbdf760e01b815260006004820152602490fd5b3461025857610100806003193601126102585760043567ffffffffffffffff81116102585761031e903690600401611e6a565b610326612164565b60405192830183811067ffffffffffffffff8211176105435760405261034d368284612007565b8352602435602084015260443560408401526064356060840152608435608084015260a43560a084015260c43560c084015260e43560e084015260055460005260036020526040600020835180519067ffffffffffffffff8211610543576103b58354611d1a565b601f81116104ff575b50602090601f831160011461048d57958260079360e09361047d99600092610482575b50508160011b916000199060031b1c19161784555b6020810151600185015560408101516002850155606081015160038501556080810151600485015560a0810151600585015560c0810151600685015501519101557fbce75db7677467da57e0a1c1497e4a7c42d79d4071dbb0578df54307e986fe0760055492839261047560405192839260208452602084019161204e565b0390a2611ff8565b600555005b0151905089806103e1565b908360005260206000209160005b601f19851681106104e757508360e09361047d9993600193600797601f198116106104ce575b505050811b0184556103f6565b015160001960f88460031b161c191690558980806104c1565b9192602060018192868501518155019401920161049b565b836000526020600020601f840160051c81016020851061053c575b601f830160051c820181106105305750506103be565b6000815560010161051a565b508061051a565b634e487b7160e01b600052604160045260246000fd5b3461025857600036600319011261025857610572612164565b60008080804781811561058a575b3390f1156100c157005b506108fc610580565b34610258576000366003190112610258576020600554604051908152f35b3461025857602080600319360112610258576105cb611d04565b6105d3612141565b336000526002825260406000209060018060a01b03169182600052604060002090600483019283541515806108bb575b156108805760ff60018201541660ff60018501541615159015151461084857600b810154600b8401540361080b576010810154421015806107fd575b156107cc5760078101546008840154808211156107c25761065f91611f91565b925b60078101546008830154808211156107b95761067c91611f91565b60048201805490958181106107a9575050600085555b855490818110610799575050600085555b60009354156106fd575b507f1d099e3da7a64d91bf9ed0e41aceaf6a8e2c1fc0d072ef2779f2ea6988d27988929354156106ea575b5060405192151583523392a360018055005b60006009820155600f42910155846106d8565b92506000600984015542600f8401556009810154926032840293808504603214901517156107835760020180547f1d099e3da7a64d91bf9ed0e41aceaf6a8e2c1fc0d072ef2779f2ea6988d2798894919080831161077b575b8261076091611f91565b905561077160028301918254611f9e565b90556001926106ad565b915081610756565b634e487b7160e01b600052601160045260246000fd5b6107a291611f91565b85556106a3565b6107b291611f91565b8555610692565b5050600061067c565b5050600092610661565b60405162461bcd60e51b8152600481018390526009602482015268125b881d1c985d995b60ba1b6044820152606490fd5b50601083015442101561063f565b60405162461bcd60e51b815260048101839052601560248201527426bab9ba1031329039b0b6b2903637b1b0ba34b7b760591b6044820152606490fd5b60405162461bcd60e51b815260048101839052601060248201526f29b0b6b29030b33334b634b0ba34b7b760811b6044820152606490fd5b60405162461bcd60e51b815260048101839052601360248201527213db99481cda1a5c081a5cc81ddc9958dad959606a1b6044820152606490fd5b5060048301541515610603565b346102585760203660031901126102585760065460043580821015610a935750805b6108f381612087565b916108fd82612087565b9160005b828110610936576109248561093286604051938493604085526040850190611e98565b908382036020850152611ed5565b0390f35b61093f81611f09565b905460018060a01b039160031b1c166000526109c260028060205261099460066040600020015461096f85611f09565b60018060a01b0391549060031b1c166000528260205260076040600020015490611f9e565b9061099e84611f09565b60018060a01b0391549060031b1c1660005260205260086040600020015490611f9e565b60005b8381106109d7575b5050600101610901565b6109e181876120b9565b5182116109f0576001016109c5565b6000198401848111610783575b818111610a3d575090610a358392610a16600195611f09565b868060a01b0391549060031b1c16610a2e828b6120b9565b52876120b9565b5290866109cd565b8060001981011161078357610a8e906001600160a01b03610a6260001983018b6120b9565b5116610a6e828b6120b9565b52610a7d6000198201896120b9565b51610a88828a6120b9565b52611feb565b6109fd565b6108ea565b34610258576020806003193601126102585760068054916000919060043590835b858110610d225750610aca84612087565b94610ad48561206f565b93610ae26040519586611d54565b858552610aee8661206f565b601f199690870160005b818110610d13575050610b0a90612087565b9360009060005b848110610ba257610b34898b8a8a8a604051958694606086526060860190611e98565b908482038186015283519182815281810182808560051b8401019601976000925b858410610b705788806109328a8a8382036040850152611ed5565b91938080979950610b8e898486600196989a9c030188528c51611e1b565b9a0194019401918997959398969491610b55565b89610bb0829a98999a611f09565b919060018060a01b03809154600394851b1c1660005288878d60029485845288600b604060002001541480610cea575b610bf8575b5050505050505060010197969597610b11565b8786889587610c8f8e9a97859f8060019f99610cdd9f99610c35610ccd9f9c9488610ca99d610c29610c6a98611f09565b9054911b1c16926120b9565b52858d610c418b611f09565b9054911b1c16600052878752610c5a6040600020611d76565b610c6483836120b9565b526120b9565b5082610c7587611f09565b9054908c1b1c166000528484526040600020015494611f09565b905490891b1c166000525260076040600020015490611f9e565b92610cb38a611f09565b9054911b1c166000528a5260086040600020015490611f9e565b610cd7828c6120b9565b52611ff8565b92908b8088878d8f610be5565b5084610cf589611f09565b905490891b1c16600052858452601060406000200154421015610be0565b60608882018701528501610af8565b610d2f8195939495611f09565b9060018060a01b03809154600393841b1c1660005260029081855286600b60406000200154149283610d84575b505050610d70575b60010193929193610ab9565b91610d7c600191611ff8565b929050610d64565b90919250610d9184611f09565b9054911b1c166000528252601060406000200154421015878080610d5c565b346102585760603660031901126102585760043567ffffffffffffffff811161025857610de1903690600401611e6a565b90610dea611e5b565b91801515806111ee575b156111a9576064806044351161116e5733600052600260205260406000206004810154159081611161575b50156111295760405190610220820182811067ffffffffffffffff82111761054357604052610e4f368486612007565b825284151560208301528060408301526000606083015280608083015260a0820152600160c0820152600160e082015260016101008201526001610120820152600a610140820152604435610160820152600061018082015260006101a082015260006101c082015260006101e08201526000610200820152336000526002602052604060002090805180519067ffffffffffffffff821161054357610ef58454611d1a565b601f81116110e5575b50602090601f8311600114611075579180601094926102009460009261106a575b50508160011b916000199060031b1c19161784555b600184016020820151151560ff8019835416911617905560408101516002850155606081015160038501556080810151600485015560a0810151600585015560c0810151600685015560e0810151600785015561010081015160088501556101208101516009850155610140810151600a850155610160810151600b850155610180810151600c8501556101a0810151600d8501556101c0810151600e8501556101e0810151600f850155015191015560065468010000000000000000811015610543577f47456e7ec68e981a8f02d9c9528370adea595c1b26225be6797e6d441c47fc029261102d82600161105a9401600655611f09565b81546001600160a01b0360039290921b91821b19163390911b17905560408051818152939084019161204e565b92151560208201528033930390a2005b015190508980610f1f565b908460005260206000209160005b601f19851681106110cd575092601094926001926102009583601f198116106110b4575b505050811b018455610f34565b015160001960f88460031b161c191690558980806110a7565b91926020600181928685015181550194019201611083565b846000526020600020601f840160051c810160208510611122575b601f830160051c82018110611116575050610efe565b60008155600101611100565b5080611100565b60405162461bcd60e51b8152602060048201526013602482015272105b1c9958591e481a185cc81858d8dbdd5b9d606a1b6044820152fd5b6009915001541585610e1f565b60405162461bcd60e51b815260206004820152601660248201527504c6f636174696f6e206d75737420626520302d3130360541b6044820152fd5b60405162461bcd60e51b815260206004820152601860248201527f426f6174206e616d6520696e76616c6964206c656e67746800000000000000006044820152606490fd5b50600c811115610df4565b34610258576020806003193601126102585760043590611217612141565b8160005260038152604060002033600052600282526040600020916112646001830154611245811515611fab565b33600052600483526040600020866000528352604060002054906120cd565b6002840190815481811061137d57916112836007949260099694611f91565b90553360005260048152604060002090866000525260406000206112a78154611ff8565b905560028101546112bd600c8601918254611f9e565b90556003810180546112d460058701918254611f9e565b9055546112e660048601918254611f9e565b905560048101546112fc60068601918254611f9e565b90556005810154611311838601918254611f9e565b9055600681015461132760088601918254611f9e565b905501549161133b600a8201938454611f9e565b8093550181815411611375575b82337fcf52c8aa8ed6b7d560b4e75db6ab973723de269d5580985c8880844d4ed6d7c0600080a360018055005b558180611348565b60405162461bcd60e51b815260048101859052600f60248201526e139bdd08195b9bdd59da0819dbdb19608a1b6044820152606490fd5b34610258576000366003190112610258576000546040516001600160a01b039091168152602090f35b6040366003190112610258576004356113f4611e5b565b6113fc612141565b3360005260206002815260406000209061141b60048301541515611f56565b6010820191825442106116525760649081861161161c57600b81019182548088146115e95787818111156115da579061145391611f91565b915b610e10928381029080820485148115171561078357600683015461012c8082029180830482148115171561078357830202918183041490151715610783578181106115cb5750506000925b8715611585578304903461154f57600301918254908282106115175750916114ce899594926114d794611f91565b90555b42611f9e565b80945555604051938452830152151560408201527f9782a86993c9e75e77fdbba3381a28a46e4f356e9516e67313bd4bd859c88a3f60603392a260018055005b60405162461bcd60e51b81526004810188905260136024820152724e6f7420656e6f756768206469616d6f6e647360681b6044820152fd5b60405162461bcd60e51b815260048101879052600f60248201526e14185e481d9a5848191a585b5bdb99608a1b60448201528390fd5b5050346115985750906114d786926114d1565b60405162461bcd60e51b815260048101859052600e60248201526d2237b713ba1039b2b732102c2a2d60911b6044820152fd5b6115d491611f91565b926114a0565b6115e391611f91565b91611455565b5060405162461bcd60e51b815260048101859052600d60248201526c29b0b6b2903637b1b0ba34b7b760991b6044820152fd5b50906040519062461bcd60e51b82526004820152601060248201526f131bd8d85d1a5bdb881a5b9d985b1a5960821b6044820152fd5b60405162461bcd60e51b8152600481018390526011602482015270416c72656164792074726176656c696e6760781b6044820152606490fd5b346102585760203660031901126102585760043560005260036020526116f460406000206116b881611d76565b90600181015490600281015490600381015460048201546005830154916007600685015494015494604051988998610100808b528a0190611e1b565b96602089015260408801526060870152608086015260a085015260c084015260e08301520390f35b3461025857600036600319011261025857611735612164565b600080546001600160a01b0319811682556001600160a01b03167f8be0079c531659141344cd1fd0a4f28419497f9722a3daafe3b4186f6b6457e08280a3005b604036600319011261025857600435801515810361025857611795611e5b565b9061179e612141565b336000526020600281526040600020926004840191825461199357600f8501938454614650810180911161078357421061194e57156118dd57600b850154601981149081156118d2575b81156118c7575b501561189557818215611885575b1561184a57501561182a5760058360036000950161181b8154611feb565b90555b015490555b5560018055005b6002830180546103e719810194908511610783576000946005925561181e565b6064906040519062461bcd60e51b825260048201526014602482015273139959590819dbdb19081bdc88191a585b5bdb9960621b6044820152fd5b506103e8600286015410156117fd565b6064906040519062461bcd60e51b82526004820152600b60248201526a139bdd08185d081c1bdc9d60aa1b6044820152fd5b6059915014866117ef565b6037811491506117e8565b906118f2575b50600560009301549055611823565b60038401908154906001821061191b575093600591611912600096611feb565b905593506118e3565b6064906040519062461bcd60e51b82526004820152600c60248201526b1399595908191a585b5bdb9960a21b6044820152fd5b60405162461bcd60e51b815260048101839052601a60248201527f4e6f7420726561647920666f72206261736963207265706169720000000000006044820152606490fd5b6064906040519062461bcd60e51b82526004820152601060248201526f14da1a5c081b9bdd081ddc9958dad95960821b6044820152fd5b34610258576020366003190112610258576001600160a01b036119eb611d04565b1660005260026020526040600020611a0281611d76565b60ff600183015416608052600282015460a052600382015460e05260048201549160058101546006820154600783015460088401546009850154600a86015490600b87015492600c88015494600d89015496600e8a015498611a806010600f8d01549c01549c60405160c0526102208060c0515260c0510190611e1b565b9c6080511515602060c051015260a051604060c051015260e051606060c0510152608060c051015260a060c051015260c08051015260e060c051015261010060c051015261012060c051015261014060c051015261016060c051015261018060c05101526101a060c05101526101c060c05101526101e060c051015261020060c051015260c051900360c051f35b34610258576040366003190112610258576024356001600160a01b03811690600435908290036102585760209181611b7a926000526003845260016040600020015491611b5c831515611fab565b600052600484526040600020906000528352604060002054906120cd565b604051908152f35b34610258576040366003190112610258576001600160a01b03611ba3611d04565b16600052600460205260406000206024356000526020526020604060002054604051908152f35b34610258576000366003190112610258573360005260026020526040600020611bf860048201541515611f56565b62015180804204600d83019182540481811015611cbf5760001982019182116107835703611cb357600e82018054906001820180921161078357555b42905560098101549060198202918083046019149015171561078357600e81015491826005029060058204840361078357600291611c7191611f9e565b9101611c7e828254611f9e565b905560405191825260208201527fb9cfea4717f167774a6e8643c33472935d3ef918453525eefca6936078b7cfdd60403392a2005b6001600e830155611c34565b60405162461bcd60e51b815260206004820152601860248201527f416c726561647920636865636b656420696e20746f64617900000000000000006044820152606490fd5b600435906001600160a01b038216820361025857565b90600182811c92168015611d4a575b6020831014611d3457565b634e487b7160e01b600052602260045260246000fd5b91607f1691611d29565b90601f8019910116810190811067ffffffffffffffff82111761054357604052565b90604051918260008254611d8981611d1a565b90818452602094600191600181169081600014611df95750600114611dba575b505050611db892500383611d54565b565b600090815285812095935091905b818310611de1575050611db89350820101388080611da9565b85548884018501529485019487945091830191611dc8565b92505050611db894925060ff191682840152151560051b820101388080611da9565b919082519283825260005b848110611e47575050826000602080949584010152601f8019910116010190565b602081830181015184830182015201611e26565b60243590811515820361025857565b9181601f840112156102585782359167ffffffffffffffff8311610258576020838186019501011161025857565b90815180825260208080930193019160005b828110611eb8575050505090565b83516001600160a01b031685529381019392810192600101611eaa565b90815180825260208080930193019160005b828110611ef5575050505090565b835185529381019392810192600101611ee7565b600654811015611f405760066000527ff652222313e28459528d920b65115c16c04f3efc82aaedc97be59f3f377c0d3f0190600090565b634e487b7160e01b600052603260045260246000fd5b15611f5d57565b60405162461bcd60e51b815260206004820152600c60248201526b14da1a5c081ddc9958dad95960a21b6044820152606490fd5b9190820391821161078357565b9190820180921161078357565b15611fb257565b60405162461bcd60e51b8152602060048201526011602482015270155c19dc985919481b9bdd08195e1a5cdd607a1b6044820152606490fd5b8015610783576000190190565b60001981146107835760010190565b92919267ffffffffffffffff82116105435760405191612031601f8201601f191660200184611d54565b829481845281830111610258578281602093846000960137010152565b908060209392818452848401376000828201840152601f01601f1916010190565b67ffffffffffffffff81116105435760051b60200190565b906120918261206f565b61209e6040519182611d54565b82815280926120af601f199161206f565b0190602036910137565b8051821015611f405760209160051b010190565b811561213c576001916001926000915b8083106121075750505081156120f1570490565b634e487b7160e01b600052601260045260246000fd5b90919392600f908181029181830414901517156107835792600a908181029181830414901517156107835793820191906120dd565b905090565b600260015414612152576002600155565b604051633ee5aeb560e01b8152600490fd5b6000546001600160a01b0316330361217857565b60405163118cdaa760e01b8152336004820152602490fd5b600680546001908181101561234f57805b6121aa81612087565b936121b482612087565b60005b8481106121f25750505050505080511580156121de5750506000546001600160a01b031690565b611f4057602001516001600160a01b031690565b806121fd8792611f09565b60018060a01b03809254600392831b1c16600052612271600260086020918083526040906122508b836000200154886122358b611f09565b9054908a1b1c16600052828652600784600020015490611f9e565b938761225b8a611f09565b905490891b1c1660005252600020015490611f9e565b9060005b888110612287575b50505050016121b7565b61229781889793949596976120b9565b5184116122aa5701908994939291612275565b929391905060001988810189811161078357908b9695949392915b8481116122fe575050906122f492916122dd86611f09565b9054911b1c166122ed828d6120b9565b52856120b9565b523880808061227d565b90809293949596975081019080821161078357612337828f612330848961232861234298856120b9565b5116926120b9565b528a6120b9565b51610a88828b6120b9565b908b9695949392916122c5565b60016121a1565b6006805460029190828110156124b557805b61237181612087565b9361237b82612087565b9060005b8481106123bf575050505050508051600181116123a75750506000546001600160a01b031690565b60011015611f4057604001516001600160a01b031690565b6123c881611f09565b60018060a01b03809254600392831b1c166000526123fd602085815260086040876122508d836000200154886122358b611f09565b9060005b878110612415575b5050505060010161237f565b61241f81886120b9565b51831161242e57600101612401565b919290600019888101898111610783575b84811161247c575050916124729185949361245b600197611f09565b9054911b1c1661246b828d6120b9565b52866120b9565b5290388080612409565b81810190808211610783576124a5828f61249e84896123286124b098856120b9565b528b6120b9565b51610a88828c6120b9565b61243f565b6002612368565b60068054600391908281101561264357805b6124d781612087565b936124e182612087565b60005b8481106125245750505050505080516002811161250c5750506000546001600160a01b031690565b60021015611f4057606001516001600160a01b031690565b61252d81611f09565b9060018060a01b039182915490861b1c166000526125a1600260086020918083526040906125808c836000200154876125658a611f09565b9054908d1b1c16600052828652600784600020015490611f9e565b938661258b89611f09565b9054908c1b1c1660005252600020015490611f9e565b60005b8681106125b7575b5050506001016124e4565b6125c181866120b9565b5182116125d0576001016125a4565b9091600019878101888111610783575b83811161261557505083929161260c916125fb600196611f09565b905490891b1c166122ed828d6120b9565b529038806125ac565b8181019080821161078357610a7d828e612637848861232861263e98856120b9565b52896120b9565b6125e0565b826124ce56fea2646970667358221220f38cd3a814a4a69bf8e75ef29fadd5c38e7e4129a186e05dcea732c4d66e80ae64736f6c63430008180033","opcodes":"PUSH1 0x80 DUP1 PUSH1 0x40 MSTORE CALLVALUE PUSH2 0x7E JUMPI CALLER ISZERO PUSH2 0x68 JUMPI PUSH1 0x0 DUP1 SLOAD CALLER PUSH1 0x1 PUSH1 0x1 PUSH1 0xA0 SHL SUB NOT DUP3 AND DUP2 OR DUP4 SSTORE PUSH1 0x40 MLOAD SWAP3 SWAP1 SWAP2 PUSH1 0x1 PUSH1 0x1 PUSH1 0xA0 SHL SUB AND SWAP1 PUSH32 0x8BE0079C531659141344CD1FD0A4F28419497F9722A3DAAFE3B4186F6B6457E0 SWAP1 DUP1 LOG3 PUSH1 0x1 DUP1 SSTORE PUSH2 0x267F SWAP1 DUP2 PUSH2 0x84 DUP3 CODECOPY RETURN JUMPDEST PUSH4 0x1E4FBDF7 PUSH1 0xE0 SHL DUP2 MSTORE PUSH1 0x0 PUSH1 0x4 DUP3 ADD MSTORE PUSH1 0x24 SWAP1 REVERT JUMPDEST PUSH1 0x0 DUP1 REVERT INVALID PUSH2 0x100 PUSH1 0x40 MSTORE PUSH1 0x4 CALLDATASIZE LT ISZERO PUSH2 0x140 JUMPI JUMPDEST CALLDATASIZE ISZERO PUSH2 0x1A JUMPI PUSH1 0x0 DUP1 REVERT JUMPDEST PUSH2 0x22 PUSH2 0x2141 JUMP JUMPDEST CALLVALUE PUSH8 0x8AC7230489E80000 SUB PUSH2 0xCD JUMPI PUSH1 0x1 JUMPDEST CALLER PUSH1 0x0 MSTORE PUSH1 0x2 PUSH1 0x20 MSTORE PUSH2 0x50 PUSH1 0x3 PUSH1 0x40 PUSH1 0x0 KECCAK256 ADD SWAP2 DUP3 SLOAD PUSH2 0x1F9E JUMP JUMPDEST SWAP1 SSTORE PUSH2 0x5A PUSH2 0x2190 JUMP JUMPDEST PUSH2 0x62 PUSH2 0x2356 JUMP JUMPDEST SWAP1 PUSH2 0x6B PUSH2 0x24BC JUMP JUMPDEST SWAP2 PUSH1 0x0 DUP1 DUP1 DUP1 PUSH8 0x3782DACE9D900000 PUSH1 0x1 DUP1 PUSH1 0xA0 SHL SUB DUP1 SWAP8 AND DUP3 CALL ISZERO PUSH2 0xC1 JUMPI PUSH1 0x0 DUP1 DUP1 PUSH8 0x1BC16D674EC80000 DUP6 DUP3 SWAP6 AND DUP3 CALL ISZERO PUSH2 0xC1 JUMPI PUSH1 0x0 DUP1 DUP1 PUSH8 0xDE0B6B3A7640000 DUP2 SWAP5 DUP7 AND DUP3 CALL ISZERO PUSH2 0xC1 JUMPI PUSH1 0x1 DUP1 SSTORE STOP JUMPDEST PUSH1 0x40 MLOAD RETURNDATASIZE PUSH1 0x0 DUP3 RETURNDATACOPY RETURNDATASIZE SWAP1 REVERT JUMPDEST CALLVALUE PUSH9 0x270801D946C940000 SUB PUSH2 0xE4 JUMPI PUSH1 0x5 PUSH2 0x34 JUMP JUMPDEST CALLVALUE PUSH9 0x4E1003B28D9280000 SUB PUSH2 0xFB JUMPI PUSH1 0xA PUSH2 0x34 JUMP JUMPDEST PUSH1 0x40 MLOAD PUSH3 0x461BCD PUSH1 0xE5 SHL DUP2 MSTORE PUSH1 0x20 PUSH1 0x4 DUP3 ADD MSTORE PUSH1 0x17 PUSH1 0x24 DUP3 ADD MSTORE PUSH32 0x496E76616C6964206469616D6F6E64207061636B616765000000000000000000 PUSH1 0x44 DUP3 ADD MSTORE PUSH1 0x64 SWAP1 REVERT JUMPDEST PUSH1 0x0 CALLDATALOAD PUSH1 0xE0 SHR DUP1 PUSH4 0x183FF085 EQ PUSH2 0x1BCA JUMPI DUP1 PUSH4 0x35D93897 EQ PUSH2 0x1B82 JUMPI DUP1 PUSH4 0x5722BB51 EQ PUSH2 0x1B0E JUMPI DUP1 PUSH4 0x5E5C06E2 EQ PUSH2 0x19CA JUMPI DUP1 PUSH4 0x683591A8 EQ PUSH2 0x1775 JUMPI DUP1 PUSH4 0x715018A6 EQ PUSH2 0x171C JUMPI DUP1 PUSH4 0x7386BBC5 EQ PUSH2 0x168B JUMPI DUP1 PUSH4 0x74AA3A98 EQ PUSH2 0x13DD JUMPI DUP1 PUSH4 0x8DA5CB5B EQ PUSH2 0x13B4 JUMPI DUP1 PUSH4 0xA5A2CB19 EQ PUSH2 0x11F9 JUMPI DUP1 PUSH4 0xAB2611EE EQ PUSH2 0xDB0 JUMPI DUP1 PUSH4 0xB7DF5B5D EQ PUSH2 0xA98 JUMPI DUP1 PUSH4 0xBEA2DC14 EQ PUSH2 0x8C8 JUMPI DUP1 PUSH4 0xD018DB3E EQ PUSH2 0x5B1 JUMPI DUP1 PUSH4 0xD2FABB18 EQ PUSH2 0x593 JUMPI DUP1 PUSH4 0xD4826B6C EQ PUSH2 0x559 JUMPI DUP1 PUSH4 0xECE2E4BA EQ PUSH2 0x2EB JUMPI DUP1 PUSH4 0xF2FDE38B EQ PUSH2 0x25D JUMPI PUSH4 0xF71D96CB SUB PUSH2 0xF JUMPI CALLVALUE PUSH2 0x258 JUMPI PUSH1 0x20 CALLDATASIZE PUSH1 0x3 NOT ADD SLT PUSH2 0x258 JUMPI PUSH1 0x4 CALLDATALOAD PUSH1 0x6 SLOAD DUP2 LT ISZERO PUSH2 0x258 JUMPI PUSH2 0x23F PUSH1 0x20 SWAP2 PUSH2 0x1F09 JUMP JUMPDEST SWAP1 SLOAD PUSH1 0x40 MLOAD PUSH1 0x3 SWAP3 SWAP1 SWAP3 SHL SHR PUSH1 0x1 PUSH1 0x1 PUSH1 0xA0 SHL SUB AND DUP2 MSTORE RETURN JUMPDEST PUSH1 0x0 DUP1 REVERT JUMPDEST CALLVALUE PUSH2 0x258 JUMPI PUSH1 0x20 CALLDATASIZE PUSH1 0x3 NOT ADD SLT PUSH2 0x258 JUMPI PUSH2 0x276 PUSH2 0x1D04 JUMP JUMPDEST PUSH2 0x27E PUSH2 0x2164 JUMP JUMPDEST PUSH1 0x1 PUSH1 0x1 PUSH1 0xA0 SHL SUB SWAP1 DUP2 AND SWAP1 DUP2 ISZERO PUSH2 0x2D2 JUMPI PUSH1 0x0 SLOAD DUP3 PUSH12 0xFFFFFFFFFFFFFFFFFFFFFFFF PUSH1 0xA0 SHL DUP3 AND OR PUSH1 0x0 SSTORE AND PUSH32 0x8BE0079C531659141344CD1FD0A4F28419497F9722A3DAAFE3B4186F6B6457E0 PUSH1 0x0 DUP1 LOG3 STOP JUMPDEST PUSH1 0x40 MLOAD PUSH4 0x1E4FBDF7 PUSH1 0xE0 SHL DUP2 MSTORE PUSH1 0x0 PUSH1 0x4 DUP3 ADD MSTORE PUSH1 0x24 SWAP1 REVERT JUMPDEST CALLVALUE PUSH2 0x258 JUMPI PUSH2 0x100 DUP1 PUSH1 0x3 NOT CALLDATASIZE ADD SLT PUSH2 0x258 JUMPI PUSH1 0x4 CALLDATALOAD PUSH8 0xFFFFFFFFFFFFFFFF DUP2 GT PUSH2 0x258 JUMPI PUSH2 0x31E SWAP1 CALLDATASIZE SWAP1 PUSH1 0x4 ADD PUSH2 0x1E6A JUMP JUMPDEST PUSH2 0x326 PUSH2 0x2164 JUMP JUMPDEST PUSH1 0x40 MLOAD SWAP3 DUP4 ADD DUP4 DUP2 LT PUSH8 0xFFFFFFFFFFFFFFFF DUP3 GT OR PUSH2 0x543 JUMPI PUSH1 0x40 MSTORE PUSH2 0x34D CALLDATASIZE DUP3 DUP5 PUSH2 0x2007 JUMP JUMPDEST DUP4 MSTORE PUSH1 0x24 CALLDATALOAD PUSH1 0x20 DUP5 ADD MSTORE PUSH1 0x44 CALLDATALOAD PUSH1 0x40 DUP5 ADD MSTORE PUSH1 0x64 CALLDATALOAD PUSH1 0x60 DUP5 ADD MSTORE PUSH1 0x84 CALLDATALOAD PUSH1 0x80 DUP5 ADD MSTORE PUSH1 0xA4 CALLDATALOAD PUSH1 0xA0 DUP5 ADD MSTORE PUSH1 0xC4 CALLDATALOAD PUSH1 0xC0 DUP5 ADD MSTORE PUSH1 0xE4 CALLDATALOAD PUSH1 0xE0 DUP5 ADD MSTORE PUSH1 0x5 SLOAD PUSH1 0x0 MSTORE PUSH1 0x3 PUSH1 0x20 MSTORE PUSH1 0x40 PUSH1 0x0 KECCAK256 DUP4 MLOAD DUP1 MLOAD SWAP1 PUSH8 0xFFFFFFFFFFFFFFFF DUP3 GT PUSH2 0x543 JUMPI PUSH2 0x3B5 DUP4 SLOAD PUSH2 0x1D1A JUMP JUMPDEST PUSH1 0x1F DUP2 GT PUSH2 0x4FF JUMPI JUMPDEST POP PUSH1 0x20 SWAP1 PUSH1 0x1F DUP4 GT PUSH1 0x1 EQ PUSH2 0x48D JUMPI SWAP6 DUP3 PUSH1 0x7 SWAP4 PUSH1 0xE0 SWAP4 PUSH2 0x47D SWAP10 PUSH1 0x0 SWAP3 PUSH2 0x482 JUMPI JUMPDEST POP POP DUP2 PUSH1 0x1 SHL SWAP2 PUSH1 0x0 NOT SWAP1 PUSH1 0x3 SHL SHR NOT AND OR DUP5 SSTORE JUMPDEST PUSH1 0x20 DUP2 ADD MLOAD PUSH1 0x1 DUP6 ADD SSTORE PUSH1 0x40 DUP2 ADD MLOAD PUSH1 0x2 DUP6 ADD SSTORE PUSH1 0x60 DUP2 ADD MLOAD PUSH1 0x3 DUP6 ADD SSTORE PUSH1 0x80 DUP2 ADD MLOAD PUSH1 0x4 DUP6 ADD SSTORE PUSH1 0xA0 DUP2 ADD MLOAD PUSH1 0x5 DUP6 ADD SSTORE PUSH1 0xC0 DUP2 ADD MLOAD PUSH1 0x6 DUP6 ADD SSTORE ADD MLOAD SWAP2 ADD SSTORE PUSH32 0xBCE75DB7677467DA57E0A1C1497E4A7C42D79D4071DBB0578DF54307E986FE07 PUSH1 0x5 SLOAD SWAP3 DUP4 SWAP3 PUSH2 0x475 PUSH1 0x40 MLOAD SWAP3 DUP4 SWAP3 PUSH1 0x20 DUP5 MSTORE PUSH1 0x20 DUP5 ADD SWAP2 PUSH2 0x204E JUMP JUMPDEST SUB SWAP1 LOG2 PUSH2 0x1FF8 JUMP JUMPDEST PUSH1 0x5 SSTORE STOP JUMPDEST ADD MLOAD SWAP1 POP DUP10 DUP1 PUSH2 0x3E1 JUMP JUMPDEST SWAP1 DUP4 PUSH1 0x0 MSTORE PUSH1 0x20 PUSH1 0x0 KECCAK256 SWAP2 PUSH1 0x0 JUMPDEST PUSH1 0x1F NOT DUP6 AND DUP2 LT PUSH2 0x4E7 JUMPI POP DUP4 PUSH1 0xE0 SWAP4 PUSH2 0x47D SWAP10 SWAP4 PUSH1 0x1 SWAP4 PUSH1 0x7 SWAP8 PUSH1 0x1F NOT DUP2 AND LT PUSH2 0x4CE JUMPI JUMPDEST POP POP POP DUP2 SHL ADD DUP5 SSTORE PUSH2 0x3F6 JUMP JUMPDEST ADD MLOAD PUSH1 0x0 NOT PUSH1 0xF8 DUP5 PUSH1 0x3 SHL AND SHR NOT AND SWAP1 SSTORE DUP10 DUP1 DUP1 PUSH2 0x4C1 JUMP JUMPDEST SWAP2 SWAP3 PUSH1 0x20 PUSH1 0x1 DUP2 SWAP3 DUP7 DUP6 ADD MLOAD DUP2 SSTORE ADD SWAP5 ADD SWAP3 ADD PUSH2 0x49B JUMP JUMPDEST DUP4 PUSH1 0x0 MSTORE PUSH1 0x20 PUSH1 0x0 KECCAK256 PUSH1 0x1F DUP5 ADD PUSH1 0x5 SHR DUP2 ADD PUSH1 0x20 DUP6 LT PUSH2 0x53C JUMPI JUMPDEST PUSH1 0x1F DUP4 ADD PUSH1 0x5 SHR DUP3 ADD DUP2 LT PUSH2 0x530 JUMPI POP POP PUSH2 0x3BE JUMP JUMPDEST PUSH1 0x0 DUP2 SSTORE PUSH1 0x1 ADD PUSH2 0x51A JUMP JUMPDEST POP DUP1 PUSH2 0x51A JUMP JUMPDEST PUSH4 0x4E487B71 PUSH1 0xE0 SHL PUSH1 0x0 MSTORE PUSH1 0x41 PUSH1 0x4 MSTORE PUSH1 0x24 PUSH1 0x0 REVERT JUMPDEST CALLVALUE PUSH2 0x258 JUMPI PUSH1 0x0 CALLDATASIZE PUSH1 0x3 NOT ADD SLT PUSH2 0x258 JUMPI PUSH2 0x572 PUSH2 0x2164 JUMP JUMPDEST PUSH1 0x0 DUP1 DUP1 DUP1 SELFBALANCE DUP2 DUP2 ISZERO PUSH2 0x58A JUMPI JUMPDEST CALLER SWAP1 CALL ISZERO PUSH2 0xC1 JUMPI STOP JUMPDEST POP PUSH2 0x8FC PUSH2 0x580 JUMP JUMPDEST CALLVALUE PUSH2 0x258 JUMPI PUSH1 0x0 CALLDATASIZE PUSH1 0x3 NOT ADD SLT PUSH2 0x258 JUMPI PUSH1 0x20 PUSH1 0x5 SLOAD PUSH1 0x40 MLOAD SWAP1 DUP2 MSTORE RETURN JUMPDEST CALLVALUE PUSH2 0x258 JUMPI PUSH1 0x20 DUP1 PUSH1 0x3 NOT CALLDATASIZE ADD SLT PUSH2 0x258 JUMPI PUSH2 0x5CB PUSH2 0x1D04 JUMP JUMPDEST PUSH2 0x5D3 PUSH2 0x2141 JUMP JUMPDEST CALLER PUSH1 0x0 MSTORE PUSH1 0x2 DUP3 MSTORE PUSH1 0x40 PUSH1 0x0 KECCAK256 SWAP1 PUSH1 0x1 DUP1 PUSH1 0xA0 SHL SUB AND SWAP2 DUP3 PUSH1 0x0 MSTORE PUSH1 0x40 PUSH1 0x0 KECCAK256 SWAP1 PUSH1 0x4 DUP4 ADD SWAP3 DUP4 SLOAD ISZERO ISZERO DUP1 PUSH2 0x8BB JUMPI JUMPDEST ISZERO PUSH2 0x880 JUMPI PUSH1 0xFF PUSH1 0x1 DUP3 ADD SLOAD AND PUSH1 0xFF PUSH1 0x1 DUP6 ADD SLOAD AND ISZERO ISZERO SWAP1 ISZERO ISZERO EQ PUSH2 0x848 JUMPI PUSH1 0xB DUP2 ADD SLOAD PUSH1 0xB DUP5 ADD SLOAD SUB PUSH2 0x80B JUMPI PUSH1 0x10 DUP2 ADD SLOAD TIMESTAMP LT ISZERO DUP1 PUSH2 0x7FD JUMPI JUMPDEST ISZERO PUSH2 0x7CC JUMPI PUSH1 0x7 DUP2 ADD SLOAD PUSH1 0x8 DUP5 ADD SLOAD DUP1 DUP3 GT ISZERO PUSH2 0x7C2 JUMPI PUSH2 0x65F SWAP2 PUSH2 0x1F91 JUMP JUMPDEST SWAP3 JUMPDEST PUSH1 0x7 DUP2 ADD SLOAD PUSH1 0x8 DUP4 ADD SLOAD DUP1 DUP3 GT ISZERO PUSH2 0x7B9 JUMPI PUSH2 0x67C SWAP2 PUSH2 0x1F91 JUMP JUMPDEST PUSH1 0x4 DUP3 ADD DUP1 SLOAD SWAP1 SWAP6 DUP2 DUP2 LT PUSH2 0x7A9 JUMPI POP POP PUSH1 0x0 DUP6 SSTORE JUMPDEST DUP6 SLOAD SWAP1 DUP2 DUP2 LT PUSH2 0x799 JUMPI POP POP PUSH1 0x0 DUP6 SSTORE JUMPDEST PUSH1 0x0 SWAP4 SLOAD ISZERO PUSH2 0x6FD JUMPI JUMPDEST POP PUSH32 0x1D099E3DA7A64D91BF9ED0E41ACEAF6A8E2C1FC0D072EF2779F2EA6988D27988 SWAP3 SWAP4 SLOAD ISZERO PUSH2 0x6EA JUMPI JUMPDEST POP PUSH1 0x40 MLOAD SWAP3 ISZERO ISZERO DUP4 MSTORE CALLER SWAP3 LOG3 PUSH1 0x1 DUP1 SSTORE STOP JUMPDEST PUSH1 0x0 PUSH1 0x9 DUP3 ADD SSTORE PUSH1 0xF TIMESTAMP SWAP2 ADD SSTORE DUP5 PUSH2 0x6D8 JUMP JUMPDEST SWAP3 POP PUSH1 0x0 PUSH1 0x9 DUP5 ADD SSTORE TIMESTAMP PUSH1 0xF DUP5 ADD SSTORE PUSH1 0x9 DUP2 ADD SLOAD SWAP3 PUSH1 0x32 DUP5 MUL SWAP4 DUP1 DUP6 DIV PUSH1 0x32 EQ SWAP1 ISZERO OR ISZERO PUSH2 0x783 JUMPI PUSH1 0x2 ADD DUP1 SLOAD PUSH32 0x1D099E3DA7A64D91BF9ED0E41ACEAF6A8E2C1FC0D072EF2779F2EA6988D27988 SWAP5 SWAP2 SWAP1 DUP1 DUP4 GT PUSH2 0x77B JUMPI JUMPDEST DUP3 PUSH2 0x760 SWAP2 PUSH2 0x1F91 JUMP JUMPDEST SWAP1 SSTORE PUSH2 0x771 PUSH1 0x2 DUP4 ADD SWAP2 DUP3 SLOAD PUSH2 0x1F9E JUMP JUMPDEST SWAP1 SSTORE PUSH1 0x1 SWAP3 PUSH2 0x6AD JUMP JUMPDEST SWAP2 POP DUP2 PUSH2 0x756 JUMP JUMPDEST PUSH4 0x4E487B71 PUSH1 0xE0 SHL PUSH1 0x0 MSTORE PUSH1 0x11 PUSH1 0x4 MSTORE PUSH1 0x24 PUSH1 0x0 REVERT JUMPDEST PUSH2 0x7A2 SWAP2 PUSH2 0x1F91 JUMP JUMPDEST DUP6 SSTORE PUSH2 0x6A3 JUMP JUMPDEST PUSH2 0x7B2 SWAP2 PUSH2 0x1F91 JUMP JUMPDEST DUP6 SSTORE PUSH2 0x692 JUMP JUMPDEST POP POP PUSH1 0x0 PUSH2 0x67C JUMP JUMPDEST POP POP PUSH1 0x0 SWAP3 PUSH2 0x661 JUMP JUMPDEST PUSH1 0x40 MLOAD PUSH3 0x461BCD PUSH1 0xE5 SHL DUP2 MSTORE PUSH1 0x4 DUP2 ADD DUP4 SWAP1 MSTORE PUSH1 0x9 PUSH1 0x24 DUP3 ADD MSTORE PUSH9 0x125B881D1C985D995B PUSH1 0xBA SHL PUSH1 0x44 DUP3 ADD MSTORE PUSH1 0x64 SWAP1 REVERT JUMPDEST POP PUSH1 0x10 DUP4 ADD SLOAD TIMESTAMP LT ISZERO PUSH2 0x63F JUMP JUMPDEST PUSH1 0x40 MLOAD PUSH3 0x461BCD PUSH1 0xE5 SHL DUP2 MSTORE PUSH1 0x4 DUP2 ADD DUP4 SWAP1 MSTORE PUSH1 0x15 PUSH1 0x24 DUP3 ADD MSTORE PUSH21 0x26BAB9BA1031329039B0B6B2903637B1B0BA34B7B7 PUSH1 0x59 SHL PUSH1 0x44 DUP3 ADD MSTORE PUSH1 0x64 SWAP1 REVERT JUMPDEST PUSH1 0x40 MLOAD PUSH3 0x461BCD PUSH1 0xE5 SHL DUP2 MSTORE PUSH1 0x4 DUP2 ADD DUP4 SWAP1 MSTORE PUSH1 0x10 PUSH1 0x24 DUP3 ADD MSTORE PUSH16 0x29B0B6B29030B33334B634B0BA34B7B7 PUSH1 0x81 SHL PUSH1 0x44 DUP3 ADD MSTORE PUSH1 0x64 SWAP1 REVERT JUMPDEST PUSH1 0x40 MLOAD PUSH3 0x461BCD PUSH1 0xE5 SHL DUP2 MSTORE PUSH1 0x4 DUP2 ADD DUP4 SWAP1 MSTORE PUSH1 0x13 PUSH1 0x24 DUP3 ADD MSTORE PUSH19 0x13DB99481CDA1A5C081A5CC81DDC9958DAD959 PUSH1 0x6A SHL PUSH1 0x44 DUP3 ADD MSTORE PUSH1 0x64 SWAP1 REVERT JUMPDEST POP PUSH1 0x4 DUP4 ADD SLOAD ISZERO ISZERO PUSH2 0x603 JUMP JUMPDEST CALLVALUE PUSH2 0x258 JUMPI PUSH1 0x20 CALLDATASIZE PUSH1 0x3 NOT ADD SLT PUSH2 0x258 JUMPI PUSH1 0x6 SLOAD PUSH1 0x4 CALLDATALOAD DUP1 DUP3 LT ISZERO PUSH2 0xA93 JUMPI POP DUP1 JUMPDEST PUSH2 0x8F3 DUP2 PUSH2 0x2087 JUMP JUMPDEST SWAP2 PUSH2 0x8FD DUP3 PUSH2 0x2087 JUMP JUMPDEST SWAP2 PUSH1 0x0 JUMPDEST DUP3 DUP2 LT PUSH2 0x936 JUMPI PUSH2 0x924 DUP6 PUSH2 0x932 DUP7 PUSH1 0x40 MLOAD SWAP4 DUP5 SWAP4 PUSH1 0x40 DUP6 MSTORE PUSH1 0x40 DUP6 ADD SWAP1 PUSH2 0x1E98 JUMP JUMPDEST SWAP1 DUP4 DUP3 SUB PUSH1 0x20 DUP6 ADD MSTORE PUSH2 0x1ED5 JUMP JUMPDEST SUB SWAP1 RETURN JUMPDEST PUSH2 0x93F DUP2 PUSH2 0x1F09 JUMP JUMPDEST SWAP1 SLOAD PUSH1 0x1 DUP1 PUSH1 0xA0 SHL SUB SWAP2 PUSH1 0x3 SHL SHR AND PUSH1 0x0 MSTORE PUSH2 0x9C2 PUSH1 0x2 DUP1 PUSH1 0x20 MSTORE PUSH2 0x994 PUSH1 0x6 PUSH1 0x40 PUSH1 0x0 KECCAK256 ADD SLOAD PUSH2 0x96F DUP6 PUSH2 0x1F09 JUMP JUMPDEST PUSH1 0x1 DUP1 PUSH1 0xA0 SHL SUB SWAP2 SLOAD SWAP1 PUSH1 0x3 SHL SHR AND PUSH1 0x0 MSTORE DUP3 PUSH1 0x20 MSTORE PUSH1 0x7 PUSH1 0x40 PUSH1 0x0 KECCAK256 ADD SLOAD SWAP1 PUSH2 0x1F9E JUMP JUMPDEST SWAP1 PUSH2 0x99E DUP5 PUSH2 0x1F09 JUMP JUMPDEST PUSH1 0x1 DUP1 PUSH1 0xA0 SHL SUB SWAP2 SLOAD SWAP1 PUSH1 0x3 SHL SHR AND PUSH1 0x0 MSTORE PUSH1 0x20 MSTORE PUSH1 0x8 PUSH1 0x40 PUSH1 0x0 KECCAK256 ADD SLOAD SWAP1 PUSH2 0x1F9E JUMP JUMPDEST PUSH1 0x0 JUMPDEST DUP4 DUP2 LT PUSH2 0x9D7 JUMPI JUMPDEST POP POP PUSH1 0x1 ADD PUSH2 0x901 JUMP JUMPDEST PUSH2 0x9E1 DUP2 DUP8 PUSH2 0x20B9 JUMP JUMPDEST MLOAD DUP3 GT PUSH2 0x9F0 JUMPI PUSH1 0x1 ADD PUSH2 0x9C5 JUMP JUMPDEST PUSH1 0x0 NOT DUP5 ADD DUP5 DUP2 GT PUSH2 0x783 JUMPI JUMPDEST DUP2 DUP2 GT PUSH2 0xA3D JUMPI POP SWAP1 PUSH2 0xA35 DUP4 SWAP3 PUSH2 0xA16 PUSH1 0x1 SWAP6 PUSH2 0x1F09 JUMP JUMPDEST DUP7 DUP1 PUSH1 0xA0 SHL SUB SWAP2 SLOAD SWAP1 PUSH1 0x3 SHL SHR AND PUSH2 0xA2E DUP3 DUP12 PUSH2 0x20B9 JUMP JUMPDEST MSTORE DUP8 PUSH2 0x20B9 JUMP JUMPDEST MSTORE SWAP1 DUP7 PUSH2 0x9CD JUMP JUMPDEST DUP1 PUSH1 0x0 NOT DUP2 ADD GT PUSH2 0x783 JUMPI PUSH2 0xA8E SWAP1 PUSH1 0x1 PUSH1 0x1 PUSH1 0xA0 SHL SUB PUSH2 0xA62 PUSH1 0x0 NOT DUP4 ADD DUP12 PUSH2 0x20B9 JUMP JUMPDEST MLOAD AND PUSH2 0xA6E DUP3 DUP12 PUSH2 0x20B9 JUMP JUMPDEST MSTORE PUSH2 0xA7D PUSH1 0x0 NOT DUP3 ADD DUP10 PUSH2 0x20B9 JUMP JUMPDEST MLOAD PUSH2 0xA88 DUP3 DUP11 PUSH2 0x20B9 JUMP JUMPDEST MSTORE PUSH2 0x1FEB JUMP JUMPDEST PUSH2 0x9FD JUMP JUMPDEST PUSH2 0x8EA JUMP JUMPDEST CALLVALUE PUSH2 0x258 JUMPI PUSH1 0x20 DUP1 PUSH1 0x3 NOT CALLDATASIZE ADD SLT PUSH2 0x258 JUMPI PUSH1 0x6 DUP1 SLOAD SWAP2 PUSH1 0x0 SWAP2 SWAP1 PUSH1 0x4 CALLDATALOAD SWAP1 DUP4 JUMPDEST DUP6 DUP2 LT PUSH2 0xD22 JUMPI POP PUSH2 0xACA DUP5 PUSH2 0x2087 JUMP JUMPDEST SWAP5 PUSH2 0xAD4 DUP6 PUSH2 0x206F JUMP JUMPDEST SWAP4 PUSH2 0xAE2 PUSH1 0x40 MLOAD SWAP6 DUP7 PUSH2 0x1D54 JUMP JUMPDEST DUP6 DUP6 MSTORE PUSH2 0xAEE DUP7 PUSH2 0x206F JUMP JUMPDEST PUSH1 0x1F NOT SWAP7 SWAP1 DUP8 ADD PUSH1 0x0 JUMPDEST DUP2 DUP2 LT PUSH2 0xD13 JUMPI POP POP PUSH2 0xB0A SWAP1 PUSH2 0x2087 JUMP JUMPDEST SWAP4 PUSH1 0x0 SWAP1 PUSH1 0x0 JUMPDEST DUP5 DUP2 LT PUSH2 0xBA2 JUMPI PUSH2 0xB34 DUP10 DUP12 DUP11 DUP11 DUP11 PUSH1 0x40 MLOAD SWAP6 DUP7 SWAP5 PUSH1 0x60 DUP7 MSTORE PUSH1 0x60 DUP7 ADD SWAP1 PUSH2 0x1E98 JUMP JUMPDEST SWAP1 DUP5 DUP3 SUB DUP2 DUP7 ADD MSTORE DUP4 MLOAD SWAP2 DUP3 DUP2 MSTORE DUP2 DUP2 ADD DUP3 DUP1 DUP6 PUSH1 0x5 SHL DUP5 ADD ADD SWAP7 ADD SWAP8 PUSH1 0x0 SWAP3 JUMPDEST DUP6 DUP5 LT PUSH2 0xB70 JUMPI DUP9 DUP1 PUSH2 0x932 DUP11 DUP11 DUP4 DUP3 SUB PUSH1 0x40 DUP6 ADD MSTORE PUSH2 0x1ED5 JUMP JUMPDEST SWAP2 SWAP4 DUP1 DUP1 SWAP8 SWAP10 POP PUSH2 0xB8E DUP10 DUP5 DUP7 PUSH1 0x1 SWAP7 SWAP9 SWAP11 SWAP13 SUB ADD DUP9 MSTORE DUP13 MLOAD PUSH2 0x1E1B JUMP JUMPDEST SWAP11 ADD SWAP5 ADD SWAP5 ADD SWAP2 DUP10 SWAP8 SWAP6 SWAP4 SWAP9 SWAP7 SWAP5 SWAP2 PUSH2 0xB55 JUMP JUMPDEST DUP10 PUSH2 0xBB0 DUP3 SWAP11 SWAP9 SWAP10 SWAP11 PUSH2 0x1F09 JUMP JUMPDEST SWAP2 SWAP1 PUSH1 0x1 DUP1 PUSH1 0xA0 SHL SUB DUP1 SWAP2 SLOAD PUSH1 0x3 SWAP5 DUP6 SHL SHR AND PUSH1 0x0 MSTORE DUP9 DUP8 DUP14 PUSH1 0x2 SWAP5 DUP6 DUP5 MSTORE DUP9 PUSH1 0xB PUSH1 0x40 PUSH1 0x0 KECCAK256 ADD SLOAD EQ DUP1 PUSH2 0xCEA JUMPI JUMPDEST PUSH2 0xBF8 JUMPI JUMPDEST POP POP POP POP POP POP POP PUSH1 0x1 ADD SWAP8 SWAP7 SWAP6 SWAP8 PUSH2 0xB11 JUMP JUMPDEST DUP8 DUP7 DUP9 SWAP6 DUP8 PUSH2 0xC8F DUP15 SWAP11 SWAP8 DUP6 SWAP16 DUP1 PUSH1 0x1 SWAP16 SWAP10 PUSH2 0xCDD SWAP16 SWAP10 PUSH2 0xC35 PUSH2 0xCCD SWAP16 SWAP13 SWAP5 DUP9 PUSH2 0xCA9 SWAP14 PUSH2 0xC29 PUSH2 0xC6A SWAP9 PUSH2 0x1F09 JUMP JUMPDEST SWAP1 SLOAD SWAP2 SHL SHR AND SWAP3 PUSH2 0x20B9 JUMP JUMPDEST MSTORE DUP6 DUP14 PUSH2 0xC41 DUP12 PUSH2 0x1F09 JUMP JUMPDEST SWAP1 SLOAD SWAP2 SHL SHR AND PUSH1 0x0 MSTORE DUP8 DUP8 MSTORE PUSH2 0xC5A PUSH1 0x40 PUSH1 0x0 KECCAK256 PUSH2 0x1D76 JUMP JUMPDEST PUSH2 0xC64 DUP4 DUP4 PUSH2 0x20B9 JUMP JUMPDEST MSTORE PUSH2 0x20B9 JUMP JUMPDEST POP DUP3 PUSH2 0xC75 DUP8 PUSH2 0x1F09 JUMP JUMPDEST SWAP1 SLOAD SWAP1 DUP13 SHL SHR AND PUSH1 0x0 MSTORE DUP5 DUP5 MSTORE PUSH1 0x40 PUSH1 0x0 KECCAK256 ADD SLOAD SWAP5 PUSH2 0x1F09 JUMP JUMPDEST SWAP1 SLOAD SWAP1 DUP10 SHL SHR AND PUSH1 0x0 MSTORE MSTORE PUSH1 0x7 PUSH1 0x40 PUSH1 0x0 KECCAK256 ADD SLOAD SWAP1 PUSH2 0x1F9E JUMP JUMPDEST SWAP3 PUSH2 0xCB3 DUP11 PUSH2 0x1F09 JUMP JUMPDEST SWAP1 SLOAD SWAP2 SHL SHR AND PUSH1 0x0 MSTORE DUP11 MSTORE PUSH1 0x8 PUSH1 0x40 PUSH1 0x0 KECCAK256 ADD SLOAD SWAP1 PUSH2 0x1F9E JUMP JUMPDEST PUSH2 0xCD7 DUP3 DUP13 PUSH2 0x20B9 JUMP JUMPDEST MSTORE PUSH2 0x1FF8 JUMP JUMPDEST SWAP3 SWAP1 DUP12 DUP1 DUP9 DUP8 DUP14 DUP16 PUSH2 0xBE5 JUMP JUMPDEST POP DUP5 PUSH2 0xCF5 DUP10 PUSH2 0x1F09 JUMP JUMPDEST SWAP1 SLOAD SWAP1 DUP10 SHL SHR AND PUSH1 0x0 MSTORE DUP6 DUP5 MSTORE PUSH1 0x10 PUSH1 0x40 PUSH1 0x0 KECCAK256 ADD SLOAD TIMESTAMP LT ISZERO PUSH2 0xBE0 JUMP JUMPDEST PUSH1 0x60 DUP9 DUP3 ADD DUP8 ADD MSTORE DUP6 ADD PUSH2 0xAF8 JUMP JUMPDEST PUSH2 0xD2F DUP2 SWAP6 SWAP4 SWAP5 SWAP6 PUSH2 0x1F09 JUMP JUMPDEST SWAP1 PUSH1 0x1 DUP1 PUSH1 0xA0 SHL SUB DUP1 SWAP2 SLOAD PUSH1 0x3 SWAP4 DUP5 SHL SHR AND PUSH1 0x0 MSTORE PUSH1 0x2 SWAP1 DUP2 DUP6 MSTORE DUP7 PUSH1 0xB PUSH1 0x40 PUSH1 0x0 KECCAK256 ADD SLOAD EQ SWAP3 DUP4 PUSH2 0xD84 JUMPI JUMPDEST POP POP POP PUSH2 0xD70 JUMPI JUMPDEST PUSH1 0x1 ADD SWAP4 SWAP3 SWAP2 SWAP4 PUSH2 0xAB9 JUMP JUMPDEST SWAP2 PUSH2 0xD7C PUSH1 0x1 SWAP2 PUSH2 0x1FF8 JUMP JUMPDEST SWAP3 SWAP1 POP PUSH2 0xD64 JUMP JUMPDEST SWAP1 SWAP2 SWAP3 POP PUSH2 0xD91 DUP5 PUSH2 0x1F09 JUMP JUMPDEST SWAP1 SLOAD SWAP2 SHL SHR AND PUSH1 0x0 MSTORE DUP3 MSTORE PUSH1 0x10 PUSH1 0x40 PUSH1 0x0 KECCAK256 ADD SLOAD TIMESTAMP LT ISZERO DUP8 DUP1 DUP1 PUSH2 0xD5C JUMP JUMPDEST CALLVALUE PUSH2 0x258 JUMPI PUSH1 0x60 CALLDATASIZE PUSH1 0x3 NOT ADD SLT PUSH2 0x258 JUMPI PUSH1 0x4 CALLDATALOAD PUSH8 0xFFFFFFFFFFFFFFFF DUP2 GT PUSH2 0x258 JUMPI PUSH2 0xDE1 SWAP1 CALLDATASIZE SWAP1 PUSH1 0x4 ADD PUSH2 0x1E6A JUMP JUMPDEST SWAP1 PUSH2 0xDEA PUSH2 0x1E5B JUMP JUMPDEST SWAP2 DUP1 ISZERO ISZERO DUP1 PUSH2 0x11EE JUMPI JUMPDEST ISZERO PUSH2 0x11A9 JUMPI PUSH1 0x64 DUP1 PUSH1 0x44 CALLDATALOAD GT PUSH2 0x116E JUMPI CALLER PUSH1 0x0 MSTORE PUSH1 0x2 PUSH1 0x20 MSTORE PUSH1 0x40 PUSH1 0x0 KECCAK256 PUSH1 0x4 DUP2 ADD SLOAD ISZERO SWAP1 DUP2 PUSH2 0x1161 JUMPI JUMPDEST POP ISZERO PUSH2 0x1129 JUMPI PUSH1 0x40 MLOAD SWAP1 PUSH2 0x220 DUP3 ADD DUP3 DUP2 LT PUSH8 0xFFFFFFFFFFFFFFFF DUP3 GT OR PUSH2 0x543 JUMPI PUSH1 0x40 MSTORE PUSH2 0xE4F CALLDATASIZE DUP5 DUP7 PUSH2 0x2007 JUMP JUMPDEST DUP3 MSTORE DUP5 ISZERO ISZERO PUSH1 0x20 DUP4 ADD MSTORE DUP1 PUSH1 0x40 DUP4 ADD MSTORE PUSH1 0x0 PUSH1 0x60 DUP4 ADD MSTORE DUP1 PUSH1 0x80 DUP4 ADD MSTORE PUSH1 0xA0 DUP3 ADD MSTORE PUSH1 0x1 PUSH1 0xC0 DUP3 ADD MSTORE PUSH1 0x1 PUSH1 0xE0 DUP3 ADD MSTORE PUSH1 0x1 PUSH2 0x100 DUP3 ADD MSTORE PUSH1 0x1 PUSH2 0x120 DUP3 ADD MSTORE PUSH1 0xA PUSH2 0x140 DUP3 ADD MSTORE PUSH1 0x44 CALLDATALOAD PUSH2 0x160 DUP3 ADD MSTORE PUSH1 0x0 PUSH2 0x180 DUP3 ADD MSTORE PUSH1 0x0 PUSH2 0x1A0 DUP3 ADD MSTORE PUSH1 0x0 PUSH2 0x1C0 DUP3 ADD MSTORE PUSH1 0x0 PUSH2 0x1E0 DUP3 ADD MSTORE PUSH1 0x0 PUSH2 0x200 DUP3 ADD MSTORE CALLER PUSH1 0x0 MSTORE PUSH1 0x2 PUSH1 0x20 MSTORE PUSH1 0x40 PUSH1 0x0 KECCAK256 SWAP1 DUP1 MLOAD DUP1 MLOAD SWAP1 PUSH8 0xFFFFFFFFFFFFFFFF DUP3 GT PUSH2 0x543 JUMPI PUSH2 0xEF5 DUP5 SLOAD PUSH2 0x1D1A JUMP JUMPDEST PUSH1 0x1F DUP2 GT PUSH2 0x10E5 JUMPI JUMPDEST POP PUSH1 0x20 SWAP1 PUSH1 0x1F DUP4 GT PUSH1 0x1 EQ PUSH2 0x1075 JUMPI SWAP2 DUP1 PUSH1 0x10 SWAP5 SWAP3 PUSH2 0x200 SWAP5 PUSH1 0x0 SWAP3 PUSH2 0x106A JUMPI JUMPDEST POP POP DUP2 PUSH1 0x1 SHL SWAP2 PUSH1 0x0 NOT SWAP1 PUSH1 0x3 SHL SHR NOT AND OR DUP5 SSTORE JUMPDEST PUSH1 0x1 DUP5 ADD PUSH1 0x20 DUP3 ADD MLOAD ISZERO ISZERO PUSH1 0xFF DUP1 NOT DUP4 SLOAD AND SWAP2 AND OR SWAP1 SSTORE PUSH1 0x40 DUP2 ADD MLOAD PUSH1 0x2 DUP6 ADD SSTORE PUSH1 0x60 DUP2 ADD MLOAD PUSH1 0x3 DUP6 ADD SSTORE PUSH1 0x80 DUP2 ADD MLOAD PUSH1 0x4 DUP6 ADD SSTORE PUSH1 0xA0 DUP2 ADD MLOAD PUSH1 0x5 DUP6 ADD SSTORE PUSH1 0xC0 DUP2 ADD MLOAD PUSH1 0x6 DUP6 ADD SSTORE PUSH1 0xE0 DUP2 ADD MLOAD PUSH1 0x7 DUP6 ADD SSTORE PUSH2 0x100 DUP2 ADD MLOAD PUSH1 0x8 DUP6 ADD SSTORE PUSH2 0x120 DUP2 ADD MLOAD PUSH1 0x9 DUP6 ADD SSTORE PUSH2 0x140 DUP2 ADD MLOAD PUSH1 0xA DUP6 ADD SSTORE PUSH2 0x160 DUP2 ADD MLOAD PUSH1 0xB DUP6 ADD SSTORE PUSH2 0x180 DUP2 ADD MLOAD PUSH1 0xC DUP6 ADD SSTORE PUSH2 0x1A0 DUP2 ADD MLOAD PUSH1 0xD DUP6 ADD SSTORE PUSH2 0x1C0 DUP2 ADD MLOAD PUSH1 0xE DUP6 ADD SSTORE PUSH2 0x1E0 DUP2 ADD MLOAD PUSH1 0xF DUP6 ADD SSTORE ADD MLOAD SWAP2 ADD SSTORE PUSH1 0x6 SLOAD PUSH9 0x10000000000000000 DUP2 LT ISZERO PUSH2 0x543 JUMPI PUSH32 0x47456E7EC68E981A8F02D9C9528370ADEA595C1B26225BE6797E6D441C47FC02 SWAP3 PUSH2 0x102D DUP3 PUSH1 0x1 PUSH2 0x105A SWAP5 ADD PUSH1 0x6 SSTORE PUSH2 0x1F09 JUMP JUMPDEST DUP2 SLOAD PUSH1 0x1 PUSH1 0x1 PUSH1 0xA0 SHL SUB PUSH1 0x3 SWAP3 SWAP1 SWAP3 SHL SWAP2 DUP3 SHL NOT AND CALLER SWAP1 SWAP2 SHL OR SWAP1 SSTORE PUSH1 0x40 DUP1 MLOAD DUP2 DUP2 MSTORE SWAP4 SWAP1 DUP5 ADD SWAP2 PUSH2 0x204E JUMP JUMPDEST SWAP3 ISZERO ISZERO PUSH1 0x20 DUP3 ADD MSTORE DUP1 CALLER SWAP4 SUB SWAP1 LOG2 STOP JUMPDEST ADD MLOAD SWAP1 POP DUP10 DUP1 PUSH2 0xF1F JUMP JUMPDEST SWAP1 DUP5 PUSH1 0x0 MSTORE PUSH1 0x20 PUSH1 0x0 KECCAK256 SWAP2 PUSH1 0x0 JUMPDEST PUSH1 0x1F NOT DUP6 AND DUP2 LT PUSH2 0x10CD JUMPI POP SWAP3 PUSH1 0x10 SWAP5 SWAP3 PUSH1 0x1 SWAP3 PUSH2 0x200 SWAP6 DUP4 PUSH1 0x1F NOT DUP2 AND LT PUSH2 0x10B4 JUMPI JUMPDEST POP POP POP DUP2 SHL ADD DUP5 SSTORE PUSH2 0xF34 JUMP JUMPDEST ADD MLOAD PUSH1 0x0 NOT PUSH1 0xF8 DUP5 PUSH1 0x3 SHL AND SHR NOT AND SWAP1 SSTORE DUP10 DUP1 DUP1 PUSH2 0x10A7 JUMP JUMPDEST SWAP2 SWAP3 PUSH1 0x20 PUSH1 0x1 DUP2 SWAP3 DUP7 DUP6 ADD MLOAD DUP2 SSTORE ADD SWAP5 ADD SWAP3 ADD PUSH2 0x1083 JUMP JUMPDEST DUP5 PUSH1 0x0 MSTORE PUSH1 0x20 PUSH1 0x0 KECCAK256 PUSH1 0x1F DUP5 ADD PUSH1 0x5 SHR DUP2 ADD PUSH1 0x20 DUP6 LT PUSH2 0x1122 JUMPI JUMPDEST PUSH1 0x1F DUP4 ADD PUSH1 0x5 SHR DUP3 ADD DUP2 LT PUSH2 0x1116 JUMPI POP POP PUSH2 0xEFE JUMP JUMPDEST PUSH1 0x0 DUP2 SSTORE PUSH1 0x1 ADD PUSH2 0x1100 JUMP JUMPDEST POP DUP1 PUSH2 0x1100 JUMP JUMPDEST PUSH1 0x40 MLOAD PUSH3 0x461BCD PUSH1 0xE5 SHL DUP2 MSTORE PUSH1 0x20 PUSH1 0x4 DUP3 ADD MSTORE PUSH1 0x13 PUSH1 0x24 DUP3 ADD MSTORE PUSH19 0x105B1C9958591E481A185CC81858D8DBDD5B9D PUSH1 0x6A SHL PUSH1 0x44 DUP3 ADD MSTORE REVERT JUMPDEST PUSH1 0x9 SWAP2 POP ADD SLOAD ISZERO DUP6 PUSH2 0xE1F JUMP JUMPDEST PUSH1 0x40 MLOAD PUSH3 0x461BCD PUSH1 0xE5 SHL DUP2 MSTORE PUSH1 0x20 PUSH1 0x4 DUP3 ADD MSTORE PUSH1 0x16 PUSH1 0x24 DUP3 ADD MSTORE PUSH22 0x4C6F636174696F6E206D75737420626520302D31303 PUSH1 0x54 SHL PUSH1 0x44 DUP3 ADD MSTORE REVERT JUMPDEST PUSH1 0x40 MLOAD PUSH3 0x461BCD PUSH1 0xE5 SHL DUP2 MSTORE PUSH1 0x20 PUSH1 0x4 DUP3 ADD MSTORE PUSH1 0x18 PUSH1 0x24 DUP3 ADD MSTORE PUSH32 0x426F6174206E616D6520696E76616C6964206C656E6774680000000000000000 PUSH1 0x44 DUP3 ADD MSTORE PUSH1 0x64 SWAP1 REVERT JUMPDEST POP PUSH1 0xC DUP2 GT ISZERO PUSH2 0xDF4 JUMP JUMPDEST CALLVALUE PUSH2 0x258 JUMPI PUSH1 0x20 DUP1 PUSH1 0x3 NOT CALLDATASIZE ADD SLT PUSH2 0x258 JUMPI PUSH1 0x4 CALLDATALOAD SWAP1 PUSH2 0x1217 PUSH2 0x2141 JUMP JUMPDEST DUP2 PUSH1 0x0 MSTORE PUSH1 0x3 DUP2 MSTORE PUSH1 0x40 PUSH1 0x0 KECCAK256 CALLER PUSH1 0x0 MSTORE PUSH1 0x2 DUP3 MSTORE PUSH1 0x40 PUSH1 0x0 KECCAK256 SWAP2 PUSH2 0x1264 PUSH1 0x1 DUP4 ADD SLOAD PUSH2 0x1245 DUP2 ISZERO ISZERO PUSH2 0x1FAB JUMP JUMPDEST CALLER PUSH1 0x0 MSTORE PUSH1 0x4 DUP4 MSTORE PUSH1 0x40 PUSH1 0x0 KECCAK256 DUP7 PUSH1 0x0 MSTORE DUP4 MSTORE PUSH1 0x40 PUSH1 0x0 KECCAK256 SLOAD SWAP1 PUSH2 0x20CD JUMP JUMPDEST PUSH1 0x2 DUP5 ADD SWAP1 DUP2 SLOAD DUP2 DUP2 LT PUSH2 0x137D JUMPI SWAP2 PUSH2 0x1283 PUSH1 0x7 SWAP5 SWAP3 PUSH1 0x9 SWAP7 SWAP5 PUSH2 0x1F91 JUMP JUMPDEST SWAP1 SSTORE CALLER PUSH1 0x0 MSTORE PUSH1 0x4 DUP2 MSTORE PUSH1 0x40 PUSH1 0x0 KECCAK256 SWAP1 DUP7 PUSH1 0x0 MSTORE MSTORE PUSH1 0x40 PUSH1 0x0 KECCAK256 PUSH2 0x12A7 DUP2 SLOAD PUSH2 0x1FF8 JUMP JUMPDEST SWAP1 SSTORE PUSH1 0x2 DUP2 ADD SLOAD PUSH2 0x12BD PUSH1 0xC DUP7 ADD SWAP2 DUP3 SLOAD PUSH2 0x1F9E JUMP JUMPDEST SWAP1 SSTORE PUSH1 0x3 DUP2 ADD DUP1 SLOAD PUSH2 0x12D4 PUSH1 0x5 DUP8 ADD SWAP2 DUP3 SLOAD PUSH2 0x1F9E JUMP JUMPDEST SWAP1 SSTORE SLOAD PUSH2 0x12E6 PUSH1 0x4 DUP7 ADD SWAP2 DUP3 SLOAD PUSH2 0x1F9E JUMP JUMPDEST SWAP1 SSTORE PUSH1 0x4 DUP2 ADD SLOAD PUSH2 0x12FC PUSH1 0x6 DUP7 ADD SWAP2 DUP3 SLOAD PUSH2 0x1F9E JUMP JUMPDEST SWAP1 SSTORE PUSH1 0x5 DUP2 ADD SLOAD PUSH2 0x1311 DUP4 DUP7 ADD SWAP2 DUP3 SLOAD PUSH2 0x1F9E JUMP JUMPDEST SWAP1 SSTORE PUSH1 0x6 DUP2 ADD SLOAD PUSH2 0x1327 PUSH1 0x8 DUP7 ADD SWAP2 DUP3 SLOAD PUSH2 0x1F9E JUMP JUMPDEST SWAP1 SSTORE ADD SLOAD SWAP2 PUSH2 0x133B PUSH1 0xA DUP3 ADD SWAP4 DUP5 SLOAD PUSH2 0x1F9E JUMP JUMPDEST DUP1 SWAP4 SSTORE ADD DUP2 DUP2 SLOAD GT PUSH2 0x1375 JUMPI JUMPDEST DUP3 CALLER PUSH32 0xCF52C8AA8ED6B7D560B4E75DB6AB973723DE269D5580985C8880844D4ED6D7C0 PUSH1 0x0 DUP1 LOG3 PUSH1 0x1 DUP1 SSTORE STOP JUMPDEST SSTORE DUP2 DUP1 PUSH2 0x1348 JUMP JUMPDEST PUSH1 0x40 MLOAD PUSH3 0x461BCD PUSH1 0xE5 SHL DUP2 MSTORE PUSH1 0x4 DUP2 ADD DUP6 SWAP1 MSTORE PUSH1 0xF PUSH1 0x24 DUP3 ADD MSTORE PUSH15 0x139BDD08195B9BDD59DA0819DBDB19 PUSH1 0x8A SHL PUSH1 0x44 DUP3 ADD MSTORE PUSH1 0x64 SWAP1 REVERT JUMPDEST CALLVALUE PUSH2 0x258 JUMPI PUSH1 0x0 CALLDATASIZE PUSH1 0x3 NOT ADD SLT PUSH2 0x258 JUMPI PUSH1 0x0 SLOAD PUSH1 0x40 MLOAD PUSH1 0x1 PUSH1 0x1 PUSH1 0xA0 SHL SUB SWAP1 SWAP2 AND DUP2 MSTORE PUSH1 0x20 SWAP1 RETURN JUMPDEST PUSH1 0x40 CALLDATASIZE PUSH1 0x3 NOT ADD SLT PUSH2 0x258 JUMPI PUSH1 0x4 CALLDATALOAD PUSH2 0x13F4 PUSH2 0x1E5B JUMP JUMPDEST PUSH2 0x13FC PUSH2 0x2141 JUMP JUMPDEST CALLER PUSH1 0x0 MSTORE PUSH1 0x20 PUSH1 0x2 DUP2 MSTORE PUSH1 0x40 PUSH1 0x0 KECCAK256 SWAP1 PUSH2 0x141B PUSH1 0x4 DUP4 ADD SLOAD ISZERO ISZERO PUSH2 0x1F56 JUMP JUMPDEST PUSH1 0x10 DUP3 ADD SWAP2 DUP3 SLOAD TIMESTAMP LT PUSH2 0x1652 JUMPI PUSH1 0x64 SWAP1 DUP2 DUP7 GT PUSH2 0x161C JUMPI PUSH1 0xB DUP2 ADD SWAP2 DUP3 SLOAD DUP1 DUP9 EQ PUSH2 0x15E9 JUMPI DUP8 DUP2 DUP2 GT ISZERO PUSH2 0x15DA JUMPI SWAP1 PUSH2 0x1453 SWAP2 PUSH2 0x1F91 JUMP JUMPDEST SWAP2 JUMPDEST PUSH2 0xE10 SWAP3 DUP4 DUP2 MUL SWAP1 DUP1 DUP3 DIV DUP6 EQ DUP2 ISZERO OR ISZERO PUSH2 0x783 JUMPI PUSH1 0x6 DUP4 ADD SLOAD PUSH2 0x12C DUP1 DUP3 MUL SWAP2 DUP1 DUP4 DIV DUP3 EQ DUP2 ISZERO OR ISZERO PUSH2 0x783 JUMPI DUP4 MUL MUL SWAP2 DUP2 DUP4 DIV EQ SWAP1 ISZERO OR ISZERO PUSH2 0x783 JUMPI DUP2 DUP2 LT PUSH2 0x15CB JUMPI POP POP PUSH1 0x0 SWAP3 JUMPDEST DUP8 ISZERO PUSH2 0x1585 JUMPI DUP4 DIV SWAP1 CALLVALUE PUSH2 0x154F JUMPI PUSH1 0x3 ADD SWAP2 DUP3 SLOAD SWAP1 DUP3 DUP3 LT PUSH2 0x1517 JUMPI POP SWAP2 PUSH2 0x14CE DUP10 SWAP6 SWAP5 SWAP3 PUSH2 0x14D7 SWAP5 PUSH2 0x1F91 JUMP JUMPDEST SWAP1 SSTORE JUMPDEST TIMESTAMP PUSH2 0x1F9E JUMP JUMPDEST DUP1 SWAP5 SSTORE SSTORE PUSH1 0x40 MLOAD SWAP4 DUP5 MSTORE DUP4 ADD MSTORE ISZERO ISZERO PUSH1 0x40 DUP3 ADD MSTORE PUSH32 0x9782A86993C9E75E77FDBBA3381A28A46E4F356E9516E67313BD4BD859C88A3F PUSH1 0x60 CALLER SWAP3 LOG2 PUSH1 0x1 DUP1 SSTORE STOP JUMPDEST PUSH1 0x40 MLOAD PUSH3 0x461BCD PUSH1 0xE5 SHL DUP2 MSTORE PUSH1 0x4 DUP2 ADD DUP9 SWAP1 MSTORE PUSH1 0x13 PUSH1 0x24 DUP3 ADD MSTORE PUSH19 0x4E6F7420656E6F756768206469616D6F6E6473 PUSH1 0x68 SHL PUSH1 0x44 DUP3 ADD MSTORE REVERT JUMPDEST PUSH1 0x40 MLOAD PUSH3 0x461BCD PUSH1 0xE5 SHL DUP2 MSTORE PUSH1 0x4 DUP2 ADD DUP8 SWAP1 MSTORE PUSH1 0xF PUSH1 0x24 DUP3 ADD MSTORE PUSH15 0x14185E481D9A5848191A585B5BDB99 PUSH1 0x8A SHL PUSH1 0x44 DUP3 ADD MSTORE DUP4 SWAP1 REVERT JUMPDEST POP POP CALLVALUE PUSH2 0x1598 JUMPI POP SWAP1 PUSH2 0x14D7 DUP7 SWAP3 PUSH2 0x14D1 JUMP JUMPDEST PUSH1 0x40 MLOAD PUSH3 0x461BCD PUSH1 0xE5 SHL DUP2 MSTORE PUSH1 0x4 DUP2 ADD DUP6 SWAP1 MSTORE PUSH1 0xE PUSH1 0x24 DUP3 ADD MSTORE PUSH14 0x2237B713BA1039B2B732102C2A2D PUSH1 0x91 SHL PUSH1 0x44 DUP3 ADD MSTORE REVERT JUMPDEST PUSH2 0x15D4 SWAP2 PUSH2 0x1F91 JUMP JUMPDEST SWAP3 PUSH2 0x14A0 JUMP JUMPDEST PUSH2 0x15E3 SWAP2 PUSH2 0x1F91 JUMP JUMPDEST SWAP2 PUSH2 0x1455 JUMP JUMPDEST POP PUSH1 0x40 MLOAD PUSH3 0x461BCD PUSH1 0xE5 SHL DUP2 MSTORE PUSH1 0x4 DUP2 ADD DUP6 SWAP1 MSTORE PUSH1 0xD PUSH1 0x24 DUP3 ADD MSTORE PUSH13 0x29B0B6B2903637B1B0BA34B7B7 PUSH1 0x99 SHL PUSH1 0x44 DUP3 ADD MSTORE REVERT JUMPDEST POP SWAP1 PUSH1 0x40 MLOAD SWAP1 PUSH3 0x461BCD PUSH1 0xE5 SHL DUP3 MSTORE PUSH1 0x4 DUP3 ADD MSTORE PUSH1 0x10 PUSH1 0x24 DUP3 ADD MSTORE PUSH16 0x131BD8D85D1A5BDB881A5B9D985B1A59 PUSH1 0x82 SHL PUSH1 0x44 DUP3 ADD MSTORE REVERT JUMPDEST PUSH1 0x40 MLOAD PUSH3 0x461BCD PUSH1 0xE5 SHL DUP2 MSTORE PUSH1 0x4 DUP2 ADD DUP4 SWAP1 MSTORE PUSH1 0x11 PUSH1 0x24 DUP3 ADD MSTORE PUSH17 0x416C72656164792074726176656C696E67 PUSH1 0x78 SHL PUSH1 0x44 DUP3 ADD MSTORE PUSH1 0x64 SWAP1 REVERT JUMPDEST CALLVALUE PUSH2 0x258 JUMPI PUSH1 0x20 CALLDATASIZE PUSH1 0x3 NOT ADD SLT PUSH2 0x258 JUMPI PUSH1 0x4 CALLDATALOAD PUSH1 0x0 MSTORE PUSH1 0x3 PUSH1 0x20 MSTORE PUSH2 0x16F4 PUSH1 0x40 PUSH1 0x0 KECCAK256 PUSH2 0x16B8 DUP2 PUSH2 0x1D76 JUMP JUMPDEST SWAP1 PUSH1 0x1 DUP2 ADD SLOAD SWAP1 PUSH1 0x2 DUP2 ADD SLOAD SWAP1 PUSH1 0x3 DUP2 ADD SLOAD PUSH1 0x4 DUP3 ADD SLOAD PUSH1 0x5 DUP4 ADD SLOAD SWAP2 PUSH1 0x7 PUSH1 0x6 DUP6 ADD SLOAD SWAP5 ADD SLOAD SWAP5 PUSH1 0x40 MLOAD SWAP9 DUP10 SWAP9 PUSH2 0x100 DUP1 DUP12 MSTORE DUP11 ADD SWAP1 PUSH2 0x1E1B JUMP JUMPDEST SWAP7 PUSH1 0x20 DUP10 ADD MSTORE PUSH1 0x40 DUP9 ADD MSTORE PUSH1 0x60 DUP8 ADD MSTORE PUSH1 0x80 DUP7 ADD MSTORE PUSH1 0xA0 DUP6 ADD MSTORE PUSH1 0xC0 DUP5 ADD MSTORE PUSH1 0xE0 DUP4 ADD MSTORE SUB SWAP1 RETURN JUMPDEST CALLVALUE PUSH2 0x258 JUMPI PUSH1 0x0 CALLDATASIZE PUSH1 0x3 NOT ADD SLT PUSH2 0x258 JUMPI PUSH2 0x1735 PUSH2 0x2164 JUMP JUMPDEST PUSH1 0x0 DUP1 SLOAD PUSH1 0x1 PUSH1 0x1 PUSH1 0xA0 SHL SUB NOT DUP2 AND DUP3 SSTORE PUSH1 0x1 PUSH1 0x1 PUSH1 0xA0 SHL SUB AND PUSH32 0x8BE0079C531659141344CD1FD0A4F28419497F9722A3DAAFE3B4186F6B6457E0 DUP3 DUP1 LOG3 STOP JUMPDEST PUSH1 0x40 CALLDATASIZE PUSH1 0x3 NOT ADD SLT PUSH2 0x258 JUMPI PUSH1 0x4 CALLDATALOAD DUP1 ISZERO ISZERO DUP2 SUB PUSH2 0x258 JUMPI PUSH2 0x1795 PUSH2 0x1E5B JUMP JUMPDEST SWAP1 PUSH2 0x179E PUSH2 0x2141 JUMP JUMPDEST CALLER PUSH1 0x0 MSTORE PUSH1 0x20 PUSH1 0x2 DUP2 MSTORE PUSH1 0x40 PUSH1 0x0 KECCAK256 SWAP3 PUSH1 0x4 DUP5 ADD SWAP2 DUP3 SLOAD PUSH2 0x1993 JUMPI PUSH1 0xF DUP6 ADD SWAP4 DUP5 SLOAD PUSH2 0x4650 DUP2 ADD DUP1 SWAP2 GT PUSH2 0x783 JUMPI TIMESTAMP LT PUSH2 0x194E JUMPI ISZERO PUSH2 0x18DD JUMPI PUSH1 0xB DUP6 ADD SLOAD PUSH1 0x19 DUP2 EQ SWAP1 DUP2 ISZERO PUSH2 0x18D2 JUMPI JUMPDEST DUP2 ISZERO PUSH2 0x18C7 JUMPI JUMPDEST POP ISZERO PUSH2 0x1895 JUMPI DUP2 DUP3 ISZERO PUSH2 0x1885 JUMPI JUMPDEST ISZERO PUSH2 0x184A JUMPI POP ISZERO PUSH2 0x182A JUMPI PUSH1 0x5 DUP4 PUSH1 0x3 PUSH1 0x0 SWAP6 ADD PUSH2 0x181B DUP2 SLOAD PUSH2 0x1FEB JUMP JUMPDEST SWAP1 SSTORE JUMPDEST ADD SLOAD SWAP1 SSTORE JUMPDEST SSTORE PUSH1 0x1 DUP1 SSTORE STOP JUMPDEST PUSH1 0x2 DUP4 ADD DUP1 SLOAD PUSH2 0x3E7 NOT DUP2 ADD SWAP5 SWAP1 DUP6 GT PUSH2 0x783 JUMPI PUSH1 0x0 SWAP5 PUSH1 0x5 SWAP3 SSTORE PUSH2 0x181E JUMP JUMPDEST PUSH1 0x64 SWAP1 PUSH1 0x40 MLOAD SWAP1 PUSH3 0x461BCD PUSH1 0xE5 SHL DUP3 MSTORE PUSH1 0x4 DUP3 ADD MSTORE PUSH1 0x14 PUSH1 0x24 DUP3 ADD MSTORE PUSH20 0x139959590819DBDB19081BDC88191A585B5BDB99 PUSH1 0x62 SHL PUSH1 0x44 DUP3 ADD MSTORE REVERT JUMPDEST POP PUSH2 0x3E8 PUSH1 0x2 DUP7 ADD SLOAD LT ISZERO PUSH2 0x17FD JUMP JUMPDEST PUSH1 0x64 SWAP1 PUSH1 0x40 MLOAD SWAP1 PUSH3 0x461BCD PUSH1 0xE5 SHL DUP3 MSTORE PUSH1 0x4 DUP3 ADD MSTORE PUSH1 0xB PUSH1 0x24 DUP3 ADD MSTORE PUSH11 0x139BDD08185D081C1BDC9D PUSH1 0xAA SHL PUSH1 0x44 DUP3 ADD MSTORE REVERT JUMPDEST PUSH1 0x59 SWAP2 POP EQ DUP7 PUSH2 0x17EF JUMP JUMPDEST PUSH1 0x37 DUP2 EQ SWAP2 POP PUSH2 0x17E8 JUMP JUMPDEST SWAP1 PUSH2 0x18F2 JUMPI JUMPDEST POP PUSH1 0x5 PUSH1 0x0 SWAP4 ADD SLOAD SWAP1 SSTORE PUSH2 0x1823 JUMP JUMPDEST PUSH1 0x3 DUP5 ADD SWAP1 DUP2 SLOAD SWAP1 PUSH1 0x1 DUP3 LT PUSH2 0x191B JUMPI POP SWAP4 PUSH1 0x5 SWAP2 PUSH2 0x1912 PUSH1 0x0 SWAP7 PUSH2 0x1FEB JUMP JUMPDEST SWAP1 SSTORE SWAP4 POP PUSH2 0x18E3 JUMP JUMPDEST PUSH1 0x64 SWAP1 PUSH1 0x40 MLOAD SWAP1 PUSH3 0x461BCD PUSH1 0xE5 SHL DUP3 MSTORE PUSH1 0x4 DUP3 ADD MSTORE PUSH1 0xC PUSH1 0x24 DUP3 ADD MSTORE PUSH12 0x1399595908191A585B5BDB99 PUSH1 0xA2 SHL PUSH1 0x44 DUP3 ADD MSTORE REVERT JUMPDEST PUSH1 0x40 MLOAD PUSH3 0x461BCD PUSH1 0xE5 SHL DUP2 MSTORE PUSH1 0x4 DUP2 ADD DUP4 SWAP1 MSTORE PUSH1 0x1A PUSH1 0x24 DUP3 ADD MSTORE PUSH32 0x4E6F7420726561647920666F7220626173696320726570616972000000000000 PUSH1 0x44 DUP3 ADD MSTORE PUSH1 0x64 SWAP1 REVERT JUMPDEST PUSH1 0x64 SWAP1 PUSH1 0x40 MLOAD SWAP1 PUSH3 0x461BCD PUSH1 0xE5 SHL DUP3 MSTORE PUSH1 0x4 DUP3 ADD MSTORE PUSH1 0x10 PUSH1 0x24 DUP3 ADD MSTORE PUSH16 0x14DA1A5C081B9BDD081DDC9958DAD959 PUSH1 0x82 SHL PUSH1 0x44 DUP3 ADD MSTORE REVERT JUMPDEST CALLVALUE PUSH2 0x258 JUMPI PUSH1 0x20 CALLDATASIZE PUSH1 0x3 NOT ADD SLT PUSH2 0x258 JUMPI PUSH1 0x1 PUSH1 0x1 PUSH1 0xA0 SHL SUB PUSH2 0x19EB PUSH2 0x1D04 JUMP JUMPDEST AND PUSH1 0x0 MSTORE PUSH1 0x2 PUSH1 0x20 MSTORE PUSH1 0x40 PUSH1 0x0 KECCAK256 PUSH2 0x1A02 DUP2 PUSH2 0x1D76 JUMP JUMPDEST PUSH1 0xFF PUSH1 0x1 DUP4 ADD SLOAD AND PUSH1 0x80 MSTORE PUSH1 0x2 DUP3 ADD SLOAD PUSH1 0xA0 MSTORE PUSH1 0x3 DUP3 ADD SLOAD PUSH1 0xE0 MSTORE PUSH1 0x4 DUP3 ADD SLOAD SWAP2 PUSH1 0x5 DUP2 ADD SLOAD PUSH1 0x6 DUP3 ADD SLOAD PUSH1 0x7 DUP4 ADD SLOAD PUSH1 0x8 DUP5 ADD SLOAD PUSH1 0x9 DUP6 ADD SLOAD PUSH1 0xA DUP7 ADD SLOAD SWAP1 PUSH1 0xB DUP8 ADD SLOAD SWAP3 PUSH1 0xC DUP9 ADD SLOAD SWAP5 PUSH1 0xD DUP10 ADD SLOAD SWAP7 PUSH1 0xE DUP11 ADD SLOAD SWAP9 PUSH2 0x1A80 PUSH1 0x10 PUSH1 0xF DUP14 ADD SLOAD SWAP13 ADD SLOAD SWAP13 PUSH1 0x40 MLOAD PUSH1 0xC0 MSTORE PUSH2 0x220 DUP1 PUSH1 0xC0 MLOAD MSTORE PUSH1 0xC0 MLOAD ADD SWAP1 PUSH2 0x1E1B JUMP JUMPDEST SWAP13 PUSH1 0x80 MLOAD ISZERO ISZERO PUSH1 0x20 PUSH1 0xC0 MLOAD ADD MSTORE PUSH1 0xA0 MLOAD PUSH1 0x40 PUSH1 0xC0 MLOAD ADD MSTORE PUSH1 0xE0 MLOAD PUSH1 0x60 PUSH1 0xC0 MLOAD ADD MSTORE PUSH1 0x80 PUSH1 0xC0 MLOAD ADD MSTORE PUSH1 0xA0 PUSH1 0xC0 MLOAD ADD MSTORE PUSH1 0xC0 DUP1 MLOAD ADD MSTORE PUSH1 0xE0 PUSH1 0xC0 MLOAD ADD MSTORE PUSH2 0x100 PUSH1 0xC0 MLOAD ADD MSTORE PUSH2 0x120 PUSH1 0xC0 MLOAD ADD MSTORE PUSH2 0x140 PUSH1 0xC0 MLOAD ADD MSTORE PUSH2 0x160 PUSH1 0xC0 MLOAD ADD MSTORE PUSH2 0x180 PUSH1 0xC0 MLOAD ADD MSTORE PUSH2 0x1A0 PUSH1 0xC0 MLOAD ADD MSTORE PUSH2 0x1C0 PUSH1 0xC0 MLOAD ADD MSTORE PUSH2 0x1E0 PUSH1 0xC0 MLOAD ADD MSTORE PUSH2 0x200 PUSH1 0xC0 MLOAD ADD MSTORE PUSH1 0xC0 MLOAD SWAP1 SUB PUSH1 0xC0 MLOAD RETURN JUMPDEST CALLVALUE PUSH2 0x258 JUMPI PUSH1 0x40 CALLDATASIZE PUSH1 0x3 NOT ADD SLT PUSH2 0x258 JUMPI PUSH1 0x24 CALLDATALOAD PUSH1 0x1 PUSH1 0x1 PUSH1 0xA0 SHL SUB DUP2 AND SWAP1 PUSH1 0x4 CALLDATALOAD SWAP1 DUP3 SWAP1 SUB PUSH2 0x258 JUMPI PUSH1 0x20 SWAP2 DUP2 PUSH2 0x1B7A SWAP3 PUSH1 0x0 MSTORE PUSH1 0x3 DUP5 MSTORE PUSH1 0x1 PUSH1 0x40 PUSH1 0x0 KECCAK256 ADD SLOAD SWAP2 PUSH2 0x1B5C DUP4 ISZERO ISZERO PUSH2 0x1FAB JUMP JUMPDEST PUSH1 0x0 MSTORE PUSH1 0x4 DUP5 MSTORE PUSH1 0x40 PUSH1 0x0 KECCAK256 SWAP1 PUSH1 0x0 MSTORE DUP4 MSTORE PUSH1 0x40 PUSH1 0x0 KECCAK256 SLOAD SWAP1 PUSH2 0x20CD JUMP JUMPDEST PUSH1 0x40 MLOAD SWAP1 DUP2 MSTORE RETURN JUMPDEST CALLVALUE PUSH2 0x258 JUMPI PUSH1 0x40 CALLDATASIZE PUSH1 0x3 NOT ADD SLT PUSH2 0x258 JUMPI PUSH1 0x1 PUSH1 0x1 PUSH1 0xA0 SHL SUB PUSH2 0x1BA3 PUSH2 0x1D04 JUMP JUMPDEST AND PUSH1 0x0 MSTORE PUSH1 0x4 PUSH1 0x20 MSTORE PUSH1 0x40 PUSH1 0x0 KECCAK256 PUSH1 0x24 CALLDATALOAD PUSH1 0x0 MSTORE PUSH1 0x20 MSTORE PUSH1 0x20 PUSH1 0x40 PUSH1 0x0 KECCAK256 SLOAD PUSH1 0x40 MLOAD SWAP1 DUP2 MSTORE RETURN JUMPDEST CALLVALUE PUSH2 0x258 JUMPI PUSH1 0x0 CALLDATASIZE PUSH1 0x3 NOT ADD SLT PUSH2 0x258 JUMPI CALLER PUSH1 0x0 MSTORE PUSH1 0x2 PUSH1 0x20 MSTORE PUSH1 0x40 PUSH1 0x0 KECCAK256 PUSH2 0x1BF8 PUSH1 0x4 DUP3 ADD SLOAD ISZERO ISZERO PUSH2 0x1F56 JUMP JUMPDEST PUSH3 0x15180 DUP1 TIMESTAMP DIV PUSH1 0xD DUP4 ADD SWAP2 DUP3 SLOAD DIV DUP2 DUP2 LT ISZERO PUSH2 0x1CBF JUMPI PUSH1 0x0 NOT DUP3 ADD SWAP2 DUP3 GT PUSH2 0x783 JUMPI SUB PUSH2 0x1CB3 JUMPI PUSH1 0xE DUP3 ADD DUP1 SLOAD SWAP1 PUSH1 0x1 DUP3 ADD DUP1 SWAP3 GT PUSH2 0x783 JUMPI SSTORE JUMPDEST TIMESTAMP SWAP1 SSTORE PUSH1 0x9 DUP2 ADD SLOAD SWAP1 PUSH1 0x19 DUP3 MUL SWAP2 DUP1 DUP4 DIV PUSH1 0x19 EQ SWAP1 ISZERO OR ISZERO PUSH2 0x783 JUMPI PUSH1 0xE DUP2 ADD SLOAD SWAP2 DUP3 PUSH1 0x5 MUL SWAP1 PUSH1 0x5 DUP3 DIV DUP5 SUB PUSH2 0x783 JUMPI PUSH1 0x2 SWAP2 PUSH2 0x1C71 SWAP2 PUSH2 0x1F9E JUMP JUMPDEST SWAP2 ADD PUSH2 0x1C7E DUP3 DUP3 SLOAD PUSH2 0x1F9E JUMP JUMPDEST SWAP1 SSTORE PUSH1 0x40 MLOAD SWAP2 DUP3 MSTORE PUSH1 0x20 DUP3 ADD MSTORE PUSH32 0xB9CFEA4717F167774A6E8643C33472935D3EF918453525EEFCA6936078B7CFDD PUSH1 0x40 CALLER SWAP3 LOG2 STOP JUMPDEST PUSH1 0x1 PUSH1 0xE DUP4 ADD SSTORE PUSH2 0x1C34 JUMP JUMPDEST PUSH1 0x40 MLOAD PUSH3 0x461BCD PUSH1 0xE5 SHL DUP2 MSTORE PUSH1 0x20 PUSH1 0x4 DUP3 ADD MSTORE PUSH1 0x18 PUSH1 0x24 DUP3 ADD MSTORE PUSH32 0x416C726561647920636865636B656420696E20746F6461790000000000000000 PUSH1 0x44 DUP3 ADD MSTORE PUSH1 0x64 SWAP1 REVERT JUMPDEST PUSH1 0x4 CALLDATALOAD SWAP1 PUSH1 0x1 PUSH1 0x1 PUSH1 0xA0 SHL SUB DUP3 AND DUP3 SUB PUSH2 0x258 JUMPI JUMP JUMPDEST SWAP1 PUSH1 0x1 DUP3 DUP2 SHR SWAP3 AND DUP1 ISZERO PUSH2 0x1D4A JUMPI JUMPDEST PUSH1 0x20 DUP4 LT EQ PUSH2 0x1D34 JUMPI JUMP JUMPDEST PUSH4 0x4E487B71 PUSH1 0xE0 SHL PUSH1 0x0 MSTORE PUSH1 0x22 PUSH1 0x4 MSTORE PUSH1 0x24 PUSH1 0x0 REVERT JUMPDEST SWAP2 PUSH1 0x7F AND SWAP2 PUSH2 0x1D29 JUMP JUMPDEST SWAP1 PUSH1 0x1F DUP1 NOT SWAP2 ADD AND DUP2 ADD SWAP1 DUP2 LT PUSH8 0xFFFFFFFFFFFFFFFF DUP3 GT OR PUSH2 0x543 JUMPI PUSH1 0x40 MSTORE JUMP JUMPDEST SWAP1 PUSH1 0x40 MLOAD SWAP2 DUP3 PUSH1 0x0 DUP3 SLOAD PUSH2 0x1D89 DUP2 PUSH2 0x1D1A JUMP JUMPDEST SWAP1 DUP2 DUP5 MSTORE PUSH1 0x20 SWAP5 PUSH1 0x1 SWAP2 PUSH1 0x1 DUP2 AND SWAP1 DUP2 PUSH1 0x0 EQ PUSH2 0x1DF9 JUMPI POP PUSH1 0x1 EQ PUSH2 0x1DBA JUMPI JUMPDEST POP POP POP PUSH2 0x1DB8 SWAP3 POP SUB DUP4 PUSH2 0x1D54 JUMP JUMPDEST JUMP JUMPDEST PUSH1 0x0 SWAP1 DUP2 MSTORE DUP6 DUP2 KECCAK256 SWAP6 SWAP4 POP SWAP2 SWAP1 JUMPDEST DUP2 DUP4 LT PUSH2 0x1DE1 JUMPI POP POP PUSH2 0x1DB8 SWAP4 POP DUP3 ADD ADD CODESIZE DUP1 DUP1 PUSH2 0x1DA9 JUMP JUMPDEST DUP6 SLOAD DUP9 DUP5 ADD DUP6 ADD MSTORE SWAP5 DUP6 ADD SWAP5 DUP8 SWAP5 POP SWAP2 DUP4 ADD SWAP2 PUSH2 0x1DC8 JUMP JUMPDEST SWAP3 POP POP POP PUSH2 0x1DB8 SWAP5 SWAP3 POP PUSH1 0xFF NOT AND DUP3 DUP5 ADD MSTORE ISZERO ISZERO PUSH1 0x5 SHL DUP3 ADD ADD CODESIZE DUP1 DUP1 PUSH2 0x1DA9 JUMP JUMPDEST SWAP2 SWAP1 DUP3 MLOAD SWAP3 DUP4 DUP3 MSTORE PUSH1 0x0 JUMPDEST DUP5 DUP2 LT PUSH2 0x1E47 JUMPI POP POP DUP3 PUSH1 0x0 PUSH1 0x20 DUP1 SWAP5 SWAP6 DUP5 ADD ADD MSTORE PUSH1 0x1F DUP1 NOT SWAP2 ADD AND ADD ADD SWAP1 JUMP JUMPDEST PUSH1 0x20 DUP2 DUP4 ADD DUP2 ADD MLOAD DUP5 DUP4 ADD DUP3 ADD MSTORE ADD PUSH2 0x1E26 JUMP JUMPDEST PUSH1 0x24 CALLDATALOAD SWAP1 DUP2 ISZERO ISZERO DUP3 SUB PUSH2 0x258 JUMPI JUMP JUMPDEST SWAP2 DUP2 PUSH1 0x1F DUP5 ADD SLT ISZERO PUSH2 0x258 JUMPI DUP3 CALLDATALOAD SWAP2 PUSH8 0xFFFFFFFFFFFFFFFF DUP4 GT PUSH2 0x258 JUMPI PUSH1 0x20 DUP4 DUP2 DUP7 ADD SWAP6 ADD ADD GT PUSH2 0x258 JUMPI JUMP JUMPDEST SWAP1 DUP2 MLOAD DUP1 DUP3 MSTORE PUSH1 0x20 DUP1 DUP1 SWAP4 ADD SWAP4 ADD SWAP2 PUSH1 0x0 JUMPDEST DUP3 DUP2 LT PUSH2 0x1EB8 JUMPI POP POP POP POP SWAP1 JUMP JUMPDEST DUP4 MLOAD PUSH1 0x1 PUSH1 0x1 PUSH1 0xA0 SHL SUB AND DUP6 MSTORE SWAP4 DUP2 ADD SWAP4 SWAP3 DUP2 ADD SWAP3 PUSH1 0x1 ADD PUSH2 0x1EAA JUMP JUMPDEST SWAP1 DUP2 MLOAD DUP1 DUP3 MSTORE PUSH1 0x20 DUP1 DUP1 SWAP4 ADD SWAP4 ADD SWAP2 PUSH1 0x0 JUMPDEST DUP3 DUP2 LT PUSH2 0x1EF5 JUMPI POP POP POP POP SWAP1 JUMP JUMPDEST DUP4 MLOAD DUP6 MSTORE SWAP4 DUP2 ADD SWAP4 SWAP3 DUP2 ADD SWAP3 PUSH1 0x1 ADD PUSH2 0x1EE7 JUMP JUMPDEST PUSH1 0x6 SLOAD DUP2 LT ISZERO PUSH2 0x1F40 JUMPI PUSH1 0x6 PUSH1 0x0 MSTORE PUSH32 0xF652222313E28459528D920B65115C16C04F3EFC82AAEDC97BE59F3F377C0D3F ADD SWAP1 PUSH1 0x0 SWAP1 JUMP JUMPDEST PUSH4 0x4E487B71 PUSH1 0xE0 SHL PUSH1 0x0 MSTORE PUSH1 0x32 PUSH1 0x4 MSTORE PUSH1 0x24 PUSH1 0x0 REVERT JUMPDEST ISZERO PUSH2 0x1F5D JUMPI JUMP JUMPDEST PUSH1 0x40 MLOAD PUSH3 0x461BCD PUSH1 0xE5 SHL DUP2 MSTORE PUSH1 0x20 PUSH1 0x4 DUP3 ADD MSTORE PUSH1 0xC PUSH1 0x24 DUP3 ADD MSTORE PUSH12 0x14DA1A5C081DDC9958DAD959 PUSH1 0xA2 SHL PUSH1 0x44 DUP3 ADD MSTORE PUSH1 0x64 SWAP1 REVERT JUMPDEST SWAP2 SWAP1 DUP3 SUB SWAP2 DUP3 GT PUSH2 0x783 JUMPI JUMP JUMPDEST SWAP2 SWAP1 DUP3 ADD DUP1 SWAP3 GT PUSH2 0x783 JUMPI JUMP JUMPDEST ISZERO PUSH2 0x1FB2 JUMPI JUMP JUMPDEST PUSH1 0x40 MLOAD PUSH3 0x461BCD PUSH1 0xE5 SHL DUP2 MSTORE PUSH1 0x20 PUSH1 0x4 DUP3 ADD MSTORE PUSH1 0x11 PUSH1 0x24 DUP3 ADD MSTORE PUSH17 0x155C19DC985919481B9BDD08195E1A5CDD PUSH1 0x7A SHL PUSH1 0x44 DUP3 ADD MSTORE PUSH1 0x64 SWAP1 REVERT JUMPDEST DUP1 ISZERO PUSH2 0x783 JUMPI PUSH1 0x0 NOT ADD SWAP1 JUMP JUMPDEST PUSH1 0x0 NOT DUP2 EQ PUSH2 0x783 JUMPI PUSH1 0x1 ADD SWAP1 JUMP JUMPDEST SWAP3 SWAP2 SWAP3 PUSH8 0xFFFFFFFFFFFFFFFF DUP3 GT PUSH2 0x543 JUMPI PUSH1 0x40 MLOAD SWAP2 PUSH2 0x2031 PUSH1 0x1F DUP3 ADD PUSH1 0x1F NOT AND PUSH1 0x20 ADD DUP5 PUSH2 0x1D54 JUMP JUMPDEST DUP3 SWAP5 DUP2 DUP5 MSTORE DUP2 DUP4 ADD GT PUSH2 0x258 JUMPI DUP3 DUP2 PUSH1 0x20 SWAP4 DUP5 PUSH1 0x0 SWAP7 ADD CALLDATACOPY ADD ADD MSTORE JUMP JUMPDEST SWAP1 DUP1 PUSH1 0x20 SWAP4 SWAP3 DUP2 DUP5 MSTORE DUP5 DUP5 ADD CALLDATACOPY PUSH1 0x0 DUP3 DUP3 ADD DUP5 ADD MSTORE PUSH1 0x1F ADD PUSH1 0x1F NOT AND ADD ADD SWAP1 JUMP JUMPDEST PUSH8 0xFFFFFFFFFFFFFFFF DUP2 GT PUSH2 0x543 JUMPI PUSH1 0x5 SHL PUSH1 0x20 ADD SWAP1 JUMP JUMPDEST SWAP1 PUSH2 0x2091 DUP3 PUSH2 0x206F JUMP JUMPDEST PUSH2 0x209E PUSH1 0x40 MLOAD SWAP2 DUP3 PUSH2 0x1D54 JUMP JUMPDEST DUP3 DUP2 MSTORE DUP1 SWAP3 PUSH2 0x20AF PUSH1 0x1F NOT SWAP2 PUSH2 0x206F JUMP JUMPDEST ADD SWAP1 PUSH1 0x20 CALLDATASIZE SWAP2 ADD CALLDATACOPY JUMP JUMPDEST DUP1 MLOAD DUP3 LT ISZERO PUSH2 0x1F40 JUMPI PUSH1 0x20 SWAP2 PUSH1 0x5 SHL ADD ADD SWAP1 JUMP JUMPDEST DUP2 ISZERO PUSH2 0x213C JUMPI PUSH1 0x1 SWAP2 PUSH1 0x1 SWAP3 PUSH1 0x0 SWAP2 JUMPDEST DUP1 DUP4 LT PUSH2 0x2107 JUMPI POP POP POP DUP2 ISZERO PUSH2 0x20F1 JUMPI DIV SWAP1 JUMP JUMPDEST PUSH4 0x4E487B71 PUSH1 0xE0 SHL PUSH1 0x0 MSTORE PUSH1 0x12 PUSH1 0x4 MSTORE PUSH1 0x24 PUSH1 0x0 REVERT JUMPDEST SWAP1 SWAP2 SWAP4 SWAP3 PUSH1 0xF SWAP1 DUP2 DUP2 MUL SWAP2 DUP2 DUP4 DIV EQ SWAP1 ISZERO OR ISZERO PUSH2 0x783 JUMPI SWAP3 PUSH1 0xA SWAP1 DUP2 DUP2 MUL SWAP2 DUP2 DUP4 DIV EQ SWAP1 ISZERO OR ISZERO PUSH2 0x783 JUMPI SWAP4 DUP3 ADD SWAP2 SWAP1 PUSH2 0x20DD JUMP JUMPDEST SWAP1 POP SWAP1 JUMP JUMPDEST PUSH1 0x2 PUSH1 0x1 SLOAD EQ PUSH2 0x2152 JUMPI PUSH1 0x2 PUSH1 0x1 SSTORE JUMP JUMPDEST PUSH1 0x40 MLOAD PUSH4 0x3EE5AEB5 PUSH1 0xE0 SHL DUP2 MSTORE PUSH1 0x4 SWAP1 REVERT JUMPDEST PUSH1 0x0 SLOAD PUSH1 0x1 PUSH1 0x1 PUSH1 0xA0 SHL SUB AND CALLER SUB PUSH2 0x2178 JUMPI JUMP JUMPDEST PUSH1 0x40 MLOAD PUSH4 0x118CDAA7 PUSH1 0xE0 SHL DUP2 MSTORE CALLER PUSH1 0x4 DUP3 ADD MSTORE PUSH1 0x24 SWAP1 REVERT JUMPDEST PUSH1 0x6 DUP1 SLOAD PUSH1 0x1 SWAP1 DUP2 DUP2 LT ISZERO PUSH2 0x234F JUMPI DUP1 JUMPDEST PUSH2 0x21AA DUP2 PUSH2 0x2087 JUMP JUMPDEST SWAP4 PUSH2 0x21B4 DUP3 PUSH2 0x2087 JUMP JUMPDEST PUSH1 0x0 JUMPDEST DUP5 DUP2 LT PUSH2 0x21F2 JUMPI POP POP POP POP POP POP DUP1 MLOAD ISZERO DUP1 ISZERO PUSH2 0x21DE JUMPI POP POP PUSH1 0x0 SLOAD PUSH1 0x1 PUSH1 0x1 PUSH1 0xA0 SHL SUB AND SWAP1 JUMP JUMPDEST PUSH2 0x1F40 JUMPI PUSH1 0x20 ADD MLOAD PUSH1 0x1 PUSH1 0x1 PUSH1 0xA0 SHL SUB AND SWAP1 JUMP JUMPDEST DUP1 PUSH2 0x21FD DUP8 SWAP3 PUSH2 0x1F09 JUMP JUMPDEST PUSH1 0x1 DUP1 PUSH1 0xA0 SHL SUB DUP1 SWAP3 SLOAD PUSH1 0x3 SWAP3 DUP4 SHL SHR AND PUSH1 0x0 MSTORE PUSH2 0x2271 PUSH1 0x2 PUSH1 0x8 PUSH1 0x20 SWAP2 DUP1 DUP4 MSTORE PUSH1 0x40 SWAP1 PUSH2 0x2250 DUP12 DUP4 PUSH1 0x0 KECCAK256 ADD SLOAD DUP9 PUSH2 0x2235 DUP12 PUSH2 0x1F09 JUMP JUMPDEST SWAP1 SLOAD SWAP1 DUP11 SHL SHR AND PUSH1 0x0 MSTORE DUP3 DUP7 MSTORE PUSH1 0x7 DUP5 PUSH1 0x0 KECCAK256 ADD SLOAD SWAP1 PUSH2 0x1F9E JUMP JUMPDEST SWAP4 DUP8 PUSH2 0x225B DUP11 PUSH2 0x1F09 JUMP JUMPDEST SWAP1 SLOAD SWAP1 DUP10 SHL SHR AND PUSH1 0x0 MSTORE MSTORE PUSH1 0x0 KECCAK256 ADD SLOAD SWAP1 PUSH2 0x1F9E JUMP JUMPDEST SWAP1 PUSH1 0x0 JUMPDEST DUP9 DUP2 LT PUSH2 0x2287 JUMPI JUMPDEST POP POP POP POP ADD PUSH2 0x21B7 JUMP JUMPDEST PUSH2 0x2297 DUP2 DUP9 SWAP8 SWAP4 SWAP5 SWAP6 SWAP7 SWAP8 PUSH2 0x20B9 JUMP JUMPDEST MLOAD DUP5 GT PUSH2 0x22AA JUMPI ADD SWAP1 DUP10 SWAP5 SWAP4 SWAP3 SWAP2 PUSH2 0x2275 JUMP JUMPDEST SWAP3 SWAP4 SWAP2 SWAP1 POP PUSH1 0x0 NOT DUP9 DUP2 ADD DUP10 DUP2 GT PUSH2 0x783 JUMPI SWAP1 DUP12 SWAP7 SWAP6 SWAP5 SWAP4 SWAP3 SWAP2 JUMPDEST DUP5 DUP2 GT PUSH2 0x22FE JUMPI POP POP SWAP1 PUSH2 0x22F4 SWAP3 SWAP2 PUSH2 0x22DD DUP7 PUSH2 0x1F09 JUMP JUMPDEST SWAP1 SLOAD SWAP2 SHL SHR AND PUSH2 0x22ED DUP3 DUP14 PUSH2 0x20B9 JUMP JUMPDEST MSTORE DUP6 PUSH2 0x20B9 JUMP JUMPDEST MSTORE CODESIZE DUP1 DUP1 DUP1 PUSH2 0x227D JUMP JUMPDEST SWAP1 DUP1 SWAP3 SWAP4 SWAP5 SWAP6 SWAP7 SWAP8 POP DUP2 ADD SWAP1 DUP1 DUP3 GT PUSH2 0x783 JUMPI PUSH2 0x2337 DUP3 DUP16 PUSH2 0x2330 DUP5 DUP10 PUSH2 0x2328 PUSH2 0x2342 SWAP9 DUP6 PUSH2 0x20B9 JUMP JUMPDEST MLOAD AND SWAP3 PUSH2 0x20B9 JUMP JUMPDEST MSTORE DUP11 PUSH2 0x20B9 JUMP JUMPDEST MLOAD PUSH2 0xA88 DUP3 DUP12 PUSH2 0x20B9 JUMP JUMPDEST SWAP1 DUP12 SWAP7 SWAP6 SWAP5 SWAP4 SWAP3 SWAP2 PUSH2 0x22C5 JUMP JUMPDEST PUSH1 0x1 PUSH2 0x21A1 JUMP JUMPDEST PUSH1 0x6 DUP1 SLOAD PUSH1 0x2 SWAP2 SWAP1 DUP3 DUP2 LT ISZERO PUSH2 0x24B5 JUMPI DUP1 JUMPDEST PUSH2 0x2371 DUP2 PUSH2 0x2087 JUMP JUMPDEST SWAP4 PUSH2 0x237B DUP3 PUSH2 0x2087 JUMP JUMPDEST SWAP1 PUSH1 0x0 JUMPDEST DUP5 DUP2 LT PUSH2 0x23BF JUMPI POP POP POP POP POP POP DUP1 MLOAD PUSH1 0x1 DUP2 GT PUSH2 0x23A7 JUMPI POP POP PUSH1 0x0 SLOAD PUSH1 0x1 PUSH1 0x1 PUSH1 0xA0 SHL SUB AND SWAP1 JUMP JUMPDEST PUSH1 0x1 LT ISZERO PUSH2 0x1F40 JUMPI PUSH1 0x40 ADD MLOAD PUSH1 0x1 PUSH1 0x1 PUSH1 0xA0 SHL SUB AND SWAP1 JUMP JUMPDEST PUSH2 0x23C8 DUP2 PUSH2 0x1F09 JUMP JUMPDEST PUSH1 0x1 DUP1 PUSH1 0xA0 SHL SUB DUP1 SWAP3 SLOAD PUSH1 0x3 SWAP3 DUP4 SHL SHR AND PUSH1 0x0 MSTORE PUSH2 0x23FD PUSH1 0x20 DUP6 DUP2 MSTORE PUSH1 0x8 PUSH1 0x40 DUP8 PUSH2 0x2250 DUP14 DUP4 PUSH1 0x0 KECCAK256 ADD SLOAD DUP9 PUSH2 0x2235 DUP12 PUSH2 0x1F09 JUMP JUMPDEST SWAP1 PUSH1 0x0 JUMPDEST DUP8 DUP2 LT PUSH2 0x2415 JUMPI JUMPDEST POP POP POP POP PUSH1 0x1 ADD PUSH2 0x237F JUMP JUMPDEST PUSH2 0x241F DUP2 DUP9 PUSH2 0x20B9 JUMP JUMPDEST MLOAD DUP4 GT PUSH2 0x242E JUMPI PUSH1 0x1 ADD PUSH2 0x2401 JUMP JUMPDEST SWAP2 SWAP3 SWAP1 PUSH1 0x0 NOT DUP9 DUP2 ADD DUP10 DUP2 GT PUSH2 0x783 JUMPI JUMPDEST DUP5 DUP2 GT PUSH2 0x247C JUMPI POP POP SWAP2 PUSH2 0x2472 SWAP2 DUP6 SWAP5 SWAP4 PUSH2 0x245B PUSH1 0x1 SWAP8 PUSH2 0x1F09 JUMP JUMPDEST SWAP1 SLOAD SWAP2 SHL SHR AND PUSH2 0x246B DUP3 DUP14 PUSH2 0x20B9 JUMP JUMPDEST MSTORE DUP7 PUSH2 0x20B9 JUMP JUMPDEST MSTORE SWAP1 CODESIZE DUP1 DUP1 PUSH2 0x2409 JUMP JUMPDEST DUP2 DUP2 ADD SWAP1 DUP1 DUP3 GT PUSH2 0x783 JUMPI PUSH2 0x24A5 DUP3 DUP16 PUSH2 0x249E DUP5 DUP10 PUSH2 0x2328 PUSH2 0x24B0 SWAP9 DUP6 PUSH2 0x20B9 JUMP JUMPDEST MSTORE DUP12 PUSH2 0x20B9 JUMP JUMPDEST MLOAD PUSH2 0xA88 DUP3 DUP13 PUSH2 0x20B9 JUMP JUMPDEST PUSH2 0x243F JUMP JUMPDEST PUSH1 0x2 PUSH2 0x2368 JUMP JUMPDEST PUSH1 0x6 DUP1 SLOAD PUSH1 0x3 SWAP2 SWAP1 DUP3 DUP2 LT ISZERO PUSH2 0x2643 JUMPI DUP1 JUMPDEST PUSH2 0x24D7 DUP2 PUSH2 0x2087 JUMP JUMPDEST SWAP4 PUSH2 0x24E1 DUP3 PUSH2 0x2087 JUMP JUMPDEST PUSH1 0x0 JUMPDEST DUP5 DUP2 LT PUSH2 0x2524 JUMPI POP POP POP POP POP POP DUP1 MLOAD PUSH1 0x2 DUP2 GT PUSH2 0x250C JUMPI POP POP PUSH1 0x0 SLOAD PUSH1 0x1 PUSH1 0x1 PUSH1 0xA0 SHL SUB AND SWAP1 JUMP JUMPDEST PUSH1 0x2 LT ISZERO PUSH2 0x1F40 JUMPI PUSH1 0x60 ADD MLOAD PUSH1 0x1 PUSH1 0x1 PUSH1 0xA0 SHL SUB AND SWAP1 JUMP JUMPDEST PUSH2 0x252D DUP2 PUSH2 0x1F09 JUMP JUMPDEST SWAP1 PUSH1 0x1 DUP1 PUSH1 0xA0 SHL SUB SWAP2 DUP3 SWAP2 SLOAD SWAP1 DUP7 SHL SHR AND PUSH1 0x0 MSTORE PUSH2 0x25A1 PUSH1 0x2 PUSH1 0x8 PUSH1 0x20 SWAP2 DUP1 DUP4 MSTORE PUSH1 0x40 SWAP1 PUSH2 0x2580 DUP13 DUP4 PUSH1 0x0 KECCAK256 ADD SLOAD DUP8 PUSH2 0x2565 DUP11 PUSH2 0x1F09 JUMP JUMPDEST SWAP1 SLOAD SWAP1 DUP14 SHL SHR AND PUSH1 0x0 MSTORE DUP3 DUP7 MSTORE PUSH1 0x7 DUP5 PUSH1 0x0 KECCAK256 ADD SLOAD SWAP1 PUSH2 0x1F9E JUMP JUMPDEST SWAP4 DUP7 PUSH2 0x258B DUP10 PUSH2 0x1F09 JUMP JUMPDEST SWAP1 SLOAD SWAP1 DUP13 SHL SHR AND PUSH1 0x0 MSTORE MSTORE PUSH1 0x0 KECCAK256 ADD SLOAD SWAP1 PUSH2 0x1F9E JUMP JUMPDEST PUSH1 0x0 JUMPDEST DUP7 DUP2 LT PUSH2 0x25B7 JUMPI JUMPDEST POP POP POP PUSH1 0x1 ADD PUSH2 0x24E4 JUMP JUMPDEST PUSH2 0x25C1 DUP2 DUP7 PUSH2 0x20B9 JUMP JUMPDEST MLOAD DUP3 GT PUSH2 0x25D0 JUMPI PUSH1 0x1 ADD PUSH2 0x25A4 JUMP JUMPDEST SWAP1 SWAP2 PUSH1 0x0 NOT DUP8 DUP2 ADD DUP9 DUP2 GT PUSH2 0x783 JUMPI JUMPDEST DUP4 DUP2 GT PUSH2 0x2615 JUMPI POP POP DUP4 SWAP3 SWAP2 PUSH2 0x260C SWAP2 PUSH2 0x25FB PUSH1 0x1 SWAP7 PUSH2 0x1F09 JUMP JUMPDEST SWAP1 SLOAD SWAP1 DUP10 SHL SHR AND PUSH2 0x22ED DUP3 DUP14 PUSH2 0x20B9 JUMP JUMPDEST MSTORE SWAP1 CODESIZE DUP1 PUSH2 0x25AC JUMP JUMPDEST DUP2 DUP2 ADD SWAP1 DUP1 DUP3 GT PUSH2 0x783 JUMPI PUSH2 0xA7D DUP3 DUP15 PUSH2 0x2637 DUP5 DUP9 PUSH2 0x2328 PUSH2 0x263E SWAP9 DUP6 PUSH2 0x20B9 JUMP JUMPDEST MSTORE DUP10 PUSH2 0x20B9 JUMP JUMPDEST PUSH2 0x25E0 JUMP JUMPDEST DUP3 PUSH2 0x24CE JUMP INVALID LOG2 PUSH5 0x6970667358 0x22 SLT KECCAK256 RETURN DUP13 0xD3 0xA8 EQ LOG4 0xA6 SWAP12 0xF8 0xE7 MCOPY CALLCODE SWAP16 0xAD 0xD5 0xC3 DUP15 PUSH31 0x4129A186E05DCEA732C4D66E80AE64736F6C63430008180033000000000000 "},"methodIdentifiers":{"accounts(address)":"5e5c06e2","addUpgrade(string,uint256,uint256,uint256,uint256,uint256,uint256,uint256)":"ece2e4ba","attack(address)":"d018db3e","buyUpgrade(uint256)":"a5a2cb19","checkIn()":"183ff085","createAccount(string,bool,uint256)":"ab2611ee","getRanking(uint256)":"bea2dc14","getShipsAt(uint256)":"b7df5b5d","getUpgradeCost(uint256,address)":"5722bb51","nextUpgradeId()":"d2fabb18","owner()":"8da5cb5b","players(uint256)":"f71d96cb","purchaseCounts(address,uint256)":"35d93897","renounceOwnership()":"715018a6","repairShip(bool,bool)":"683591a8","rescueXTZ()":"d4826b6c","transferOwnership(address)":"f2fde38b","travel(uint256,bool)":"74aa3a98","upgrades(uint256)":"7386bbc5"}}}}}