{"contracts/SeasOfLinkardia.sol":{"SeasOfLinkardia":{"abi":[{"inputs":[],"stateMutability":"nonpayable","type":"constructor"},{"inputs":[{"internalType":"address","name":"owner","type":"address"}],"name":"OwnableInvalidOwner","type":"error"},{"inputs":[{"internalType":"address","name":"account","type":"address"}],"name":"OwnableUnauthorizedAccount","type":"error"},{"inputs":[],"name":"ReentrancyGuardReentrantCall","type":"error"},{"anonymous":false,"inputs":[{"indexed":true,"internalType":"address","name":"user","type":"address"},{"indexed":false,"internalType":"string","name":"boatName","type":"string"},{"indexed":false,"internalType":"bool","name":"isPirate","type":"bool"}],"name":"AccountCreated","type":"event"},{"anonymous":false,"inputs":[{"indexed":true,"internalType":"address","name":"user","type":"address"},{"indexed":false,"internalType":"uint256","name":"streak","type":"uint256"},{"indexed":false,"internalType":"uint256","name":"reward","type":"uint256"}],"name":"CheckIn","type":"event"},{"anonymous":false,"inputs":[{"indexed":true,"internalType":"address","name":"user","type":"address"},{"indexed":false,"internalType":"uint256","name":"crewHired","type":"uint256"},{"indexed":false,"internalType":"uint256","name":"cost","type":"uint256"}],"name":"CrewHired","type":"event"},{"anonymous":false,"inputs":[{"indexed":true,"internalType":"address","name":"user","type":"address"},{"indexed":false,"internalType":"uint256","name":"amount","type":"uint256"},{"indexed":false,"internalType":"uint256","name":"timeElapsed","type":"uint256"}],"name":"GPMClaimed","type":"event"},{"anonymous":false,"inputs":[{"indexed":true,"internalType":"address","name":"previousOwner","type":"address"},{"indexed":true,"internalType":"address","name":"newOwner","type":"address"}],"name":"OwnershipTransferred","type":"event"},{"anonymous":false,"inputs":[{"indexed":true,"internalType":"address","name":"attacker","type":"address"},{"indexed":true,"internalType":"address","name":"defender","type":"address"},{"indexed":false,"internalType":"bool","name":"destroyed","type":"bool"}],"name":"ShipAttacked","type":"event"},{"anonymous":false,"inputs":[{"indexed":true,"internalType":"address","name":"user","type":"address"},{"indexed":false,"internalType":"uint256","name":"repairType","type":"uint256"},{"indexed":false,"internalType":"uint256","name":"cost","type":"uint256"},{"indexed":false,"internalType":"uint256","name":"waitTime","type":"uint256"}],"name":"ShipRepaired","type":"event"},{"anonymous":false,"inputs":[{"indexed":true,"internalType":"address","name":"user","type":"address"},{"indexed":false,"internalType":"uint256","name":"toLocation","type":"uint256"},{"indexed":false,"internalType":"uint256","name":"arriveAt","type":"uint256"},{"indexed":false,"internalType":"bool","name":"fast","type":"bool"}],"name":"TravelStarted","type":"event"},{"anonymous":false,"inputs":[{"indexed":true,"internalType":"uint256","name":"id","type":"uint256"},{"indexed":false,"internalType":"string","name":"name","type":"string"}],"name":"UpgradeAdded","type":"event"},{"anonymous":false,"inputs":[{"indexed":true,"internalType":"address","name":"user","type":"address"},{"indexed":true,"internalType":"uint256","name":"id","type":"uint256"}],"name":"UpgradePurchased","type":"event"},{"inputs":[{"internalType":"address","name":"","type":"address"}],"name":"accounts","outputs":[{"internalType":"string","name":"boatName","type":"string"},{"internalType":"bool","name":"isPirate","type":"bool"},{"internalType":"uint256","name":"gold","type":"uint256"},{"internalType":"uint256","name":"diamonds","type":"uint256"},{"internalType":"uint256","name":"hp","type":"uint256"},{"internalType":"uint256","name":"maxHp","type":"uint256"},{"internalType":"uint256","name":"speed","type":"uint256"},{"internalType":"uint256","name":"attack","type":"uint256"},{"internalType":"uint256","name":"defense","type":"uint256"},{"internalType":"uint256","name":"crew","type":"uint256"},{"internalType":"uint256","name":"maxCrew","type":"uint256"},{"internalType":"uint256","name":"location","type":"uint256"},{"internalType":"uint256","name":"gpm","type":"uint256"},{"internalType":"uint256","name":"lastCheckIn","type":"uint256"},{"internalType":"uint256","name":"checkInStreak","type":"uint256"},{"internalType":"uint256","name":"lastWrecked","type":"uint256"},{"internalType":"uint256","name":"travelEnd","type":"uint256"},{"internalType":"uint256","name":"lastGPMClaim","type":"uint256"},{"internalType":"uint256","name":"repairEnd","type":"uint256"}],"stateMutability":"view","type":"function"},{"inputs":[{"internalType":"string","name":"name","type":"string"},{"internalType":"uint256","name":"cost","type":"uint256"},{"internalType":"uint256","name":"gpmBonus","type":"uint256"},{"internalType":"uint256","name":"maxHpBonus","type":"uint256"},{"internalType":"uint256","name":"speedBonus","type":"uint256"},{"internalType":"uint256","name":"attackBonus","type":"uint256"},{"internalType":"uint256","name":"defenseBonus","type":"uint256"},{"internalType":"uint256","name":"maxCrewBonus","type":"uint256"}],"name":"addUpgrade","outputs":[],"stateMutability":"nonpayable","type":"function"},{"inputs":[{"internalType":"address","name":"defender","type":"address"}],"name":"attack","outputs":[],"stateMutability":"nonpayable","type":"function"},{"inputs":[{"internalType":"uint256","name":"id","type":"uint256"}],"name":"buyUpgrade","outputs":[],"stateMutability":"nonpayable","type":"function"},{"inputs":[],"name":"checkIn","outputs":[],"stateMutability":"nonpayable","type":"function"},{"inputs":[],"name":"claimGPM","outputs":[],"stateMutability":"nonpayable","type":"function"},{"inputs":[],"name":"completeRepair","outputs":[],"stateMutability":"nonpayable","type":"function"},{"inputs":[{"internalType":"string","name":"_boatName","type":"string"},{"internalType":"bool","name":"_isPirate","type":"bool"},{"internalType":"uint256","name":"_startLocation","type":"uint256"}],"name":"createAccount","outputs":[],"stateMutability":"nonpayable","type":"function"},{"inputs":[{"internalType":"address","name":"player","type":"address"}],"name":"getClaimableGold","outputs":[{"internalType":"uint256","name":"","type":"uint256"}],"stateMutability":"view","type":"function"},{"inputs":[{"internalType":"address","name":"player","type":"address"}],"name":"getHireCrewCost","outputs":[{"internalType":"uint256","name":"","type":"uint256"}],"stateMutability":"view","type":"function"},{"inputs":[{"internalType":"uint256","name":"n","type":"uint256"}],"name":"getRanking","outputs":[{"internalType":"address[]","name":"","type":"address[]"},{"internalType":"uint256[]","name":"","type":"uint256[]"}],"stateMutability":"view","type":"function"},{"inputs":[{"internalType":"address","name":"player","type":"address"}],"name":"getRepairOptions","outputs":[{"internalType":"uint256[3]","name":"costs","type":"uint256[3]"},{"internalType":"uint256[3]","name":"waitTimes","type":"uint256[3]"}],"stateMutability":"view","type":"function"},{"inputs":[{"internalType":"uint256","name":"loc","type":"uint256"}],"name":"getShipsAt","outputs":[{"internalType":"address[]","name":"","type":"address[]"},{"internalType":"string[]","name":"","type":"string[]"},{"internalType":"uint256[]","name":"","type":"uint256[]"}],"stateMutability":"view","type":"function"},{"inputs":[{"internalType":"address","name":"player","type":"address"}],"name":"getTimeUntilNextGPM","outputs":[{"internalType":"uint256","name":"","type":"uint256"}],"stateMutability":"view","type":"function"},{"inputs":[{"internalType":"uint256","name":"id","type":"uint256"},{"internalType":"address","name":"player","type":"address"}],"name":"getUpgradeCost","outputs":[{"internalType":"uint256","name":"","type":"uint256"}],"stateMutability":"view","type":"function"},{"inputs":[],"name":"hireCrew","outputs":[],"stateMutability":"nonpayable","type":"function"},{"inputs":[{"internalType":"uint256","name":"location","type":"uint256"}],"name":"isPort","outputs":[{"internalType":"bool","name":"","type":"bool"}],"stateMutability":"pure","type":"function"},{"inputs":[{"internalType":"address","name":"player","type":"address"}],"name":"isRepairReady","outputs":[{"internalType":"bool","name":"","type":"bool"}],"stateMutability":"view","type":"function"},{"inputs":[],"name":"nextUpgradeId","outputs":[{"internalType":"uint256","name":"","type":"uint256"}],"stateMutability":"view","type":"function"},{"inputs":[],"name":"owner","outputs":[{"internalType":"address","name":"","type":"address"}],"stateMutability":"view","type":"function"},{"inputs":[{"internalType":"uint256","name":"","type":"uint256"}],"name":"players","outputs":[{"internalType":"address","name":"","type":"address"}],"stateMutability":"view","type":"function"},{"inputs":[{"internalType":"address","name":"","type":"address"},{"internalType":"uint256","name":"","type":"uint256"}],"name":"purchaseCounts","outputs":[{"internalType":"uint256","name":"","type":"uint256"}],"stateMutability":"view","type":"function"},{"inputs":[],"name":"renounceOwnership","outputs":[],"stateMutability":"nonpayable","type":"function"},{"inputs":[{"internalType":"enum SeasOfLinkardia.RepairType","name":"repairType","type":"uint8"}],"name":"repairShip","outputs":[],"stateMutability":"nonpayable","type":"function"},{"inputs":[],"name":"rescueXTZ","outputs":[],"stateMutability":"nonpayable","type":"function"},{"inputs":[{"internalType":"address","name":"newOwner","type":"address"}],"name":"transferOwnership","outputs":[],"stateMutability":"nonpayable","type":"function"},{"inputs":[{"internalType":"uint256","name":"toLocation","type":"uint256"},{"internalType":"bool","name":"fast","type":"bool"}],"name":"travel","outputs":[],"stateMutability":"payable","type":"function"},{"inputs":[{"internalType":"uint256","name":"","type":"uint256"}],"name":"upgrades","outputs":[{"internalType":"string","name":"name","type":"string"},{"internalType":"uint256","name":"cost","type":"uint256"},{"internalType":"uint256","name":"gpmBonus","type":"uint256"},{"internalType":"uint256","name":"maxHpBonus","type":"uint256"},{"internalType":"uint256","name":"speedBonus","type":"uint256"},{"internalType":"uint256","name":"attackBonus","type":"uint256"},{"internalType":"uint256","name":"defenseBonus","type":"uint256"},{"internalType":"uint256","name":"maxCrewBonus","type":"uint256"}],"stateMutability":"view","type":"function"},{"stateMutability":"payable","type":"receive"}],"evm":{"bytecode":{"linkReferences":{},"object":"6080806040523461007e5733156100685760008054336001600160a01b03198216811783556040519290916001600160a01b0316907f8be0079c531659141344cd1fd0a4f28419497f9722a3daafe3b4186f6b6457e09080a3600180556131d890816100848239f35b631e4fbdf760e01b815260006004820152602490fd5b600080fdfe6101406040526004361015610140575b361561001a57600080fd5b610022612a8a565b34678ac7230489e80000036100cd5760015b33600052600260205261005060036040600020019182546125a7565b905561005a612ccb565b610062612e98565b9061006b613004565b916000808080673782dace9d90000060018060a01b0380971682f1156100c15760008080671bc16d674ec800008582951682f1156100c15760008080670de0b6b3a76400008194861682f1156100c15760018055005b6040513d6000823e3d90fd5b34680270801d946c940000036100e4576005610034565b346804e1003b28d9280000036100fb57600a610034565b60405162461bcd60e51b815260206004820152601760248201527f496e76616c6964206469616d6f6e64207061636b6167650000000000000000006044820152606490fd5b60003560e01c80630afbcea5146122cf5780631771ec6314612172578063183ff0851461203857806324aa225b14612010578063328ef05114611ec157806335d9389714611e795780634c8df03714611e56578063541c155a14611c035780635722bb5114611b975780635e5c06e214611a275780636878012514611a04578063715018a6146119ab5780637386bbc51461191a57806374aa3a981461169d5780638da5cb5b14611674578063a5a2cb19146114eb578063ab2611ee1461107d578063b7df5b5d14610d65578063be4becd314610c0e578063bea2dc1414610a3d578063d018db3e146106ab578063d2fabb181461068d578063d4826b6c14610653578063d85bf0b114610628578063ece2e4ba146103ba578063f2fde38b1461032c578063f71d96cb146102ea5763fa470f850361000f57346102e55760203660031901126102e5576001600160a01b0361029a612311565b1660005260026020526020604060002060048101541590816102d7575b816102c8575b506040519015158152f35b601291500154421015386102bd565b6012810154151591506102b7565b600080fd5b346102e55760203660031901126102e5576004356006548110156102e55761031360209161255a565b905460405160039290921b1c6001600160a01b03168152f35b346102e55760203660031901126102e557610345612311565b61034d612be1565b6001600160a01b039081169081156103a157600054826bffffffffffffffffffffffff60a01b821617600055167f8be0079c531659141344cd1fd0a4f28419497f9722a3daafe3b4186f6b6457e0600080a3005b604051631e4fbdf760e01b815260006004820152602490fd5b346102e557610100806003193601126102e55760043567ffffffffffffffff81116102e5576103ed9036906004016124bb565b6103f5612be1565b60405192830183811067ffffffffffffffff8211176106125760405261041c368284612971565b8352602435602084015260443560408401526064356060840152608435608084015260a43560a084015260c43560c084015260e43560e084015260055460005260036020526040600020835180519067ffffffffffffffff821161061257610484835461234f565b601f81116105ce575b50602090601f831160011461055c57958260079360e09361054c99600092610551575b50508160011b916000199060031b1c19161784555b6020810151600185015560408101516002850155606081015160038501556080810151600485015560a0810151600585015560c0810151600685015501519101557fbce75db7677467da57e0a1c1497e4a7c42d79d4071dbb0578df54307e986fe076005549283926105446040519283926020845260208401916129b8565b0390a2612962565b600555005b0151905089806104b0565b908360005260206000209160005b601f19851681106105b657508360e09361054c9993600193600797601f1981161061059d575b505050811b0184556104c5565b015160001960f88460031b161c19169055898080610590565b9192602060018192868501518155019401920161056a565b836000526020600020601f840160051c81016020851061060b575b601f830160051c820181106105ff57505061048d565b600081556001016105e9565b50806105e9565b634e487b7160e01b600052604160045260246000fd5b346102e55760203660031901126102e557602061064b610646612311565b612a37565b604051908152f35b346102e55760003660031901126102e55761066c612be1565b600080808047818115610684575b3390f1156100c157005b506108fc61067a565b346102e55760003660031901126102e5576020600554604051908152f35b346102e5576020806003193601126102e5576106c5612311565b906106ce612a8a565b336000526002815260406000209160018060a01b03169081600052604060002060048401918254151580610a30575b156109f65760019460ff868201541660ff87850154161515901515146109be57600b810190815493600b8101948554810361098157601083015442101580610973575b156109425761074e90612735565b6108f25760078201546008820154808211156108e85761076d91612728565b945b60078201546008840154808211156108df5761078a91612728565b60048301805490978181106108cf575050600087555b8754908181106108bf575050600087555b6000955415610817575b50507f1d099e3da7a64d91bf9ed0e41aceaf6a8e2c1fc0d072ef2779f2ea6988d27988939454156107f8575b505060405192151583523392a38055005b866009820155600f4291015561080e8154612c0d565b905585806107e7565b90945087600986015542600f8601556108308154612c0d565b90556009810154936032850294808604603214901517156108a95760020180547f1d099e3da7a64d91bf9ed0e41aceaf6a8e2c1fc0d072ef2779f2ea6988d279889591908083116108a1575b8261088691612728565b9055610897600283019182546125a7565b90558693886107bb565b91508161087c565b634e487b7160e01b600052601160045260246000fd5b6108c891612728565b87556107b1565b6108d891612728565b87556107a0565b5050600061078a565b505060009461076f565b60405162461bcd60e51b815260048101859052602260248201527f43616e6e6f742061747461636b20617420706f727473202d2073616665206172604482015261656160f01b6064820152608490fd5b60405162461bcd60e51b8152600481018690526009602482015268125b881d1c985d995b60ba1b6044820152606490fd5b506010820154421015610740565b60405162461bcd60e51b815260048101869052601560248201527426bab9ba1031329039b0b6b2903637b1b0ba34b7b760591b6044820152606490fd5b60405162461bcd60e51b815260048101839052601060248201526f29b0b6b29030b33334b634b0ba34b7b760811b6044820152606490fd5b6064906040519062461bcd60e51b82526004820152601360248201527213db99481cda1a5c081a5cc81ddc9958dad959606a1b6044820152fd5b50600482015415156106fd565b346102e55760203660031901126102e55760065460043580821015610c095750805b610a68816129f1565b90610a72816129f1565b9260005b818110610aab57610a9984610aa7876040519384936040855260408501906124e9565b908382036020850152612526565b0390f35b610ab48161255a565b905460018060a01b039160031b1c16600052610b37600280602052610b09600660406000200154610ae48561255a565b60018060a01b0391549060031b1c1660005282602052600760406000200154906125a7565b90610b138461255a565b60018060a01b0391549060031b1c16600052602052600860406000200154906125a7565b60005b848110610b4c575b5050600101610a76565b610b568188612a23565b518211610b6557600101610b3a565b60001985018581116108a9575b818111610bb2575090610baa8392610b8b60019561255a565b868060a01b0391549060031b1c16610ba3828a612a23565b5288612a23565b529086610b42565b806000198101116108a9576001600160a01b03610bd3600019830189612a23565b5116610bdf8289612a23565b52610bee600019820189612a23565b51610bf9828a612a23565b5280156108a95760001901610b72565b610a5f565b346102e55760003660031901126102e557610c27612a8a565b3360005260026020526040600020610c44600482015415156126ed565b610c51600b820154612735565b15610d2c5760098101908154600a82019081541115610ce757610c7333612aad565b54610c7f835482612728565b92600a840292848404600a14851517156108a957600201610cad848254610ca88282101561288e565b612728565b90555560405191825260208201527f868567670ec4defb3adfce8655df1b0aafa7f429cdb1f700ffe925b1aa98356060403392a260018055005b60405162461bcd60e51b815260206004820152601760248201527f4372657720616c7265616479206174206d6178696d756d0000000000000000006044820152606490fd5b60405162461bcd60e51b8152602060048201526011602482015270135d5cdd08189948185d0818481c1bdc9d607a1b6044820152606490fd5b346102e5576020806003193601126102e55760068054916000919060043590835b858110610fef5750610d97846129f1565b94610da1856129d9565b93610daf60405195866123a5565b858552610dbb866129d9565b601f199690870160005b818110610fe0575050610dd7906129f1565b9360009060005b848110610e6f57610e01898b8a8a8a6040519586946060865260608601906124e9565b908482038186015283519182815281810182808560051b8401019601976000925b858410610e3d578880610aa78a8a8382036040850152612526565b91938080979950610e5b898486600196989a9c030188528c5161246c565b9a0194019401918997959398969491610e22565b89610e7d829a98999a61255a565b919060018060a01b03809154600394851b1c1660005288878d60029485845288600b604060002001541480610fb7575b610ec5575b5050505050505060010197969597610dde565b8786889587610f5c8e9a97859f8060019f99610faa9f99610f02610f9a9f9c9488610f769d610ef6610f379861255a565b9054911b1c1692612a23565b52858d610f0e8b61255a565b9054911b1c16600052878752610f2760406000206123c7565b610f318383612a23565b52612a23565b5082610f428761255a565b9054908c1b1c16600052848452604060002001549461255a565b905490891b1c1660005252600760406000200154906125a7565b92610f808a61255a565b9054911b1c166000528a52600860406000200154906125a7565b610fa4828c612a23565b52612962565b92908b8088878d8f610eb2565b5084610fc28961255a565b905490891b1c16600052858452601060406000200154421015610ead565b60608882018701528501610dc5565b610ffc819593949561255a565b9060018060a01b03809154600393841b1c1660005260029081855286600b60406000200154149283611051575b50505061103d575b60010193929193610d86565b91611049600191612962565b929050611031565b9091925061105e8461255a565b9054911b1c166000528252601060406000200154421015878080611029565b346102e55760603660031901126102e55760043567ffffffffffffffff81116102e5576110ae9036906004016124bb565b906110b76124ac565b91801515806114e0575b1561149b57606480604435116114605733600052600260205260406000206004810154159081611453575b501561141b5760405190610260820182811067ffffffffffffffff8211176106125760405261111c368486612971565b825284151560208301528060408301526000606083015280608083015260a0820152600160c0820152600160e082015260016101008201526001610120820152600a610140820152604435610160820152600061018082015260006101a082015260006101c082015260006101e08201526000610200820152426102208201526000610240820152336000526002602052604060002090805180519067ffffffffffffffff8211610612576111d1845461234f565b601f81116113d7575b50602090601f8311600114611367579180601294926102409460009261135c575b50508160011b916000199060031b1c19161784555b600184016020820151151560ff8019835416911617905560408101516002850155606081015160038501556080810151600485015560a0810151600585015560c0810151600685015560e0810151600785015561010081015160088501556101208101516009850155610140810151600a850155610160810151600b850155610180810151600c8501556101a0810151600d8501556101c0810151600e8501556101e0810151600f85015561020081015160108501556102208101516011850155015191015560065468010000000000000000811015610612577f47456e7ec68e981a8f02d9c9528370adea595c1b26225be6797e6d441c47fc029261131f82600161134c940160065561255a565b81546001600160a01b0360039290921b91821b19163390911b1790556040805181815293908401916129b8565b92151560208201528033930390a2005b0151905089806111fb565b908460005260206000209160005b601f19851681106113bf575092601294926001926102409583601f198116106113a6575b505050811b018455611210565b015160001960f88460031b161c19169055898080611399565b91926020600181928685015181550194019201611375565b846000526020600020601f840160051c810160208510611414575b601f830160051c820181106114085750506111da565b600081556001016113f2565b50806113f2565b60405162461bcd60e51b8152602060048201526013602482015272105b1c9958591e481a185cc81858d8dbdd5b9d606a1b6044820152fd5b60099150015415856110ec565b60405162461bcd60e51b815260206004820152601660248201527504c6f636174696f6e206d75737420626520302d3130360541b6044820152fd5b60405162461bcd60e51b815260206004820152601860248201527f426f6174206e616d6520696e76616c6964206c656e67746800000000000000006044820152606490fd5b50600c8111156110c1565b346102e5576020806003193601126102e55760043590611509612a8a565b816000526003815260096007604060002033600052600284526040600020936115646001830161153b815415156128cc565b61154433612aad565b336000526004835260406000208860005283526040600020549054612b6d565b61157a60028701918254610ca88282101561288e565b905533600052600481526040600020908660005252604060002061159e8154612962565b905560028101546115b4600c86019182546125a7565b90556003810180546115cb600587019182546125a7565b9055546115dd600486019182546125a7565b905560048101546115f3600686019182546125a7565b905560058101546116088386019182546125a7565b9055600681015461161e600886019182546125a7565b9055015491611632600a82019384546125a7565b809355018181541161166c575b82337fcf52c8aa8ed6b7d560b4e75db6ab973723de269d5580985c8880844d4ed6d7c0600080a360018055005b55818061163f565b346102e55760003660031901126102e5576000546040516001600160a01b039091168152602090f35b60403660031901126102e5576004356116b46124ac565b6116bc612a8a565b336000526020600281526040600020906116db600483015415156126ed565b6010820191825442106118e157606485116118a957600b8101908154808714611874578681811115611866579061171191612728565b610e1090818102908082048314811517156108a95760068401549061012c918281029281840414901517156108a957611749916125b4565b81811061185857505060005b861561180f5704908115611806575b346117cf57600301805487939261178191610ca88282101561284c565b905561178f60005b426125a7565b80945555604051938452830152151560408201527f9782a86993c9e75e77fdbba3381a28a46e4f356e9516e67313bd4bd859c88a3f60603392a260018055005b60405162461bcd60e51b815260048101859052600f60248201526e14185e481d9a5848191a585b5bdb99608a1b6044820152606490fd5b60019150611764565b91505034611822579061178f8692611789565b60405162461bcd60e51b815260048101849052600e60248201526d2237b713ba1039b2b732102c2a2d60911b6044820152606490fd5b61186191612728565b611755565b61186f91612728565b611711565b60405162461bcd60e51b815260048101859052600d60248201526c29b0b6b2903637b1b0ba34b7b760991b6044820152606490fd5b60405162461bcd60e51b815260048101839052601060248201526f131bd8d85d1a5bdb881a5b9d985b1a5960821b6044820152606490fd5b60405162461bcd60e51b8152600481018390526011602482015270416c72656164792074726176656c696e6760781b6044820152606490fd5b346102e55760203660031901126102e55760043560005260036020526119836040600020611947816123c7565b90600181015490600281015490600381015460048201546005830154916007600685015494015494604051988998610100808b528a019061246c565b96602089015260408801526060870152608086015260a085015260c084015260e08301520390f35b346102e55760003660031901126102e5576119c4612be1565b600080546001600160a01b0319811682556001600160a01b03167f8be0079c531659141344cd1fd0a4f28419497f9722a3daafe3b4186f6b6457e08280a3005b346102e55760203660031901126102e557602061064b611a22612311565b61290c565b346102e55760203660031901126102e5576001600160a01b03611a48612311565b1660005260026020526040600020611a5f816123c7565b90600181015460ff1660e05260028101546101005260038101546101205260048101549160058201546006830154600784015460088501546009860154600a87015490600b88015492600c89015494600d8a015496600e8b015498600f8c01549a60108d01549c60118101546080526012015460a05260405160c0526102608060c0515260c05101611af09161246c565b9c60e051151560c051602001526101005160c051604001526101205160c0516060015260c0516080015260c05160a0015260c05160c0015260c05160e0015260c051610100015260c051610120015260c051610140015260c051610160015260c051610180015260c0516101a0015260c0516101c0015260c0516101e0015260c051610200015260805160c051610220015260a05160c051610240015260c051900360c051f35b346102e55760403660031901126102e5576024356001600160a01b03811690600435908290036102e5576020918161064b926000526003845260016040600020015491611be58315156128cc565b60005260048452604060002090600052835260406000205490612b6d565b346102e5576020806003193601126102e5576004359060038210156102e557611c2a612a8a565b33600052600281526040600020611c4560048201541561275e565b601281019182544210611e1d57611c5f600b830154612735565b15611de757604051630afbcea560e01b815233600482015260009283919060c082602481305afa9182156100c157600090600093611d9e575b5060009388611d07575050505193611cb085426125a7565b90555b611cf15760405193845283015260408201527fceaf11028a962cac404996bd00df91db254d60670b1d4c940eb519227e998b3760603392a260018055005b634e487b7160e01b600052602160045260246000fd5b9091969295935060009360018914600014611d585750508380600292015195015195611d3233612aad565b01611d45858254610ca88282101561288e565b9055611d5185426125a7565b9055611cb3565b9550959190925060009260028814611d73575b505050611cb3565b600391929550604001519401611d91858254610ca88282101561284c565b9055429055858080611d6b565b92505060c03d60c011611de0575b611db681846123a5565b820160c0838203126102e557806060611dd2611dd99386612807565b9401612807565b9188611c98565b503d611dac565b6064906040519062461bcd60e51b82526004820152600f60248201526e135d5cdd08189948185d081c1bdc9d608a1b6044820152fd5b6064906040519062461bcd60e51b82526004820152601260248201527152657061697220696e2070726f677265737360701b6044820152fd5b346102e55760203660031901126102e557602061064b611e74612311565b61279d565b346102e55760403660031901126102e5576001600160a01b03611e9a612311565b16600052600460205260406000206024356000526020526020604060002054604051908152f35b346102e55760003660031901126102e557611eda612a8a565b336000526002602052604060002060048101611ef781541561275e565b6012820190815490814210611fd8578115611f9b5760058401548091556000600f850155601881018091116108a9576019900490610708918281029281840414901517156108a957603b1982019182116108a95710611f8957600a82015491600183018093116108a95760016009600094821c92019180835510611f7f575b505b5560018055005b6001905582611f76565b816009600a6000940154910155611f78565b60405162461bcd60e51b81526020600482015260156024820152744e6f2072657061697220696e2070726f677265737360581b6044820152606490fd5b60405162461bcd60e51b815260206004820152601060248201526f526570616972206e6f7420726561647960801b6044820152606490fd5b346102e55760203660031901126102e557602061202e600435612735565b6040519015158152f35b346102e55760003660031901126102e5573360005260026020526040600020612066600482015415156126ed565b62015180804204600d8301918254048181101561212d5760001982019182116108a9570361212157600e8201805490600182018092116108a957555b4290556009810154906019820291808304601914901517156108a957600e8101549182600502906005820484036108a9576002916120df916125a7565b91016120ec8282546125a7565b905560405191825260208201527fb9cfea4717f167774a6e8643c33472935d3ef918453525eefca6936078b7cfdd60403392a2005b6001600e8301556120a2565b60405162461bcd60e51b815260206004820152601860248201527f416c726561647920636865636b656420696e20746f64617900000000000000006044820152606490fd5b346102e55760003660031901126102e55761218b612a8a565b33600052600260205260406000206121a8600482015415156126ed565b600c810154801561229857601182016121c2815442612728565b918215612261576121d790603c8404906125b4565b92831561222957600291429055016121f08382546125a7565b905560405191825260208201527f6ed0c81f2eb08ca19cf12aab8dfa5d3566d3140926b3e0035b8423029996c18560403392a260018055005b60405162461bcd60e51b815260206004820152601060248201526f4e6f20676f6c6420746f20636c61696d60801b6044820152606490fd5b60405162461bcd60e51b815260206004820152600f60248201526e139bc81d1a5b5948195b185c1cd959608a1b6044820152606490fd5b60405162461bcd60e51b815260206004820152600f60248201526e4e6f2047504d20746f20636c61696d60881b6044820152606490fd5b346102e55760203660031901126102e55760c061230f6122f56122f0612311565b6125c7565b6123056040939293518094612327565b6060830190612327565bf35b600435906001600160a01b03821682036102e557565b6000915b6003831061233857505050565b60019082518152602080910192019201919061232b565b90600182811c9216801561237f575b602083101461236957565b634e487b7160e01b600052602260045260246000fd5b91607f169161235e565b6060810190811067ffffffffffffffff82111761061257604052565b90601f8019910116810190811067ffffffffffffffff82111761061257604052565b906040519182600082546123da8161234f565b9081845260209460019160018116908160001461244a575060011461240b575b505050612409925003836123a5565b565b600090815285812095935091905b81831061243257505061240993508201013880806123fa565b85548884018501529485019487945091830191612419565b9250505061240994925060ff191682840152151560051b8201013880806123fa565b919082519283825260005b848110612498575050826000602080949584010152601f8019910116010190565b602081830181015184830182015201612477565b6024359081151582036102e557565b9181601f840112156102e55782359167ffffffffffffffff83116102e557602083818601950101116102e557565b90815180825260208080930193019160005b828110612509575050505090565b83516001600160a01b0316855293810193928101926001016124fb565b90815180825260208080930193019160005b828110612546575050505090565b835185529381019392810192600101612538565b6006548110156125915760066000527ff652222313e28459528d920b65115c16c04f3efc82aaedc97be59f3f377c0d3f0190600090565b634e487b7160e01b600052603260045260246000fd5b919082018092116108a957565b818102929181159184041417156108a957565b90604080516125d581612389565b60603682379080516125e681612389565b60603682376001600160a01b039094166000908152600260205281812060048101546126b25760050154906018820180831161268a57601990046107088082028215918382041482171561269e57885261012c80830292830414171561268a5760208701528083870152808452601482029180830460141490151715612676575060208301526001908201529190565b634e487b7160e01b81526011600452602490fd5b634e487b7160e01b82526011600452602482fd5b634e487b7160e01b84526011600452602484fd5b50915080935051906126c382612389565b80825280602083015280848301528351936126dd85612389565b8185528160208601528401529190565b156126f457565b60405162461bcd60e51b815260206004820152600c60248201526b14da1a5c081ddc9958dad95960a21b6044820152606490fd5b919082039182116108a957565b60198114908115612753575b811561274b575090565b605991501490565b603781149150612741565b1561276557565b60405162461bcd60e51b815260206004820152601060248201526f14da1a5c081b9bdd081ddc9958dad95960821b6044820152606490fd5b6001600160a01b0316600090815260026020526040902060048101541580156127f5575b6127ef57806009600a6127d993015491015490612728565b600a810290808204600a14901517156108a95790565b50600090565b506009810154600a82015411156127c1565b9080601f830112156102e5576040519161282083612389565b8290606081019283116102e557905b82821061283c5750505090565b815181526020918201910161282f565b1561285357565b60405162461bcd60e51b81526020600482015260136024820152724e6f7420656e6f756768206469616d6f6e647360681b6044820152606490fd5b1561289557565b60405162461bcd60e51b815260206004820152600f60248201526e139bdd08195b9bdd59da0819dbdb19608a1b6044820152606490fd5b156128d357565b60405162461bcd60e51b8152602060048201526011602482015270155c19dc985919481b9bdd08195e1a5cdd607a1b6044820152606490fd5b6001600160a01b031660009081526002602052604090206004810154158015612956575b6127ef5780600c603c61294a601161295395015442612728565b049101546125b4565b90565b50600c81015415612930565b60001981146108a95760010190565b92919267ffffffffffffffff8211610612576040519161299b601f8201601f1916602001846123a5565b8294818452818301116102e5578281602093846000960137010152565b908060209392818452848401376000828201840152601f01601f1916010190565b67ffffffffffffffff81116106125760051b60200190565b906129fb826129d9565b612a0860405191826123a5565b8281528092612a19601f19916129d9565b0190602036910137565b80518210156125915760209160051b010190565b6001600160a01b031660009081526002602052604090206004810154158015612a7e575b6127ef57612a6f6011603c92015442612728565b06603c03603c81116108a95790565b50600c81015415612a5b565b600260015414612a9b576002600155565b604051633ee5aeb560e01b8152600490fd5b6001600160a01b031660008181526002602052604090206004810154158015612b61575b612b5d576011810190612ae5825442612728565b8015612b5757612afc603c8204600c8401546125b4565b9081612b0a575b5050505050565b60026040937f6ed0c81f2eb08ca19cf12aab8dfa5d3566d3140926b3e0035b8423029996c1859542905501612b408382546125a7565b905582519182526020820152a23880808080612b03565b50505050565b5050565b50600c81015415612ad1565b8115612bdc576001916001926000915b808310612ba7575050508115612b91570490565b634e487b7160e01b600052601260045260246000fd5b90919392600f908181029181830414901517156108a95792600a908181029181830414901517156108a9579382019190612b7d565b905090565b6000546001600160a01b03163303612bf557565b60405163118cdaa760e01b8152336004820152602490fd5b60006019821115612cb7575060181981018181116108a957905b60006037821115612ca3575060361981018181116108a957905b60006059821115612c8f575060581981019081116108a957915b82828211159182612c84575b505015612c75575050601990565b11612c7f57603790565b605990565b111590508238612c67565b906059039060598211612676575091612c5b565b816037039060378211612676575090612c41565b816019039060198211612676575090612c27565b6006805460019081811015612e9057805b612ce5826129f1565b93612cef836129f1565b9060005b838110612d2e575050505050508051158015612d1a5750506000546001600160a01b031690565b61259157602001516001600160a01b031690565b80612d39879261255a565b9060018060a01b03809154600393841b1c16600052612dae60026008602091808352604090612d8d8a83600020015487612d728b61255a565b9054908b1b1c166000528286526007846000200154906125a7565b9386612d988a61255a565b9054908a1b1c16600052526000200154906125a7565b9160005b898110612dc4575b5050505001612cf3565b612dd48189979394959697612a23565b518511612de75701908994939291612db2565b929190506000198981018a81116108a957908b9695949392915b848111612e3a57505090612e309291612e198661255a565b9054911b1c16612e29828d612a23565b5286612a23565b5238808080612dba565b90809293949596975081018181116108a957808e612e688488612e60612e6f9685612a23565b511692612a23565b528a612a23565b51612e7a828b612a23565b5280156108a9578101908b969594939291612e01565b600190612cdc565b6006805460029081811015612ffc5780915b612eb3836129f1565b93612ebd846129f1565b9160005b848110612f0157505050505050805160018111612ee95750506000546001600160a01b031690565b6001101561259157604001516001600160a01b031690565b612f0a8161255a565b9060018060a01b03809154600393841b1c16600052612f4060208581526008604087612d8d8a83600020015487612d728b61255a565b9160005b898110612f58575b50505050600101612ec1565b612f628189612a23565b518411612f7157600101612f44565b91906000198a81018b81116108a9575b848111612fbe57505091612fb491859493612f9d60019761255a565b9054911b1c16612fad828d612a23565b5287612a23565b5290388080612f4c565b8181018181116108a957808e612fdc8488612e60612fe39685612a23565b528b612a23565b51612fee828c612a23565b5280156108a9578101612f81565b600291612eaa565b600680546003908181101561319c5780915b61301f836129f1565b93613029846129f1565b9060005b84811061306d575050505050508051600281116130555750506000546001600160a01b031690565b6002101561259157606001516001600160a01b031690565b6130768161255a565b9060018060a01b039182915490871b1c166000526130ea600260086020918083526040906130c988836000200154878c6130af8b61255a565b9054911b1c166000528286526007846000200154906125a7565b93866130d48961255a565b9054908d1b1c16600052526000200154906125a7565b9060005b888110613101575b50505060010161302d565b61310b8187612a23565b51831161311a576001016130ee565b906000198981018a81116108a9575b83811161315e5750508392916131559161314460019661255a565b9054908a1b1c16612e29828d612a23565b529038806130f6565b8181018181116108a957808d61317c8487612e606131839685612a23565b5289612a23565b5161318e828a612a23565b5280156108a9578101613129565b8161301656fea2646970667358221220701172111a24c60b5f2d4475ad81dc47c7bf948e18e06778b5cf49cbb25d5fa864736f6c63430008180033","opcodes":"PUSH1 0x80 DUP1 PUSH1 0x40 MSTORE CALLVALUE PUSH2 0x7E JUMPI CALLER ISZERO PUSH2 0x68 JUMPI PUSH1 0x0 DUP1 SLOAD CALLER PUSH1 0x1 PUSH1 0x1 PUSH1 0xA0 SHL SUB NOT DUP3 AND DUP2 OR DUP4 SSTORE PUSH1 0x40 MLOAD SWAP3 SWAP1 SWAP2 PUSH1 0x1 PUSH1 0x1 PUSH1 0xA0 SHL SUB AND SWAP1 PUSH32 0x8BE0079C531659141344CD1FD0A4F28419497F9722A3DAAFE3B4186F6B6457E0 SWAP1 DUP1 LOG3 PUSH1 0x1 DUP1 SSTORE PUSH2 0x31D8 SWAP1 DUP2 PUSH2 0x84 DUP3 CODECOPY RETURN JUMPDEST PUSH4 0x1E4FBDF7 PUSH1 0xE0 SHL DUP2 MSTORE PUSH1 0x0 PUSH1 0x4 DUP3 ADD MSTORE PUSH1 0x24 SWAP1 REVERT JUMPDEST PUSH1 0x0 DUP1 REVERT INVALID PUSH2 0x140 PUSH1 0x40 MSTORE PUSH1 0x4 CALLDATASIZE LT ISZERO PUSH2 0x140 JUMPI JUMPDEST CALLDATASIZE ISZERO PUSH2 0x1A JUMPI PUSH1 0x0 DUP1 REVERT JUMPDEST PUSH2 0x22 PUSH2 0x2A8A JUMP JUMPDEST CALLVALUE PUSH8 0x8AC7230489E80000 SUB PUSH2 0xCD JUMPI PUSH1 0x1 JUMPDEST CALLER PUSH1 0x0 MSTORE PUSH1 0x2 PUSH1 0x20 MSTORE PUSH2 0x50 PUSH1 0x3 PUSH1 0x40 PUSH1 0x0 KECCAK256 ADD SWAP2 DUP3 SLOAD PUSH2 0x25A7 JUMP JUMPDEST SWAP1 SSTORE PUSH2 0x5A PUSH2 0x2CCB JUMP JUMPDEST PUSH2 0x62 PUSH2 0x2E98 JUMP JUMPDEST SWAP1 PUSH2 0x6B PUSH2 0x3004 JUMP JUMPDEST SWAP2 PUSH1 0x0 DUP1 DUP1 DUP1 PUSH8 0x3782DACE9D900000 PUSH1 0x1 DUP1 PUSH1 0xA0 SHL SUB DUP1 SWAP8 AND DUP3 CALL ISZERO PUSH2 0xC1 JUMPI PUSH1 0x0 DUP1 DUP1 PUSH8 0x1BC16D674EC80000 DUP6 DUP3 SWAP6 AND DUP3 CALL ISZERO PUSH2 0xC1 JUMPI PUSH1 0x0 DUP1 DUP1 PUSH8 0xDE0B6B3A7640000 DUP2 SWAP5 DUP7 AND DUP3 CALL ISZERO PUSH2 0xC1 JUMPI PUSH1 0x1 DUP1 SSTORE STOP JUMPDEST PUSH1 0x40 MLOAD RETURNDATASIZE PUSH1 0x0 DUP3 RETURNDATACOPY RETURNDATASIZE SWAP1 REVERT JUMPDEST CALLVALUE PUSH9 0x270801D946C940000 SUB PUSH2 0xE4 JUMPI PUSH1 0x5 PUSH2 0x34 JUMP JUMPDEST CALLVALUE PUSH9 0x4E1003B28D9280000 SUB PUSH2 0xFB JUMPI PUSH1 0xA PUSH2 0x34 JUMP JUMPDEST PUSH1 0x40 MLOAD PUSH3 0x461BCD PUSH1 0xE5 SHL DUP2 MSTORE PUSH1 0x20 PUSH1 0x4 DUP3 ADD MSTORE PUSH1 0x17 PUSH1 0x24 DUP3 ADD MSTORE PUSH32 0x496E76616C6964206469616D6F6E64207061636B616765000000000000000000 PUSH1 0x44 DUP3 ADD MSTORE PUSH1 0x64 SWAP1 REVERT JUMPDEST PUSH1 0x0 CALLDATALOAD PUSH1 0xE0 SHR DUP1 PUSH4 0xAFBCEA5 EQ PUSH2 0x22CF JUMPI DUP1 PUSH4 0x1771EC63 EQ PUSH2 0x2172 JUMPI DUP1 PUSH4 0x183FF085 EQ PUSH2 0x2038 JUMPI DUP1 PUSH4 0x24AA225B EQ PUSH2 0x2010 JUMPI DUP1 PUSH4 0x328EF051 EQ PUSH2 0x1EC1 JUMPI DUP1 PUSH4 0x35D93897 EQ PUSH2 0x1E79 JUMPI DUP1 PUSH4 0x4C8DF037 EQ PUSH2 0x1E56 JUMPI DUP1 PUSH4 0x541C155A EQ PUSH2 0x1C03 JUMPI DUP1 PUSH4 0x5722BB51 EQ PUSH2 0x1B97 JUMPI DUP1 PUSH4 0x5E5C06E2 EQ PUSH2 0x1A27 JUMPI DUP1 PUSH4 0x68780125 EQ PUSH2 0x1A04 JUMPI DUP1 PUSH4 0x715018A6 EQ PUSH2 0x19AB JUMPI DUP1 PUSH4 0x7386BBC5 EQ PUSH2 0x191A JUMPI DUP1 PUSH4 0x74AA3A98 EQ PUSH2 0x169D JUMPI DUP1 PUSH4 0x8DA5CB5B EQ PUSH2 0x1674 JUMPI DUP1 PUSH4 0xA5A2CB19 EQ PUSH2 0x14EB JUMPI DUP1 PUSH4 0xAB2611EE EQ PUSH2 0x107D JUMPI DUP1 PUSH4 0xB7DF5B5D EQ PUSH2 0xD65 JUMPI DUP1 PUSH4 0xBE4BECD3 EQ PUSH2 0xC0E JUMPI DUP1 PUSH4 0xBEA2DC14 EQ PUSH2 0xA3D JUMPI DUP1 PUSH4 0xD018DB3E EQ PUSH2 0x6AB JUMPI DUP1 PUSH4 0xD2FABB18 EQ PUSH2 0x68D JUMPI DUP1 PUSH4 0xD4826B6C EQ PUSH2 0x653 JUMPI DUP1 PUSH4 0xD85BF0B1 EQ PUSH2 0x628 JUMPI DUP1 PUSH4 0xECE2E4BA EQ PUSH2 0x3BA JUMPI DUP1 PUSH4 0xF2FDE38B EQ PUSH2 0x32C JUMPI DUP1 PUSH4 0xF71D96CB EQ PUSH2 0x2EA JUMPI PUSH4 0xFA470F85 SUB PUSH2 0xF JUMPI CALLVALUE PUSH2 0x2E5 JUMPI PUSH1 0x20 CALLDATASIZE PUSH1 0x3 NOT ADD SLT PUSH2 0x2E5 JUMPI PUSH1 0x1 PUSH1 0x1 PUSH1 0xA0 SHL SUB PUSH2 0x29A PUSH2 0x2311 JUMP JUMPDEST AND PUSH1 0x0 MSTORE PUSH1 0x2 PUSH1 0x20 MSTORE PUSH1 0x20 PUSH1 0x40 PUSH1 0x0 KECCAK256 PUSH1 0x4 DUP2 ADD SLOAD ISZERO SWAP1 DUP2 PUSH2 0x2D7 JUMPI JUMPDEST DUP2 PUSH2 0x2C8 JUMPI JUMPDEST POP PUSH1 0x40 MLOAD SWAP1 ISZERO ISZERO DUP2 MSTORE RETURN JUMPDEST PUSH1 0x12 SWAP2 POP ADD SLOAD TIMESTAMP LT ISZERO CODESIZE PUSH2 0x2BD JUMP JUMPDEST PUSH1 0x12 DUP2 ADD SLOAD ISZERO ISZERO SWAP2 POP PUSH2 0x2B7 JUMP JUMPDEST PUSH1 0x0 DUP1 REVERT JUMPDEST CALLVALUE PUSH2 0x2E5 JUMPI PUSH1 0x20 CALLDATASIZE PUSH1 0x3 NOT ADD SLT PUSH2 0x2E5 JUMPI PUSH1 0x4 CALLDATALOAD PUSH1 0x6 SLOAD DUP2 LT ISZERO PUSH2 0x2E5 JUMPI PUSH2 0x313 PUSH1 0x20 SWAP2 PUSH2 0x255A JUMP JUMPDEST SWAP1 SLOAD PUSH1 0x40 MLOAD PUSH1 0x3 SWAP3 SWAP1 SWAP3 SHL SHR PUSH1 0x1 PUSH1 0x1 PUSH1 0xA0 SHL SUB AND DUP2 MSTORE RETURN JUMPDEST CALLVALUE PUSH2 0x2E5 JUMPI PUSH1 0x20 CALLDATASIZE PUSH1 0x3 NOT ADD SLT PUSH2 0x2E5 JUMPI PUSH2 0x345 PUSH2 0x2311 JUMP JUMPDEST PUSH2 0x34D PUSH2 0x2BE1 JUMP JUMPDEST PUSH1 0x1 PUSH1 0x1 PUSH1 0xA0 SHL SUB SWAP1 DUP2 AND SWAP1 DUP2 ISZERO PUSH2 0x3A1 JUMPI PUSH1 0x0 SLOAD DUP3 PUSH12 0xFFFFFFFFFFFFFFFFFFFFFFFF PUSH1 0xA0 SHL DUP3 AND OR PUSH1 0x0 SSTORE AND PUSH32 0x8BE0079C531659141344CD1FD0A4F28419497F9722A3DAAFE3B4186F6B6457E0 PUSH1 0x0 DUP1 LOG3 STOP JUMPDEST PUSH1 0x40 MLOAD PUSH4 0x1E4FBDF7 PUSH1 0xE0 SHL DUP2 MSTORE PUSH1 0x0 PUSH1 0x4 DUP3 ADD MSTORE PUSH1 0x24 SWAP1 REVERT JUMPDEST CALLVALUE PUSH2 0x2E5 JUMPI PUSH2 0x100 DUP1 PUSH1 0x3 NOT CALLDATASIZE ADD SLT PUSH2 0x2E5 JUMPI PUSH1 0x4 CALLDATALOAD PUSH8 0xFFFFFFFFFFFFFFFF DUP2 GT PUSH2 0x2E5 JUMPI PUSH2 0x3ED SWAP1 CALLDATASIZE SWAP1 PUSH1 0x4 ADD PUSH2 0x24BB JUMP JUMPDEST PUSH2 0x3F5 PUSH2 0x2BE1 JUMP JUMPDEST PUSH1 0x40 MLOAD SWAP3 DUP4 ADD DUP4 DUP2 LT PUSH8 0xFFFFFFFFFFFFFFFF DUP3 GT OR PUSH2 0x612 JUMPI PUSH1 0x40 MSTORE PUSH2 0x41C CALLDATASIZE DUP3 DUP5 PUSH2 0x2971 JUMP JUMPDEST DUP4 MSTORE PUSH1 0x24 CALLDATALOAD PUSH1 0x20 DUP5 ADD MSTORE PUSH1 0x44 CALLDATALOAD PUSH1 0x40 DUP5 ADD MSTORE PUSH1 0x64 CALLDATALOAD PUSH1 0x60 DUP5 ADD MSTORE PUSH1 0x84 CALLDATALOAD PUSH1 0x80 DUP5 ADD MSTORE PUSH1 0xA4 CALLDATALOAD PUSH1 0xA0 DUP5 ADD MSTORE PUSH1 0xC4 CALLDATALOAD PUSH1 0xC0 DUP5 ADD MSTORE PUSH1 0xE4 CALLDATALOAD PUSH1 0xE0 DUP5 ADD MSTORE PUSH1 0x5 SLOAD PUSH1 0x0 MSTORE PUSH1 0x3 PUSH1 0x20 MSTORE PUSH1 0x40 PUSH1 0x0 KECCAK256 DUP4 MLOAD DUP1 MLOAD SWAP1 PUSH8 0xFFFFFFFFFFFFFFFF DUP3 GT PUSH2 0x612 JUMPI PUSH2 0x484 DUP4 SLOAD PUSH2 0x234F JUMP JUMPDEST PUSH1 0x1F DUP2 GT PUSH2 0x5CE JUMPI JUMPDEST POP PUSH1 0x20 SWAP1 PUSH1 0x1F DUP4 GT PUSH1 0x1 EQ PUSH2 0x55C JUMPI SWAP6 DUP3 PUSH1 0x7 SWAP4 PUSH1 0xE0 SWAP4 PUSH2 0x54C SWAP10 PUSH1 0x0 SWAP3 PUSH2 0x551 JUMPI JUMPDEST POP POP DUP2 PUSH1 0x1 SHL SWAP2 PUSH1 0x0 NOT SWAP1 PUSH1 0x3 SHL SHR NOT AND OR DUP5 SSTORE JUMPDEST PUSH1 0x20 DUP2 ADD MLOAD PUSH1 0x1 DUP6 ADD SSTORE PUSH1 0x40 DUP2 ADD MLOAD PUSH1 0x2 DUP6 ADD SSTORE PUSH1 0x60 DUP2 ADD MLOAD PUSH1 0x3 DUP6 ADD SSTORE PUSH1 0x80 DUP2 ADD MLOAD PUSH1 0x4 DUP6 ADD SSTORE PUSH1 0xA0 DUP2 ADD MLOAD PUSH1 0x5 DUP6 ADD SSTORE PUSH1 0xC0 DUP2 ADD MLOAD PUSH1 0x6 DUP6 ADD SSTORE ADD MLOAD SWAP2 ADD SSTORE PUSH32 0xBCE75DB7677467DA57E0A1C1497E4A7C42D79D4071DBB0578DF54307E986FE07 PUSH1 0x5 SLOAD SWAP3 DUP4 SWAP3 PUSH2 0x544 PUSH1 0x40 MLOAD SWAP3 DUP4 SWAP3 PUSH1 0x20 DUP5 MSTORE PUSH1 0x20 DUP5 ADD SWAP2 PUSH2 0x29B8 JUMP JUMPDEST SUB SWAP1 LOG2 PUSH2 0x2962 JUMP JUMPDEST PUSH1 0x5 SSTORE STOP JUMPDEST ADD MLOAD SWAP1 POP DUP10 DUP1 PUSH2 0x4B0 JUMP JUMPDEST SWAP1 DUP4 PUSH1 0x0 MSTORE PUSH1 0x20 PUSH1 0x0 KECCAK256 SWAP2 PUSH1 0x0 JUMPDEST PUSH1 0x1F NOT DUP6 AND DUP2 LT PUSH2 0x5B6 JUMPI POP DUP4 PUSH1 0xE0 SWAP4 PUSH2 0x54C SWAP10 SWAP4 PUSH1 0x1 SWAP4 PUSH1 0x7 SWAP8 PUSH1 0x1F NOT DUP2 AND LT PUSH2 0x59D JUMPI JUMPDEST POP POP POP DUP2 SHL ADD DUP5 SSTORE PUSH2 0x4C5 JUMP JUMPDEST ADD MLOAD PUSH1 0x0 NOT PUSH1 0xF8 DUP5 PUSH1 0x3 SHL AND SHR NOT AND SWAP1 SSTORE DUP10 DUP1 DUP1 PUSH2 0x590 JUMP JUMPDEST SWAP2 SWAP3 PUSH1 0x20 PUSH1 0x1 DUP2 SWAP3 DUP7 DUP6 ADD MLOAD DUP2 SSTORE ADD SWAP5 ADD SWAP3 ADD PUSH2 0x56A JUMP JUMPDEST DUP4 PUSH1 0x0 MSTORE PUSH1 0x20 PUSH1 0x0 KECCAK256 PUSH1 0x1F DUP5 ADD PUSH1 0x5 SHR DUP2 ADD PUSH1 0x20 DUP6 LT PUSH2 0x60B JUMPI JUMPDEST PUSH1 0x1F DUP4 ADD PUSH1 0x5 SHR DUP3 ADD DUP2 LT PUSH2 0x5FF JUMPI POP POP PUSH2 0x48D JUMP JUMPDEST PUSH1 0x0 DUP2 SSTORE PUSH1 0x1 ADD PUSH2 0x5E9 JUMP JUMPDEST POP DUP1 PUSH2 0x5E9 JUMP JUMPDEST PUSH4 0x4E487B71 PUSH1 0xE0 SHL PUSH1 0x0 MSTORE PUSH1 0x41 PUSH1 0x4 MSTORE PUSH1 0x24 PUSH1 0x0 REVERT JUMPDEST CALLVALUE PUSH2 0x2E5 JUMPI PUSH1 0x20 CALLDATASIZE PUSH1 0x3 NOT ADD SLT PUSH2 0x2E5 JUMPI PUSH1 0x20 PUSH2 0x64B PUSH2 0x646 PUSH2 0x2311 JUMP JUMPDEST PUSH2 0x2A37 JUMP JUMPDEST PUSH1 0x40 MLOAD SWAP1 DUP2 MSTORE RETURN JUMPDEST CALLVALUE PUSH2 0x2E5 JUMPI PUSH1 0x0 CALLDATASIZE PUSH1 0x3 NOT ADD SLT PUSH2 0x2E5 JUMPI PUSH2 0x66C PUSH2 0x2BE1 JUMP JUMPDEST PUSH1 0x0 DUP1 DUP1 DUP1 SELFBALANCE DUP2 DUP2 ISZERO PUSH2 0x684 JUMPI JUMPDEST CALLER SWAP1 CALL ISZERO PUSH2 0xC1 JUMPI STOP JUMPDEST POP PUSH2 0x8FC PUSH2 0x67A JUMP JUMPDEST CALLVALUE PUSH2 0x2E5 JUMPI PUSH1 0x0 CALLDATASIZE PUSH1 0x3 NOT ADD SLT PUSH2 0x2E5 JUMPI PUSH1 0x20 PUSH1 0x5 SLOAD PUSH1 0x40 MLOAD SWAP1 DUP2 MSTORE RETURN JUMPDEST CALLVALUE PUSH2 0x2E5 JUMPI PUSH1 0x20 DUP1 PUSH1 0x3 NOT CALLDATASIZE ADD SLT PUSH2 0x2E5 JUMPI PUSH2 0x6C5 PUSH2 0x2311 JUMP JUMPDEST SWAP1 PUSH2 0x6CE PUSH2 0x2A8A JUMP JUMPDEST CALLER PUSH1 0x0 MSTORE PUSH1 0x2 DUP2 MSTORE PUSH1 0x40 PUSH1 0x0 KECCAK256 SWAP2 PUSH1 0x1 DUP1 PUSH1 0xA0 SHL SUB AND SWAP1 DUP2 PUSH1 0x0 MSTORE PUSH1 0x40 PUSH1 0x0 KECCAK256 PUSH1 0x4 DUP5 ADD SWAP2 DUP3 SLOAD ISZERO ISZERO DUP1 PUSH2 0xA30 JUMPI JUMPDEST ISZERO PUSH2 0x9F6 JUMPI PUSH1 0x1 SWAP5 PUSH1 0xFF DUP7 DUP3 ADD SLOAD AND PUSH1 0xFF DUP8 DUP6 ADD SLOAD AND ISZERO ISZERO SWAP1 ISZERO ISZERO EQ PUSH2 0x9BE JUMPI PUSH1 0xB DUP2 ADD SWAP1 DUP2 SLOAD SWAP4 PUSH1 0xB DUP2 ADD SWAP5 DUP6 SLOAD DUP2 SUB PUSH2 0x981 JUMPI PUSH1 0x10 DUP4 ADD SLOAD TIMESTAMP LT ISZERO DUP1 PUSH2 0x973 JUMPI JUMPDEST ISZERO PUSH2 0x942 JUMPI PUSH2 0x74E SWAP1 PUSH2 0x2735 JUMP JUMPDEST PUSH2 0x8F2 JUMPI PUSH1 0x7 DUP3 ADD SLOAD PUSH1 0x8 DUP3 ADD SLOAD DUP1 DUP3 GT ISZERO PUSH2 0x8E8 JUMPI PUSH2 0x76D SWAP2 PUSH2 0x2728 JUMP JUMPDEST SWAP5 JUMPDEST PUSH1 0x7 DUP3 ADD SLOAD PUSH1 0x8 DUP5 ADD SLOAD DUP1 DUP3 GT ISZERO PUSH2 0x8DF JUMPI PUSH2 0x78A SWAP2 PUSH2 0x2728 JUMP JUMPDEST PUSH1 0x4 DUP4 ADD DUP1 SLOAD SWAP1 SWAP8 DUP2 DUP2 LT PUSH2 0x8CF JUMPI POP POP PUSH1 0x0 DUP8 SSTORE JUMPDEST DUP8 SLOAD SWAP1 DUP2 DUP2 LT PUSH2 0x8BF JUMPI POP POP PUSH1 0x0 DUP8 SSTORE JUMPDEST PUSH1 0x0 SWAP6 SLOAD ISZERO PUSH2 0x817 JUMPI JUMPDEST POP POP PUSH32 0x1D099E3DA7A64D91BF9ED0E41ACEAF6A8E2C1FC0D072EF2779F2EA6988D27988 SWAP4 SWAP5 SLOAD ISZERO PUSH2 0x7F8 JUMPI JUMPDEST POP POP PUSH1 0x40 MLOAD SWAP3 ISZERO ISZERO DUP4 MSTORE CALLER SWAP3 LOG3 DUP1 SSTORE STOP JUMPDEST DUP7 PUSH1 0x9 DUP3 ADD SSTORE PUSH1 0xF TIMESTAMP SWAP2 ADD SSTORE PUSH2 0x80E DUP2 SLOAD PUSH2 0x2C0D JUMP JUMPDEST SWAP1 SSTORE DUP6 DUP1 PUSH2 0x7E7 JUMP JUMPDEST SWAP1 SWAP5 POP DUP8 PUSH1 0x9 DUP7 ADD SSTORE TIMESTAMP PUSH1 0xF DUP7 ADD SSTORE PUSH2 0x830 DUP2 SLOAD PUSH2 0x2C0D JUMP JUMPDEST SWAP1 SSTORE PUSH1 0x9 DUP2 ADD SLOAD SWAP4 PUSH1 0x32 DUP6 MUL SWAP5 DUP1 DUP7 DIV PUSH1 0x32 EQ SWAP1 ISZERO OR ISZERO PUSH2 0x8A9 JUMPI PUSH1 0x2 ADD DUP1 SLOAD PUSH32 0x1D099E3DA7A64D91BF9ED0E41ACEAF6A8E2C1FC0D072EF2779F2EA6988D27988 SWAP6 SWAP2 SWAP1 DUP1 DUP4 GT PUSH2 0x8A1 JUMPI JUMPDEST DUP3 PUSH2 0x886 SWAP2 PUSH2 0x2728 JUMP JUMPDEST SWAP1 SSTORE PUSH2 0x897 PUSH1 0x2 DUP4 ADD SWAP2 DUP3 SLOAD PUSH2 0x25A7 JUMP JUMPDEST SWAP1 SSTORE DUP7 SWAP4 DUP9 PUSH2 0x7BB JUMP JUMPDEST SWAP2 POP DUP2 PUSH2 0x87C JUMP JUMPDEST PUSH4 0x4E487B71 PUSH1 0xE0 SHL PUSH1 0x0 MSTORE PUSH1 0x11 PUSH1 0x4 MSTORE PUSH1 0x24 PUSH1 0x0 REVERT JUMPDEST PUSH2 0x8C8 SWAP2 PUSH2 0x2728 JUMP JUMPDEST DUP8 SSTORE PUSH2 0x7B1 JUMP JUMPDEST PUSH2 0x8D8 SWAP2 PUSH2 0x2728 JUMP JUMPDEST DUP8 SSTORE PUSH2 0x7A0 JUMP JUMPDEST POP POP PUSH1 0x0 PUSH2 0x78A JUMP JUMPDEST POP POP PUSH1 0x0 SWAP5 PUSH2 0x76F JUMP JUMPDEST PUSH1 0x40 MLOAD PUSH3 0x461BCD PUSH1 0xE5 SHL DUP2 MSTORE PUSH1 0x4 DUP2 ADD DUP6 SWAP1 MSTORE PUSH1 0x22 PUSH1 0x24 DUP3 ADD MSTORE PUSH32 0x43616E6E6F742061747461636B20617420706F727473202D2073616665206172 PUSH1 0x44 DUP3 ADD MSTORE PUSH2 0x6561 PUSH1 0xF0 SHL PUSH1 0x64 DUP3 ADD MSTORE PUSH1 0x84 SWAP1 REVERT JUMPDEST PUSH1 0x40 MLOAD PUSH3 0x461BCD PUSH1 0xE5 SHL DUP2 MSTORE PUSH1 0x4 DUP2 ADD DUP7 SWAP1 MSTORE PUSH1 0x9 PUSH1 0x24 DUP3 ADD MSTORE PUSH9 0x125B881D1C985D995B PUSH1 0xBA SHL PUSH1 0x44 DUP3 ADD MSTORE PUSH1 0x64 SWAP1 REVERT JUMPDEST POP PUSH1 0x10 DUP3 ADD SLOAD TIMESTAMP LT ISZERO PUSH2 0x740 JUMP JUMPDEST PUSH1 0x40 MLOAD PUSH3 0x461BCD PUSH1 0xE5 SHL DUP2 MSTORE PUSH1 0x4 DUP2 ADD DUP7 SWAP1 MSTORE PUSH1 0x15 PUSH1 0x24 DUP3 ADD MSTORE PUSH21 0x26BAB9BA1031329039B0B6B2903637B1B0BA34B7B7 PUSH1 0x59 SHL PUSH1 0x44 DUP3 ADD MSTORE PUSH1 0x64 SWAP1 REVERT JUMPDEST PUSH1 0x40 MLOAD PUSH3 0x461BCD PUSH1 0xE5 SHL DUP2 MSTORE PUSH1 0x4 DUP2 ADD DUP4 SWAP1 MSTORE PUSH1 0x10 PUSH1 0x24 DUP3 ADD MSTORE PUSH16 0x29B0B6B29030B33334B634B0BA34B7B7 PUSH1 0x81 SHL PUSH1 0x44 DUP3 ADD MSTORE PUSH1 0x64 SWAP1 REVERT JUMPDEST PUSH1 0x64 SWAP1 PUSH1 0x40 MLOAD SWAP1 PUSH3 0x461BCD PUSH1 0xE5 SHL DUP3 MSTORE PUSH1 0x4 DUP3 ADD MSTORE PUSH1 0x13 PUSH1 0x24 DUP3 ADD MSTORE PUSH19 0x13DB99481CDA1A5C081A5CC81DDC9958DAD959 PUSH1 0x6A SHL PUSH1 0x44 DUP3 ADD MSTORE REVERT JUMPDEST POP PUSH1 0x4 DUP3 ADD SLOAD ISZERO ISZERO PUSH2 0x6FD JUMP JUMPDEST CALLVALUE PUSH2 0x2E5 JUMPI PUSH1 0x20 CALLDATASIZE PUSH1 0x3 NOT ADD SLT PUSH2 0x2E5 JUMPI PUSH1 0x6 SLOAD PUSH1 0x4 CALLDATALOAD DUP1 DUP3 LT ISZERO PUSH2 0xC09 JUMPI POP DUP1 JUMPDEST PUSH2 0xA68 DUP2 PUSH2 0x29F1 JUMP JUMPDEST SWAP1 PUSH2 0xA72 DUP2 PUSH2 0x29F1 JUMP JUMPDEST SWAP3 PUSH1 0x0 JUMPDEST DUP2 DUP2 LT PUSH2 0xAAB JUMPI PUSH2 0xA99 DUP5 PUSH2 0xAA7 DUP8 PUSH1 0x40 MLOAD SWAP4 DUP5 SWAP4 PUSH1 0x40 DUP6 MSTORE PUSH1 0x40 DUP6 ADD SWAP1 PUSH2 0x24E9 JUMP JUMPDEST SWAP1 DUP4 DUP3 SUB PUSH1 0x20 DUP6 ADD MSTORE PUSH2 0x2526 JUMP JUMPDEST SUB SWAP1 RETURN JUMPDEST PUSH2 0xAB4 DUP2 PUSH2 0x255A JUMP JUMPDEST SWAP1 SLOAD PUSH1 0x1 DUP1 PUSH1 0xA0 SHL SUB SWAP2 PUSH1 0x3 SHL SHR AND PUSH1 0x0 MSTORE PUSH2 0xB37 PUSH1 0x2 DUP1 PUSH1 0x20 MSTORE PUSH2 0xB09 PUSH1 0x6 PUSH1 0x40 PUSH1 0x0 KECCAK256 ADD SLOAD PUSH2 0xAE4 DUP6 PUSH2 0x255A JUMP JUMPDEST PUSH1 0x1 DUP1 PUSH1 0xA0 SHL SUB SWAP2 SLOAD SWAP1 PUSH1 0x3 SHL SHR AND PUSH1 0x0 MSTORE DUP3 PUSH1 0x20 MSTORE PUSH1 0x7 PUSH1 0x40 PUSH1 0x0 KECCAK256 ADD SLOAD SWAP1 PUSH2 0x25A7 JUMP JUMPDEST SWAP1 PUSH2 0xB13 DUP5 PUSH2 0x255A JUMP JUMPDEST PUSH1 0x1 DUP1 PUSH1 0xA0 SHL SUB SWAP2 SLOAD SWAP1 PUSH1 0x3 SHL SHR AND PUSH1 0x0 MSTORE PUSH1 0x20 MSTORE PUSH1 0x8 PUSH1 0x40 PUSH1 0x0 KECCAK256 ADD SLOAD SWAP1 PUSH2 0x25A7 JUMP JUMPDEST PUSH1 0x0 JUMPDEST DUP5 DUP2 LT PUSH2 0xB4C JUMPI JUMPDEST POP POP PUSH1 0x1 ADD PUSH2 0xA76 JUMP JUMPDEST PUSH2 0xB56 DUP2 DUP9 PUSH2 0x2A23 JUMP JUMPDEST MLOAD DUP3 GT PUSH2 0xB65 JUMPI PUSH1 0x1 ADD PUSH2 0xB3A JUMP JUMPDEST PUSH1 0x0 NOT DUP6 ADD DUP6 DUP2 GT PUSH2 0x8A9 JUMPI JUMPDEST DUP2 DUP2 GT PUSH2 0xBB2 JUMPI POP SWAP1 PUSH2 0xBAA DUP4 SWAP3 PUSH2 0xB8B PUSH1 0x1 SWAP6 PUSH2 0x255A JUMP JUMPDEST DUP7 DUP1 PUSH1 0xA0 SHL SUB SWAP2 SLOAD SWAP1 PUSH1 0x3 SHL SHR AND PUSH2 0xBA3 DUP3 DUP11 PUSH2 0x2A23 JUMP JUMPDEST MSTORE DUP9 PUSH2 0x2A23 JUMP JUMPDEST MSTORE SWAP1 DUP7 PUSH2 0xB42 JUMP JUMPDEST DUP1 PUSH1 0x0 NOT DUP2 ADD GT PUSH2 0x8A9 JUMPI PUSH1 0x1 PUSH1 0x1 PUSH1 0xA0 SHL SUB PUSH2 0xBD3 PUSH1 0x0 NOT DUP4 ADD DUP10 PUSH2 0x2A23 JUMP JUMPDEST MLOAD AND PUSH2 0xBDF DUP3 DUP10 PUSH2 0x2A23 JUMP JUMPDEST MSTORE PUSH2 0xBEE PUSH1 0x0 NOT DUP3 ADD DUP10 PUSH2 0x2A23 JUMP JUMPDEST MLOAD PUSH2 0xBF9 DUP3 DUP11 PUSH2 0x2A23 JUMP JUMPDEST MSTORE DUP1 ISZERO PUSH2 0x8A9 JUMPI PUSH1 0x0 NOT ADD PUSH2 0xB72 JUMP JUMPDEST PUSH2 0xA5F JUMP JUMPDEST CALLVALUE PUSH2 0x2E5 JUMPI PUSH1 0x0 CALLDATASIZE PUSH1 0x3 NOT ADD SLT PUSH2 0x2E5 JUMPI PUSH2 0xC27 PUSH2 0x2A8A JUMP JUMPDEST CALLER PUSH1 0x0 MSTORE PUSH1 0x2 PUSH1 0x20 MSTORE PUSH1 0x40 PUSH1 0x0 KECCAK256 PUSH2 0xC44 PUSH1 0x4 DUP3 ADD SLOAD ISZERO ISZERO PUSH2 0x26ED JUMP JUMPDEST PUSH2 0xC51 PUSH1 0xB DUP3 ADD SLOAD PUSH2 0x2735 JUMP JUMPDEST ISZERO PUSH2 0xD2C JUMPI PUSH1 0x9 DUP2 ADD SWAP1 DUP2 SLOAD PUSH1 0xA DUP3 ADD SWAP1 DUP2 SLOAD GT ISZERO PUSH2 0xCE7 JUMPI PUSH2 0xC73 CALLER PUSH2 0x2AAD JUMP JUMPDEST SLOAD PUSH2 0xC7F DUP4 SLOAD DUP3 PUSH2 0x2728 JUMP JUMPDEST SWAP3 PUSH1 0xA DUP5 MUL SWAP3 DUP5 DUP5 DIV PUSH1 0xA EQ DUP6 ISZERO OR ISZERO PUSH2 0x8A9 JUMPI PUSH1 0x2 ADD PUSH2 0xCAD DUP5 DUP3 SLOAD PUSH2 0xCA8 DUP3 DUP3 LT ISZERO PUSH2 0x288E JUMP JUMPDEST PUSH2 0x2728 JUMP JUMPDEST SWAP1 SSTORE SSTORE PUSH1 0x40 MLOAD SWAP2 DUP3 MSTORE PUSH1 0x20 DUP3 ADD MSTORE PUSH32 0x868567670EC4DEFB3ADFCE8655DF1B0AAFA7F429CDB1F700FFE925B1AA983560 PUSH1 0x40 CALLER SWAP3 LOG2 PUSH1 0x1 DUP1 SSTORE STOP JUMPDEST PUSH1 0x40 MLOAD PUSH3 0x461BCD PUSH1 0xE5 SHL DUP2 MSTORE PUSH1 0x20 PUSH1 0x4 DUP3 ADD MSTORE PUSH1 0x17 PUSH1 0x24 DUP3 ADD MSTORE PUSH32 0x4372657720616C7265616479206174206D6178696D756D000000000000000000 PUSH1 0x44 DUP3 ADD MSTORE PUSH1 0x64 SWAP1 REVERT JUMPDEST PUSH1 0x40 MLOAD PUSH3 0x461BCD PUSH1 0xE5 SHL DUP2 MSTORE PUSH1 0x20 PUSH1 0x4 DUP3 ADD MSTORE PUSH1 0x11 PUSH1 0x24 DUP3 ADD MSTORE PUSH17 0x135D5CDD08189948185D0818481C1BDC9D PUSH1 0x7A SHL PUSH1 0x44 DUP3 ADD MSTORE PUSH1 0x64 SWAP1 REVERT JUMPDEST CALLVALUE PUSH2 0x2E5 JUMPI PUSH1 0x20 DUP1 PUSH1 0x3 NOT CALLDATASIZE ADD SLT PUSH2 0x2E5 JUMPI PUSH1 0x6 DUP1 SLOAD SWAP2 PUSH1 0x0 SWAP2 SWAP1 PUSH1 0x4 CALLDATALOAD SWAP1 DUP4 JUMPDEST DUP6 DUP2 LT PUSH2 0xFEF JUMPI POP PUSH2 0xD97 DUP5 PUSH2 0x29F1 JUMP JUMPDEST SWAP5 PUSH2 0xDA1 DUP6 PUSH2 0x29D9 JUMP JUMPDEST SWAP4 PUSH2 0xDAF PUSH1 0x40 MLOAD SWAP6 DUP7 PUSH2 0x23A5 JUMP JUMPDEST DUP6 DUP6 MSTORE PUSH2 0xDBB DUP7 PUSH2 0x29D9 JUMP JUMPDEST PUSH1 0x1F NOT SWAP7 SWAP1 DUP8 ADD PUSH1 0x0 JUMPDEST DUP2 DUP2 LT PUSH2 0xFE0 JUMPI POP POP PUSH2 0xDD7 SWAP1 PUSH2 0x29F1 JUMP JUMPDEST SWAP4 PUSH1 0x0 SWAP1 PUSH1 0x0 JUMPDEST DUP5 DUP2 LT PUSH2 0xE6F JUMPI PUSH2 0xE01 DUP10 DUP12 DUP11 DUP11 DUP11 PUSH1 0x40 MLOAD SWAP6 DUP7 SWAP5 PUSH1 0x60 DUP7 MSTORE PUSH1 0x60 DUP7 ADD SWAP1 PUSH2 0x24E9 JUMP JUMPDEST SWAP1 DUP5 DUP3 SUB DUP2 DUP7 ADD MSTORE DUP4 MLOAD SWAP2 DUP3 DUP2 MSTORE DUP2 DUP2 ADD DUP3 DUP1 DUP6 PUSH1 0x5 SHL DUP5 ADD ADD SWAP7 ADD SWAP8 PUSH1 0x0 SWAP3 JUMPDEST DUP6 DUP5 LT PUSH2 0xE3D JUMPI DUP9 DUP1 PUSH2 0xAA7 DUP11 DUP11 DUP4 DUP3 SUB PUSH1 0x40 DUP6 ADD MSTORE PUSH2 0x2526 JUMP JUMPDEST SWAP2 SWAP4 DUP1 DUP1 SWAP8 SWAP10 POP PUSH2 0xE5B DUP10 DUP5 DUP7 PUSH1 0x1 SWAP7 SWAP9 SWAP11 SWAP13 SUB ADD DUP9 MSTORE DUP13 MLOAD PUSH2 0x246C JUMP JUMPDEST SWAP11 ADD SWAP5 ADD SWAP5 ADD SWAP2 DUP10 SWAP8 SWAP6 SWAP4 SWAP9 SWAP7 SWAP5 SWAP2 PUSH2 0xE22 JUMP JUMPDEST DUP10 PUSH2 0xE7D DUP3 SWAP11 SWAP9 SWAP10 SWAP11 PUSH2 0x255A JUMP JUMPDEST SWAP2 SWAP1 PUSH1 0x1 DUP1 PUSH1 0xA0 SHL SUB DUP1 SWAP2 SLOAD PUSH1 0x3 SWAP5 DUP6 SHL SHR AND PUSH1 0x0 MSTORE DUP9 DUP8 DUP14 PUSH1 0x2 SWAP5 DUP6 DUP5 MSTORE DUP9 PUSH1 0xB PUSH1 0x40 PUSH1 0x0 KECCAK256 ADD SLOAD EQ DUP1 PUSH2 0xFB7 JUMPI JUMPDEST PUSH2 0xEC5 JUMPI JUMPDEST POP POP POP POP POP POP POP PUSH1 0x1 ADD SWAP8 SWAP7 SWAP6 SWAP8 PUSH2 0xDDE JUMP JUMPDEST DUP8 DUP7 DUP9 SWAP6 DUP8 PUSH2 0xF5C DUP15 SWAP11 SWAP8 DUP6 SWAP16 DUP1 PUSH1 0x1 SWAP16 SWAP10 PUSH2 0xFAA SWAP16 SWAP10 PUSH2 0xF02 PUSH2 0xF9A SWAP16 SWAP13 SWAP5 DUP9 PUSH2 0xF76 SWAP14 PUSH2 0xEF6 PUSH2 0xF37 SWAP9 PUSH2 0x255A JUMP JUMPDEST SWAP1 SLOAD SWAP2 SHL SHR AND SWAP3 PUSH2 0x2A23 JUMP JUMPDEST MSTORE DUP6 DUP14 PUSH2 0xF0E DUP12 PUSH2 0x255A JUMP JUMPDEST SWAP1 SLOAD SWAP2 SHL SHR AND PUSH1 0x0 MSTORE DUP8 DUP8 MSTORE PUSH2 0xF27 PUSH1 0x40 PUSH1 0x0 KECCAK256 PUSH2 0x23C7 JUMP JUMPDEST PUSH2 0xF31 DUP4 DUP4 PUSH2 0x2A23 JUMP JUMPDEST MSTORE PUSH2 0x2A23 JUMP JUMPDEST POP DUP3 PUSH2 0xF42 DUP8 PUSH2 0x255A JUMP JUMPDEST SWAP1 SLOAD SWAP1 DUP13 SHL SHR AND PUSH1 0x0 MSTORE DUP5 DUP5 MSTORE PUSH1 0x40 PUSH1 0x0 KECCAK256 ADD SLOAD SWAP5 PUSH2 0x255A JUMP JUMPDEST SWAP1 SLOAD SWAP1 DUP10 SHL SHR AND PUSH1 0x0 MSTORE MSTORE PUSH1 0x7 PUSH1 0x40 PUSH1 0x0 KECCAK256 ADD SLOAD SWAP1 PUSH2 0x25A7 JUMP JUMPDEST SWAP3 PUSH2 0xF80 DUP11 PUSH2 0x255A JUMP JUMPDEST SWAP1 SLOAD SWAP2 SHL SHR AND PUSH1 0x0 MSTORE DUP11 MSTORE PUSH1 0x8 PUSH1 0x40 PUSH1 0x0 KECCAK256 ADD SLOAD SWAP1 PUSH2 0x25A7 JUMP JUMPDEST PUSH2 0xFA4 DUP3 DUP13 PUSH2 0x2A23 JUMP JUMPDEST MSTORE PUSH2 0x2962 JUMP JUMPDEST SWAP3 SWAP1 DUP12 DUP1 DUP9 DUP8 DUP14 DUP16 PUSH2 0xEB2 JUMP JUMPDEST POP DUP5 PUSH2 0xFC2 DUP10 PUSH2 0x255A JUMP JUMPDEST SWAP1 SLOAD SWAP1 DUP10 SHL SHR AND PUSH1 0x0 MSTORE DUP6 DUP5 MSTORE PUSH1 0x10 PUSH1 0x40 PUSH1 0x0 KECCAK256 ADD SLOAD TIMESTAMP LT ISZERO PUSH2 0xEAD JUMP JUMPDEST PUSH1 0x60 DUP9 DUP3 ADD DUP8 ADD MSTORE DUP6 ADD PUSH2 0xDC5 JUMP JUMPDEST PUSH2 0xFFC DUP2 SWAP6 SWAP4 SWAP5 SWAP6 PUSH2 0x255A JUMP JUMPDEST SWAP1 PUSH1 0x1 DUP1 PUSH1 0xA0 SHL SUB DUP1 SWAP2 SLOAD PUSH1 0x3 SWAP4 DUP5 SHL SHR AND PUSH1 0x0 MSTORE PUSH1 0x2 SWAP1 DUP2 DUP6 MSTORE DUP7 PUSH1 0xB PUSH1 0x40 PUSH1 0x0 KECCAK256 ADD SLOAD EQ SWAP3 DUP4 PUSH2 0x1051 JUMPI JUMPDEST POP POP POP PUSH2 0x103D JUMPI JUMPDEST PUSH1 0x1 ADD SWAP4 SWAP3 SWAP2 SWAP4 PUSH2 0xD86 JUMP JUMPDEST SWAP2 PUSH2 0x1049 PUSH1 0x1 SWAP2 PUSH2 0x2962 JUMP JUMPDEST SWAP3 SWAP1 POP PUSH2 0x1031 JUMP JUMPDEST SWAP1 SWAP2 SWAP3 POP PUSH2 0x105E DUP5 PUSH2 0x255A JUMP JUMPDEST SWAP1 SLOAD SWAP2 SHL SHR AND PUSH1 0x0 MSTORE DUP3 MSTORE PUSH1 0x10 PUSH1 0x40 PUSH1 0x0 KECCAK256 ADD SLOAD TIMESTAMP LT ISZERO DUP8 DUP1 DUP1 PUSH2 0x1029 JUMP JUMPDEST CALLVALUE PUSH2 0x2E5 JUMPI PUSH1 0x60 CALLDATASIZE PUSH1 0x3 NOT ADD SLT PUSH2 0x2E5 JUMPI PUSH1 0x4 CALLDATALOAD PUSH8 0xFFFFFFFFFFFFFFFF DUP2 GT PUSH2 0x2E5 JUMPI PUSH2 0x10AE SWAP1 CALLDATASIZE SWAP1 PUSH1 0x4 ADD PUSH2 0x24BB JUMP JUMPDEST SWAP1 PUSH2 0x10B7 PUSH2 0x24AC JUMP JUMPDEST SWAP2 DUP1 ISZERO ISZERO DUP1 PUSH2 0x14E0 JUMPI JUMPDEST ISZERO PUSH2 0x149B JUMPI PUSH1 0x64 DUP1 PUSH1 0x44 CALLDATALOAD GT PUSH2 0x1460 JUMPI CALLER PUSH1 0x0 MSTORE PUSH1 0x2 PUSH1 0x20 MSTORE PUSH1 0x40 PUSH1 0x0 KECCAK256 PUSH1 0x4 DUP2 ADD SLOAD ISZERO SWAP1 DUP2 PUSH2 0x1453 JUMPI JUMPDEST POP ISZERO PUSH2 0x141B JUMPI PUSH1 0x40 MLOAD SWAP1 PUSH2 0x260 DUP3 ADD DUP3 DUP2 LT PUSH8 0xFFFFFFFFFFFFFFFF DUP3 GT OR PUSH2 0x612 JUMPI PUSH1 0x40 MSTORE PUSH2 0x111C CALLDATASIZE DUP5 DUP7 PUSH2 0x2971 JUMP JUMPDEST DUP3 MSTORE DUP5 ISZERO ISZERO PUSH1 0x20 DUP4 ADD MSTORE DUP1 PUSH1 0x40 DUP4 ADD MSTORE PUSH1 0x0 PUSH1 0x60 DUP4 ADD MSTORE DUP1 PUSH1 0x80 DUP4 ADD MSTORE PUSH1 0xA0 DUP3 ADD MSTORE PUSH1 0x1 PUSH1 0xC0 DUP3 ADD MSTORE PUSH1 0x1 PUSH1 0xE0 DUP3 ADD MSTORE PUSH1 0x1 PUSH2 0x100 DUP3 ADD MSTORE PUSH1 0x1 PUSH2 0x120 DUP3 ADD MSTORE PUSH1 0xA PUSH2 0x140 DUP3 ADD MSTORE PUSH1 0x44 CALLDATALOAD PUSH2 0x160 DUP3 ADD MSTORE PUSH1 0x0 PUSH2 0x180 DUP3 ADD MSTORE PUSH1 0x0 PUSH2 0x1A0 DUP3 ADD MSTORE PUSH1 0x0 PUSH2 0x1C0 DUP3 ADD MSTORE PUSH1 0x0 PUSH2 0x1E0 DUP3 ADD MSTORE PUSH1 0x0 PUSH2 0x200 DUP3 ADD MSTORE TIMESTAMP PUSH2 0x220 DUP3 ADD MSTORE PUSH1 0x0 PUSH2 0x240 DUP3 ADD MSTORE CALLER PUSH1 0x0 MSTORE PUSH1 0x2 PUSH1 0x20 MSTORE PUSH1 0x40 PUSH1 0x0 KECCAK256 SWAP1 DUP1 MLOAD DUP1 MLOAD SWAP1 PUSH8 0xFFFFFFFFFFFFFFFF DUP3 GT PUSH2 0x612 JUMPI PUSH2 0x11D1 DUP5 SLOAD PUSH2 0x234F JUMP JUMPDEST PUSH1 0x1F DUP2 GT PUSH2 0x13D7 JUMPI JUMPDEST POP PUSH1 0x20 SWAP1 PUSH1 0x1F DUP4 GT PUSH1 0x1 EQ PUSH2 0x1367 JUMPI SWAP2 DUP1 PUSH1 0x12 SWAP5 SWAP3 PUSH2 0x240 SWAP5 PUSH1 0x0 SWAP3 PUSH2 0x135C JUMPI JUMPDEST POP POP DUP2 PUSH1 0x1 SHL SWAP2 PUSH1 0x0 NOT SWAP1 PUSH1 0x3 SHL SHR NOT AND OR DUP5 SSTORE JUMPDEST PUSH1 0x1 DUP5 ADD PUSH1 0x20 DUP3 ADD MLOAD ISZERO ISZERO PUSH1 0xFF DUP1 NOT DUP4 SLOAD AND SWAP2 AND OR SWAP1 SSTORE PUSH1 0x40 DUP2 ADD MLOAD PUSH1 0x2 DUP6 ADD SSTORE PUSH1 0x60 DUP2 ADD MLOAD PUSH1 0x3 DUP6 ADD SSTORE PUSH1 0x80 DUP2 ADD MLOAD PUSH1 0x4 DUP6 ADD SSTORE PUSH1 0xA0 DUP2 ADD MLOAD PUSH1 0x5 DUP6 ADD SSTORE PUSH1 0xC0 DUP2 ADD MLOAD PUSH1 0x6 DUP6 ADD SSTORE PUSH1 0xE0 DUP2 ADD MLOAD PUSH1 0x7 DUP6 ADD SSTORE PUSH2 0x100 DUP2 ADD MLOAD PUSH1 0x8 DUP6 ADD SSTORE PUSH2 0x120 DUP2 ADD MLOAD PUSH1 0x9 DUP6 ADD SSTORE PUSH2 0x140 DUP2 ADD MLOAD PUSH1 0xA DUP6 ADD SSTORE PUSH2 0x160 DUP2 ADD MLOAD PUSH1 0xB DUP6 ADD SSTORE PUSH2 0x180 DUP2 ADD MLOAD PUSH1 0xC DUP6 ADD SSTORE PUSH2 0x1A0 DUP2 ADD MLOAD PUSH1 0xD DUP6 ADD SSTORE PUSH2 0x1C0 DUP2 ADD MLOAD PUSH1 0xE DUP6 ADD SSTORE PUSH2 0x1E0 DUP2 ADD MLOAD PUSH1 0xF DUP6 ADD SSTORE PUSH2 0x200 DUP2 ADD MLOAD PUSH1 0x10 DUP6 ADD SSTORE PUSH2 0x220 DUP2 ADD MLOAD PUSH1 0x11 DUP6 ADD SSTORE ADD MLOAD SWAP2 ADD SSTORE PUSH1 0x6 SLOAD PUSH9 0x10000000000000000 DUP2 LT ISZERO PUSH2 0x612 JUMPI PUSH32 0x47456E7EC68E981A8F02D9C9528370ADEA595C1B26225BE6797E6D441C47FC02 SWAP3 PUSH2 0x131F DUP3 PUSH1 0x1 PUSH2 0x134C SWAP5 ADD PUSH1 0x6 SSTORE PUSH2 0x255A JUMP JUMPDEST DUP2 SLOAD PUSH1 0x1 PUSH1 0x1 PUSH1 0xA0 SHL SUB PUSH1 0x3 SWAP3 SWAP1 SWAP3 SHL SWAP2 DUP3 SHL NOT AND CALLER SWAP1 SWAP2 SHL OR SWAP1 SSTORE PUSH1 0x40 DUP1 MLOAD DUP2 DUP2 MSTORE SWAP4 SWAP1 DUP5 ADD SWAP2 PUSH2 0x29B8 JUMP JUMPDEST SWAP3 ISZERO ISZERO PUSH1 0x20 DUP3 ADD MSTORE DUP1 CALLER SWAP4 SUB SWAP1 LOG2 STOP JUMPDEST ADD MLOAD SWAP1 POP DUP10 DUP1 PUSH2 0x11FB JUMP JUMPDEST SWAP1 DUP5 PUSH1 0x0 MSTORE PUSH1 0x20 PUSH1 0x0 KECCAK256 SWAP2 PUSH1 0x0 JUMPDEST PUSH1 0x1F NOT DUP6 AND DUP2 LT PUSH2 0x13BF JUMPI POP SWAP3 PUSH1 0x12 SWAP5 SWAP3 PUSH1 0x1 SWAP3 PUSH2 0x240 SWAP6 DUP4 PUSH1 0x1F NOT DUP2 AND LT PUSH2 0x13A6 JUMPI JUMPDEST POP POP POP DUP2 SHL ADD DUP5 SSTORE PUSH2 0x1210 JUMP JUMPDEST ADD MLOAD PUSH1 0x0 NOT PUSH1 0xF8 DUP5 PUSH1 0x3 SHL AND SHR NOT AND SWAP1 SSTORE DUP10 DUP1 DUP1 PUSH2 0x1399 JUMP JUMPDEST SWAP2 SWAP3 PUSH1 0x20 PUSH1 0x1 DUP2 SWAP3 DUP7 DUP6 ADD MLOAD DUP2 SSTORE ADD SWAP5 ADD SWAP3 ADD PUSH2 0x1375 JUMP JUMPDEST DUP5 PUSH1 0x0 MSTORE PUSH1 0x20 PUSH1 0x0 KECCAK256 PUSH1 0x1F DUP5 ADD PUSH1 0x5 SHR DUP2 ADD PUSH1 0x20 DUP6 LT PUSH2 0x1414 JUMPI JUMPDEST PUSH1 0x1F DUP4 ADD PUSH1 0x5 SHR DUP3 ADD DUP2 LT PUSH2 0x1408 JUMPI POP POP PUSH2 0x11DA JUMP JUMPDEST PUSH1 0x0 DUP2 SSTORE PUSH1 0x1 ADD PUSH2 0x13F2 JUMP JUMPDEST POP DUP1 PUSH2 0x13F2 JUMP JUMPDEST PUSH1 0x40 MLOAD PUSH3 0x461BCD PUSH1 0xE5 SHL DUP2 MSTORE PUSH1 0x20 PUSH1 0x4 DUP3 ADD MSTORE PUSH1 0x13 PUSH1 0x24 DUP3 ADD MSTORE PUSH19 0x105B1C9958591E481A185CC81858D8DBDD5B9D PUSH1 0x6A SHL PUSH1 0x44 DUP3 ADD MSTORE REVERT JUMPDEST PUSH1 0x9 SWAP2 POP ADD SLOAD ISZERO DUP6 PUSH2 0x10EC JUMP JUMPDEST PUSH1 0x40 MLOAD PUSH3 0x461BCD PUSH1 0xE5 SHL DUP2 MSTORE PUSH1 0x20 PUSH1 0x4 DUP3 ADD MSTORE PUSH1 0x16 PUSH1 0x24 DUP3 ADD MSTORE PUSH22 0x4C6F636174696F6E206D75737420626520302D31303 PUSH1 0x54 SHL PUSH1 0x44 DUP3 ADD MSTORE REVERT JUMPDEST PUSH1 0x40 MLOAD PUSH3 0x461BCD PUSH1 0xE5 SHL DUP2 MSTORE PUSH1 0x20 PUSH1 0x4 DUP3 ADD MSTORE PUSH1 0x18 PUSH1 0x24 DUP3 ADD MSTORE PUSH32 0x426F6174206E616D6520696E76616C6964206C656E6774680000000000000000 PUSH1 0x44 DUP3 ADD MSTORE PUSH1 0x64 SWAP1 REVERT JUMPDEST POP PUSH1 0xC DUP2 GT ISZERO PUSH2 0x10C1 JUMP JUMPDEST CALLVALUE PUSH2 0x2E5 JUMPI PUSH1 0x20 DUP1 PUSH1 0x3 NOT CALLDATASIZE ADD SLT PUSH2 0x2E5 JUMPI PUSH1 0x4 CALLDATALOAD SWAP1 PUSH2 0x1509 PUSH2 0x2A8A JUMP JUMPDEST DUP2 PUSH1 0x0 MSTORE PUSH1 0x3 DUP2 MSTORE PUSH1 0x9 PUSH1 0x7 PUSH1 0x40 PUSH1 0x0 KECCAK256 CALLER PUSH1 0x0 MSTORE PUSH1 0x2 DUP5 MSTORE PUSH1 0x40 PUSH1 0x0 KECCAK256 SWAP4 PUSH2 0x1564 PUSH1 0x1 DUP4 ADD PUSH2 0x153B DUP2 SLOAD ISZERO ISZERO PUSH2 0x28CC JUMP JUMPDEST PUSH2 0x1544 CALLER PUSH2 0x2AAD JUMP JUMPDEST CALLER PUSH1 0x0 MSTORE PUSH1 0x4 DUP4 MSTORE PUSH1 0x40 PUSH1 0x0 KECCAK256 DUP9 PUSH1 0x0 MSTORE DUP4 MSTORE PUSH1 0x40 PUSH1 0x0 KECCAK256 SLOAD SWAP1 SLOAD PUSH2 0x2B6D JUMP JUMPDEST PUSH2 0x157A PUSH1 0x2 DUP8 ADD SWAP2 DUP3 SLOAD PUSH2 0xCA8 DUP3 DUP3 LT ISZERO PUSH2 0x288E JUMP JUMPDEST SWAP1 SSTORE CALLER PUSH1 0x0 MSTORE PUSH1 0x4 DUP2 MSTORE PUSH1 0x40 PUSH1 0x0 KECCAK256 SWAP1 DUP7 PUSH1 0x0 MSTORE MSTORE PUSH1 0x40 PUSH1 0x0 KECCAK256 PUSH2 0x159E DUP2 SLOAD PUSH2 0x2962 JUMP JUMPDEST SWAP1 SSTORE PUSH1 0x2 DUP2 ADD SLOAD PUSH2 0x15B4 PUSH1 0xC DUP7 ADD SWAP2 DUP3 SLOAD PUSH2 0x25A7 JUMP JUMPDEST SWAP1 SSTORE PUSH1 0x3 DUP2 ADD DUP1 SLOAD PUSH2 0x15CB PUSH1 0x5 DUP8 ADD SWAP2 DUP3 SLOAD PUSH2 0x25A7 JUMP JUMPDEST SWAP1 SSTORE SLOAD PUSH2 0x15DD PUSH1 0x4 DUP7 ADD SWAP2 DUP3 SLOAD PUSH2 0x25A7 JUMP JUMPDEST SWAP1 SSTORE PUSH1 0x4 DUP2 ADD SLOAD PUSH2 0x15F3 PUSH1 0x6 DUP7 ADD SWAP2 DUP3 SLOAD PUSH2 0x25A7 JUMP JUMPDEST SWAP1 SSTORE PUSH1 0x5 DUP2 ADD SLOAD PUSH2 0x1608 DUP4 DUP7 ADD SWAP2 DUP3 SLOAD PUSH2 0x25A7 JUMP JUMPDEST SWAP1 SSTORE PUSH1 0x6 DUP2 ADD SLOAD PUSH2 0x161E PUSH1 0x8 DUP7 ADD SWAP2 DUP3 SLOAD PUSH2 0x25A7 JUMP JUMPDEST SWAP1 SSTORE ADD SLOAD SWAP2 PUSH2 0x1632 PUSH1 0xA DUP3 ADD SWAP4 DUP5 SLOAD PUSH2 0x25A7 JUMP JUMPDEST DUP1 SWAP4 SSTORE ADD DUP2 DUP2 SLOAD GT PUSH2 0x166C JUMPI JUMPDEST DUP3 CALLER PUSH32 0xCF52C8AA8ED6B7D560B4E75DB6AB973723DE269D5580985C8880844D4ED6D7C0 PUSH1 0x0 DUP1 LOG3 PUSH1 0x1 DUP1 SSTORE STOP JUMPDEST SSTORE DUP2 DUP1 PUSH2 0x163F JUMP JUMPDEST CALLVALUE PUSH2 0x2E5 JUMPI PUSH1 0x0 CALLDATASIZE PUSH1 0x3 NOT ADD SLT PUSH2 0x2E5 JUMPI PUSH1 0x0 SLOAD PUSH1 0x40 MLOAD PUSH1 0x1 PUSH1 0x1 PUSH1 0xA0 SHL SUB SWAP1 SWAP2 AND DUP2 MSTORE PUSH1 0x20 SWAP1 RETURN JUMPDEST PUSH1 0x40 CALLDATASIZE PUSH1 0x3 NOT ADD SLT PUSH2 0x2E5 JUMPI PUSH1 0x4 CALLDATALOAD PUSH2 0x16B4 PUSH2 0x24AC JUMP JUMPDEST PUSH2 0x16BC PUSH2 0x2A8A JUMP JUMPDEST CALLER PUSH1 0x0 MSTORE PUSH1 0x20 PUSH1 0x2 DUP2 MSTORE PUSH1 0x40 PUSH1 0x0 KECCAK256 SWAP1 PUSH2 0x16DB PUSH1 0x4 DUP4 ADD SLOAD ISZERO ISZERO PUSH2 0x26ED JUMP JUMPDEST PUSH1 0x10 DUP3 ADD SWAP2 DUP3 SLOAD TIMESTAMP LT PUSH2 0x18E1 JUMPI PUSH1 0x64 DUP6 GT PUSH2 0x18A9 JUMPI PUSH1 0xB DUP2 ADD SWAP1 DUP2 SLOAD DUP1 DUP8 EQ PUSH2 0x1874 JUMPI DUP7 DUP2 DUP2 GT ISZERO PUSH2 0x1866 JUMPI SWAP1 PUSH2 0x1711 SWAP2 PUSH2 0x2728 JUMP JUMPDEST PUSH2 0xE10 SWAP1 DUP2 DUP2 MUL SWAP1 DUP1 DUP3 DIV DUP4 EQ DUP2 ISZERO OR ISZERO PUSH2 0x8A9 JUMPI PUSH1 0x6 DUP5 ADD SLOAD SWAP1 PUSH2 0x12C SWAP2 DUP3 DUP2 MUL SWAP3 DUP2 DUP5 DIV EQ SWAP1 ISZERO OR ISZERO PUSH2 0x8A9 JUMPI PUSH2 0x1749 SWAP2 PUSH2 0x25B4 JUMP JUMPDEST DUP2 DUP2 LT PUSH2 0x1858 JUMPI POP POP PUSH1 0x0 JUMPDEST DUP7 ISZERO PUSH2 0x180F JUMPI DIV SWAP1 DUP2 ISZERO PUSH2 0x1806 JUMPI JUMPDEST CALLVALUE PUSH2 0x17CF JUMPI PUSH1 0x3 ADD DUP1 SLOAD DUP8 SWAP4 SWAP3 PUSH2 0x1781 SWAP2 PUSH2 0xCA8 DUP3 DUP3 LT ISZERO PUSH2 0x284C JUMP JUMPDEST SWAP1 SSTORE PUSH2 0x178F PUSH1 0x0 JUMPDEST TIMESTAMP PUSH2 0x25A7 JUMP JUMPDEST DUP1 SWAP5 SSTORE SSTORE PUSH1 0x40 MLOAD SWAP4 DUP5 MSTORE DUP4 ADD MSTORE ISZERO ISZERO PUSH1 0x40 DUP3 ADD MSTORE PUSH32 0x9782A86993C9E75E77FDBBA3381A28A46E4F356E9516E67313BD4BD859C88A3F PUSH1 0x60 CALLER SWAP3 LOG2 PUSH1 0x1 DUP1 SSTORE STOP JUMPDEST PUSH1 0x40 MLOAD PUSH3 0x461BCD PUSH1 0xE5 SHL DUP2 MSTORE PUSH1 0x4 DUP2 ADD DUP6 SWAP1 MSTORE PUSH1 0xF PUSH1 0x24 DUP3 ADD MSTORE PUSH15 0x14185E481D9A5848191A585B5BDB99 PUSH1 0x8A SHL PUSH1 0x44 DUP3 ADD MSTORE PUSH1 0x64 SWAP1 REVERT JUMPDEST PUSH1 0x1 SWAP2 POP PUSH2 0x1764 JUMP JUMPDEST SWAP2 POP POP CALLVALUE PUSH2 0x1822 JUMPI SWAP1 PUSH2 0x178F DUP7 SWAP3 PUSH2 0x1789 JUMP JUMPDEST PUSH1 0x40 MLOAD PUSH3 0x461BCD PUSH1 0xE5 SHL DUP2 MSTORE PUSH1 0x4 DUP2 ADD DUP5 SWAP1 MSTORE PUSH1 0xE PUSH1 0x24 DUP3 ADD MSTORE PUSH14 0x2237B713BA1039B2B732102C2A2D PUSH1 0x91 SHL PUSH1 0x44 DUP3 ADD MSTORE PUSH1 0x64 SWAP1 REVERT JUMPDEST PUSH2 0x1861 SWAP2 PUSH2 0x2728 JUMP JUMPDEST PUSH2 0x1755 JUMP JUMPDEST PUSH2 0x186F SWAP2 PUSH2 0x2728 JUMP JUMPDEST PUSH2 0x1711 JUMP JUMPDEST PUSH1 0x40 MLOAD PUSH3 0x461BCD PUSH1 0xE5 SHL DUP2 MSTORE PUSH1 0x4 DUP2 ADD DUP6 SWAP1 MSTORE PUSH1 0xD PUSH1 0x24 DUP3 ADD MSTORE PUSH13 0x29B0B6B2903637B1B0BA34B7B7 PUSH1 0x99 SHL PUSH1 0x44 DUP3 ADD MSTORE PUSH1 0x64 SWAP1 REVERT JUMPDEST PUSH1 0x40 MLOAD PUSH3 0x461BCD PUSH1 0xE5 SHL DUP2 MSTORE PUSH1 0x4 DUP2 ADD DUP4 SWAP1 MSTORE PUSH1 0x10 PUSH1 0x24 DUP3 ADD MSTORE PUSH16 0x131BD8D85D1A5BDB881A5B9D985B1A59 PUSH1 0x82 SHL PUSH1 0x44 DUP3 ADD MSTORE PUSH1 0x64 SWAP1 REVERT JUMPDEST PUSH1 0x40 MLOAD PUSH3 0x461BCD PUSH1 0xE5 SHL DUP2 MSTORE PUSH1 0x4 DUP2 ADD DUP4 SWAP1 MSTORE PUSH1 0x11 PUSH1 0x24 DUP3 ADD MSTORE PUSH17 0x416C72656164792074726176656C696E67 PUSH1 0x78 SHL PUSH1 0x44 DUP3 ADD MSTORE PUSH1 0x64 SWAP1 REVERT JUMPDEST CALLVALUE PUSH2 0x2E5 JUMPI PUSH1 0x20 CALLDATASIZE PUSH1 0x3 NOT ADD SLT PUSH2 0x2E5 JUMPI PUSH1 0x4 CALLDATALOAD PUSH1 0x0 MSTORE PUSH1 0x3 PUSH1 0x20 MSTORE PUSH2 0x1983 PUSH1 0x40 PUSH1 0x0 KECCAK256 PUSH2 0x1947 DUP2 PUSH2 0x23C7 JUMP JUMPDEST SWAP1 PUSH1 0x1 DUP2 ADD SLOAD SWAP1 PUSH1 0x2 DUP2 ADD SLOAD SWAP1 PUSH1 0x3 DUP2 ADD SLOAD PUSH1 0x4 DUP3 ADD SLOAD PUSH1 0x5 DUP4 ADD SLOAD SWAP2 PUSH1 0x7 PUSH1 0x6 DUP6 ADD SLOAD SWAP5 ADD SLOAD SWAP5 PUSH1 0x40 MLOAD SWAP9 DUP10 SWAP9 PUSH2 0x100 DUP1 DUP12 MSTORE DUP11 ADD SWAP1 PUSH2 0x246C JUMP JUMPDEST SWAP7 PUSH1 0x20 DUP10 ADD MSTORE PUSH1 0x40 DUP9 ADD MSTORE PUSH1 0x60 DUP8 ADD MSTORE PUSH1 0x80 DUP7 ADD MSTORE PUSH1 0xA0 DUP6 ADD MSTORE PUSH1 0xC0 DUP5 ADD MSTORE PUSH1 0xE0 DUP4 ADD MSTORE SUB SWAP1 RETURN JUMPDEST CALLVALUE PUSH2 0x2E5 JUMPI PUSH1 0x0 CALLDATASIZE PUSH1 0x3 NOT ADD SLT PUSH2 0x2E5 JUMPI PUSH2 0x19C4 PUSH2 0x2BE1 JUMP JUMPDEST PUSH1 0x0 DUP1 SLOAD PUSH1 0x1 PUSH1 0x1 PUSH1 0xA0 SHL SUB NOT DUP2 AND DUP3 SSTORE PUSH1 0x1 PUSH1 0x1 PUSH1 0xA0 SHL SUB AND PUSH32 0x8BE0079C531659141344CD1FD0A4F28419497F9722A3DAAFE3B4186F6B6457E0 DUP3 DUP1 LOG3 STOP JUMPDEST CALLVALUE PUSH2 0x2E5 JUMPI PUSH1 0x20 CALLDATASIZE PUSH1 0x3 NOT ADD SLT PUSH2 0x2E5 JUMPI PUSH1 0x20 PUSH2 0x64B PUSH2 0x1A22 PUSH2 0x2311 JUMP JUMPDEST PUSH2 0x290C JUMP JUMPDEST CALLVALUE PUSH2 0x2E5 JUMPI PUSH1 0x20 CALLDATASIZE PUSH1 0x3 NOT ADD SLT PUSH2 0x2E5 JUMPI PUSH1 0x1 PUSH1 0x1 PUSH1 0xA0 SHL SUB PUSH2 0x1A48 PUSH2 0x2311 JUMP JUMPDEST AND PUSH1 0x0 MSTORE PUSH1 0x2 PUSH1 0x20 MSTORE PUSH1 0x40 PUSH1 0x0 KECCAK256 PUSH2 0x1A5F DUP2 PUSH2 0x23C7 JUMP JUMPDEST SWAP1 PUSH1 0x1 DUP2 ADD SLOAD PUSH1 0xFF AND PUSH1 0xE0 MSTORE PUSH1 0x2 DUP2 ADD SLOAD PUSH2 0x100 MSTORE PUSH1 0x3 DUP2 ADD SLOAD PUSH2 0x120 MSTORE PUSH1 0x4 DUP2 ADD SLOAD SWAP2 PUSH1 0x5 DUP3 ADD SLOAD PUSH1 0x6 DUP4 ADD SLOAD PUSH1 0x7 DUP5 ADD SLOAD PUSH1 0x8 DUP6 ADD SLOAD PUSH1 0x9 DUP7 ADD SLOAD PUSH1 0xA DUP8 ADD SLOAD SWAP1 PUSH1 0xB DUP9 ADD SLOAD SWAP3 PUSH1 0xC DUP10 ADD SLOAD SWAP5 PUSH1 0xD DUP11 ADD SLOAD SWAP7 PUSH1 0xE DUP12 ADD SLOAD SWAP9 PUSH1 0xF DUP13 ADD SLOAD SWAP11 PUSH1 0x10 DUP14 ADD SLOAD SWAP13 PUSH1 0x11 DUP2 ADD SLOAD PUSH1 0x80 MSTORE PUSH1 0x12 ADD SLOAD PUSH1 0xA0 MSTORE PUSH1 0x40 MLOAD PUSH1 0xC0 MSTORE PUSH2 0x260 DUP1 PUSH1 0xC0 MLOAD MSTORE PUSH1 0xC0 MLOAD ADD PUSH2 0x1AF0 SWAP2 PUSH2 0x246C JUMP JUMPDEST SWAP13 PUSH1 0xE0 MLOAD ISZERO ISZERO PUSH1 0xC0 MLOAD PUSH1 0x20 ADD MSTORE PUSH2 0x100 MLOAD PUSH1 0xC0 MLOAD PUSH1 0x40 ADD MSTORE PUSH2 0x120 MLOAD PUSH1 0xC0 MLOAD PUSH1 0x60 ADD MSTORE PUSH1 0xC0 MLOAD PUSH1 0x80 ADD MSTORE PUSH1 0xC0 MLOAD PUSH1 0xA0 ADD MSTORE PUSH1 0xC0 MLOAD PUSH1 0xC0 ADD MSTORE PUSH1 0xC0 MLOAD PUSH1 0xE0 ADD MSTORE PUSH1 0xC0 MLOAD PUSH2 0x100 ADD MSTORE PUSH1 0xC0 MLOAD PUSH2 0x120 ADD MSTORE PUSH1 0xC0 MLOAD PUSH2 0x140 ADD MSTORE PUSH1 0xC0 MLOAD PUSH2 0x160 ADD MSTORE PUSH1 0xC0 MLOAD PUSH2 0x180 ADD MSTORE PUSH1 0xC0 MLOAD PUSH2 0x1A0 ADD MSTORE PUSH1 0xC0 MLOAD PUSH2 0x1C0 ADD MSTORE PUSH1 0xC0 MLOAD PUSH2 0x1E0 ADD MSTORE PUSH1 0xC0 MLOAD PUSH2 0x200 ADD MSTORE PUSH1 0x80 MLOAD PUSH1 0xC0 MLOAD PUSH2 0x220 ADD MSTORE PUSH1 0xA0 MLOAD PUSH1 0xC0 MLOAD PUSH2 0x240 ADD MSTORE PUSH1 0xC0 MLOAD SWAP1 SUB PUSH1 0xC0 MLOAD RETURN JUMPDEST CALLVALUE PUSH2 0x2E5 JUMPI PUSH1 0x40 CALLDATASIZE PUSH1 0x3 NOT ADD SLT PUSH2 0x2E5 JUMPI PUSH1 0x24 CALLDATALOAD PUSH1 0x1 PUSH1 0x1 PUSH1 0xA0 SHL SUB DUP2 AND SWAP1 PUSH1 0x4 CALLDATALOAD SWAP1 DUP3 SWAP1 SUB PUSH2 0x2E5 JUMPI PUSH1 0x20 SWAP2 DUP2 PUSH2 0x64B SWAP3 PUSH1 0x0 MSTORE PUSH1 0x3 DUP5 MSTORE PUSH1 0x1 PUSH1 0x40 PUSH1 0x0 KECCAK256 ADD SLOAD SWAP2 PUSH2 0x1BE5 DUP4 ISZERO ISZERO PUSH2 0x28CC JUMP JUMPDEST PUSH1 0x0 MSTORE PUSH1 0x4 DUP5 MSTORE PUSH1 0x40 PUSH1 0x0 KECCAK256 SWAP1 PUSH1 0x0 MSTORE DUP4 MSTORE PUSH1 0x40 PUSH1 0x0 KECCAK256 SLOAD SWAP1 PUSH2 0x2B6D JUMP JUMPDEST CALLVALUE PUSH2 0x2E5 JUMPI PUSH1 0x20 DUP1 PUSH1 0x3 NOT CALLDATASIZE ADD SLT PUSH2 0x2E5 JUMPI PUSH1 0x4 CALLDATALOAD SWAP1 PUSH1 0x3 DUP3 LT ISZERO PUSH2 0x2E5 JUMPI PUSH2 0x1C2A PUSH2 0x2A8A JUMP JUMPDEST CALLER PUSH1 0x0 MSTORE PUSH1 0x2 DUP2 MSTORE PUSH1 0x40 PUSH1 0x0 KECCAK256 PUSH2 0x1C45 PUSH1 0x4 DUP3 ADD SLOAD ISZERO PUSH2 0x275E JUMP JUMPDEST PUSH1 0x12 DUP2 ADD SWAP2 DUP3 SLOAD TIMESTAMP LT PUSH2 0x1E1D JUMPI PUSH2 0x1C5F PUSH1 0xB DUP4 ADD SLOAD PUSH2 0x2735 JUMP JUMPDEST ISZERO PUSH2 0x1DE7 JUMPI PUSH1 0x40 MLOAD PUSH4 0xAFBCEA5 PUSH1 0xE0 SHL DUP2 MSTORE CALLER PUSH1 0x4 DUP3 ADD MSTORE PUSH1 0x0 SWAP3 DUP4 SWAP2 SWAP1 PUSH1 0xC0 DUP3 PUSH1 0x24 DUP2 ADDRESS GAS STATICCALL SWAP2 DUP3 ISZERO PUSH2 0xC1 JUMPI PUSH1 0x0 SWAP1 PUSH1 0x0 SWAP4 PUSH2 0x1D9E JUMPI JUMPDEST POP PUSH1 0x0 SWAP4 DUP9 PUSH2 0x1D07 JUMPI POP POP POP MLOAD SWAP4 PUSH2 0x1CB0 DUP6 TIMESTAMP PUSH2 0x25A7 JUMP JUMPDEST SWAP1 SSTORE JUMPDEST PUSH2 0x1CF1 JUMPI PUSH1 0x40 MLOAD SWAP4 DUP5 MSTORE DUP4 ADD MSTORE PUSH1 0x40 DUP3 ADD MSTORE PUSH32 0xCEAF11028A962CAC404996BD00DF91DB254D60670B1D4C940EB519227E998B37 PUSH1 0x60 CALLER SWAP3 LOG2 PUSH1 0x1 DUP1 SSTORE STOP JUMPDEST PUSH4 0x4E487B71 PUSH1 0xE0 SHL PUSH1 0x0 MSTORE PUSH1 0x21 PUSH1 0x4 MSTORE PUSH1 0x24 PUSH1 0x0 REVERT JUMPDEST SWAP1 SWAP2 SWAP7 SWAP3 SWAP6 SWAP4 POP PUSH1 0x0 SWAP4 PUSH1 0x1 DUP10 EQ PUSH1 0x0 EQ PUSH2 0x1D58 JUMPI POP POP DUP4 DUP1 PUSH1 0x2 SWAP3 ADD MLOAD SWAP6 ADD MLOAD SWAP6 PUSH2 0x1D32 CALLER PUSH2 0x2AAD JUMP JUMPDEST ADD PUSH2 0x1D45 DUP6 DUP3 SLOAD PUSH2 0xCA8 DUP3 DUP3 LT ISZERO PUSH2 0x288E JUMP JUMPDEST SWAP1 SSTORE PUSH2 0x1D51 DUP6 TIMESTAMP PUSH2 0x25A7 JUMP JUMPDEST SWAP1 SSTORE PUSH2 0x1CB3 JUMP JUMPDEST SWAP6 POP SWAP6 SWAP2 SWAP1 SWAP3 POP PUSH1 0x0 SWAP3 PUSH1 0x2 DUP9 EQ PUSH2 0x1D73 JUMPI JUMPDEST POP POP POP PUSH2 0x1CB3 JUMP JUMPDEST PUSH1 0x3 SWAP2 SWAP3 SWAP6 POP PUSH1 0x40 ADD MLOAD SWAP5 ADD PUSH2 0x1D91 DUP6 DUP3 SLOAD PUSH2 0xCA8 DUP3 DUP3 LT ISZERO PUSH2 0x284C JUMP JUMPDEST SWAP1 SSTORE TIMESTAMP SWAP1 SSTORE DUP6 DUP1 DUP1 PUSH2 0x1D6B JUMP JUMPDEST SWAP3 POP POP PUSH1 0xC0 RETURNDATASIZE PUSH1 0xC0 GT PUSH2 0x1DE0 JUMPI JUMPDEST PUSH2 0x1DB6 DUP2 DUP5 PUSH2 0x23A5 JUMP JUMPDEST DUP3 ADD PUSH1 0xC0 DUP4 DUP3 SUB SLT PUSH2 0x2E5 JUMPI DUP1 PUSH1 0x60 PUSH2 0x1DD2 PUSH2 0x1DD9 SWAP4 DUP7 PUSH2 0x2807 JUMP JUMPDEST SWAP5 ADD PUSH2 0x2807 JUMP JUMPDEST SWAP2 DUP9 PUSH2 0x1C98 JUMP JUMPDEST POP RETURNDATASIZE PUSH2 0x1DAC JUMP JUMPDEST PUSH1 0x64 SWAP1 PUSH1 0x40 MLOAD SWAP1 PUSH3 0x461BCD PUSH1 0xE5 SHL DUP3 MSTORE PUSH1 0x4 DUP3 ADD MSTORE PUSH1 0xF PUSH1 0x24 DUP3 ADD MSTORE PUSH15 0x135D5CDD08189948185D081C1BDC9D PUSH1 0x8A SHL PUSH1 0x44 DUP3 ADD MSTORE REVERT JUMPDEST PUSH1 0x64 SWAP1 PUSH1 0x40 MLOAD SWAP1 PUSH3 0x461BCD PUSH1 0xE5 SHL DUP3 MSTORE PUSH1 0x4 DUP3 ADD MSTORE PUSH1 0x12 PUSH1 0x24 DUP3 ADD MSTORE PUSH18 0x52657061697220696E2070726F6772657373 PUSH1 0x70 SHL PUSH1 0x44 DUP3 ADD MSTORE REVERT JUMPDEST CALLVALUE PUSH2 0x2E5 JUMPI PUSH1 0x20 CALLDATASIZE PUSH1 0x3 NOT ADD SLT PUSH2 0x2E5 JUMPI PUSH1 0x20 PUSH2 0x64B PUSH2 0x1E74 PUSH2 0x2311 JUMP JUMPDEST PUSH2 0x279D JUMP JUMPDEST CALLVALUE PUSH2 0x2E5 JUMPI PUSH1 0x40 CALLDATASIZE PUSH1 0x3 NOT ADD SLT PUSH2 0x2E5 JUMPI PUSH1 0x1 PUSH1 0x1 PUSH1 0xA0 SHL SUB PUSH2 0x1E9A PUSH2 0x2311 JUMP JUMPDEST AND PUSH1 0x0 MSTORE PUSH1 0x4 PUSH1 0x20 MSTORE PUSH1 0x40 PUSH1 0x0 KECCAK256 PUSH1 0x24 CALLDATALOAD PUSH1 0x0 MSTORE PUSH1 0x20 MSTORE PUSH1 0x20 PUSH1 0x40 PUSH1 0x0 KECCAK256 SLOAD PUSH1 0x40 MLOAD SWAP1 DUP2 MSTORE RETURN JUMPDEST CALLVALUE PUSH2 0x2E5 JUMPI PUSH1 0x0 CALLDATASIZE PUSH1 0x3 NOT ADD SLT PUSH2 0x2E5 JUMPI PUSH2 0x1EDA PUSH2 0x2A8A JUMP JUMPDEST CALLER PUSH1 0x0 MSTORE PUSH1 0x2 PUSH1 0x20 MSTORE PUSH1 0x40 PUSH1 0x0 KECCAK256 PUSH1 0x4 DUP2 ADD PUSH2 0x1EF7 DUP2 SLOAD ISZERO PUSH2 0x275E JUMP JUMPDEST PUSH1 0x12 DUP3 ADD SWAP1 DUP2 SLOAD SWAP1 DUP2 TIMESTAMP LT PUSH2 0x1FD8 JUMPI DUP2 ISZERO PUSH2 0x1F9B JUMPI PUSH1 0x5 DUP5 ADD SLOAD DUP1 SWAP2 SSTORE PUSH1 0x0 PUSH1 0xF DUP6 ADD SSTORE PUSH1 0x18 DUP2 ADD DUP1 SWAP2 GT PUSH2 0x8A9 JUMPI PUSH1 0x19 SWAP1 DIV SWAP1 PUSH2 0x708 SWAP2 DUP3 DUP2 MUL SWAP3 DUP2 DUP5 DIV EQ SWAP1 ISZERO OR ISZERO PUSH2 0x8A9 JUMPI PUSH1 0x3B NOT DUP3 ADD SWAP2 DUP3 GT PUSH2 0x8A9 JUMPI LT PUSH2 0x1F89 JUMPI PUSH1 0xA DUP3 ADD SLOAD SWAP2 PUSH1 0x1 DUP4 ADD DUP1 SWAP4 GT PUSH2 0x8A9 JUMPI PUSH1 0x1 PUSH1 0x9 PUSH1 0x0 SWAP5 DUP3 SHR SWAP3 ADD SWAP2 DUP1 DUP4 SSTORE LT PUSH2 0x1F7F JUMPI JUMPDEST POP JUMPDEST SSTORE PUSH1 0x1 DUP1 SSTORE STOP JUMPDEST PUSH1 0x1 SWAP1 SSTORE DUP3 PUSH2 0x1F76 JUMP JUMPDEST DUP2 PUSH1 0x9 PUSH1 0xA PUSH1 0x0 SWAP5 ADD SLOAD SWAP2 ADD SSTORE PUSH2 0x1F78 JUMP JUMPDEST PUSH1 0x40 MLOAD PUSH3 0x461BCD PUSH1 0xE5 SHL DUP2 MSTORE PUSH1 0x20 PUSH1 0x4 DUP3 ADD MSTORE PUSH1 0x15 PUSH1 0x24 DUP3 ADD MSTORE PUSH21 0x4E6F2072657061697220696E2070726F6772657373 PUSH1 0x58 SHL PUSH1 0x44 DUP3 ADD MSTORE PUSH1 0x64 SWAP1 REVERT JUMPDEST PUSH1 0x40 MLOAD PUSH3 0x461BCD PUSH1 0xE5 SHL DUP2 MSTORE PUSH1 0x20 PUSH1 0x4 DUP3 ADD MSTORE PUSH1 0x10 PUSH1 0x24 DUP3 ADD MSTORE PUSH16 0x526570616972206E6F74207265616479 PUSH1 0x80 SHL PUSH1 0x44 DUP3 ADD MSTORE PUSH1 0x64 SWAP1 REVERT JUMPDEST CALLVALUE PUSH2 0x2E5 JUMPI PUSH1 0x20 CALLDATASIZE PUSH1 0x3 NOT ADD SLT PUSH2 0x2E5 JUMPI PUSH1 0x20 PUSH2 0x202E PUSH1 0x4 CALLDATALOAD PUSH2 0x2735 JUMP JUMPDEST PUSH1 0x40 MLOAD SWAP1 ISZERO ISZERO DUP2 MSTORE RETURN JUMPDEST CALLVALUE PUSH2 0x2E5 JUMPI PUSH1 0x0 CALLDATASIZE PUSH1 0x3 NOT ADD SLT PUSH2 0x2E5 JUMPI CALLER PUSH1 0x0 MSTORE PUSH1 0x2 PUSH1 0x20 MSTORE PUSH1 0x40 PUSH1 0x0 KECCAK256 PUSH2 0x2066 PUSH1 0x4 DUP3 ADD SLOAD ISZERO ISZERO PUSH2 0x26ED JUMP JUMPDEST PUSH3 0x15180 DUP1 TIMESTAMP DIV PUSH1 0xD DUP4 ADD SWAP2 DUP3 SLOAD DIV DUP2 DUP2 LT ISZERO PUSH2 0x212D JUMPI PUSH1 0x0 NOT DUP3 ADD SWAP2 DUP3 GT PUSH2 0x8A9 JUMPI SUB PUSH2 0x2121 JUMPI PUSH1 0xE DUP3 ADD DUP1 SLOAD SWAP1 PUSH1 0x1 DUP3 ADD DUP1 SWAP3 GT PUSH2 0x8A9 JUMPI SSTORE JUMPDEST TIMESTAMP SWAP1 SSTORE PUSH1 0x9 DUP2 ADD SLOAD SWAP1 PUSH1 0x19 DUP3 MUL SWAP2 DUP1 DUP4 DIV PUSH1 0x19 EQ SWAP1 ISZERO OR ISZERO PUSH2 0x8A9 JUMPI PUSH1 0xE DUP2 ADD SLOAD SWAP2 DUP3 PUSH1 0x5 MUL SWAP1 PUSH1 0x5 DUP3 DIV DUP5 SUB PUSH2 0x8A9 JUMPI PUSH1 0x2 SWAP2 PUSH2 0x20DF SWAP2 PUSH2 0x25A7 JUMP JUMPDEST SWAP2 ADD PUSH2 0x20EC DUP3 DUP3 SLOAD PUSH2 0x25A7 JUMP JUMPDEST SWAP1 SSTORE PUSH1 0x40 MLOAD SWAP2 DUP3 MSTORE PUSH1 0x20 DUP3 ADD MSTORE PUSH32 0xB9CFEA4717F167774A6E8643C33472935D3EF918453525EEFCA6936078B7CFDD PUSH1 0x40 CALLER SWAP3 LOG2 STOP JUMPDEST PUSH1 0x1 PUSH1 0xE DUP4 ADD SSTORE PUSH2 0x20A2 JUMP JUMPDEST PUSH1 0x40 MLOAD PUSH3 0x461BCD PUSH1 0xE5 SHL DUP2 MSTORE PUSH1 0x20 PUSH1 0x4 DUP3 ADD MSTORE PUSH1 0x18 PUSH1 0x24 DUP3 ADD MSTORE PUSH32 0x416C726561647920636865636B656420696E20746F6461790000000000000000 PUSH1 0x44 DUP3 ADD MSTORE PUSH1 0x64 SWAP1 REVERT JUMPDEST CALLVALUE PUSH2 0x2E5 JUMPI PUSH1 0x0 CALLDATASIZE PUSH1 0x3 NOT ADD SLT PUSH2 0x2E5 JUMPI PUSH2 0x218B PUSH2 0x2A8A JUMP JUMPDEST CALLER PUSH1 0x0 MSTORE PUSH1 0x2 PUSH1 0x20 MSTORE PUSH1 0x40 PUSH1 0x0 KECCAK256 PUSH2 0x21A8 PUSH1 0x4 DUP3 ADD SLOAD ISZERO ISZERO PUSH2 0x26ED JUMP JUMPDEST PUSH1 0xC DUP2 ADD SLOAD DUP1 ISZERO PUSH2 0x2298 JUMPI PUSH1 0x11 DUP3 ADD PUSH2 0x21C2 DUP2 SLOAD TIMESTAMP PUSH2 0x2728 JUMP JUMPDEST SWAP2 DUP3 ISZERO PUSH2 0x2261 JUMPI PUSH2 0x21D7 SWAP1 PUSH1 0x3C DUP5 DIV SWAP1 PUSH2 0x25B4 JUMP JUMPDEST SWAP3 DUP4 ISZERO PUSH2 0x2229 JUMPI PUSH1 0x2 SWAP2 TIMESTAMP SWAP1 SSTORE ADD PUSH2 0x21F0 DUP4 DUP3 SLOAD PUSH2 0x25A7 JUMP JUMPDEST SWAP1 SSTORE PUSH1 0x40 MLOAD SWAP2 DUP3 MSTORE PUSH1 0x20 DUP3 ADD MSTORE PUSH32 0x6ED0C81F2EB08CA19CF12AAB8DFA5D3566D3140926B3E0035B8423029996C185 PUSH1 0x40 CALLER SWAP3 LOG2 PUSH1 0x1 DUP1 SSTORE STOP JUMPDEST PUSH1 0x40 MLOAD PUSH3 0x461BCD PUSH1 0xE5 SHL DUP2 MSTORE PUSH1 0x20 PUSH1 0x4 DUP3 ADD MSTORE PUSH1 0x10 PUSH1 0x24 DUP3 ADD MSTORE PUSH16 0x4E6F20676F6C6420746F20636C61696D PUSH1 0x80 SHL PUSH1 0x44 DUP3 ADD MSTORE PUSH1 0x64 SWAP1 REVERT JUMPDEST PUSH1 0x40 MLOAD PUSH3 0x461BCD PUSH1 0xE5 SHL DUP2 MSTORE PUSH1 0x20 PUSH1 0x4 DUP3 ADD MSTORE PUSH1 0xF PUSH1 0x24 DUP3 ADD MSTORE PUSH15 0x139BC81D1A5B5948195B185C1CD959 PUSH1 0x8A SHL PUSH1 0x44 DUP3 ADD MSTORE PUSH1 0x64 SWAP1 REVERT JUMPDEST PUSH1 0x40 MLOAD PUSH3 0x461BCD PUSH1 0xE5 SHL DUP2 MSTORE PUSH1 0x20 PUSH1 0x4 DUP3 ADD MSTORE PUSH1 0xF PUSH1 0x24 DUP3 ADD MSTORE PUSH15 0x4E6F2047504D20746F20636C61696D PUSH1 0x88 SHL PUSH1 0x44 DUP3 ADD MSTORE PUSH1 0x64 SWAP1 REVERT JUMPDEST CALLVALUE PUSH2 0x2E5 JUMPI PUSH1 0x20 CALLDATASIZE PUSH1 0x3 NOT ADD SLT PUSH2 0x2E5 JUMPI PUSH1 0xC0 PUSH2 0x230F PUSH2 0x22F5 PUSH2 0x22F0 PUSH2 0x2311 JUMP JUMPDEST PUSH2 0x25C7 JUMP JUMPDEST PUSH2 0x2305 PUSH1 0x40 SWAP4 SWAP3 SWAP4 MLOAD DUP1 SWAP5 PUSH2 0x2327 JUMP JUMPDEST PUSH1 0x60 DUP4 ADD SWAP1 PUSH2 0x2327 JUMP JUMPDEST RETURN JUMPDEST PUSH1 0x4 CALLDATALOAD SWAP1 PUSH1 0x1 PUSH1 0x1 PUSH1 0xA0 SHL SUB DUP3 AND DUP3 SUB PUSH2 0x2E5 JUMPI JUMP JUMPDEST PUSH1 0x0 SWAP2 JUMPDEST PUSH1 0x3 DUP4 LT PUSH2 0x2338 JUMPI POP POP POP JUMP JUMPDEST PUSH1 0x1 SWAP1 DUP3 MLOAD DUP2 MSTORE PUSH1 0x20 DUP1 SWAP2 ADD SWAP3 ADD SWAP3 ADD SWAP2 SWAP1 PUSH2 0x232B JUMP JUMPDEST SWAP1 PUSH1 0x1 DUP3 DUP2 SHR SWAP3 AND DUP1 ISZERO PUSH2 0x237F JUMPI JUMPDEST PUSH1 0x20 DUP4 LT EQ PUSH2 0x2369 JUMPI JUMP JUMPDEST PUSH4 0x4E487B71 PUSH1 0xE0 SHL PUSH1 0x0 MSTORE PUSH1 0x22 PUSH1 0x4 MSTORE PUSH1 0x24 PUSH1 0x0 REVERT JUMPDEST SWAP2 PUSH1 0x7F AND SWAP2 PUSH2 0x235E JUMP JUMPDEST PUSH1 0x60 DUP2 ADD SWAP1 DUP2 LT PUSH8 0xFFFFFFFFFFFFFFFF DUP3 GT OR PUSH2 0x612 JUMPI PUSH1 0x40 MSTORE JUMP JUMPDEST SWAP1 PUSH1 0x1F DUP1 NOT SWAP2 ADD AND DUP2 ADD SWAP1 DUP2 LT PUSH8 0xFFFFFFFFFFFFFFFF DUP3 GT OR PUSH2 0x612 JUMPI PUSH1 0x40 MSTORE JUMP JUMPDEST SWAP1 PUSH1 0x40 MLOAD SWAP2 DUP3 PUSH1 0x0 DUP3 SLOAD PUSH2 0x23DA DUP2 PUSH2 0x234F JUMP JUMPDEST SWAP1 DUP2 DUP5 MSTORE PUSH1 0x20 SWAP5 PUSH1 0x1 SWAP2 PUSH1 0x1 DUP2 AND SWAP1 DUP2 PUSH1 0x0 EQ PUSH2 0x244A JUMPI POP PUSH1 0x1 EQ PUSH2 0x240B JUMPI JUMPDEST POP POP POP PUSH2 0x2409 SWAP3 POP SUB DUP4 PUSH2 0x23A5 JUMP JUMPDEST JUMP JUMPDEST PUSH1 0x0 SWAP1 DUP2 MSTORE DUP6 DUP2 KECCAK256 SWAP6 SWAP4 POP SWAP2 SWAP1 JUMPDEST DUP2 DUP4 LT PUSH2 0x2432 JUMPI POP POP PUSH2 0x2409 SWAP4 POP DUP3 ADD ADD CODESIZE DUP1 DUP1 PUSH2 0x23FA JUMP JUMPDEST DUP6 SLOAD DUP9 DUP5 ADD DUP6 ADD MSTORE SWAP5 DUP6 ADD SWAP5 DUP8 SWAP5 POP SWAP2 DUP4 ADD SWAP2 PUSH2 0x2419 JUMP JUMPDEST SWAP3 POP POP POP PUSH2 0x2409 SWAP5 SWAP3 POP PUSH1 0xFF NOT AND DUP3 DUP5 ADD MSTORE ISZERO ISZERO PUSH1 0x5 SHL DUP3 ADD ADD CODESIZE DUP1 DUP1 PUSH2 0x23FA JUMP JUMPDEST SWAP2 SWAP1 DUP3 MLOAD SWAP3 DUP4 DUP3 MSTORE PUSH1 0x0 JUMPDEST DUP5 DUP2 LT PUSH2 0x2498 JUMPI POP POP DUP3 PUSH1 0x0 PUSH1 0x20 DUP1 SWAP5 SWAP6 DUP5 ADD ADD MSTORE PUSH1 0x1F DUP1 NOT SWAP2 ADD AND ADD ADD SWAP1 JUMP JUMPDEST PUSH1 0x20 DUP2 DUP4 ADD DUP2 ADD MLOAD DUP5 DUP4 ADD DUP3 ADD MSTORE ADD PUSH2 0x2477 JUMP JUMPDEST PUSH1 0x24 CALLDATALOAD SWAP1 DUP2 ISZERO ISZERO DUP3 SUB PUSH2 0x2E5 JUMPI JUMP JUMPDEST SWAP2 DUP2 PUSH1 0x1F DUP5 ADD SLT ISZERO PUSH2 0x2E5 JUMPI DUP3 CALLDATALOAD SWAP2 PUSH8 0xFFFFFFFFFFFFFFFF DUP4 GT PUSH2 0x2E5 JUMPI PUSH1 0x20 DUP4 DUP2 DUP7 ADD SWAP6 ADD ADD GT PUSH2 0x2E5 JUMPI JUMP JUMPDEST SWAP1 DUP2 MLOAD DUP1 DUP3 MSTORE PUSH1 0x20 DUP1 DUP1 SWAP4 ADD SWAP4 ADD SWAP2 PUSH1 0x0 JUMPDEST DUP3 DUP2 LT PUSH2 0x2509 JUMPI POP POP POP POP SWAP1 JUMP JUMPDEST DUP4 MLOAD PUSH1 0x1 PUSH1 0x1 PUSH1 0xA0 SHL SUB AND DUP6 MSTORE SWAP4 DUP2 ADD SWAP4 SWAP3 DUP2 ADD SWAP3 PUSH1 0x1 ADD PUSH2 0x24FB JUMP JUMPDEST SWAP1 DUP2 MLOAD DUP1 DUP3 MSTORE PUSH1 0x20 DUP1 DUP1 SWAP4 ADD SWAP4 ADD SWAP2 PUSH1 0x0 JUMPDEST DUP3 DUP2 LT PUSH2 0x2546 JUMPI POP POP POP POP SWAP1 JUMP JUMPDEST DUP4 MLOAD DUP6 MSTORE SWAP4 DUP2 ADD SWAP4 SWAP3 DUP2 ADD SWAP3 PUSH1 0x1 ADD PUSH2 0x2538 JUMP JUMPDEST PUSH1 0x6 SLOAD DUP2 LT ISZERO PUSH2 0x2591 JUMPI PUSH1 0x6 PUSH1 0x0 MSTORE PUSH32 0xF652222313E28459528D920B65115C16C04F3EFC82AAEDC97BE59F3F377C0D3F ADD SWAP1 PUSH1 0x0 SWAP1 JUMP JUMPDEST PUSH4 0x4E487B71 PUSH1 0xE0 SHL PUSH1 0x0 MSTORE PUSH1 0x32 PUSH1 0x4 MSTORE PUSH1 0x24 PUSH1 0x0 REVERT JUMPDEST SWAP2 SWAP1 DUP3 ADD DUP1 SWAP3 GT PUSH2 0x8A9 JUMPI JUMP JUMPDEST DUP2 DUP2 MUL SWAP3 SWAP2 DUP2 ISZERO SWAP2 DUP5 DIV EQ OR ISZERO PUSH2 0x8A9 JUMPI JUMP JUMPDEST SWAP1 PUSH1 0x40 DUP1 MLOAD PUSH2 0x25D5 DUP2 PUSH2 0x2389 JUMP JUMPDEST PUSH1 0x60 CALLDATASIZE DUP3 CALLDATACOPY SWAP1 DUP1 MLOAD PUSH2 0x25E6 DUP2 PUSH2 0x2389 JUMP JUMPDEST PUSH1 0x60 CALLDATASIZE DUP3 CALLDATACOPY PUSH1 0x1 PUSH1 0x1 PUSH1 0xA0 SHL SUB SWAP1 SWAP5 AND PUSH1 0x0 SWAP1 DUP2 MSTORE PUSH1 0x2 PUSH1 0x20 MSTORE DUP2 DUP2 KECCAK256 PUSH1 0x4 DUP2 ADD SLOAD PUSH2 0x26B2 JUMPI PUSH1 0x5 ADD SLOAD SWAP1 PUSH1 0x18 DUP3 ADD DUP1 DUP4 GT PUSH2 0x268A JUMPI PUSH1 0x19 SWAP1 DIV PUSH2 0x708 DUP1 DUP3 MUL DUP3 ISZERO SWAP2 DUP4 DUP3 DIV EQ DUP3 OR ISZERO PUSH2 0x269E JUMPI DUP9 MSTORE PUSH2 0x12C DUP1 DUP4 MUL SWAP3 DUP4 DIV EQ OR ISZERO PUSH2 0x268A JUMPI PUSH1 0x20 DUP8 ADD MSTORE DUP1 DUP4 DUP8 ADD MSTORE DUP1 DUP5 MSTORE PUSH1 0x14 DUP3 MUL SWAP2 DUP1 DUP4 DIV PUSH1 0x14 EQ SWAP1 ISZERO OR ISZERO PUSH2 0x2676 JUMPI POP PUSH1 0x20 DUP4 ADD MSTORE PUSH1 0x1 SWAP1 DUP3 ADD MSTORE SWAP2 SWAP1 JUMP JUMPDEST PUSH4 0x4E487B71 PUSH1 0xE0 SHL DUP2 MSTORE PUSH1 0x11 PUSH1 0x4 MSTORE PUSH1 0x24 SWAP1 REVERT JUMPDEST PUSH4 0x4E487B71 PUSH1 0xE0 SHL DUP3 MSTORE PUSH1 0x11 PUSH1 0x4 MSTORE PUSH1 0x24 DUP3 REVERT JUMPDEST PUSH4 0x4E487B71 PUSH1 0xE0 SHL DUP5 MSTORE PUSH1 0x11 PUSH1 0x4 MSTORE PUSH1 0x24 DUP5 REVERT JUMPDEST POP SWAP2 POP DUP1 SWAP4 POP MLOAD SWAP1 PUSH2 0x26C3 DUP3 PUSH2 0x2389 JUMP JUMPDEST DUP1 DUP3 MSTORE DUP1 PUSH1 0x20 DUP4 ADD MSTORE DUP1 DUP5 DUP4 ADD MSTORE DUP4 MLOAD SWAP4 PUSH2 0x26DD DUP6 PUSH2 0x2389 JUMP JUMPDEST DUP2 DUP6 MSTORE DUP2 PUSH1 0x20 DUP7 ADD MSTORE DUP5 ADD MSTORE SWAP2 SWAP1 JUMP JUMPDEST ISZERO PUSH2 0x26F4 JUMPI JUMP JUMPDEST PUSH1 0x40 MLOAD PUSH3 0x461BCD PUSH1 0xE5 SHL DUP2 MSTORE PUSH1 0x20 PUSH1 0x4 DUP3 ADD MSTORE PUSH1 0xC PUSH1 0x24 DUP3 ADD MSTORE PUSH12 0x14DA1A5C081DDC9958DAD959 PUSH1 0xA2 SHL PUSH1 0x44 DUP3 ADD MSTORE PUSH1 0x64 SWAP1 REVERT JUMPDEST SWAP2 SWAP1 DUP3 SUB SWAP2 DUP3 GT PUSH2 0x8A9 JUMPI JUMP JUMPDEST PUSH1 0x19 DUP2 EQ SWAP1 DUP2 ISZERO PUSH2 0x2753 JUMPI JUMPDEST DUP2 ISZERO PUSH2 0x274B JUMPI POP SWAP1 JUMP JUMPDEST PUSH1 0x59 SWAP2 POP EQ SWAP1 JUMP JUMPDEST PUSH1 0x37 DUP2 EQ SWAP2 POP PUSH2 0x2741 JUMP JUMPDEST ISZERO PUSH2 0x2765 JUMPI JUMP JUMPDEST PUSH1 0x40 MLOAD PUSH3 0x461BCD PUSH1 0xE5 SHL DUP2 MSTORE PUSH1 0x20 PUSH1 0x4 DUP3 ADD MSTORE PUSH1 0x10 PUSH1 0x24 DUP3 ADD MSTORE PUSH16 0x14DA1A5C081B9BDD081DDC9958DAD959 PUSH1 0x82 SHL PUSH1 0x44 DUP3 ADD MSTORE PUSH1 0x64 SWAP1 REVERT JUMPDEST PUSH1 0x1 PUSH1 0x1 PUSH1 0xA0 SHL SUB AND PUSH1 0x0 SWAP1 DUP2 MSTORE PUSH1 0x2 PUSH1 0x20 MSTORE PUSH1 0x40 SWAP1 KECCAK256 PUSH1 0x4 DUP2 ADD SLOAD ISZERO DUP1 ISZERO PUSH2 0x27F5 JUMPI JUMPDEST PUSH2 0x27EF JUMPI DUP1 PUSH1 0x9 PUSH1 0xA PUSH2 0x27D9 SWAP4 ADD SLOAD SWAP2 ADD SLOAD SWAP1 PUSH2 0x2728 JUMP JUMPDEST PUSH1 0xA DUP2 MUL SWAP1 DUP1 DUP3 DIV PUSH1 0xA EQ SWAP1 ISZERO OR ISZERO PUSH2 0x8A9 JUMPI SWAP1 JUMP JUMPDEST POP PUSH1 0x0 SWAP1 JUMP JUMPDEST POP PUSH1 0x9 DUP2 ADD SLOAD PUSH1 0xA DUP3 ADD SLOAD GT ISZERO PUSH2 0x27C1 JUMP JUMPDEST SWAP1 DUP1 PUSH1 0x1F DUP4 ADD SLT ISZERO PUSH2 0x2E5 JUMPI PUSH1 0x40 MLOAD SWAP2 PUSH2 0x2820 DUP4 PUSH2 0x2389 JUMP JUMPDEST DUP3 SWAP1 PUSH1 0x60 DUP2 ADD SWAP3 DUP4 GT PUSH2 0x2E5 JUMPI SWAP1 JUMPDEST DUP3 DUP3 LT PUSH2 0x283C JUMPI POP POP POP SWAP1 JUMP JUMPDEST DUP2 MLOAD DUP2 MSTORE PUSH1 0x20 SWAP2 DUP3 ADD SWAP2 ADD PUSH2 0x282F JUMP JUMPDEST ISZERO PUSH2 0x2853 JUMPI JUMP JUMPDEST PUSH1 0x40 MLOAD PUSH3 0x461BCD PUSH1 0xE5 SHL DUP2 MSTORE PUSH1 0x20 PUSH1 0x4 DUP3 ADD MSTORE PUSH1 0x13 PUSH1 0x24 DUP3 ADD MSTORE PUSH19 0x4E6F7420656E6F756768206469616D6F6E6473 PUSH1 0x68 SHL PUSH1 0x44 DUP3 ADD MSTORE PUSH1 0x64 SWAP1 REVERT JUMPDEST ISZERO PUSH2 0x2895 JUMPI JUMP JUMPDEST PUSH1 0x40 MLOAD PUSH3 0x461BCD PUSH1 0xE5 SHL DUP2 MSTORE PUSH1 0x20 PUSH1 0x4 DUP3 ADD MSTORE PUSH1 0xF PUSH1 0x24 DUP3 ADD MSTORE PUSH15 0x139BDD08195B9BDD59DA0819DBDB19 PUSH1 0x8A SHL PUSH1 0x44 DUP3 ADD MSTORE PUSH1 0x64 SWAP1 REVERT JUMPDEST ISZERO PUSH2 0x28D3 JUMPI JUMP JUMPDEST PUSH1 0x40 MLOAD PUSH3 0x461BCD PUSH1 0xE5 SHL DUP2 MSTORE PUSH1 0x20 PUSH1 0x4 DUP3 ADD MSTORE PUSH1 0x11 PUSH1 0x24 DUP3 ADD MSTORE PUSH17 0x155C19DC985919481B9BDD08195E1A5CDD PUSH1 0x7A SHL PUSH1 0x44 DUP3 ADD MSTORE PUSH1 0x64 SWAP1 REVERT JUMPDEST PUSH1 0x1 PUSH1 0x1 PUSH1 0xA0 SHL SUB AND PUSH1 0x0 SWAP1 DUP2 MSTORE PUSH1 0x2 PUSH1 0x20 MSTORE PUSH1 0x40 SWAP1 KECCAK256 PUSH1 0x4 DUP2 ADD SLOAD ISZERO DUP1 ISZERO PUSH2 0x2956 JUMPI JUMPDEST PUSH2 0x27EF JUMPI DUP1 PUSH1 0xC PUSH1 0x3C PUSH2 0x294A PUSH1 0x11 PUSH2 0x2953 SWAP6 ADD SLOAD TIMESTAMP PUSH2 0x2728 JUMP JUMPDEST DIV SWAP2 ADD SLOAD PUSH2 0x25B4 JUMP JUMPDEST SWAP1 JUMP JUMPDEST POP PUSH1 0xC DUP2 ADD SLOAD ISZERO PUSH2 0x2930 JUMP JUMPDEST PUSH1 0x0 NOT DUP2 EQ PUSH2 0x8A9 JUMPI PUSH1 0x1 ADD SWAP1 JUMP JUMPDEST SWAP3 SWAP2 SWAP3 PUSH8 0xFFFFFFFFFFFFFFFF DUP3 GT PUSH2 0x612 JUMPI PUSH1 0x40 MLOAD SWAP2 PUSH2 0x299B PUSH1 0x1F DUP3 ADD PUSH1 0x1F NOT AND PUSH1 0x20 ADD DUP5 PUSH2 0x23A5 JUMP JUMPDEST DUP3 SWAP5 DUP2 DUP5 MSTORE DUP2 DUP4 ADD GT PUSH2 0x2E5 JUMPI DUP3 DUP2 PUSH1 0x20 SWAP4 DUP5 PUSH1 0x0 SWAP7 ADD CALLDATACOPY ADD ADD MSTORE JUMP JUMPDEST SWAP1 DUP1 PUSH1 0x20 SWAP4 SWAP3 DUP2 DUP5 MSTORE DUP5 DUP5 ADD CALLDATACOPY PUSH1 0x0 DUP3 DUP3 ADD DUP5 ADD MSTORE PUSH1 0x1F ADD PUSH1 0x1F NOT AND ADD ADD SWAP1 JUMP JUMPDEST PUSH8 0xFFFFFFFFFFFFFFFF DUP2 GT PUSH2 0x612 JUMPI PUSH1 0x5 SHL PUSH1 0x20 ADD SWAP1 JUMP JUMPDEST SWAP1 PUSH2 0x29FB DUP3 PUSH2 0x29D9 JUMP JUMPDEST PUSH2 0x2A08 PUSH1 0x40 MLOAD SWAP2 DUP3 PUSH2 0x23A5 JUMP JUMPDEST DUP3 DUP2 MSTORE DUP1 SWAP3 PUSH2 0x2A19 PUSH1 0x1F NOT SWAP2 PUSH2 0x29D9 JUMP JUMPDEST ADD SWAP1 PUSH1 0x20 CALLDATASIZE SWAP2 ADD CALLDATACOPY JUMP JUMPDEST DUP1 MLOAD DUP3 LT ISZERO PUSH2 0x2591 JUMPI PUSH1 0x20 SWAP2 PUSH1 0x5 SHL ADD ADD SWAP1 JUMP JUMPDEST PUSH1 0x1 PUSH1 0x1 PUSH1 0xA0 SHL SUB AND PUSH1 0x0 SWAP1 DUP2 MSTORE PUSH1 0x2 PUSH1 0x20 MSTORE PUSH1 0x40 SWAP1 KECCAK256 PUSH1 0x4 DUP2 ADD SLOAD ISZERO DUP1 ISZERO PUSH2 0x2A7E JUMPI JUMPDEST PUSH2 0x27EF JUMPI PUSH2 0x2A6F PUSH1 0x11 PUSH1 0x3C SWAP3 ADD SLOAD TIMESTAMP PUSH2 0x2728 JUMP JUMPDEST MOD PUSH1 0x3C SUB PUSH1 0x3C DUP2 GT PUSH2 0x8A9 JUMPI SWAP1 JUMP JUMPDEST POP PUSH1 0xC DUP2 ADD SLOAD ISZERO PUSH2 0x2A5B JUMP JUMPDEST PUSH1 0x2 PUSH1 0x1 SLOAD EQ PUSH2 0x2A9B JUMPI PUSH1 0x2 PUSH1 0x1 SSTORE JUMP JUMPDEST PUSH1 0x40 MLOAD PUSH4 0x3EE5AEB5 PUSH1 0xE0 SHL DUP2 MSTORE PUSH1 0x4 SWAP1 REVERT JUMPDEST PUSH1 0x1 PUSH1 0x1 PUSH1 0xA0 SHL SUB AND PUSH1 0x0 DUP2 DUP2 MSTORE PUSH1 0x2 PUSH1 0x20 MSTORE PUSH1 0x40 SWAP1 KECCAK256 PUSH1 0x4 DUP2 ADD SLOAD ISZERO DUP1 ISZERO PUSH2 0x2B61 JUMPI JUMPDEST PUSH2 0x2B5D JUMPI PUSH1 0x11 DUP2 ADD SWAP1 PUSH2 0x2AE5 DUP3 SLOAD TIMESTAMP PUSH2 0x2728 JUMP JUMPDEST DUP1 ISZERO PUSH2 0x2B57 JUMPI PUSH2 0x2AFC PUSH1 0x3C DUP3 DIV PUSH1 0xC DUP5 ADD SLOAD PUSH2 0x25B4 JUMP JUMPDEST SWAP1 DUP2 PUSH2 0x2B0A JUMPI JUMPDEST POP POP POP POP POP JUMP JUMPDEST PUSH1 0x2 PUSH1 0x40 SWAP4 PUSH32 0x6ED0C81F2EB08CA19CF12AAB8DFA5D3566D3140926B3E0035B8423029996C185 SWAP6 TIMESTAMP SWAP1 SSTORE ADD PUSH2 0x2B40 DUP4 DUP3 SLOAD PUSH2 0x25A7 JUMP JUMPDEST SWAP1 SSTORE DUP3 MLOAD SWAP2 DUP3 MSTORE PUSH1 0x20 DUP3 ADD MSTORE LOG2 CODESIZE DUP1 DUP1 DUP1 DUP1 PUSH2 0x2B03 JUMP JUMPDEST POP POP POP POP JUMP JUMPDEST POP POP JUMP JUMPDEST POP PUSH1 0xC DUP2 ADD SLOAD ISZERO PUSH2 0x2AD1 JUMP JUMPDEST DUP2 ISZERO PUSH2 0x2BDC JUMPI PUSH1 0x1 SWAP2 PUSH1 0x1 SWAP3 PUSH1 0x0 SWAP2 JUMPDEST DUP1 DUP4 LT PUSH2 0x2BA7 JUMPI POP POP POP DUP2 ISZERO PUSH2 0x2B91 JUMPI DIV SWAP1 JUMP JUMPDEST PUSH4 0x4E487B71 PUSH1 0xE0 SHL PUSH1 0x0 MSTORE PUSH1 0x12 PUSH1 0x4 MSTORE PUSH1 0x24 PUSH1 0x0 REVERT JUMPDEST SWAP1 SWAP2 SWAP4 SWAP3 PUSH1 0xF SWAP1 DUP2 DUP2 MUL SWAP2 DUP2 DUP4 DIV EQ SWAP1 ISZERO OR ISZERO PUSH2 0x8A9 JUMPI SWAP3 PUSH1 0xA SWAP1 DUP2 DUP2 MUL SWAP2 DUP2 DUP4 DIV EQ SWAP1 ISZERO OR ISZERO PUSH2 0x8A9 JUMPI SWAP4 DUP3 ADD SWAP2 SWAP1 PUSH2 0x2B7D JUMP JUMPDEST SWAP1 POP SWAP1 JUMP JUMPDEST PUSH1 0x0 SLOAD PUSH1 0x1 PUSH1 0x1 PUSH1 0xA0 SHL SUB AND CALLER SUB PUSH2 0x2BF5 JUMPI JUMP JUMPDEST PUSH1 0x40 MLOAD PUSH4 0x118CDAA7 PUSH1 0xE0 SHL DUP2 MSTORE CALLER PUSH1 0x4 DUP3 ADD MSTORE PUSH1 0x24 SWAP1 REVERT JUMPDEST PUSH1 0x0 PUSH1 0x19 DUP3 GT ISZERO PUSH2 0x2CB7 JUMPI POP PUSH1 0x18 NOT DUP2 ADD DUP2 DUP2 GT PUSH2 0x8A9 JUMPI SWAP1 JUMPDEST PUSH1 0x0 PUSH1 0x37 DUP3 GT ISZERO PUSH2 0x2CA3 JUMPI POP PUSH1 0x36 NOT DUP2 ADD DUP2 DUP2 GT PUSH2 0x8A9 JUMPI SWAP1 JUMPDEST PUSH1 0x0 PUSH1 0x59 DUP3 GT ISZERO PUSH2 0x2C8F JUMPI POP PUSH1 0x58 NOT DUP2 ADD SWAP1 DUP2 GT PUSH2 0x8A9 JUMPI SWAP2 JUMPDEST DUP3 DUP3 DUP3 GT ISZERO SWAP2 DUP3 PUSH2 0x2C84 JUMPI JUMPDEST POP POP ISZERO PUSH2 0x2C75 JUMPI POP POP PUSH1 0x19 SWAP1 JUMP JUMPDEST GT PUSH2 0x2C7F JUMPI PUSH1 0x37 SWAP1 JUMP JUMPDEST PUSH1 0x59 SWAP1 JUMP JUMPDEST GT ISZERO SWAP1 POP DUP3 CODESIZE PUSH2 0x2C67 JUMP JUMPDEST SWAP1 PUSH1 0x59 SUB SWAP1 PUSH1 0x59 DUP3 GT PUSH2 0x2676 JUMPI POP SWAP2 PUSH2 0x2C5B JUMP JUMPDEST DUP2 PUSH1 0x37 SUB SWAP1 PUSH1 0x37 DUP3 GT PUSH2 0x2676 JUMPI POP SWAP1 PUSH2 0x2C41 JUMP JUMPDEST DUP2 PUSH1 0x19 SUB SWAP1 PUSH1 0x19 DUP3 GT PUSH2 0x2676 JUMPI POP SWAP1 PUSH2 0x2C27 JUMP JUMPDEST PUSH1 0x6 DUP1 SLOAD PUSH1 0x1 SWAP1 DUP2 DUP2 LT ISZERO PUSH2 0x2E90 JUMPI DUP1 JUMPDEST PUSH2 0x2CE5 DUP3 PUSH2 0x29F1 JUMP JUMPDEST SWAP4 PUSH2 0x2CEF DUP4 PUSH2 0x29F1 JUMP JUMPDEST SWAP1 PUSH1 0x0 JUMPDEST DUP4 DUP2 LT PUSH2 0x2D2E JUMPI POP POP POP POP POP POP DUP1 MLOAD ISZERO DUP1 ISZERO PUSH2 0x2D1A JUMPI POP POP PUSH1 0x0 SLOAD PUSH1 0x1 PUSH1 0x1 PUSH1 0xA0 SHL SUB AND SWAP1 JUMP JUMPDEST PUSH2 0x2591 JUMPI PUSH1 0x20 ADD MLOAD PUSH1 0x1 PUSH1 0x1 PUSH1 0xA0 SHL SUB AND SWAP1 JUMP JUMPDEST DUP1 PUSH2 0x2D39 DUP8 SWAP3 PUSH2 0x255A JUMP JUMPDEST SWAP1 PUSH1 0x1 DUP1 PUSH1 0xA0 SHL SUB DUP1 SWAP2 SLOAD PUSH1 0x3 SWAP4 DUP5 SHL SHR AND PUSH1 0x0 MSTORE PUSH2 0x2DAE PUSH1 0x2 PUSH1 0x8 PUSH1 0x20 SWAP2 DUP1 DUP4 MSTORE PUSH1 0x40 SWAP1 PUSH2 0x2D8D DUP11 DUP4 PUSH1 0x0 KECCAK256 ADD SLOAD DUP8 PUSH2 0x2D72 DUP12 PUSH2 0x255A JUMP JUMPDEST SWAP1 SLOAD SWAP1 DUP12 SHL SHR AND PUSH1 0x0 MSTORE DUP3 DUP7 MSTORE PUSH1 0x7 DUP5 PUSH1 0x0 KECCAK256 ADD SLOAD SWAP1 PUSH2 0x25A7 JUMP JUMPDEST SWAP4 DUP7 PUSH2 0x2D98 DUP11 PUSH2 0x255A JUMP JUMPDEST SWAP1 SLOAD SWAP1 DUP11 SHL SHR AND PUSH1 0x0 MSTORE MSTORE PUSH1 0x0 KECCAK256 ADD SLOAD SWAP1 PUSH2 0x25A7 JUMP JUMPDEST SWAP2 PUSH1 0x0 JUMPDEST DUP10 DUP2 LT PUSH2 0x2DC4 JUMPI JUMPDEST POP POP POP POP ADD PUSH2 0x2CF3 JUMP JUMPDEST PUSH2 0x2DD4 DUP2 DUP10 SWAP8 SWAP4 SWAP5 SWAP6 SWAP7 SWAP8 PUSH2 0x2A23 JUMP JUMPDEST MLOAD DUP6 GT PUSH2 0x2DE7 JUMPI ADD SWAP1 DUP10 SWAP5 SWAP4 SWAP3 SWAP2 PUSH2 0x2DB2 JUMP JUMPDEST SWAP3 SWAP2 SWAP1 POP PUSH1 0x0 NOT DUP10 DUP2 ADD DUP11 DUP2 GT PUSH2 0x8A9 JUMPI SWAP1 DUP12 SWAP7 SWAP6 SWAP5 SWAP4 SWAP3 SWAP2 JUMPDEST DUP5 DUP2 GT PUSH2 0x2E3A JUMPI POP POP SWAP1 PUSH2 0x2E30 SWAP3 SWAP2 PUSH2 0x2E19 DUP7 PUSH2 0x255A JUMP JUMPDEST SWAP1 SLOAD SWAP2 SHL SHR AND PUSH2 0x2E29 DUP3 DUP14 PUSH2 0x2A23 JUMP JUMPDEST MSTORE DUP7 PUSH2 0x2A23 JUMP JUMPDEST MSTORE CODESIZE DUP1 DUP1 DUP1 PUSH2 0x2DBA JUMP JUMPDEST SWAP1 DUP1 SWAP3 SWAP4 SWAP5 SWAP6 SWAP7 SWAP8 POP DUP2 ADD DUP2 DUP2 GT PUSH2 0x8A9 JUMPI DUP1 DUP15 PUSH2 0x2E68 DUP5 DUP9 PUSH2 0x2E60 PUSH2 0x2E6F SWAP7 DUP6 PUSH2 0x2A23 JUMP JUMPDEST MLOAD AND SWAP3 PUSH2 0x2A23 JUMP JUMPDEST MSTORE DUP11 PUSH2 0x2A23 JUMP JUMPDEST MLOAD PUSH2 0x2E7A DUP3 DUP12 PUSH2 0x2A23 JUMP JUMPDEST MSTORE DUP1 ISZERO PUSH2 0x8A9 JUMPI DUP2 ADD SWAP1 DUP12 SWAP7 SWAP6 SWAP5 SWAP4 SWAP3 SWAP2 PUSH2 0x2E01 JUMP JUMPDEST PUSH1 0x1 SWAP1 PUSH2 0x2CDC JUMP JUMPDEST PUSH1 0x6 DUP1 SLOAD PUSH1 0x2 SWAP1 DUP2 DUP2 LT ISZERO PUSH2 0x2FFC JUMPI DUP1 SWAP2 JUMPDEST PUSH2 0x2EB3 DUP4 PUSH2 0x29F1 JUMP JUMPDEST SWAP4 PUSH2 0x2EBD DUP5 PUSH2 0x29F1 JUMP JUMPDEST SWAP2 PUSH1 0x0 JUMPDEST DUP5 DUP2 LT PUSH2 0x2F01 JUMPI POP POP POP POP POP POP DUP1 MLOAD PUSH1 0x1 DUP2 GT PUSH2 0x2EE9 JUMPI POP POP PUSH1 0x0 SLOAD PUSH1 0x1 PUSH1 0x1 PUSH1 0xA0 SHL SUB AND SWAP1 JUMP JUMPDEST PUSH1 0x1 LT ISZERO PUSH2 0x2591 JUMPI PUSH1 0x40 ADD MLOAD PUSH1 0x1 PUSH1 0x1 PUSH1 0xA0 SHL SUB AND SWAP1 JUMP JUMPDEST PUSH2 0x2F0A DUP2 PUSH2 0x255A JUMP JUMPDEST SWAP1 PUSH1 0x1 DUP1 PUSH1 0xA0 SHL SUB DUP1 SWAP2 SLOAD PUSH1 0x3 SWAP4 DUP5 SHL SHR AND PUSH1 0x0 MSTORE PUSH2 0x2F40 PUSH1 0x20 DUP6 DUP2 MSTORE PUSH1 0x8 PUSH1 0x40 DUP8 PUSH2 0x2D8D DUP11 DUP4 PUSH1 0x0 KECCAK256 ADD SLOAD DUP8 PUSH2 0x2D72 DUP12 PUSH2 0x255A JUMP JUMPDEST SWAP2 PUSH1 0x0 JUMPDEST DUP10 DUP2 LT PUSH2 0x2F58 JUMPI JUMPDEST POP POP POP POP PUSH1 0x1 ADD PUSH2 0x2EC1 JUMP JUMPDEST PUSH2 0x2F62 DUP2 DUP10 PUSH2 0x2A23 JUMP JUMPDEST MLOAD DUP5 GT PUSH2 0x2F71 JUMPI PUSH1 0x1 ADD PUSH2 0x2F44 JUMP JUMPDEST SWAP2 SWAP1 PUSH1 0x0 NOT DUP11 DUP2 ADD DUP12 DUP2 GT PUSH2 0x8A9 JUMPI JUMPDEST DUP5 DUP2 GT PUSH2 0x2FBE JUMPI POP POP SWAP2 PUSH2 0x2FB4 SWAP2 DUP6 SWAP5 SWAP4 PUSH2 0x2F9D PUSH1 0x1 SWAP8 PUSH2 0x255A JUMP JUMPDEST SWAP1 SLOAD SWAP2 SHL SHR AND PUSH2 0x2FAD DUP3 DUP14 PUSH2 0x2A23 JUMP JUMPDEST MSTORE DUP8 PUSH2 0x2A23 JUMP JUMPDEST MSTORE SWAP1 CODESIZE DUP1 DUP1 PUSH2 0x2F4C JUMP JUMPDEST DUP2 DUP2 ADD DUP2 DUP2 GT PUSH2 0x8A9 JUMPI DUP1 DUP15 PUSH2 0x2FDC DUP5 DUP9 PUSH2 0x2E60 PUSH2 0x2FE3 SWAP7 DUP6 PUSH2 0x2A23 JUMP JUMPDEST MSTORE DUP12 PUSH2 0x2A23 JUMP JUMPDEST MLOAD PUSH2 0x2FEE DUP3 DUP13 PUSH2 0x2A23 JUMP JUMPDEST MSTORE DUP1 ISZERO PUSH2 0x8A9 JUMPI DUP2 ADD PUSH2 0x2F81 JUMP JUMPDEST PUSH1 0x2 SWAP2 PUSH2 0x2EAA JUMP JUMPDEST PUSH1 0x6 DUP1 SLOAD PUSH1 0x3 SWAP1 DUP2 DUP2 LT ISZERO PUSH2 0x319C JUMPI DUP1 SWAP2 JUMPDEST PUSH2 0x301F DUP4 PUSH2 0x29F1 JUMP JUMPDEST SWAP4 PUSH2 0x3029 DUP5 PUSH2 0x29F1 JUMP JUMPDEST SWAP1 PUSH1 0x0 JUMPDEST DUP5 DUP2 LT PUSH2 0x306D JUMPI POP POP POP POP POP POP DUP1 MLOAD PUSH1 0x2 DUP2 GT PUSH2 0x3055 JUMPI POP POP PUSH1 0x0 SLOAD PUSH1 0x1 PUSH1 0x1 PUSH1 0xA0 SHL SUB AND SWAP1 JUMP JUMPDEST PUSH1 0x2 LT ISZERO PUSH2 0x2591 JUMPI PUSH1 0x60 ADD MLOAD PUSH1 0x1 PUSH1 0x1 PUSH1 0xA0 SHL SUB AND SWAP1 JUMP JUMPDEST PUSH2 0x3076 DUP2 PUSH2 0x255A JUMP JUMPDEST SWAP1 PUSH1 0x1 DUP1 PUSH1 0xA0 SHL SUB SWAP2 DUP3 SWAP2 SLOAD SWAP1 DUP8 SHL SHR AND PUSH1 0x0 MSTORE PUSH2 0x30EA PUSH1 0x2 PUSH1 0x8 PUSH1 0x20 SWAP2 DUP1 DUP4 MSTORE PUSH1 0x40 SWAP1 PUSH2 0x30C9 DUP9 DUP4 PUSH1 0x0 KECCAK256 ADD SLOAD DUP8 DUP13 PUSH2 0x30AF DUP12 PUSH2 0x255A JUMP JUMPDEST SWAP1 SLOAD SWAP2 SHL SHR AND PUSH1 0x0 MSTORE DUP3 DUP7 MSTORE PUSH1 0x7 DUP5 PUSH1 0x0 KECCAK256 ADD SLOAD SWAP1 PUSH2 0x25A7 JUMP JUMPDEST SWAP4 DUP7 PUSH2 0x30D4 DUP10 PUSH2 0x255A JUMP JUMPDEST SWAP1 SLOAD SWAP1 DUP14 SHL SHR AND PUSH1 0x0 MSTORE MSTORE PUSH1 0x0 KECCAK256 ADD SLOAD SWAP1 PUSH2 0x25A7 JUMP JUMPDEST SWAP1 PUSH1 0x0 JUMPDEST DUP9 DUP2 LT PUSH2 0x3101 JUMPI JUMPDEST POP POP POP PUSH1 0x1 ADD PUSH2 0x302D JUMP JUMPDEST PUSH2 0x310B DUP2 DUP8 PUSH2 0x2A23 JUMP JUMPDEST MLOAD DUP4 GT PUSH2 0x311A JUMPI PUSH1 0x1 ADD PUSH2 0x30EE JUMP JUMPDEST SWAP1 PUSH1 0x0 NOT DUP10 DUP2 ADD DUP11 DUP2 GT PUSH2 0x8A9 JUMPI JUMPDEST DUP4 DUP2 GT PUSH2 0x315E JUMPI POP POP DUP4 SWAP3 SWAP2 PUSH2 0x3155 SWAP2 PUSH2 0x3144 PUSH1 0x1 SWAP7 PUSH2 0x255A JUMP JUMPDEST SWAP1 SLOAD SWAP1 DUP11 SHL SHR AND PUSH2 0x2E29 DUP3 DUP14 PUSH2 0x2A23 JUMP JUMPDEST MSTORE SWAP1 CODESIZE DUP1 PUSH2 0x30F6 JUMP JUMPDEST DUP2 DUP2 ADD DUP2 DUP2 GT PUSH2 0x8A9 JUMPI DUP1 DUP14 PUSH2 0x317C DUP5 DUP8 PUSH2 0x2E60 PUSH2 0x3183 SWAP7 DUP6 PUSH2 0x2A23 JUMP JUMPDEST MSTORE DUP10 PUSH2 0x2A23 JUMP JUMPDEST MLOAD PUSH2 0x318E DUP3 DUP11 PUSH2 0x2A23 JUMP JUMPDEST MSTORE DUP1 ISZERO PUSH2 0x8A9 JUMPI DUP2 ADD PUSH2 0x3129 JUMP JUMPDEST DUP2 PUSH2 0x3016 JUMP INVALID LOG2 PUSH5 0x6970667358 0x22 SLT KECCAK256 PUSH17 0x1172111A24C60B5F2D4475AD81DC47C7BF SWAP5 DUP15 XOR 0xE0 PUSH8 0x78B5CF49CBB25D5F 0xA8 PUSH5 0x736F6C6343 STOP ADDMOD XOR STOP CALLER "},"methodIdentifiers":{"accounts(address)":"5e5c06e2","addUpgrade(string,uint256,uint256,uint256,uint256,uint256,uint256,uint256)":"ece2e4ba","attack(address)":"d018db3e","buyUpgrade(uint256)":"a5a2cb19","checkIn()":"183ff085","claimGPM()":"1771ec63","completeRepair()":"328ef051","createAccount(string,bool,uint256)":"ab2611ee","getClaimableGold(address)":"68780125","getHireCrewCost(address)":"4c8df037","getRanking(uint256)":"bea2dc14","getRepairOptions(address)":"0afbcea5","getShipsAt(uint256)":"b7df5b5d","getTimeUntilNextGPM(address)":"d85bf0b1","getUpgradeCost(uint256,address)":"5722bb51","hireCrew()":"be4becd3","isPort(uint256)":"24aa225b","isRepairReady(address)":"fa470f85","nextUpgradeId()":"d2fabb18","owner()":"8da5cb5b","players(uint256)":"f71d96cb","purchaseCounts(address,uint256)":"35d93897","renounceOwnership()":"715018a6","repairShip(uint8)":"541c155a","rescueXTZ()":"d4826b6c","transferOwnership(address)":"f2fde38b","travel(uint256,bool)":"74aa3a98","upgrades(uint256)":"7386bbc5"}}}}}