{"contracts/SeasOfLinkardia.sol":{"SeasOfLinkardia":{"abi":[{"inputs":[],"stateMutability":"nonpayable","type":"constructor"},{"inputs":[{"internalType":"address","name":"owner","type":"address"}],"name":"OwnableInvalidOwner","type":"error"},{"inputs":[{"internalType":"address","name":"account","type":"address"}],"name":"OwnableUnauthorizedAccount","type":"error"},{"inputs":[],"name":"ReentrancyGuardReentrantCall","type":"error"},{"anonymous":false,"inputs":[{"indexed":true,"internalType":"address","name":"user","type":"address"},{"indexed":false,"internalType":"string","name":"boatName","type":"string"},{"indexed":false,"internalType":"bool","name":"isPirate","type":"bool"}],"name":"AccountCreated","type":"event"},{"anonymous":false,"inputs":[{"indexed":true,"internalType":"address","name":"user","type":"address"},{"indexed":false,"internalType":"uint256","name":"streak","type":"uint256"},{"indexed":false,"internalType":"uint256","name":"reward","type":"uint256"}],"name":"CheckIn","type":"event"},{"anonymous":false,"inputs":[{"indexed":true,"internalType":"address","name":"previousOwner","type":"address"},{"indexed":true,"internalType":"address","name":"newOwner","type":"address"}],"name":"OwnershipTransferred","type":"event"},{"anonymous":false,"inputs":[{"indexed":true,"internalType":"address","name":"attacker","type":"address"},{"indexed":true,"internalType":"address","name":"defender","type":"address"},{"indexed":false,"internalType":"bool","name":"destroyed","type":"bool"}],"name":"ShipAttacked","type":"event"},{"anonymous":false,"inputs":[{"indexed":true,"internalType":"address","name":"user","type":"address"},{"indexed":false,"internalType":"uint256","name":"toLocation","type":"uint256"},{"indexed":false,"internalType":"uint256","name":"arriveAt","type":"uint256"},{"indexed":false,"internalType":"bool","name":"fast","type":"bool"}],"name":"TravelStarted","type":"event"},{"anonymous":false,"inputs":[{"indexed":true,"internalType":"uint256","name":"id","type":"uint256"},{"indexed":false,"internalType":"string","name":"name","type":"string"}],"name":"UpgradeAdded","type":"event"},{"anonymous":false,"inputs":[{"indexed":true,"internalType":"address","name":"user","type":"address"},{"indexed":true,"internalType":"uint256","name":"id","type":"uint256"}],"name":"UpgradePurchased","type":"event"},{"inputs":[{"internalType":"address","name":"","type":"address"}],"name":"accounts","outputs":[{"internalType":"string","name":"boatName","type":"string"},{"internalType":"bool","name":"isPirate","type":"bool"},{"internalType":"uint256","name":"gold","type":"uint256"},{"internalType":"uint256","name":"diamonds","type":"uint256"},{"internalType":"uint256","name":"hp","type":"uint256"},{"internalType":"uint256","name":"speed","type":"uint256"},{"internalType":"uint256","name":"attack","type":"uint256"},{"internalType":"uint256","name":"defense","type":"uint256"},{"internalType":"uint256","name":"crew","type":"uint256"},{"internalType":"uint256","name":"maxCrew","type":"uint256"},{"internalType":"uint256","name":"location","type":"uint256"},{"internalType":"uint256","name":"gpm","type":"uint256"},{"internalType":"uint256","name":"lastCheckIn","type":"uint256"},{"internalType":"uint256","name":"checkInStreak","type":"uint256"},{"internalType":"uint256","name":"lastWrecked","type":"uint256"},{"internalType":"uint256","name":"travelEnd","type":"uint256"}],"stateMutability":"view","type":"function"},{"inputs":[{"internalType":"string","name":"name","type":"string"},{"internalType":"uint256","name":"cost","type":"uint256"},{"internalType":"uint256","name":"gpmBonus","type":"uint256"},{"internalType":"uint256","name":"hpBonus","type":"uint256"},{"internalType":"uint256","name":"speedBonus","type":"uint256"},{"internalType":"uint256","name":"attackBonus","type":"uint256"},{"internalType":"uint256","name":"defenseBonus","type":"uint256"},{"internalType":"uint256","name":"maxCrewBonus","type":"uint256"}],"name":"addUpgrade","outputs":[],"stateMutability":"nonpayable","type":"function"},{"inputs":[{"internalType":"address","name":"defender","type":"address"}],"name":"attack","outputs":[],"stateMutability":"nonpayable","type":"function"},{"inputs":[{"internalType":"uint256","name":"id","type":"uint256"}],"name":"buyUpgrade","outputs":[],"stateMutability":"nonpayable","type":"function"},{"inputs":[],"name":"checkIn","outputs":[],"stateMutability":"nonpayable","type":"function"},{"inputs":[{"internalType":"string","name":"_boatName","type":"string"},{"internalType":"bool","name":"_isPirate","type":"bool"},{"internalType":"uint256","name":"_startLocation","type":"uint256"}],"name":"createAccount","outputs":[],"stateMutability":"nonpayable","type":"function"},{"inputs":[{"internalType":"uint256","name":"n","type":"uint256"}],"name":"getRanking","outputs":[{"internalType":"address[]","name":"","type":"address[]"},{"internalType":"uint256[]","name":"","type":"uint256[]"}],"stateMutability":"view","type":"function"},{"inputs":[{"internalType":"uint256","name":"loc","type":"uint256"}],"name":"getShipsAt","outputs":[{"internalType":"address[]","name":"","type":"address[]"},{"internalType":"string[]","name":"","type":"string[]"},{"internalType":"uint256[]","name":"","type":"uint256[]"}],"stateMutability":"view","type":"function"},{"inputs":[],"name":"nextUpgradeId","outputs":[{"internalType":"uint256","name":"","type":"uint256"}],"stateMutability":"view","type":"function"},{"inputs":[],"name":"owner","outputs":[{"internalType":"address","name":"","type":"address"}],"stateMutability":"view","type":"function"},{"inputs":[{"internalType":"uint256","name":"","type":"uint256"}],"name":"players","outputs":[{"internalType":"address","name":"","type":"address"}],"stateMutability":"view","type":"function"},{"inputs":[],"name":"renounceOwnership","outputs":[],"stateMutability":"nonpayable","type":"function"},{"inputs":[{"internalType":"bool","name":"atPort","type":"bool"},{"internalType":"bool","name":"useDiamond","type":"bool"}],"name":"repairShip","outputs":[],"stateMutability":"payable","type":"function"},{"inputs":[],"name":"rescueXTZ","outputs":[],"stateMutability":"nonpayable","type":"function"},{"inputs":[{"internalType":"address","name":"newOwner","type":"address"}],"name":"transferOwnership","outputs":[],"stateMutability":"nonpayable","type":"function"},{"inputs":[{"internalType":"uint256","name":"toLocation","type":"uint256"},{"internalType":"bool","name":"fast","type":"bool"}],"name":"travel","outputs":[],"stateMutability":"payable","type":"function"},{"inputs":[{"internalType":"uint256","name":"","type":"uint256"}],"name":"upgrades","outputs":[{"internalType":"string","name":"name","type":"string"},{"internalType":"uint256","name":"cost","type":"uint256"},{"internalType":"uint256","name":"gpmBonus","type":"uint256"},{"internalType":"uint256","name":"hpBonus","type":"uint256"},{"internalType":"uint256","name":"speedBonus","type":"uint256"},{"internalType":"uint256","name":"attackBonus","type":"uint256"},{"internalType":"uint256","name":"defenseBonus","type":"uint256"},{"internalType":"uint256","name":"maxCrewBonus","type":"uint256"}],"stateMutability":"view","type":"function"},{"stateMutability":"payable","type":"receive"}],"evm":{"bytecode":{"linkReferences":{},"object":"6080806040523461007e5733156100685760008054336001600160a01b03198216811783556040519290916001600160a01b0316907f8be0079c531659141344cd1fd0a4f28419497f9722a3daafe3b4186f6b6457e09080a36001805561248a90816100848239f35b631e4fbdf760e01b815260006004820152602490fd5b600080fdfe60a0604052600436101561013f575b361561001957600080fd5b610021611f4c565b34678ac7230489e80000036100cc5760015b33600052600260205261004f6003604060002001918254611e5d565b9055610059611f9b565b610061612161565b9061006a6122c7565b916000808080673782dace9d90000060018060a01b0380971682f1156100c05760008080671bc16d674ec800008582951682f1156100c05760008080670de0b6b3a76400008194861682f1156100c05760018055005b6040513d6000823e3d90fd5b34680270801d946c940000036100e3576005610033565b346804e1003b28d9280000036100fa57600a610033565b60405162461bcd60e51b815260206004820152601760248201527f496e76616c6964206469616d6f6e64207061636b6167650000000000000000006044820152606490fd5b60003560e01c8063183ff08514611a9f5780635e5c06e214611974578063683591a814611725578063715018a6146116cc5780637386bbc51461163b57806374aa3a981461138d5780638da5cb5b14611364578063a5a2cb19146111d0578063ab2611ee14610d93578063b7df5b5d14610a7b578063bea2dc14146108ab578063d018db3e1461058f578063d2fabb1814610571578063d4826b6c14610537578063ece2e4ba146102d6578063f2fde38b146102465763f71d96cb0361000e57346102415760203660031901126102415760043560055481101561024157610228602091611dc8565b905460405160039290921b1c6001600160a01b03168152f35b600080fd5b34610241576020366003190112610241576004356001600160a01b038181169182900361024157610275611f6f565b81156102bd57600054826bffffffffffffffffffffffff60a01b821617600055167f8be0079c531659141344cd1fd0a4f28419497f9722a3daafe3b4186f6b6457e0600080a3005b604051631e4fbdf760e01b815260006004820152602490fd5b3461024157610100806003193601126102415767ffffffffffffffff6004358181116102415761030a903690600401611d29565b9091610314611f6f565b6040519384018481108282111761052157604052610333368385611e77565b8452602435602085015260443560408501526064356060850152608435608085015260a43560a085015260c43560c085015260e43560e0850152600454600052600360205260406000209084518051918211610521576103938354611bd9565b601f81116104dd575b50602090601f831160011461046b57958260079360e09361045b99600092610460575b50508160011b916000199060031b1c19161784555b6020810151600185015560408101516002850155606081015160038501556080810151600485015560a0810151600585015560c0810151600685015501519101557fbce75db7677467da57e0a1c1497e4a7c42d79d4071dbb0578df54307e986fe07600454928392610453604051928392602084526020840191611ebe565b0390a2611edf565b600455005b0151905089806103bf565b908360005260206000209160005b601f19851681106104c557508360e09361045b9993600193600797601f198116106104ac575b505050811b0184556103d4565b015160001960f88460031b161c1916905589808061049f565b91926020600181928685015181550194019201610479565b836000526020600020601f840160051c81016020851061051a575b601f830160051c8201811061050e57505061039c565b600081556001016104f8565b50806104f8565b634e487b7160e01b600052604160045260246000fd5b3461024157600036600319011261024157610550611f6f565b600080808047818115610568575b3390f1156100c057005b506108fc61055e565b34610241576000366003190112610241576020600454604051908152f35b3461024157602080600319360112610241576004356001600160a01b0381169190829003610241576105bf611f4c565b3360005260028152604060002090826000526040600020906004830192835415158061089e575b156108635760ff60018201541660ff60018501541615159015151461082b57600a810154600a840154036107ee57600f810154421015806107e0575b156107af5760068101546007840154808211156107a55761064291611e50565b925b600681015460078301548082111561079c5761065f91611e50565b600482018054909581811061078c575050600085555b85549081811061077c575050600085555b60009354156106e0575b507f1d099e3da7a64d91bf9ed0e41aceaf6a8e2c1fc0d072ef2779f2ea6988d27988929354156106cd575b5060405192151583523392a360018055005b60006008820155600e42910155846106bb565b92506000600884015542600e8401556008810154926032840293808504603214901517156107665760020180547f1d099e3da7a64d91bf9ed0e41aceaf6a8e2c1fc0d072ef2779f2ea6988d2798894919080831161075e575b8261074391611e50565b905561075460028301918254611e5d565b9055600192610690565b915081610739565b634e487b7160e01b600052601160045260246000fd5b61078591611e50565b8555610686565b61079591611e50565b8555610675565b5050600061065f565b5050600092610644565b60405162461bcd60e51b8152600481018390526009602482015268125b881d1c985d995b60ba1b6044820152606490fd5b50600f830154421015610622565b60405162461bcd60e51b815260048101839052601560248201527426bab9ba1031329039b0b6b2903637b1b0ba34b7b760591b6044820152606490fd5b60405162461bcd60e51b815260048101839052601060248201526f29b0b6b29030b33334b634b0ba34b7b760811b6044820152606490fd5b60405162461bcd60e51b815260048101839052601360248201527213db99481cda1a5c081a5cc81ddc9958dad959606a1b6044820152606490fd5b50600483015415156105e6565b346102415760203660031901126102415760055460043580821015610a765750805b6108d681611f06565b916108e082611f06565b9160005b828110610919576109078561091586604051938493604085526040850190611d57565b908382036020850152611d94565b0390f35b61092281611dc8565b905460018060a01b039160031b1c166000526109a560028060205261097760056040600020015461095285611dc8565b60018060a01b0391549060031b1c166000528260205260066040600020015490611e5d565b9061098184611dc8565b60018060a01b0391549060031b1c1660005260205260076040600020015490611e5d565b60005b8381106109ba575b50506001016108e4565b6109c48187611f38565b5182116109d3576001016109a8565b6000198401848111610766575b818111610a20575090610a1883926109f9600195611dc8565b868060a01b0391549060031b1c16610a11828b611f38565b5287611f38565b5290866109b0565b8060001981011161076657610a71906001600160a01b03610a4560001983018b611f38565b5116610a51828b611f38565b52610a60600019820189611f38565b51610a6b828a611f38565b52611e6a565b6109e0565b6108cd565b34610241576020806003193601126102415760058054916000919060043590835b858110610d055750610aad84611f06565b94610ab785611eee565b93610ac56040519586611c13565b858552610ad186611eee565b601f199690870160005b818110610cf6575050610aed90611f06565b9360009060005b848110610b8557610b17898b8a8a8a604051958694606086526060860190611d57565b908482038186015283519182815281810182808560051b8401019601976000925b858410610b535788806109158a8a8382036040850152611d94565b91938080979950610b71898486600196989a9c030188528c51611cda565b9a0194019401918997959398969491610b38565b89610b93829a98999a611dc8565b919060018060a01b03809154600394851b1c1660005288878d60029485845288600a604060002001541480610ccd575b610bdb575b5050505050505060010197969597610af4565b8786889587610c728e9a97859f8060019f99610cc09f99610c18610cb09f9c9488610c8c9d610c0c610c4d98611dc8565b9054911b1c1692611f38565b52858d610c248b611dc8565b9054911b1c16600052878752610c3d6040600020611c35565b610c478383611f38565b52611f38565b5082610c5887611dc8565b9054908c1b1c166000528484526040600020015494611dc8565b905490891b1c166000525260066040600020015490611e5d565b92610c968a611dc8565b9054911b1c166000528a5260076040600020015490611e5d565b610cba828c611f38565b52611edf565b92908b8088878d8f610bc8565b5084610cd889611dc8565b905490891b1c16600052858452600f60406000200154421015610bc3565b60608882018701528501610adb565b610d128195939495611dc8565b9060018060a01b03809154600393841b1c1660005260029081855286600a60406000200154149283610d67575b505050610d53575b60010193929193610a9c565b91610d5f600191611edf565b929050610d47565b90919250610d7484611dc8565b9054911b1c166000528252600f60406000200154421015878080610d3f565b346102415760603660031901126102415760043567ffffffffffffffff811161024157610dc4903690600401611d29565b90610dcd611d1a565b91604435811515806111c5575b1561118057606481116111425733600052600260205260406000206004810154159081611135575b50156110fa5760405190610200820182811067ffffffffffffffff82111761052157604052610e32368486611e77565b82528415156020830152606460408301526000606083015260646080830152600160a0830152600160c0830152600160e08301526001610100830152600a6101208301526101408201526000610160820152600061018082015260006101a082015260006101c082015260006101e0820152336000526002602052604060002090805180519067ffffffffffffffff821161052157610ed18454611bd9565b601f81116110b6575b50602090601f8311600114611046579180600f94926101e09460009261103b575b50508160011b916000199060031b1c19161784555b600184016020820151151560ff8019835416911617905560408101516002850155606081015160038501556080810151600485015560a0810151600585015560c0810151600685015560e0810151600785015561010081015160088501556101208101516009850155610140810151600a850155610160810151600b850155610180810151600c8501556101a0810151600d8501556101c0810151600e850155015191015560055468010000000000000000811015610521577f47456e7ec68e981a8f02d9c9528370adea595c1b26225be6797e6d441c47fc0292610ffe82600161102b9401600555611dc8565b81546001600160a01b0360039290921b91821b19163390911b179055604080518181529390840191611ebe565b92151560208201528033930390a2005b015190508980610efb565b908460005260206000209160005b601f198516811061109e575092600f94926001926101e09583601f19811610611085575b505050811b018455610f10565b015160001960f88460031b161c19169055898080611078565b91926020600181928685015181550194019201611054565b846000526020600020601f840160051c8101602085106110f3575b601f830160051c820181106110e7575050610eda565b600081556001016110d1565b50806110d1565b60405162461bcd60e51b8152602060048201526013602482015272105b1c9958591e481a185cc81858d8dbdd5b9d606a1b6044820152606490fd5b6008915001541585610e02565b60405162461bcd60e51b815260206004820152601660248201527504c6f636174696f6e206d75737420626520302d3130360541b6044820152606490fd5b60405162461bcd60e51b815260206004820152601860248201527f426f6174206e616d6520696e76616c6964206c656e67746800000000000000006044820152606490fd5b50600c821115610dda565b34610241576020366003190112610241576004356111ec611f4c565b80600052600360205260406000203360005260026020526040600020906001810154801561132b5760028301918254928284106112f457611231600793600895611e50565b90556002810154611247600b8601918254611e5d565b9055600381015461125d60048601918254611e5d565b9055600481015461127360058601918254611e5d565b9055600581015461128960068601918254611e5d565b9055600681015461129e838601918254611e5d565b90550154916112b260098201938454611e5d565b80935501818154116112ec575b82337fcf52c8aa8ed6b7d560b4e75db6ab973723de269d5580985c8880844d4ed6d7c0600080a360018055005b5581806112bf565b60405162461bcd60e51b815260206004820152600f60248201526e139bdd08195b9bdd59da0819dbdb19608a1b6044820152606490fd5b60405162461bcd60e51b8152602060048201526011602482015270155c19dc985919481b9bdd08195e1a5cdd607a1b6044820152606490fd5b34610241576000366003190112610241576000546040516001600160a01b039091168152602090f35b6040366003190112610241576004356113a4611d1a565b6113ac611f4c565b336000526020600281526040600020906113cb60048301541515611e15565b600f82019182544210611602576064908186116115cc57600a810191825480881461159957878181111561158a579061140391611e50565b915b610e10928381029080820485148115171561076657600583015461012c80820291808304821481151715610766578302029181830414901517156107665781811061157b5750506000925b871561153557830490346114ff57600301918254908282106114c757509161147e8995949261148794611e50565b90555b42611e5d565b80945555604051938452830152151560408201527f9782a86993c9e75e77fdbba3381a28a46e4f356e9516e67313bd4bd859c88a3f60603392a260018055005b60405162461bcd60e51b81526004810188905260136024820152724e6f7420656e6f756768206469616d6f6e647360681b6044820152fd5b60405162461bcd60e51b815260048101879052600f60248201526e14185e481d9a5848191a585b5bdb99608a1b60448201528390fd5b5050346115485750906114878692611481565b60405162461bcd60e51b815260048101859052600e60248201526d2237b713ba1039b2b732102c2a2d60911b6044820152fd5b61158491611e50565b92611450565b61159391611e50565b91611405565b5060405162461bcd60e51b815260048101859052600d60248201526c29b0b6b2903637b1b0ba34b7b760991b6044820152fd5b50906040519062461bcd60e51b82526004820152601060248201526f131bd8d85d1a5bdb881a5b9d985b1a5960821b6044820152fd5b60405162461bcd60e51b8152600481018390526011602482015270416c72656164792074726176656c696e6760781b6044820152606490fd5b346102415760203660031901126102415760043560005260036020526116a4604060002061166881611c35565b90600181015490600281015490600381015460048201546005830154916007600685015494015494604051988998610100808b528a0190611cda565b96602089015260408801526060870152608086015260a085015260c084015260e08301520390f35b34610241576000366003190112610241576116e5611f6f565b600080546001600160a01b0319811682556001600160a01b03167f8be0079c531659141344cd1fd0a4f28419497f9722a3daafe3b4186f6b6457e08280a3005b604036600319011261024157600435801515810361024157611745611d1a565b9061174e611f4c565b33600052602091600283526040600020906004820193845461193d57600e830193845461465081018091116107665742106118f8571561188a57600a8301546019811490811561187f575b8115611874575b501561184257818215611832575b156117f75750156117d8576000926003606492016117cc8154611e6a565b90555b555b5560018055005b60020180546103e71981019390841161076657600093606492556117cf565b6064906040519062461bcd60e51b825260048201526014602482015273139959590819dbdb19081bdc88191a585b5bdb9960621b6044820152fd5b506103e8600284015410156117ae565b6064906040519062461bcd60e51b82526004820152600b60248201526a139bdd08185d081c1bdc9d60aa1b6044820152fd5b6059915014866117a0565b603781149150611799565b919061189e575b50506064600092556117d1565b60030190815490600182106118c55750926064916118bd600095611e6a565b905592611891565b6064906040519062461bcd60e51b82526004820152600c60248201526b1399595908191a585b5bdb9960a21b6044820152fd5b60405162461bcd60e51b815260048101839052601a60248201527f4e6f7420726561647920666f72206261736963207265706169720000000000006044820152606490fd5b6064906040519062461bcd60e51b82526004820152601060248201526f14da1a5c081b9bdd081ddc9958dad95960821b6044820152fd5b34610241576020366003190112610241576004356001600160a01b0381169081900361024157600052600260205260406000206119b081611c35565b600182015460ff1691600281015460038201546004830154600584015460068501546007860154600887015490600988015492600a89015494600b8a015496600c8b015498600d8c01549a600e8d01549c600f01549d604051608052610200806080515260805101611a2191611cda565b9e15156080516020015260805160400152608051606001526080516080015260805160a0015260805160c0015260805160e00152608051610100015260805161012001526080516101400152608051610160015260805161018001526080516101a001526080516101c001526080516101e001526080519003608051f35b34610241576000366003190112610241573360005260026020526040600020611acd60048201541515611e15565b62015180804204600c83019182540481811015611b945760001982019182116107665703611b8857600d82018054906001820180921161076657555b42905560088101549060198202918083046019149015171561076657600d81015491826005029060058204840361076657600291611b4691611e5d565b9101611b53828254611e5d565b905560405191825260208201527fb9cfea4717f167774a6e8643c33472935d3ef918453525eefca6936078b7cfdd60403392a2005b6001600d830155611b09565b60405162461bcd60e51b815260206004820152601860248201527f416c726561647920636865636b656420696e20746f64617900000000000000006044820152606490fd5b90600182811c92168015611c09575b6020831014611bf357565b634e487b7160e01b600052602260045260246000fd5b91607f1691611be8565b90601f8019910116810190811067ffffffffffffffff82111761052157604052565b90604051918260008254611c4881611bd9565b90818452602094600191600181169081600014611cb85750600114611c79575b505050611c7792500383611c13565b565b600090815285812095935091905b818310611ca0575050611c779350820101388080611c68565b85548884018501529485019487945091830191611c87565b92505050611c7794925060ff191682840152151560051b820101388080611c68565b919082519283825260005b848110611d06575050826000602080949584010152601f8019910116010190565b602081830181015184830182015201611ce5565b60243590811515820361024157565b9181601f840112156102415782359167ffffffffffffffff8311610241576020838186019501011161024157565b90815180825260208080930193019160005b828110611d77575050505090565b83516001600160a01b031685529381019392810192600101611d69565b90815180825260208080930193019160005b828110611db4575050505090565b835185529381019392810192600101611da6565b600554811015611dff5760056000527f036b6384b5eca791c62761152d0c79bb0604c104a5fb6f4eb0703f3154bb3db00190600090565b634e487b7160e01b600052603260045260246000fd5b15611e1c57565b60405162461bcd60e51b815260206004820152600c60248201526b14da1a5c081ddc9958dad95960a21b6044820152606490fd5b9190820391821161076657565b9190820180921161076657565b8015610766576000190190565b92919267ffffffffffffffff82116105215760405191611ea1601f8201601f191660200184611c13565b829481845281830111610241578281602093846000960137010152565b908060209392818452848401376000828201840152601f01601f1916010190565b60001981146107665760010190565b67ffffffffffffffff81116105215760051b60200190565b90611f1082611eee565b611f1d6040519182611c13565b8281528092611f2e601f1991611eee565b0190602036910137565b8051821015611dff5760209160051b010190565b600260015414611f5d576002600155565b604051633ee5aeb560e01b8152600490fd5b6000546001600160a01b03163303611f8357565b60405163118cdaa760e01b8152336004820152602490fd5b600580546001908181101561215a57805b611fb581611f06565b93611fbf82611f06565b60005b848110611ffd575050505050508051158015611fe95750506000546001600160a01b031690565b611dff57602001516001600160a01b031690565b806120088792611dc8565b60018060a01b03809254600392831b1c1660005261207c6002600760209180835260409061205b8b836000200154886120408b611dc8565b9054908a1b1c16600052828652600684600020015490611e5d565b93876120668a611dc8565b905490891b1c1660005252600020015490611e5d565b9060005b888110612092575b5050505001611fc2565b6120a28188979394959697611f38565b5184116120b55701908994939291612080565b929391905060001988810189811161076657908b9695949392915b848111612109575050906120ff92916120e886611dc8565b9054911b1c166120f8828d611f38565b5285611f38565b5238808080612088565b90809293949596975081019080821161076657612142828f61213b848961213361214d9885611f38565b511692611f38565b528a611f38565b51610a6b828b611f38565b908b9695949392916120d0565b6001611fac565b6005805460029190828110156122c057805b61217c81611f06565b9361218682611f06565b9060005b8481106121ca575050505050508051600181116121b25750506000546001600160a01b031690565b60011015611dff57604001516001600160a01b031690565b6121d381611dc8565b60018060a01b03809254600392831b1c166000526122086020858152600760408761205b8d836000200154886120408b611dc8565b9060005b878110612220575b5050505060010161218a565b61222a8188611f38565b5183116122395760010161220c565b919290600019888101898111610766575b8481116122875750509161227d91859493612266600197611dc8565b9054911b1c16612276828d611f38565b5286611f38565b5290388080612214565b81810190808211610766576122b0828f6122a984896121336122bb9885611f38565b528b611f38565b51610a6b828c611f38565b61224a565b6002612173565b60058054600391908281101561244e57805b6122e281611f06565b936122ec82611f06565b60005b84811061232f575050505050508051600281116123175750506000546001600160a01b031690565b60021015611dff57606001516001600160a01b031690565b61233881611dc8565b9060018060a01b039182915490861b1c166000526123ac6002600760209180835260409061238b8c836000200154876123708a611dc8565b9054908d1b1c16600052828652600684600020015490611e5d565b938661239689611dc8565b9054908c1b1c1660005252600020015490611e5d565b60005b8681106123c2575b5050506001016122ef565b6123cc8186611f38565b5182116123db576001016123af565b9091600019878101888111610766575b83811161242057505083929161241791612406600196611dc8565b905490891b1c166120f8828d611f38565b529038806123b7565b8181019080821161076657610a60828e61244284886121336124499885611f38565b5289611f38565b6123eb565b826122d956fea26469706673582212208d31916f1ef24cdb2079226832c25839db931d66471562e99cdb06576b89afb364736f6c63430008180033","opcodes":"PUSH1 0x80 DUP1 PUSH1 0x40 MSTORE CALLVALUE PUSH2 0x7E JUMPI CALLER ISZERO PUSH2 0x68 JUMPI PUSH1 0x0 DUP1 SLOAD CALLER PUSH1 0x1 PUSH1 0x1 PUSH1 0xA0 SHL SUB NOT DUP3 AND DUP2 OR DUP4 SSTORE PUSH1 0x40 MLOAD SWAP3 SWAP1 SWAP2 PUSH1 0x1 PUSH1 0x1 PUSH1 0xA0 SHL SUB AND SWAP1 PUSH32 0x8BE0079C531659141344CD1FD0A4F28419497F9722A3DAAFE3B4186F6B6457E0 SWAP1 DUP1 LOG3 PUSH1 0x1 DUP1 SSTORE PUSH2 0x248A SWAP1 DUP2 PUSH2 0x84 DUP3 CODECOPY RETURN JUMPDEST PUSH4 0x1E4FBDF7 PUSH1 0xE0 SHL DUP2 MSTORE PUSH1 0x0 PUSH1 0x4 DUP3 ADD MSTORE PUSH1 0x24 SWAP1 REVERT JUMPDEST PUSH1 0x0 DUP1 REVERT INVALID PUSH1 0xA0 PUSH1 0x40 MSTORE PUSH1 0x4 CALLDATASIZE LT ISZERO PUSH2 0x13F JUMPI JUMPDEST CALLDATASIZE ISZERO PUSH2 0x19 JUMPI PUSH1 0x0 DUP1 REVERT JUMPDEST PUSH2 0x21 PUSH2 0x1F4C JUMP JUMPDEST CALLVALUE PUSH8 0x8AC7230489E80000 SUB PUSH2 0xCC JUMPI PUSH1 0x1 JUMPDEST CALLER PUSH1 0x0 MSTORE PUSH1 0x2 PUSH1 0x20 MSTORE PUSH2 0x4F PUSH1 0x3 PUSH1 0x40 PUSH1 0x0 KECCAK256 ADD SWAP2 DUP3 SLOAD PUSH2 0x1E5D JUMP JUMPDEST SWAP1 SSTORE PUSH2 0x59 PUSH2 0x1F9B JUMP JUMPDEST PUSH2 0x61 PUSH2 0x2161 JUMP JUMPDEST SWAP1 PUSH2 0x6A PUSH2 0x22C7 JUMP JUMPDEST SWAP2 PUSH1 0x0 DUP1 DUP1 DUP1 PUSH8 0x3782DACE9D900000 PUSH1 0x1 DUP1 PUSH1 0xA0 SHL SUB DUP1 SWAP8 AND DUP3 CALL ISZERO PUSH2 0xC0 JUMPI PUSH1 0x0 DUP1 DUP1 PUSH8 0x1BC16D674EC80000 DUP6 DUP3 SWAP6 AND DUP3 CALL ISZERO PUSH2 0xC0 JUMPI PUSH1 0x0 DUP1 DUP1 PUSH8 0xDE0B6B3A7640000 DUP2 SWAP5 DUP7 AND DUP3 CALL ISZERO PUSH2 0xC0 JUMPI PUSH1 0x1 DUP1 SSTORE STOP JUMPDEST PUSH1 0x40 MLOAD RETURNDATASIZE PUSH1 0x0 DUP3 RETURNDATACOPY RETURNDATASIZE SWAP1 REVERT JUMPDEST CALLVALUE PUSH9 0x270801D946C940000 SUB PUSH2 0xE3 JUMPI PUSH1 0x5 PUSH2 0x33 JUMP JUMPDEST CALLVALUE PUSH9 0x4E1003B28D9280000 SUB PUSH2 0xFA JUMPI PUSH1 0xA PUSH2 0x33 JUMP JUMPDEST PUSH1 0x40 MLOAD PUSH3 0x461BCD PUSH1 0xE5 SHL DUP2 MSTORE PUSH1 0x20 PUSH1 0x4 DUP3 ADD MSTORE PUSH1 0x17 PUSH1 0x24 DUP3 ADD MSTORE PUSH32 0x496E76616C6964206469616D6F6E64207061636B616765000000000000000000 PUSH1 0x44 DUP3 ADD MSTORE PUSH1 0x64 SWAP1 REVERT JUMPDEST PUSH1 0x0 CALLDATALOAD PUSH1 0xE0 SHR DUP1 PUSH4 0x183FF085 EQ PUSH2 0x1A9F JUMPI DUP1 PUSH4 0x5E5C06E2 EQ PUSH2 0x1974 JUMPI DUP1 PUSH4 0x683591A8 EQ PUSH2 0x1725 JUMPI DUP1 PUSH4 0x715018A6 EQ PUSH2 0x16CC JUMPI DUP1 PUSH4 0x7386BBC5 EQ PUSH2 0x163B JUMPI DUP1 PUSH4 0x74AA3A98 EQ PUSH2 0x138D JUMPI DUP1 PUSH4 0x8DA5CB5B EQ PUSH2 0x1364 JUMPI DUP1 PUSH4 0xA5A2CB19 EQ PUSH2 0x11D0 JUMPI DUP1 PUSH4 0xAB2611EE EQ PUSH2 0xD93 JUMPI DUP1 PUSH4 0xB7DF5B5D EQ PUSH2 0xA7B JUMPI DUP1 PUSH4 0xBEA2DC14 EQ PUSH2 0x8AB JUMPI DUP1 PUSH4 0xD018DB3E EQ PUSH2 0x58F JUMPI DUP1 PUSH4 0xD2FABB18 EQ PUSH2 0x571 JUMPI DUP1 PUSH4 0xD4826B6C EQ PUSH2 0x537 JUMPI DUP1 PUSH4 0xECE2E4BA EQ PUSH2 0x2D6 JUMPI DUP1 PUSH4 0xF2FDE38B EQ PUSH2 0x246 JUMPI PUSH4 0xF71D96CB SUB PUSH2 0xE JUMPI CALLVALUE PUSH2 0x241 JUMPI PUSH1 0x20 CALLDATASIZE PUSH1 0x3 NOT ADD SLT PUSH2 0x241 JUMPI PUSH1 0x4 CALLDATALOAD PUSH1 0x5 SLOAD DUP2 LT ISZERO PUSH2 0x241 JUMPI PUSH2 0x228 PUSH1 0x20 SWAP2 PUSH2 0x1DC8 JUMP JUMPDEST SWAP1 SLOAD PUSH1 0x40 MLOAD PUSH1 0x3 SWAP3 SWAP1 SWAP3 SHL SHR PUSH1 0x1 PUSH1 0x1 PUSH1 0xA0 SHL SUB AND DUP2 MSTORE RETURN JUMPDEST PUSH1 0x0 DUP1 REVERT JUMPDEST CALLVALUE PUSH2 0x241 JUMPI PUSH1 0x20 CALLDATASIZE PUSH1 0x3 NOT ADD SLT PUSH2 0x241 JUMPI PUSH1 0x4 CALLDATALOAD PUSH1 0x1 PUSH1 0x1 PUSH1 0xA0 SHL SUB DUP2 DUP2 AND SWAP2 DUP3 SWAP1 SUB PUSH2 0x241 JUMPI PUSH2 0x275 PUSH2 0x1F6F JUMP JUMPDEST DUP2 ISZERO PUSH2 0x2BD JUMPI PUSH1 0x0 SLOAD DUP3 PUSH12 0xFFFFFFFFFFFFFFFFFFFFFFFF PUSH1 0xA0 SHL DUP3 AND OR PUSH1 0x0 SSTORE AND PUSH32 0x8BE0079C531659141344CD1FD0A4F28419497F9722A3DAAFE3B4186F6B6457E0 PUSH1 0x0 DUP1 LOG3 STOP JUMPDEST PUSH1 0x40 MLOAD PUSH4 0x1E4FBDF7 PUSH1 0xE0 SHL DUP2 MSTORE PUSH1 0x0 PUSH1 0x4 DUP3 ADD MSTORE PUSH1 0x24 SWAP1 REVERT JUMPDEST CALLVALUE PUSH2 0x241 JUMPI PUSH2 0x100 DUP1 PUSH1 0x3 NOT CALLDATASIZE ADD SLT PUSH2 0x241 JUMPI PUSH8 0xFFFFFFFFFFFFFFFF PUSH1 0x4 CALLDATALOAD DUP2 DUP2 GT PUSH2 0x241 JUMPI PUSH2 0x30A SWAP1 CALLDATASIZE SWAP1 PUSH1 0x4 ADD PUSH2 0x1D29 JUMP JUMPDEST SWAP1 SWAP2 PUSH2 0x314 PUSH2 0x1F6F JUMP JUMPDEST PUSH1 0x40 MLOAD SWAP4 DUP5 ADD DUP5 DUP2 LT DUP3 DUP3 GT OR PUSH2 0x521 JUMPI PUSH1 0x40 MSTORE PUSH2 0x333 CALLDATASIZE DUP4 DUP6 PUSH2 0x1E77 JUMP JUMPDEST DUP5 MSTORE PUSH1 0x24 CALLDATALOAD PUSH1 0x20 DUP6 ADD MSTORE PUSH1 0x44 CALLDATALOAD PUSH1 0x40 DUP6 ADD MSTORE PUSH1 0x64 CALLDATALOAD PUSH1 0x60 DUP6 ADD MSTORE PUSH1 0x84 CALLDATALOAD PUSH1 0x80 DUP6 ADD MSTORE PUSH1 0xA4 CALLDATALOAD PUSH1 0xA0 DUP6 ADD MSTORE PUSH1 0xC4 CALLDATALOAD PUSH1 0xC0 DUP6 ADD MSTORE PUSH1 0xE4 CALLDATALOAD PUSH1 0xE0 DUP6 ADD MSTORE PUSH1 0x4 SLOAD PUSH1 0x0 MSTORE PUSH1 0x3 PUSH1 0x20 MSTORE PUSH1 0x40 PUSH1 0x0 KECCAK256 SWAP1 DUP5 MLOAD DUP1 MLOAD SWAP2 DUP3 GT PUSH2 0x521 JUMPI PUSH2 0x393 DUP4 SLOAD PUSH2 0x1BD9 JUMP JUMPDEST PUSH1 0x1F DUP2 GT PUSH2 0x4DD JUMPI JUMPDEST POP PUSH1 0x20 SWAP1 PUSH1 0x1F DUP4 GT PUSH1 0x1 EQ PUSH2 0x46B JUMPI SWAP6 DUP3 PUSH1 0x7 SWAP4 PUSH1 0xE0 SWAP4 PUSH2 0x45B SWAP10 PUSH1 0x0 SWAP3 PUSH2 0x460 JUMPI JUMPDEST POP POP DUP2 PUSH1 0x1 SHL SWAP2 PUSH1 0x0 NOT SWAP1 PUSH1 0x3 SHL SHR NOT AND OR DUP5 SSTORE JUMPDEST PUSH1 0x20 DUP2 ADD MLOAD PUSH1 0x1 DUP6 ADD SSTORE PUSH1 0x40 DUP2 ADD MLOAD PUSH1 0x2 DUP6 ADD SSTORE PUSH1 0x60 DUP2 ADD MLOAD PUSH1 0x3 DUP6 ADD SSTORE PUSH1 0x80 DUP2 ADD MLOAD PUSH1 0x4 DUP6 ADD SSTORE PUSH1 0xA0 DUP2 ADD MLOAD PUSH1 0x5 DUP6 ADD SSTORE PUSH1 0xC0 DUP2 ADD MLOAD PUSH1 0x6 DUP6 ADD SSTORE ADD MLOAD SWAP2 ADD SSTORE PUSH32 0xBCE75DB7677467DA57E0A1C1497E4A7C42D79D4071DBB0578DF54307E986FE07 PUSH1 0x4 SLOAD SWAP3 DUP4 SWAP3 PUSH2 0x453 PUSH1 0x40 MLOAD SWAP3 DUP4 SWAP3 PUSH1 0x20 DUP5 MSTORE PUSH1 0x20 DUP5 ADD SWAP2 PUSH2 0x1EBE JUMP JUMPDEST SUB SWAP1 LOG2 PUSH2 0x1EDF JUMP JUMPDEST PUSH1 0x4 SSTORE STOP JUMPDEST ADD MLOAD SWAP1 POP DUP10 DUP1 PUSH2 0x3BF JUMP JUMPDEST SWAP1 DUP4 PUSH1 0x0 MSTORE PUSH1 0x20 PUSH1 0x0 KECCAK256 SWAP2 PUSH1 0x0 JUMPDEST PUSH1 0x1F NOT DUP6 AND DUP2 LT PUSH2 0x4C5 JUMPI POP DUP4 PUSH1 0xE0 SWAP4 PUSH2 0x45B SWAP10 SWAP4 PUSH1 0x1 SWAP4 PUSH1 0x7 SWAP8 PUSH1 0x1F NOT DUP2 AND LT PUSH2 0x4AC JUMPI JUMPDEST POP POP POP DUP2 SHL ADD DUP5 SSTORE PUSH2 0x3D4 JUMP JUMPDEST ADD MLOAD PUSH1 0x0 NOT PUSH1 0xF8 DUP5 PUSH1 0x3 SHL AND SHR NOT AND SWAP1 SSTORE DUP10 DUP1 DUP1 PUSH2 0x49F JUMP JUMPDEST SWAP2 SWAP3 PUSH1 0x20 PUSH1 0x1 DUP2 SWAP3 DUP7 DUP6 ADD MLOAD DUP2 SSTORE ADD SWAP5 ADD SWAP3 ADD PUSH2 0x479 JUMP JUMPDEST DUP4 PUSH1 0x0 MSTORE PUSH1 0x20 PUSH1 0x0 KECCAK256 PUSH1 0x1F DUP5 ADD PUSH1 0x5 SHR DUP2 ADD PUSH1 0x20 DUP6 LT PUSH2 0x51A JUMPI JUMPDEST PUSH1 0x1F DUP4 ADD PUSH1 0x5 SHR DUP3 ADD DUP2 LT PUSH2 0x50E JUMPI POP POP PUSH2 0x39C JUMP JUMPDEST PUSH1 0x0 DUP2 SSTORE PUSH1 0x1 ADD PUSH2 0x4F8 JUMP JUMPDEST POP DUP1 PUSH2 0x4F8 JUMP JUMPDEST PUSH4 0x4E487B71 PUSH1 0xE0 SHL PUSH1 0x0 MSTORE PUSH1 0x41 PUSH1 0x4 MSTORE PUSH1 0x24 PUSH1 0x0 REVERT JUMPDEST CALLVALUE PUSH2 0x241 JUMPI PUSH1 0x0 CALLDATASIZE PUSH1 0x3 NOT ADD SLT PUSH2 0x241 JUMPI PUSH2 0x550 PUSH2 0x1F6F JUMP JUMPDEST PUSH1 0x0 DUP1 DUP1 DUP1 SELFBALANCE DUP2 DUP2 ISZERO PUSH2 0x568 JUMPI JUMPDEST CALLER SWAP1 CALL ISZERO PUSH2 0xC0 JUMPI STOP JUMPDEST POP PUSH2 0x8FC PUSH2 0x55E JUMP JUMPDEST CALLVALUE PUSH2 0x241 JUMPI PUSH1 0x0 CALLDATASIZE PUSH1 0x3 NOT ADD SLT PUSH2 0x241 JUMPI PUSH1 0x20 PUSH1 0x4 SLOAD PUSH1 0x40 MLOAD SWAP1 DUP2 MSTORE RETURN JUMPDEST CALLVALUE PUSH2 0x241 JUMPI PUSH1 0x20 DUP1 PUSH1 0x3 NOT CALLDATASIZE ADD SLT PUSH2 0x241 JUMPI PUSH1 0x4 CALLDATALOAD PUSH1 0x1 PUSH1 0x1 PUSH1 0xA0 SHL SUB DUP2 AND SWAP2 SWAP1 DUP3 SWAP1 SUB PUSH2 0x241 JUMPI PUSH2 0x5BF PUSH2 0x1F4C JUMP JUMPDEST CALLER PUSH1 0x0 MSTORE PUSH1 0x2 DUP2 MSTORE PUSH1 0x40 PUSH1 0x0 KECCAK256 SWAP1 DUP3 PUSH1 0x0 MSTORE PUSH1 0x40 PUSH1 0x0 KECCAK256 SWAP1 PUSH1 0x4 DUP4 ADD SWAP3 DUP4 SLOAD ISZERO ISZERO DUP1 PUSH2 0x89E JUMPI JUMPDEST ISZERO PUSH2 0x863 JUMPI PUSH1 0xFF PUSH1 0x1 DUP3 ADD SLOAD AND PUSH1 0xFF PUSH1 0x1 DUP6 ADD SLOAD AND ISZERO ISZERO SWAP1 ISZERO ISZERO EQ PUSH2 0x82B JUMPI PUSH1 0xA DUP2 ADD SLOAD PUSH1 0xA DUP5 ADD SLOAD SUB PUSH2 0x7EE JUMPI PUSH1 0xF DUP2 ADD SLOAD TIMESTAMP LT ISZERO DUP1 PUSH2 0x7E0 JUMPI JUMPDEST ISZERO PUSH2 0x7AF JUMPI PUSH1 0x6 DUP2 ADD SLOAD PUSH1 0x7 DUP5 ADD SLOAD DUP1 DUP3 GT ISZERO PUSH2 0x7A5 JUMPI PUSH2 0x642 SWAP2 PUSH2 0x1E50 JUMP JUMPDEST SWAP3 JUMPDEST PUSH1 0x6 DUP2 ADD SLOAD PUSH1 0x7 DUP4 ADD SLOAD DUP1 DUP3 GT ISZERO PUSH2 0x79C JUMPI PUSH2 0x65F SWAP2 PUSH2 0x1E50 JUMP JUMPDEST PUSH1 0x4 DUP3 ADD DUP1 SLOAD SWAP1 SWAP6 DUP2 DUP2 LT PUSH2 0x78C JUMPI POP POP PUSH1 0x0 DUP6 SSTORE JUMPDEST DUP6 SLOAD SWAP1 DUP2 DUP2 LT PUSH2 0x77C JUMPI POP POP PUSH1 0x0 DUP6 SSTORE JUMPDEST PUSH1 0x0 SWAP4 SLOAD ISZERO PUSH2 0x6E0 JUMPI JUMPDEST POP PUSH32 0x1D099E3DA7A64D91BF9ED0E41ACEAF6A8E2C1FC0D072EF2779F2EA6988D27988 SWAP3 SWAP4 SLOAD ISZERO PUSH2 0x6CD JUMPI JUMPDEST POP PUSH1 0x40 MLOAD SWAP3 ISZERO ISZERO DUP4 MSTORE CALLER SWAP3 LOG3 PUSH1 0x1 DUP1 SSTORE STOP JUMPDEST PUSH1 0x0 PUSH1 0x8 DUP3 ADD SSTORE PUSH1 0xE TIMESTAMP SWAP2 ADD SSTORE DUP5 PUSH2 0x6BB JUMP JUMPDEST SWAP3 POP PUSH1 0x0 PUSH1 0x8 DUP5 ADD SSTORE TIMESTAMP PUSH1 0xE DUP5 ADD SSTORE PUSH1 0x8 DUP2 ADD SLOAD SWAP3 PUSH1 0x32 DUP5 MUL SWAP4 DUP1 DUP6 DIV PUSH1 0x32 EQ SWAP1 ISZERO OR ISZERO PUSH2 0x766 JUMPI PUSH1 0x2 ADD DUP1 SLOAD PUSH32 0x1D099E3DA7A64D91BF9ED0E41ACEAF6A8E2C1FC0D072EF2779F2EA6988D27988 SWAP5 SWAP2 SWAP1 DUP1 DUP4 GT PUSH2 0x75E JUMPI JUMPDEST DUP3 PUSH2 0x743 SWAP2 PUSH2 0x1E50 JUMP JUMPDEST SWAP1 SSTORE PUSH2 0x754 PUSH1 0x2 DUP4 ADD SWAP2 DUP3 SLOAD PUSH2 0x1E5D JUMP JUMPDEST SWAP1 SSTORE PUSH1 0x1 SWAP3 PUSH2 0x690 JUMP JUMPDEST SWAP2 POP DUP2 PUSH2 0x739 JUMP JUMPDEST PUSH4 0x4E487B71 PUSH1 0xE0 SHL PUSH1 0x0 MSTORE PUSH1 0x11 PUSH1 0x4 MSTORE PUSH1 0x24 PUSH1 0x0 REVERT JUMPDEST PUSH2 0x785 SWAP2 PUSH2 0x1E50 JUMP JUMPDEST DUP6 SSTORE PUSH2 0x686 JUMP JUMPDEST PUSH2 0x795 SWAP2 PUSH2 0x1E50 JUMP JUMPDEST DUP6 SSTORE PUSH2 0x675 JUMP JUMPDEST POP POP PUSH1 0x0 PUSH2 0x65F JUMP JUMPDEST POP POP PUSH1 0x0 SWAP3 PUSH2 0x644 JUMP JUMPDEST PUSH1 0x40 MLOAD PUSH3 0x461BCD PUSH1 0xE5 SHL DUP2 MSTORE PUSH1 0x4 DUP2 ADD DUP4 SWAP1 MSTORE PUSH1 0x9 PUSH1 0x24 DUP3 ADD MSTORE PUSH9 0x125B881D1C985D995B PUSH1 0xBA SHL PUSH1 0x44 DUP3 ADD MSTORE PUSH1 0x64 SWAP1 REVERT JUMPDEST POP PUSH1 0xF DUP4 ADD SLOAD TIMESTAMP LT ISZERO PUSH2 0x622 JUMP JUMPDEST PUSH1 0x40 MLOAD PUSH3 0x461BCD PUSH1 0xE5 SHL DUP2 MSTORE PUSH1 0x4 DUP2 ADD DUP4 SWAP1 MSTORE PUSH1 0x15 PUSH1 0x24 DUP3 ADD MSTORE PUSH21 0x26BAB9BA1031329039B0B6B2903637B1B0BA34B7B7 PUSH1 0x59 SHL PUSH1 0x44 DUP3 ADD MSTORE PUSH1 0x64 SWAP1 REVERT JUMPDEST PUSH1 0x40 MLOAD PUSH3 0x461BCD PUSH1 0xE5 SHL DUP2 MSTORE PUSH1 0x4 DUP2 ADD DUP4 SWAP1 MSTORE PUSH1 0x10 PUSH1 0x24 DUP3 ADD MSTORE PUSH16 0x29B0B6B29030B33334B634B0BA34B7B7 PUSH1 0x81 SHL PUSH1 0x44 DUP3 ADD MSTORE PUSH1 0x64 SWAP1 REVERT JUMPDEST PUSH1 0x40 MLOAD PUSH3 0x461BCD PUSH1 0xE5 SHL DUP2 MSTORE PUSH1 0x4 DUP2 ADD DUP4 SWAP1 MSTORE PUSH1 0x13 PUSH1 0x24 DUP3 ADD MSTORE PUSH19 0x13DB99481CDA1A5C081A5CC81DDC9958DAD959 PUSH1 0x6A SHL PUSH1 0x44 DUP3 ADD MSTORE PUSH1 0x64 SWAP1 REVERT JUMPDEST POP PUSH1 0x4 DUP4 ADD SLOAD ISZERO ISZERO PUSH2 0x5E6 JUMP JUMPDEST CALLVALUE PUSH2 0x241 JUMPI PUSH1 0x20 CALLDATASIZE PUSH1 0x3 NOT ADD SLT PUSH2 0x241 JUMPI PUSH1 0x5 SLOAD PUSH1 0x4 CALLDATALOAD DUP1 DUP3 LT ISZERO PUSH2 0xA76 JUMPI POP DUP1 JUMPDEST PUSH2 0x8D6 DUP2 PUSH2 0x1F06 JUMP JUMPDEST SWAP2 PUSH2 0x8E0 DUP3 PUSH2 0x1F06 JUMP JUMPDEST SWAP2 PUSH1 0x0 JUMPDEST DUP3 DUP2 LT PUSH2 0x919 JUMPI PUSH2 0x907 DUP6 PUSH2 0x915 DUP7 PUSH1 0x40 MLOAD SWAP4 DUP5 SWAP4 PUSH1 0x40 DUP6 MSTORE PUSH1 0x40 DUP6 ADD SWAP1 PUSH2 0x1D57 JUMP JUMPDEST SWAP1 DUP4 DUP3 SUB PUSH1 0x20 DUP6 ADD MSTORE PUSH2 0x1D94 JUMP JUMPDEST SUB SWAP1 RETURN JUMPDEST PUSH2 0x922 DUP2 PUSH2 0x1DC8 JUMP JUMPDEST SWAP1 SLOAD PUSH1 0x1 DUP1 PUSH1 0xA0 SHL SUB SWAP2 PUSH1 0x3 SHL SHR AND PUSH1 0x0 MSTORE PUSH2 0x9A5 PUSH1 0x2 DUP1 PUSH1 0x20 MSTORE PUSH2 0x977 PUSH1 0x5 PUSH1 0x40 PUSH1 0x0 KECCAK256 ADD SLOAD PUSH2 0x952 DUP6 PUSH2 0x1DC8 JUMP JUMPDEST PUSH1 0x1 DUP1 PUSH1 0xA0 SHL SUB SWAP2 SLOAD SWAP1 PUSH1 0x3 SHL SHR AND PUSH1 0x0 MSTORE DUP3 PUSH1 0x20 MSTORE PUSH1 0x6 PUSH1 0x40 PUSH1 0x0 KECCAK256 ADD SLOAD SWAP1 PUSH2 0x1E5D JUMP JUMPDEST SWAP1 PUSH2 0x981 DUP5 PUSH2 0x1DC8 JUMP JUMPDEST PUSH1 0x1 DUP1 PUSH1 0xA0 SHL SUB SWAP2 SLOAD SWAP1 PUSH1 0x3 SHL SHR AND PUSH1 0x0 MSTORE PUSH1 0x20 MSTORE PUSH1 0x7 PUSH1 0x40 PUSH1 0x0 KECCAK256 ADD SLOAD SWAP1 PUSH2 0x1E5D JUMP JUMPDEST PUSH1 0x0 JUMPDEST DUP4 DUP2 LT PUSH2 0x9BA JUMPI JUMPDEST POP POP PUSH1 0x1 ADD PUSH2 0x8E4 JUMP JUMPDEST PUSH2 0x9C4 DUP2 DUP8 PUSH2 0x1F38 JUMP JUMPDEST MLOAD DUP3 GT PUSH2 0x9D3 JUMPI PUSH1 0x1 ADD PUSH2 0x9A8 JUMP JUMPDEST PUSH1 0x0 NOT DUP5 ADD DUP5 DUP2 GT PUSH2 0x766 JUMPI JUMPDEST DUP2 DUP2 GT PUSH2 0xA20 JUMPI POP SWAP1 PUSH2 0xA18 DUP4 SWAP3 PUSH2 0x9F9 PUSH1 0x1 SWAP6 PUSH2 0x1DC8 JUMP JUMPDEST DUP7 DUP1 PUSH1 0xA0 SHL SUB SWAP2 SLOAD SWAP1 PUSH1 0x3 SHL SHR AND PUSH2 0xA11 DUP3 DUP12 PUSH2 0x1F38 JUMP JUMPDEST MSTORE DUP8 PUSH2 0x1F38 JUMP JUMPDEST MSTORE SWAP1 DUP7 PUSH2 0x9B0 JUMP JUMPDEST DUP1 PUSH1 0x0 NOT DUP2 ADD GT PUSH2 0x766 JUMPI PUSH2 0xA71 SWAP1 PUSH1 0x1 PUSH1 0x1 PUSH1 0xA0 SHL SUB PUSH2 0xA45 PUSH1 0x0 NOT DUP4 ADD DUP12 PUSH2 0x1F38 JUMP JUMPDEST MLOAD AND PUSH2 0xA51 DUP3 DUP12 PUSH2 0x1F38 JUMP JUMPDEST MSTORE PUSH2 0xA60 PUSH1 0x0 NOT DUP3 ADD DUP10 PUSH2 0x1F38 JUMP JUMPDEST MLOAD PUSH2 0xA6B DUP3 DUP11 PUSH2 0x1F38 JUMP JUMPDEST MSTORE PUSH2 0x1E6A JUMP JUMPDEST PUSH2 0x9E0 JUMP JUMPDEST PUSH2 0x8CD JUMP JUMPDEST CALLVALUE PUSH2 0x241 JUMPI PUSH1 0x20 DUP1 PUSH1 0x3 NOT CALLDATASIZE ADD SLT PUSH2 0x241 JUMPI PUSH1 0x5 DUP1 SLOAD SWAP2 PUSH1 0x0 SWAP2 SWAP1 PUSH1 0x4 CALLDATALOAD SWAP1 DUP4 JUMPDEST DUP6 DUP2 LT PUSH2 0xD05 JUMPI POP PUSH2 0xAAD DUP5 PUSH2 0x1F06 JUMP JUMPDEST SWAP5 PUSH2 0xAB7 DUP6 PUSH2 0x1EEE JUMP JUMPDEST SWAP4 PUSH2 0xAC5 PUSH1 0x40 MLOAD SWAP6 DUP7 PUSH2 0x1C13 JUMP JUMPDEST DUP6 DUP6 MSTORE PUSH2 0xAD1 DUP7 PUSH2 0x1EEE JUMP JUMPDEST PUSH1 0x1F NOT SWAP7 SWAP1 DUP8 ADD PUSH1 0x0 JUMPDEST DUP2 DUP2 LT PUSH2 0xCF6 JUMPI POP POP PUSH2 0xAED SWAP1 PUSH2 0x1F06 JUMP JUMPDEST SWAP4 PUSH1 0x0 SWAP1 PUSH1 0x0 JUMPDEST DUP5 DUP2 LT PUSH2 0xB85 JUMPI PUSH2 0xB17 DUP10 DUP12 DUP11 DUP11 DUP11 PUSH1 0x40 MLOAD SWAP6 DUP7 SWAP5 PUSH1 0x60 DUP7 MSTORE PUSH1 0x60 DUP7 ADD SWAP1 PUSH2 0x1D57 JUMP JUMPDEST SWAP1 DUP5 DUP3 SUB DUP2 DUP7 ADD MSTORE DUP4 MLOAD SWAP2 DUP3 DUP2 MSTORE DUP2 DUP2 ADD DUP3 DUP1 DUP6 PUSH1 0x5 SHL DUP5 ADD ADD SWAP7 ADD SWAP8 PUSH1 0x0 SWAP3 JUMPDEST DUP6 DUP5 LT PUSH2 0xB53 JUMPI DUP9 DUP1 PUSH2 0x915 DUP11 DUP11 DUP4 DUP3 SUB PUSH1 0x40 DUP6 ADD MSTORE PUSH2 0x1D94 JUMP JUMPDEST SWAP2 SWAP4 DUP1 DUP1 SWAP8 SWAP10 POP PUSH2 0xB71 DUP10 DUP5 DUP7 PUSH1 0x1 SWAP7 SWAP9 SWAP11 SWAP13 SUB ADD DUP9 MSTORE DUP13 MLOAD PUSH2 0x1CDA JUMP JUMPDEST SWAP11 ADD SWAP5 ADD SWAP5 ADD SWAP2 DUP10 SWAP8 SWAP6 SWAP4 SWAP9 SWAP7 SWAP5 SWAP2 PUSH2 0xB38 JUMP JUMPDEST DUP10 PUSH2 0xB93 DUP3 SWAP11 SWAP9 SWAP10 SWAP11 PUSH2 0x1DC8 JUMP JUMPDEST SWAP2 SWAP1 PUSH1 0x1 DUP1 PUSH1 0xA0 SHL SUB DUP1 SWAP2 SLOAD PUSH1 0x3 SWAP5 DUP6 SHL SHR AND PUSH1 0x0 MSTORE DUP9 DUP8 DUP14 PUSH1 0x2 SWAP5 DUP6 DUP5 MSTORE DUP9 PUSH1 0xA PUSH1 0x40 PUSH1 0x0 KECCAK256 ADD SLOAD EQ DUP1 PUSH2 0xCCD JUMPI JUMPDEST PUSH2 0xBDB JUMPI JUMPDEST POP POP POP POP POP POP POP PUSH1 0x1 ADD SWAP8 SWAP7 SWAP6 SWAP8 PUSH2 0xAF4 JUMP JUMPDEST DUP8 DUP7 DUP9 SWAP6 DUP8 PUSH2 0xC72 DUP15 SWAP11 SWAP8 DUP6 SWAP16 DUP1 PUSH1 0x1 SWAP16 SWAP10 PUSH2 0xCC0 SWAP16 SWAP10 PUSH2 0xC18 PUSH2 0xCB0 SWAP16 SWAP13 SWAP5 DUP9 PUSH2 0xC8C SWAP14 PUSH2 0xC0C PUSH2 0xC4D SWAP9 PUSH2 0x1DC8 JUMP JUMPDEST SWAP1 SLOAD SWAP2 SHL SHR AND SWAP3 PUSH2 0x1F38 JUMP JUMPDEST MSTORE DUP6 DUP14 PUSH2 0xC24 DUP12 PUSH2 0x1DC8 JUMP JUMPDEST SWAP1 SLOAD SWAP2 SHL SHR AND PUSH1 0x0 MSTORE DUP8 DUP8 MSTORE PUSH2 0xC3D PUSH1 0x40 PUSH1 0x0 KECCAK256 PUSH2 0x1C35 JUMP JUMPDEST PUSH2 0xC47 DUP4 DUP4 PUSH2 0x1F38 JUMP JUMPDEST MSTORE PUSH2 0x1F38 JUMP JUMPDEST POP DUP3 PUSH2 0xC58 DUP8 PUSH2 0x1DC8 JUMP JUMPDEST SWAP1 SLOAD SWAP1 DUP13 SHL SHR AND PUSH1 0x0 MSTORE DUP5 DUP5 MSTORE PUSH1 0x40 PUSH1 0x0 KECCAK256 ADD SLOAD SWAP5 PUSH2 0x1DC8 JUMP JUMPDEST SWAP1 SLOAD SWAP1 DUP10 SHL SHR AND PUSH1 0x0 MSTORE MSTORE PUSH1 0x6 PUSH1 0x40 PUSH1 0x0 KECCAK256 ADD SLOAD SWAP1 PUSH2 0x1E5D JUMP JUMPDEST SWAP3 PUSH2 0xC96 DUP11 PUSH2 0x1DC8 JUMP JUMPDEST SWAP1 SLOAD SWAP2 SHL SHR AND PUSH1 0x0 MSTORE DUP11 MSTORE PUSH1 0x7 PUSH1 0x40 PUSH1 0x0 KECCAK256 ADD SLOAD SWAP1 PUSH2 0x1E5D JUMP JUMPDEST PUSH2 0xCBA DUP3 DUP13 PUSH2 0x1F38 JUMP JUMPDEST MSTORE PUSH2 0x1EDF JUMP JUMPDEST SWAP3 SWAP1 DUP12 DUP1 DUP9 DUP8 DUP14 DUP16 PUSH2 0xBC8 JUMP JUMPDEST POP DUP5 PUSH2 0xCD8 DUP10 PUSH2 0x1DC8 JUMP JUMPDEST SWAP1 SLOAD SWAP1 DUP10 SHL SHR AND PUSH1 0x0 MSTORE DUP6 DUP5 MSTORE PUSH1 0xF PUSH1 0x40 PUSH1 0x0 KECCAK256 ADD SLOAD TIMESTAMP LT ISZERO PUSH2 0xBC3 JUMP JUMPDEST PUSH1 0x60 DUP9 DUP3 ADD DUP8 ADD MSTORE DUP6 ADD PUSH2 0xADB JUMP JUMPDEST PUSH2 0xD12 DUP2 SWAP6 SWAP4 SWAP5 SWAP6 PUSH2 0x1DC8 JUMP JUMPDEST SWAP1 PUSH1 0x1 DUP1 PUSH1 0xA0 SHL SUB DUP1 SWAP2 SLOAD PUSH1 0x3 SWAP4 DUP5 SHL SHR AND PUSH1 0x0 MSTORE PUSH1 0x2 SWAP1 DUP2 DUP6 MSTORE DUP7 PUSH1 0xA PUSH1 0x40 PUSH1 0x0 KECCAK256 ADD SLOAD EQ SWAP3 DUP4 PUSH2 0xD67 JUMPI JUMPDEST POP POP POP PUSH2 0xD53 JUMPI JUMPDEST PUSH1 0x1 ADD SWAP4 SWAP3 SWAP2 SWAP4 PUSH2 0xA9C JUMP JUMPDEST SWAP2 PUSH2 0xD5F PUSH1 0x1 SWAP2 PUSH2 0x1EDF JUMP JUMPDEST SWAP3 SWAP1 POP PUSH2 0xD47 JUMP JUMPDEST SWAP1 SWAP2 SWAP3 POP PUSH2 0xD74 DUP5 PUSH2 0x1DC8 JUMP JUMPDEST SWAP1 SLOAD SWAP2 SHL SHR AND PUSH1 0x0 MSTORE DUP3 MSTORE PUSH1 0xF PUSH1 0x40 PUSH1 0x0 KECCAK256 ADD SLOAD TIMESTAMP LT ISZERO DUP8 DUP1 DUP1 PUSH2 0xD3F JUMP JUMPDEST CALLVALUE PUSH2 0x241 JUMPI PUSH1 0x60 CALLDATASIZE PUSH1 0x3 NOT ADD SLT PUSH2 0x241 JUMPI PUSH1 0x4 CALLDATALOAD PUSH8 0xFFFFFFFFFFFFFFFF DUP2 GT PUSH2 0x241 JUMPI PUSH2 0xDC4 SWAP1 CALLDATASIZE SWAP1 PUSH1 0x4 ADD PUSH2 0x1D29 JUMP JUMPDEST SWAP1 PUSH2 0xDCD PUSH2 0x1D1A JUMP JUMPDEST SWAP2 PUSH1 0x44 CALLDATALOAD DUP2 ISZERO ISZERO DUP1 PUSH2 0x11C5 JUMPI JUMPDEST ISZERO PUSH2 0x1180 JUMPI PUSH1 0x64 DUP2 GT PUSH2 0x1142 JUMPI CALLER PUSH1 0x0 MSTORE PUSH1 0x2 PUSH1 0x20 MSTORE PUSH1 0x40 PUSH1 0x0 KECCAK256 PUSH1 0x4 DUP2 ADD SLOAD ISZERO SWAP1 DUP2 PUSH2 0x1135 JUMPI JUMPDEST POP ISZERO PUSH2 0x10FA JUMPI PUSH1 0x40 MLOAD SWAP1 PUSH2 0x200 DUP3 ADD DUP3 DUP2 LT PUSH8 0xFFFFFFFFFFFFFFFF DUP3 GT OR PUSH2 0x521 JUMPI PUSH1 0x40 MSTORE PUSH2 0xE32 CALLDATASIZE DUP5 DUP7 PUSH2 0x1E77 JUMP JUMPDEST DUP3 MSTORE DUP5 ISZERO ISZERO PUSH1 0x20 DUP4 ADD MSTORE PUSH1 0x64 PUSH1 0x40 DUP4 ADD MSTORE PUSH1 0x0 PUSH1 0x60 DUP4 ADD MSTORE PUSH1 0x64 PUSH1 0x80 DUP4 ADD MSTORE PUSH1 0x1 PUSH1 0xA0 DUP4 ADD MSTORE PUSH1 0x1 PUSH1 0xC0 DUP4 ADD MSTORE PUSH1 0x1 PUSH1 0xE0 DUP4 ADD MSTORE PUSH1 0x1 PUSH2 0x100 DUP4 ADD MSTORE PUSH1 0xA PUSH2 0x120 DUP4 ADD MSTORE PUSH2 0x140 DUP3 ADD MSTORE PUSH1 0x0 PUSH2 0x160 DUP3 ADD MSTORE PUSH1 0x0 PUSH2 0x180 DUP3 ADD MSTORE PUSH1 0x0 PUSH2 0x1A0 DUP3 ADD MSTORE PUSH1 0x0 PUSH2 0x1C0 DUP3 ADD MSTORE PUSH1 0x0 PUSH2 0x1E0 DUP3 ADD MSTORE CALLER PUSH1 0x0 MSTORE PUSH1 0x2 PUSH1 0x20 MSTORE PUSH1 0x40 PUSH1 0x0 KECCAK256 SWAP1 DUP1 MLOAD DUP1 MLOAD SWAP1 PUSH8 0xFFFFFFFFFFFFFFFF DUP3 GT PUSH2 0x521 JUMPI PUSH2 0xED1 DUP5 SLOAD PUSH2 0x1BD9 JUMP JUMPDEST PUSH1 0x1F DUP2 GT PUSH2 0x10B6 JUMPI JUMPDEST POP PUSH1 0x20 SWAP1 PUSH1 0x1F DUP4 GT PUSH1 0x1 EQ PUSH2 0x1046 JUMPI SWAP2 DUP1 PUSH1 0xF SWAP5 SWAP3 PUSH2 0x1E0 SWAP5 PUSH1 0x0 SWAP3 PUSH2 0x103B JUMPI JUMPDEST POP POP DUP2 PUSH1 0x1 SHL SWAP2 PUSH1 0x0 NOT SWAP1 PUSH1 0x3 SHL SHR NOT AND OR DUP5 SSTORE JUMPDEST PUSH1 0x1 DUP5 ADD PUSH1 0x20 DUP3 ADD MLOAD ISZERO ISZERO PUSH1 0xFF DUP1 NOT DUP4 SLOAD AND SWAP2 AND OR SWAP1 SSTORE PUSH1 0x40 DUP2 ADD MLOAD PUSH1 0x2 DUP6 ADD SSTORE PUSH1 0x60 DUP2 ADD MLOAD PUSH1 0x3 DUP6 ADD SSTORE PUSH1 0x80 DUP2 ADD MLOAD PUSH1 0x4 DUP6 ADD SSTORE PUSH1 0xA0 DUP2 ADD MLOAD PUSH1 0x5 DUP6 ADD SSTORE PUSH1 0xC0 DUP2 ADD MLOAD PUSH1 0x6 DUP6 ADD SSTORE PUSH1 0xE0 DUP2 ADD MLOAD PUSH1 0x7 DUP6 ADD SSTORE PUSH2 0x100 DUP2 ADD MLOAD PUSH1 0x8 DUP6 ADD SSTORE PUSH2 0x120 DUP2 ADD MLOAD PUSH1 0x9 DUP6 ADD SSTORE PUSH2 0x140 DUP2 ADD MLOAD PUSH1 0xA DUP6 ADD SSTORE PUSH2 0x160 DUP2 ADD MLOAD PUSH1 0xB DUP6 ADD SSTORE PUSH2 0x180 DUP2 ADD MLOAD PUSH1 0xC DUP6 ADD SSTORE PUSH2 0x1A0 DUP2 ADD MLOAD PUSH1 0xD DUP6 ADD SSTORE PUSH2 0x1C0 DUP2 ADD MLOAD PUSH1 0xE DUP6 ADD SSTORE ADD MLOAD SWAP2 ADD SSTORE PUSH1 0x5 SLOAD PUSH9 0x10000000000000000 DUP2 LT ISZERO PUSH2 0x521 JUMPI PUSH32 0x47456E7EC68E981A8F02D9C9528370ADEA595C1B26225BE6797E6D441C47FC02 SWAP3 PUSH2 0xFFE DUP3 PUSH1 0x1 PUSH2 0x102B SWAP5 ADD PUSH1 0x5 SSTORE PUSH2 0x1DC8 JUMP JUMPDEST DUP2 SLOAD PUSH1 0x1 PUSH1 0x1 PUSH1 0xA0 SHL SUB PUSH1 0x3 SWAP3 SWAP1 SWAP3 SHL SWAP2 DUP3 SHL NOT AND CALLER SWAP1 SWAP2 SHL OR SWAP1 SSTORE PUSH1 0x40 DUP1 MLOAD DUP2 DUP2 MSTORE SWAP4 SWAP1 DUP5 ADD SWAP2 PUSH2 0x1EBE JUMP JUMPDEST SWAP3 ISZERO ISZERO PUSH1 0x20 DUP3 ADD MSTORE DUP1 CALLER SWAP4 SUB SWAP1 LOG2 STOP JUMPDEST ADD MLOAD SWAP1 POP DUP10 DUP1 PUSH2 0xEFB JUMP JUMPDEST SWAP1 DUP5 PUSH1 0x0 MSTORE PUSH1 0x20 PUSH1 0x0 KECCAK256 SWAP2 PUSH1 0x0 JUMPDEST PUSH1 0x1F NOT DUP6 AND DUP2 LT PUSH2 0x109E JUMPI POP SWAP3 PUSH1 0xF SWAP5 SWAP3 PUSH1 0x1 SWAP3 PUSH2 0x1E0 SWAP6 DUP4 PUSH1 0x1F NOT DUP2 AND LT PUSH2 0x1085 JUMPI JUMPDEST POP POP POP DUP2 SHL ADD DUP5 SSTORE PUSH2 0xF10 JUMP JUMPDEST ADD MLOAD PUSH1 0x0 NOT PUSH1 0xF8 DUP5 PUSH1 0x3 SHL AND SHR NOT AND SWAP1 SSTORE DUP10 DUP1 DUP1 PUSH2 0x1078 JUMP JUMPDEST SWAP2 SWAP3 PUSH1 0x20 PUSH1 0x1 DUP2 SWAP3 DUP7 DUP6 ADD MLOAD DUP2 SSTORE ADD SWAP5 ADD SWAP3 ADD PUSH2 0x1054 JUMP JUMPDEST DUP5 PUSH1 0x0 MSTORE PUSH1 0x20 PUSH1 0x0 KECCAK256 PUSH1 0x1F DUP5 ADD PUSH1 0x5 SHR DUP2 ADD PUSH1 0x20 DUP6 LT PUSH2 0x10F3 JUMPI JUMPDEST PUSH1 0x1F DUP4 ADD PUSH1 0x5 SHR DUP3 ADD DUP2 LT PUSH2 0x10E7 JUMPI POP POP PUSH2 0xEDA JUMP JUMPDEST PUSH1 0x0 DUP2 SSTORE PUSH1 0x1 ADD PUSH2 0x10D1 JUMP JUMPDEST POP DUP1 PUSH2 0x10D1 JUMP JUMPDEST PUSH1 0x40 MLOAD PUSH3 0x461BCD PUSH1 0xE5 SHL DUP2 MSTORE PUSH1 0x20 PUSH1 0x4 DUP3 ADD MSTORE PUSH1 0x13 PUSH1 0x24 DUP3 ADD MSTORE PUSH19 0x105B1C9958591E481A185CC81858D8DBDD5B9D PUSH1 0x6A SHL PUSH1 0x44 DUP3 ADD MSTORE PUSH1 0x64 SWAP1 REVERT JUMPDEST PUSH1 0x8 SWAP2 POP ADD SLOAD ISZERO DUP6 PUSH2 0xE02 JUMP JUMPDEST PUSH1 0x40 MLOAD PUSH3 0x461BCD PUSH1 0xE5 SHL DUP2 MSTORE PUSH1 0x20 PUSH1 0x4 DUP3 ADD MSTORE PUSH1 0x16 PUSH1 0x24 DUP3 ADD MSTORE PUSH22 0x4C6F636174696F6E206D75737420626520302D31303 PUSH1 0x54 SHL PUSH1 0x44 DUP3 ADD MSTORE PUSH1 0x64 SWAP1 REVERT JUMPDEST PUSH1 0x40 MLOAD PUSH3 0x461BCD PUSH1 0xE5 SHL DUP2 MSTORE PUSH1 0x20 PUSH1 0x4 DUP3 ADD MSTORE PUSH1 0x18 PUSH1 0x24 DUP3 ADD MSTORE PUSH32 0x426F6174206E616D6520696E76616C6964206C656E6774680000000000000000 PUSH1 0x44 DUP3 ADD MSTORE PUSH1 0x64 SWAP1 REVERT JUMPDEST POP PUSH1 0xC DUP3 GT ISZERO PUSH2 0xDDA JUMP JUMPDEST CALLVALUE PUSH2 0x241 JUMPI PUSH1 0x20 CALLDATASIZE PUSH1 0x3 NOT ADD SLT PUSH2 0x241 JUMPI PUSH1 0x4 CALLDATALOAD PUSH2 0x11EC PUSH2 0x1F4C JUMP JUMPDEST DUP1 PUSH1 0x0 MSTORE PUSH1 0x3 PUSH1 0x20 MSTORE PUSH1 0x40 PUSH1 0x0 KECCAK256 CALLER PUSH1 0x0 MSTORE PUSH1 0x2 PUSH1 0x20 MSTORE PUSH1 0x40 PUSH1 0x0 KECCAK256 SWAP1 PUSH1 0x1 DUP2 ADD SLOAD DUP1 ISZERO PUSH2 0x132B JUMPI PUSH1 0x2 DUP4 ADD SWAP2 DUP3 SLOAD SWAP3 DUP3 DUP5 LT PUSH2 0x12F4 JUMPI PUSH2 0x1231 PUSH1 0x7 SWAP4 PUSH1 0x8 SWAP6 PUSH2 0x1E50 JUMP JUMPDEST SWAP1 SSTORE PUSH1 0x2 DUP2 ADD SLOAD PUSH2 0x1247 PUSH1 0xB DUP7 ADD SWAP2 DUP3 SLOAD PUSH2 0x1E5D JUMP JUMPDEST SWAP1 SSTORE PUSH1 0x3 DUP2 ADD SLOAD PUSH2 0x125D PUSH1 0x4 DUP7 ADD SWAP2 DUP3 SLOAD PUSH2 0x1E5D JUMP JUMPDEST SWAP1 SSTORE PUSH1 0x4 DUP2 ADD SLOAD PUSH2 0x1273 PUSH1 0x5 DUP7 ADD SWAP2 DUP3 SLOAD PUSH2 0x1E5D JUMP JUMPDEST SWAP1 SSTORE PUSH1 0x5 DUP2 ADD SLOAD PUSH2 0x1289 PUSH1 0x6 DUP7 ADD SWAP2 DUP3 SLOAD PUSH2 0x1E5D JUMP JUMPDEST SWAP1 SSTORE PUSH1 0x6 DUP2 ADD SLOAD PUSH2 0x129E DUP4 DUP7 ADD SWAP2 DUP3 SLOAD PUSH2 0x1E5D JUMP JUMPDEST SWAP1 SSTORE ADD SLOAD SWAP2 PUSH2 0x12B2 PUSH1 0x9 DUP3 ADD SWAP4 DUP5 SLOAD PUSH2 0x1E5D JUMP JUMPDEST DUP1 SWAP4 SSTORE ADD DUP2 DUP2 SLOAD GT PUSH2 0x12EC JUMPI JUMPDEST DUP3 CALLER PUSH32 0xCF52C8AA8ED6B7D560B4E75DB6AB973723DE269D5580985C8880844D4ED6D7C0 PUSH1 0x0 DUP1 LOG3 PUSH1 0x1 DUP1 SSTORE STOP JUMPDEST SSTORE DUP2 DUP1 PUSH2 0x12BF JUMP JUMPDEST PUSH1 0x40 MLOAD PUSH3 0x461BCD PUSH1 0xE5 SHL DUP2 MSTORE PUSH1 0x20 PUSH1 0x4 DUP3 ADD MSTORE PUSH1 0xF PUSH1 0x24 DUP3 ADD MSTORE PUSH15 0x139BDD08195B9BDD59DA0819DBDB19 PUSH1 0x8A SHL PUSH1 0x44 DUP3 ADD MSTORE PUSH1 0x64 SWAP1 REVERT JUMPDEST PUSH1 0x40 MLOAD PUSH3 0x461BCD PUSH1 0xE5 SHL DUP2 MSTORE PUSH1 0x20 PUSH1 0x4 DUP3 ADD MSTORE PUSH1 0x11 PUSH1 0x24 DUP3 ADD MSTORE PUSH17 0x155C19DC985919481B9BDD08195E1A5CDD PUSH1 0x7A SHL PUSH1 0x44 DUP3 ADD MSTORE PUSH1 0x64 SWAP1 REVERT JUMPDEST CALLVALUE PUSH2 0x241 JUMPI PUSH1 0x0 CALLDATASIZE PUSH1 0x3 NOT ADD SLT PUSH2 0x241 JUMPI PUSH1 0x0 SLOAD PUSH1 0x40 MLOAD PUSH1 0x1 PUSH1 0x1 PUSH1 0xA0 SHL SUB SWAP1 SWAP2 AND DUP2 MSTORE PUSH1 0x20 SWAP1 RETURN JUMPDEST PUSH1 0x40 CALLDATASIZE PUSH1 0x3 NOT ADD SLT PUSH2 0x241 JUMPI PUSH1 0x4 CALLDATALOAD PUSH2 0x13A4 PUSH2 0x1D1A JUMP JUMPDEST PUSH2 0x13AC PUSH2 0x1F4C JUMP JUMPDEST CALLER PUSH1 0x0 MSTORE PUSH1 0x20 PUSH1 0x2 DUP2 MSTORE PUSH1 0x40 PUSH1 0x0 KECCAK256 SWAP1 PUSH2 0x13CB PUSH1 0x4 DUP4 ADD SLOAD ISZERO ISZERO PUSH2 0x1E15 JUMP JUMPDEST PUSH1 0xF DUP3 ADD SWAP2 DUP3 SLOAD TIMESTAMP LT PUSH2 0x1602 JUMPI PUSH1 0x64 SWAP1 DUP2 DUP7 GT PUSH2 0x15CC JUMPI PUSH1 0xA DUP2 ADD SWAP2 DUP3 SLOAD DUP1 DUP9 EQ PUSH2 0x1599 JUMPI DUP8 DUP2 DUP2 GT ISZERO PUSH2 0x158A JUMPI SWAP1 PUSH2 0x1403 SWAP2 PUSH2 0x1E50 JUMP JUMPDEST SWAP2 JUMPDEST PUSH2 0xE10 SWAP3 DUP4 DUP2 MUL SWAP1 DUP1 DUP3 DIV DUP6 EQ DUP2 ISZERO OR ISZERO PUSH2 0x766 JUMPI PUSH1 0x5 DUP4 ADD SLOAD PUSH2 0x12C DUP1 DUP3 MUL SWAP2 DUP1 DUP4 DIV DUP3 EQ DUP2 ISZERO OR ISZERO PUSH2 0x766 JUMPI DUP4 MUL MUL SWAP2 DUP2 DUP4 DIV EQ SWAP1 ISZERO OR ISZERO PUSH2 0x766 JUMPI DUP2 DUP2 LT PUSH2 0x157B JUMPI POP POP PUSH1 0x0 SWAP3 JUMPDEST DUP8 ISZERO PUSH2 0x1535 JUMPI DUP4 DIV SWAP1 CALLVALUE PUSH2 0x14FF JUMPI PUSH1 0x3 ADD SWAP2 DUP3 SLOAD SWAP1 DUP3 DUP3 LT PUSH2 0x14C7 JUMPI POP SWAP2 PUSH2 0x147E DUP10 SWAP6 SWAP5 SWAP3 PUSH2 0x1487 SWAP5 PUSH2 0x1E50 JUMP JUMPDEST SWAP1 SSTORE JUMPDEST TIMESTAMP PUSH2 0x1E5D JUMP JUMPDEST DUP1 SWAP5 SSTORE SSTORE PUSH1 0x40 MLOAD SWAP4 DUP5 MSTORE DUP4 ADD MSTORE ISZERO ISZERO PUSH1 0x40 DUP3 ADD MSTORE PUSH32 0x9782A86993C9E75E77FDBBA3381A28A46E4F356E9516E67313BD4BD859C88A3F PUSH1 0x60 CALLER SWAP3 LOG2 PUSH1 0x1 DUP1 SSTORE STOP JUMPDEST PUSH1 0x40 MLOAD PUSH3 0x461BCD PUSH1 0xE5 SHL DUP2 MSTORE PUSH1 0x4 DUP2 ADD DUP9 SWAP1 MSTORE PUSH1 0x13 PUSH1 0x24 DUP3 ADD MSTORE PUSH19 0x4E6F7420656E6F756768206469616D6F6E6473 PUSH1 0x68 SHL PUSH1 0x44 DUP3 ADD MSTORE REVERT JUMPDEST PUSH1 0x40 MLOAD PUSH3 0x461BCD PUSH1 0xE5 SHL DUP2 MSTORE PUSH1 0x4 DUP2 ADD DUP8 SWAP1 MSTORE PUSH1 0xF PUSH1 0x24 DUP3 ADD MSTORE PUSH15 0x14185E481D9A5848191A585B5BDB99 PUSH1 0x8A SHL PUSH1 0x44 DUP3 ADD MSTORE DUP4 SWAP1 REVERT JUMPDEST POP POP CALLVALUE PUSH2 0x1548 JUMPI POP SWAP1 PUSH2 0x1487 DUP7 SWAP3 PUSH2 0x1481 JUMP JUMPDEST PUSH1 0x40 MLOAD PUSH3 0x461BCD PUSH1 0xE5 SHL DUP2 MSTORE PUSH1 0x4 DUP2 ADD DUP6 SWAP1 MSTORE PUSH1 0xE PUSH1 0x24 DUP3 ADD MSTORE PUSH14 0x2237B713BA1039B2B732102C2A2D PUSH1 0x91 SHL PUSH1 0x44 DUP3 ADD MSTORE REVERT JUMPDEST PUSH2 0x1584 SWAP2 PUSH2 0x1E50 JUMP JUMPDEST SWAP3 PUSH2 0x1450 JUMP JUMPDEST PUSH2 0x1593 SWAP2 PUSH2 0x1E50 JUMP JUMPDEST SWAP2 PUSH2 0x1405 JUMP JUMPDEST POP PUSH1 0x40 MLOAD PUSH3 0x461BCD PUSH1 0xE5 SHL DUP2 MSTORE PUSH1 0x4 DUP2 ADD DUP6 SWAP1 MSTORE PUSH1 0xD PUSH1 0x24 DUP3 ADD MSTORE PUSH13 0x29B0B6B2903637B1B0BA34B7B7 PUSH1 0x99 SHL PUSH1 0x44 DUP3 ADD MSTORE REVERT JUMPDEST POP SWAP1 PUSH1 0x40 MLOAD SWAP1 PUSH3 0x461BCD PUSH1 0xE5 SHL DUP3 MSTORE PUSH1 0x4 DUP3 ADD MSTORE PUSH1 0x10 PUSH1 0x24 DUP3 ADD MSTORE PUSH16 0x131BD8D85D1A5BDB881A5B9D985B1A59 PUSH1 0x82 SHL PUSH1 0x44 DUP3 ADD MSTORE REVERT JUMPDEST PUSH1 0x40 MLOAD PUSH3 0x461BCD PUSH1 0xE5 SHL DUP2 MSTORE PUSH1 0x4 DUP2 ADD DUP4 SWAP1 MSTORE PUSH1 0x11 PUSH1 0x24 DUP3 ADD MSTORE PUSH17 0x416C72656164792074726176656C696E67 PUSH1 0x78 SHL PUSH1 0x44 DUP3 ADD MSTORE PUSH1 0x64 SWAP1 REVERT JUMPDEST CALLVALUE PUSH2 0x241 JUMPI PUSH1 0x20 CALLDATASIZE PUSH1 0x3 NOT ADD SLT PUSH2 0x241 JUMPI PUSH1 0x4 CALLDATALOAD PUSH1 0x0 MSTORE PUSH1 0x3 PUSH1 0x20 MSTORE PUSH2 0x16A4 PUSH1 0x40 PUSH1 0x0 KECCAK256 PUSH2 0x1668 DUP2 PUSH2 0x1C35 JUMP JUMPDEST SWAP1 PUSH1 0x1 DUP2 ADD SLOAD SWAP1 PUSH1 0x2 DUP2 ADD SLOAD SWAP1 PUSH1 0x3 DUP2 ADD SLOAD PUSH1 0x4 DUP3 ADD SLOAD PUSH1 0x5 DUP4 ADD SLOAD SWAP2 PUSH1 0x7 PUSH1 0x6 DUP6 ADD SLOAD SWAP5 ADD SLOAD SWAP5 PUSH1 0x40 MLOAD SWAP9 DUP10 SWAP9 PUSH2 0x100 DUP1 DUP12 MSTORE DUP11 ADD SWAP1 PUSH2 0x1CDA JUMP JUMPDEST SWAP7 PUSH1 0x20 DUP10 ADD MSTORE PUSH1 0x40 DUP9 ADD MSTORE PUSH1 0x60 DUP8 ADD MSTORE PUSH1 0x80 DUP7 ADD MSTORE PUSH1 0xA0 DUP6 ADD MSTORE PUSH1 0xC0 DUP5 ADD MSTORE PUSH1 0xE0 DUP4 ADD MSTORE SUB SWAP1 RETURN JUMPDEST CALLVALUE PUSH2 0x241 JUMPI PUSH1 0x0 CALLDATASIZE PUSH1 0x3 NOT ADD SLT PUSH2 0x241 JUMPI PUSH2 0x16E5 PUSH2 0x1F6F JUMP JUMPDEST PUSH1 0x0 DUP1 SLOAD PUSH1 0x1 PUSH1 0x1 PUSH1 0xA0 SHL SUB NOT DUP2 AND DUP3 SSTORE PUSH1 0x1 PUSH1 0x1 PUSH1 0xA0 SHL SUB AND PUSH32 0x8BE0079C531659141344CD1FD0A4F28419497F9722A3DAAFE3B4186F6B6457E0 DUP3 DUP1 LOG3 STOP JUMPDEST PUSH1 0x40 CALLDATASIZE PUSH1 0x3 NOT ADD SLT PUSH2 0x241 JUMPI PUSH1 0x4 CALLDATALOAD DUP1 ISZERO ISZERO DUP2 SUB PUSH2 0x241 JUMPI PUSH2 0x1745 PUSH2 0x1D1A JUMP JUMPDEST SWAP1 PUSH2 0x174E PUSH2 0x1F4C JUMP JUMPDEST CALLER PUSH1 0x0 MSTORE PUSH1 0x20 SWAP2 PUSH1 0x2 DUP4 MSTORE PUSH1 0x40 PUSH1 0x0 KECCAK256 SWAP1 PUSH1 0x4 DUP3 ADD SWAP4 DUP5 SLOAD PUSH2 0x193D JUMPI PUSH1 0xE DUP4 ADD SWAP4 DUP5 SLOAD PUSH2 0x4650 DUP2 ADD DUP1 SWAP2 GT PUSH2 0x766 JUMPI TIMESTAMP LT PUSH2 0x18F8 JUMPI ISZERO PUSH2 0x188A JUMPI PUSH1 0xA DUP4 ADD SLOAD PUSH1 0x19 DUP2 EQ SWAP1 DUP2 ISZERO PUSH2 0x187F JUMPI JUMPDEST DUP2 ISZERO PUSH2 0x1874 JUMPI JUMPDEST POP ISZERO PUSH2 0x1842 JUMPI DUP2 DUP3 ISZERO PUSH2 0x1832 JUMPI JUMPDEST ISZERO PUSH2 0x17F7 JUMPI POP ISZERO PUSH2 0x17D8 JUMPI PUSH1 0x0 SWAP3 PUSH1 0x3 PUSH1 0x64 SWAP3 ADD PUSH2 0x17CC DUP2 SLOAD PUSH2 0x1E6A JUMP JUMPDEST SWAP1 SSTORE JUMPDEST SSTORE JUMPDEST SSTORE PUSH1 0x1 DUP1 SSTORE STOP JUMPDEST PUSH1 0x2 ADD DUP1 SLOAD PUSH2 0x3E7 NOT DUP2 ADD SWAP4 SWAP1 DUP5 GT PUSH2 0x766 JUMPI PUSH1 0x0 SWAP4 PUSH1 0x64 SWAP3 SSTORE PUSH2 0x17CF JUMP JUMPDEST PUSH1 0x64 SWAP1 PUSH1 0x40 MLOAD SWAP1 PUSH3 0x461BCD PUSH1 0xE5 SHL DUP3 MSTORE PUSH1 0x4 DUP3 ADD MSTORE PUSH1 0x14 PUSH1 0x24 DUP3 ADD MSTORE PUSH20 0x139959590819DBDB19081BDC88191A585B5BDB99 PUSH1 0x62 SHL PUSH1 0x44 DUP3 ADD MSTORE REVERT JUMPDEST POP PUSH2 0x3E8 PUSH1 0x2 DUP5 ADD SLOAD LT ISZERO PUSH2 0x17AE JUMP JUMPDEST PUSH1 0x64 SWAP1 PUSH1 0x40 MLOAD SWAP1 PUSH3 0x461BCD PUSH1 0xE5 SHL DUP3 MSTORE PUSH1 0x4 DUP3 ADD MSTORE PUSH1 0xB PUSH1 0x24 DUP3 ADD MSTORE PUSH11 0x139BDD08185D081C1BDC9D PUSH1 0xAA SHL PUSH1 0x44 DUP3 ADD MSTORE REVERT JUMPDEST PUSH1 0x59 SWAP2 POP EQ DUP7 PUSH2 0x17A0 JUMP JUMPDEST PUSH1 0x37 DUP2 EQ SWAP2 POP PUSH2 0x1799 JUMP JUMPDEST SWAP2 SWAP1 PUSH2 0x189E JUMPI JUMPDEST POP POP PUSH1 0x64 PUSH1 0x0 SWAP3 SSTORE PUSH2 0x17D1 JUMP JUMPDEST PUSH1 0x3 ADD SWAP1 DUP2 SLOAD SWAP1 PUSH1 0x1 DUP3 LT PUSH2 0x18C5 JUMPI POP SWAP3 PUSH1 0x64 SWAP2 PUSH2 0x18BD PUSH1 0x0 SWAP6 PUSH2 0x1E6A JUMP JUMPDEST SWAP1 SSTORE SWAP3 PUSH2 0x1891 JUMP JUMPDEST PUSH1 0x64 SWAP1 PUSH1 0x40 MLOAD SWAP1 PUSH3 0x461BCD PUSH1 0xE5 SHL DUP3 MSTORE PUSH1 0x4 DUP3 ADD MSTORE PUSH1 0xC PUSH1 0x24 DUP3 ADD MSTORE PUSH12 0x1399595908191A585B5BDB99 PUSH1 0xA2 SHL PUSH1 0x44 DUP3 ADD MSTORE REVERT JUMPDEST PUSH1 0x40 MLOAD PUSH3 0x461BCD PUSH1 0xE5 SHL DUP2 MSTORE PUSH1 0x4 DUP2 ADD DUP4 SWAP1 MSTORE PUSH1 0x1A PUSH1 0x24 DUP3 ADD MSTORE PUSH32 0x4E6F7420726561647920666F7220626173696320726570616972000000000000 PUSH1 0x44 DUP3 ADD MSTORE PUSH1 0x64 SWAP1 REVERT JUMPDEST PUSH1 0x64 SWAP1 PUSH1 0x40 MLOAD SWAP1 PUSH3 0x461BCD PUSH1 0xE5 SHL DUP3 MSTORE PUSH1 0x4 DUP3 ADD MSTORE PUSH1 0x10 PUSH1 0x24 DUP3 ADD MSTORE PUSH16 0x14DA1A5C081B9BDD081DDC9958DAD959 PUSH1 0x82 SHL PUSH1 0x44 DUP3 ADD MSTORE REVERT JUMPDEST CALLVALUE PUSH2 0x241 JUMPI PUSH1 0x20 CALLDATASIZE PUSH1 0x3 NOT ADD SLT PUSH2 0x241 JUMPI PUSH1 0x4 CALLDATALOAD PUSH1 0x1 PUSH1 0x1 PUSH1 0xA0 SHL SUB DUP2 AND SWAP1 DUP2 SWAP1 SUB PUSH2 0x241 JUMPI PUSH1 0x0 MSTORE PUSH1 0x2 PUSH1 0x20 MSTORE PUSH1 0x40 PUSH1 0x0 KECCAK256 PUSH2 0x19B0 DUP2 PUSH2 0x1C35 JUMP JUMPDEST PUSH1 0x1 DUP3 ADD SLOAD PUSH1 0xFF AND SWAP2 PUSH1 0x2 DUP2 ADD SLOAD PUSH1 0x3 DUP3 ADD SLOAD PUSH1 0x4 DUP4 ADD SLOAD PUSH1 0x5 DUP5 ADD SLOAD PUSH1 0x6 DUP6 ADD SLOAD PUSH1 0x7 DUP7 ADD SLOAD PUSH1 0x8 DUP8 ADD SLOAD SWAP1 PUSH1 0x9 DUP9 ADD SLOAD SWAP3 PUSH1 0xA DUP10 ADD SLOAD SWAP5 PUSH1 0xB DUP11 ADD SLOAD SWAP7 PUSH1 0xC DUP12 ADD SLOAD SWAP9 PUSH1 0xD DUP13 ADD SLOAD SWAP11 PUSH1 0xE DUP14 ADD SLOAD SWAP13 PUSH1 0xF ADD SLOAD SWAP14 PUSH1 0x40 MLOAD PUSH1 0x80 MSTORE PUSH2 0x200 DUP1 PUSH1 0x80 MLOAD MSTORE PUSH1 0x80 MLOAD ADD PUSH2 0x1A21 SWAP2 PUSH2 0x1CDA JUMP JUMPDEST SWAP15 ISZERO ISZERO PUSH1 0x80 MLOAD PUSH1 0x20 ADD MSTORE PUSH1 0x80 MLOAD PUSH1 0x40 ADD MSTORE PUSH1 0x80 MLOAD PUSH1 0x60 ADD MSTORE PUSH1 0x80 MLOAD PUSH1 0x80 ADD MSTORE PUSH1 0x80 MLOAD PUSH1 0xA0 ADD MSTORE PUSH1 0x80 MLOAD PUSH1 0xC0 ADD MSTORE PUSH1 0x80 MLOAD PUSH1 0xE0 ADD MSTORE PUSH1 0x80 MLOAD PUSH2 0x100 ADD MSTORE PUSH1 0x80 MLOAD PUSH2 0x120 ADD MSTORE PUSH1 0x80 MLOAD PUSH2 0x140 ADD MSTORE PUSH1 0x80 MLOAD PUSH2 0x160 ADD MSTORE PUSH1 0x80 MLOAD PUSH2 0x180 ADD MSTORE PUSH1 0x80 MLOAD PUSH2 0x1A0 ADD MSTORE PUSH1 0x80 MLOAD PUSH2 0x1C0 ADD MSTORE PUSH1 0x80 MLOAD PUSH2 0x1E0 ADD MSTORE PUSH1 0x80 MLOAD SWAP1 SUB PUSH1 0x80 MLOAD RETURN JUMPDEST CALLVALUE PUSH2 0x241 JUMPI PUSH1 0x0 CALLDATASIZE PUSH1 0x3 NOT ADD SLT PUSH2 0x241 JUMPI CALLER PUSH1 0x0 MSTORE PUSH1 0x2 PUSH1 0x20 MSTORE PUSH1 0x40 PUSH1 0x0 KECCAK256 PUSH2 0x1ACD PUSH1 0x4 DUP3 ADD SLOAD ISZERO ISZERO PUSH2 0x1E15 JUMP JUMPDEST PUSH3 0x15180 DUP1 TIMESTAMP DIV PUSH1 0xC DUP4 ADD SWAP2 DUP3 SLOAD DIV DUP2 DUP2 LT ISZERO PUSH2 0x1B94 JUMPI PUSH1 0x0 NOT DUP3 ADD SWAP2 DUP3 GT PUSH2 0x766 JUMPI SUB PUSH2 0x1B88 JUMPI PUSH1 0xD DUP3 ADD DUP1 SLOAD SWAP1 PUSH1 0x1 DUP3 ADD DUP1 SWAP3 GT PUSH2 0x766 JUMPI SSTORE JUMPDEST TIMESTAMP SWAP1 SSTORE PUSH1 0x8 DUP2 ADD SLOAD SWAP1 PUSH1 0x19 DUP3 MUL SWAP2 DUP1 DUP4 DIV PUSH1 0x19 EQ SWAP1 ISZERO OR ISZERO PUSH2 0x766 JUMPI PUSH1 0xD DUP2 ADD SLOAD SWAP2 DUP3 PUSH1 0x5 MUL SWAP1 PUSH1 0x5 DUP3 DIV DUP5 SUB PUSH2 0x766 JUMPI PUSH1 0x2 SWAP2 PUSH2 0x1B46 SWAP2 PUSH2 0x1E5D JUMP JUMPDEST SWAP2 ADD PUSH2 0x1B53 DUP3 DUP3 SLOAD PUSH2 0x1E5D JUMP JUMPDEST SWAP1 SSTORE PUSH1 0x40 MLOAD SWAP2 DUP3 MSTORE PUSH1 0x20 DUP3 ADD MSTORE PUSH32 0xB9CFEA4717F167774A6E8643C33472935D3EF918453525EEFCA6936078B7CFDD PUSH1 0x40 CALLER SWAP3 LOG2 STOP JUMPDEST PUSH1 0x1 PUSH1 0xD DUP4 ADD SSTORE PUSH2 0x1B09 JUMP JUMPDEST PUSH1 0x40 MLOAD PUSH3 0x461BCD PUSH1 0xE5 SHL DUP2 MSTORE PUSH1 0x20 PUSH1 0x4 DUP3 ADD MSTORE PUSH1 0x18 PUSH1 0x24 DUP3 ADD MSTORE PUSH32 0x416C726561647920636865636B656420696E20746F6461790000000000000000 PUSH1 0x44 DUP3 ADD MSTORE PUSH1 0x64 SWAP1 REVERT JUMPDEST SWAP1 PUSH1 0x1 DUP3 DUP2 SHR SWAP3 AND DUP1 ISZERO PUSH2 0x1C09 JUMPI JUMPDEST PUSH1 0x20 DUP4 LT EQ PUSH2 0x1BF3 JUMPI JUMP JUMPDEST PUSH4 0x4E487B71 PUSH1 0xE0 SHL PUSH1 0x0 MSTORE PUSH1 0x22 PUSH1 0x4 MSTORE PUSH1 0x24 PUSH1 0x0 REVERT JUMPDEST SWAP2 PUSH1 0x7F AND SWAP2 PUSH2 0x1BE8 JUMP JUMPDEST SWAP1 PUSH1 0x1F DUP1 NOT SWAP2 ADD AND DUP2 ADD SWAP1 DUP2 LT PUSH8 0xFFFFFFFFFFFFFFFF DUP3 GT OR PUSH2 0x521 JUMPI PUSH1 0x40 MSTORE JUMP JUMPDEST SWAP1 PUSH1 0x40 MLOAD SWAP2 DUP3 PUSH1 0x0 DUP3 SLOAD PUSH2 0x1C48 DUP2 PUSH2 0x1BD9 JUMP JUMPDEST SWAP1 DUP2 DUP5 MSTORE PUSH1 0x20 SWAP5 PUSH1 0x1 SWAP2 PUSH1 0x1 DUP2 AND SWAP1 DUP2 PUSH1 0x0 EQ PUSH2 0x1CB8 JUMPI POP PUSH1 0x1 EQ PUSH2 0x1C79 JUMPI JUMPDEST POP POP POP PUSH2 0x1C77 SWAP3 POP SUB DUP4 PUSH2 0x1C13 JUMP JUMPDEST JUMP JUMPDEST PUSH1 0x0 SWAP1 DUP2 MSTORE DUP6 DUP2 KECCAK256 SWAP6 SWAP4 POP SWAP2 SWAP1 JUMPDEST DUP2 DUP4 LT PUSH2 0x1CA0 JUMPI POP POP PUSH2 0x1C77 SWAP4 POP DUP3 ADD ADD CODESIZE DUP1 DUP1 PUSH2 0x1C68 JUMP JUMPDEST DUP6 SLOAD DUP9 DUP5 ADD DUP6 ADD MSTORE SWAP5 DUP6 ADD SWAP5 DUP8 SWAP5 POP SWAP2 DUP4 ADD SWAP2 PUSH2 0x1C87 JUMP JUMPDEST SWAP3 POP POP POP PUSH2 0x1C77 SWAP5 SWAP3 POP PUSH1 0xFF NOT AND DUP3 DUP5 ADD MSTORE ISZERO ISZERO PUSH1 0x5 SHL DUP3 ADD ADD CODESIZE DUP1 DUP1 PUSH2 0x1C68 JUMP JUMPDEST SWAP2 SWAP1 DUP3 MLOAD SWAP3 DUP4 DUP3 MSTORE PUSH1 0x0 JUMPDEST DUP5 DUP2 LT PUSH2 0x1D06 JUMPI POP POP DUP3 PUSH1 0x0 PUSH1 0x20 DUP1 SWAP5 SWAP6 DUP5 ADD ADD MSTORE PUSH1 0x1F DUP1 NOT SWAP2 ADD AND ADD ADD SWAP1 JUMP JUMPDEST PUSH1 0x20 DUP2 DUP4 ADD DUP2 ADD MLOAD DUP5 DUP4 ADD DUP3 ADD MSTORE ADD PUSH2 0x1CE5 JUMP JUMPDEST PUSH1 0x24 CALLDATALOAD SWAP1 DUP2 ISZERO ISZERO DUP3 SUB PUSH2 0x241 JUMPI JUMP JUMPDEST SWAP2 DUP2 PUSH1 0x1F DUP5 ADD SLT ISZERO PUSH2 0x241 JUMPI DUP3 CALLDATALOAD SWAP2 PUSH8 0xFFFFFFFFFFFFFFFF DUP4 GT PUSH2 0x241 JUMPI PUSH1 0x20 DUP4 DUP2 DUP7 ADD SWAP6 ADD ADD GT PUSH2 0x241 JUMPI JUMP JUMPDEST SWAP1 DUP2 MLOAD DUP1 DUP3 MSTORE PUSH1 0x20 DUP1 DUP1 SWAP4 ADD SWAP4 ADD SWAP2 PUSH1 0x0 JUMPDEST DUP3 DUP2 LT PUSH2 0x1D77 JUMPI POP POP POP POP SWAP1 JUMP JUMPDEST DUP4 MLOAD PUSH1 0x1 PUSH1 0x1 PUSH1 0xA0 SHL SUB AND DUP6 MSTORE SWAP4 DUP2 ADD SWAP4 SWAP3 DUP2 ADD SWAP3 PUSH1 0x1 ADD PUSH2 0x1D69 JUMP JUMPDEST SWAP1 DUP2 MLOAD DUP1 DUP3 MSTORE PUSH1 0x20 DUP1 DUP1 SWAP4 ADD SWAP4 ADD SWAP2 PUSH1 0x0 JUMPDEST DUP3 DUP2 LT PUSH2 0x1DB4 JUMPI POP POP POP POP SWAP1 JUMP JUMPDEST DUP4 MLOAD DUP6 MSTORE SWAP4 DUP2 ADD SWAP4 SWAP3 DUP2 ADD SWAP3 PUSH1 0x1 ADD PUSH2 0x1DA6 JUMP JUMPDEST PUSH1 0x5 SLOAD DUP2 LT ISZERO PUSH2 0x1DFF JUMPI PUSH1 0x5 PUSH1 0x0 MSTORE PUSH32 0x36B6384B5ECA791C62761152D0C79BB0604C104A5FB6F4EB0703F3154BB3DB0 ADD SWAP1 PUSH1 0x0 SWAP1 JUMP JUMPDEST PUSH4 0x4E487B71 PUSH1 0xE0 SHL PUSH1 0x0 MSTORE PUSH1 0x32 PUSH1 0x4 MSTORE PUSH1 0x24 PUSH1 0x0 REVERT JUMPDEST ISZERO PUSH2 0x1E1C JUMPI JUMP JUMPDEST PUSH1 0x40 MLOAD PUSH3 0x461BCD PUSH1 0xE5 SHL DUP2 MSTORE PUSH1 0x20 PUSH1 0x4 DUP3 ADD MSTORE PUSH1 0xC PUSH1 0x24 DUP3 ADD MSTORE PUSH12 0x14DA1A5C081DDC9958DAD959 PUSH1 0xA2 SHL PUSH1 0x44 DUP3 ADD MSTORE PUSH1 0x64 SWAP1 REVERT JUMPDEST SWAP2 SWAP1 DUP3 SUB SWAP2 DUP3 GT PUSH2 0x766 JUMPI JUMP JUMPDEST SWAP2 SWAP1 DUP3 ADD DUP1 SWAP3 GT PUSH2 0x766 JUMPI JUMP JUMPDEST DUP1 ISZERO PUSH2 0x766 JUMPI PUSH1 0x0 NOT ADD SWAP1 JUMP JUMPDEST SWAP3 SWAP2 SWAP3 PUSH8 0xFFFFFFFFFFFFFFFF DUP3 GT PUSH2 0x521 JUMPI PUSH1 0x40 MLOAD SWAP2 PUSH2 0x1EA1 PUSH1 0x1F DUP3 ADD PUSH1 0x1F NOT AND PUSH1 0x20 ADD DUP5 PUSH2 0x1C13 JUMP JUMPDEST DUP3 SWAP5 DUP2 DUP5 MSTORE DUP2 DUP4 ADD GT PUSH2 0x241 JUMPI DUP3 DUP2 PUSH1 0x20 SWAP4 DUP5 PUSH1 0x0 SWAP7 ADD CALLDATACOPY ADD ADD MSTORE JUMP JUMPDEST SWAP1 DUP1 PUSH1 0x20 SWAP4 SWAP3 DUP2 DUP5 MSTORE DUP5 DUP5 ADD CALLDATACOPY PUSH1 0x0 DUP3 DUP3 ADD DUP5 ADD MSTORE PUSH1 0x1F ADD PUSH1 0x1F NOT AND ADD ADD SWAP1 JUMP JUMPDEST PUSH1 0x0 NOT DUP2 EQ PUSH2 0x766 JUMPI PUSH1 0x1 ADD SWAP1 JUMP JUMPDEST PUSH8 0xFFFFFFFFFFFFFFFF DUP2 GT PUSH2 0x521 JUMPI PUSH1 0x5 SHL PUSH1 0x20 ADD SWAP1 JUMP JUMPDEST SWAP1 PUSH2 0x1F10 DUP3 PUSH2 0x1EEE JUMP JUMPDEST PUSH2 0x1F1D PUSH1 0x40 MLOAD SWAP2 DUP3 PUSH2 0x1C13 JUMP JUMPDEST DUP3 DUP2 MSTORE DUP1 SWAP3 PUSH2 0x1F2E PUSH1 0x1F NOT SWAP2 PUSH2 0x1EEE JUMP JUMPDEST ADD SWAP1 PUSH1 0x20 CALLDATASIZE SWAP2 ADD CALLDATACOPY JUMP JUMPDEST DUP1 MLOAD DUP3 LT ISZERO PUSH2 0x1DFF JUMPI PUSH1 0x20 SWAP2 PUSH1 0x5 SHL ADD ADD SWAP1 JUMP JUMPDEST PUSH1 0x2 PUSH1 0x1 SLOAD EQ PUSH2 0x1F5D JUMPI PUSH1 0x2 PUSH1 0x1 SSTORE JUMP JUMPDEST PUSH1 0x40 MLOAD PUSH4 0x3EE5AEB5 PUSH1 0xE0 SHL DUP2 MSTORE PUSH1 0x4 SWAP1 REVERT JUMPDEST PUSH1 0x0 SLOAD PUSH1 0x1 PUSH1 0x1 PUSH1 0xA0 SHL SUB AND CALLER SUB PUSH2 0x1F83 JUMPI JUMP JUMPDEST PUSH1 0x40 MLOAD PUSH4 0x118CDAA7 PUSH1 0xE0 SHL DUP2 MSTORE CALLER PUSH1 0x4 DUP3 ADD MSTORE PUSH1 0x24 SWAP1 REVERT JUMPDEST PUSH1 0x5 DUP1 SLOAD PUSH1 0x1 SWAP1 DUP2 DUP2 LT ISZERO PUSH2 0x215A JUMPI DUP1 JUMPDEST PUSH2 0x1FB5 DUP2 PUSH2 0x1F06 JUMP JUMPDEST SWAP4 PUSH2 0x1FBF DUP3 PUSH2 0x1F06 JUMP JUMPDEST PUSH1 0x0 JUMPDEST DUP5 DUP2 LT PUSH2 0x1FFD JUMPI POP POP POP POP POP POP DUP1 MLOAD ISZERO DUP1 ISZERO PUSH2 0x1FE9 JUMPI POP POP PUSH1 0x0 SLOAD PUSH1 0x1 PUSH1 0x1 PUSH1 0xA0 SHL SUB AND SWAP1 JUMP JUMPDEST PUSH2 0x1DFF JUMPI PUSH1 0x20 ADD MLOAD PUSH1 0x1 PUSH1 0x1 PUSH1 0xA0 SHL SUB AND SWAP1 JUMP JUMPDEST DUP1 PUSH2 0x2008 DUP8 SWAP3 PUSH2 0x1DC8 JUMP JUMPDEST PUSH1 0x1 DUP1 PUSH1 0xA0 SHL SUB DUP1 SWAP3 SLOAD PUSH1 0x3 SWAP3 DUP4 SHL SHR AND PUSH1 0x0 MSTORE PUSH2 0x207C PUSH1 0x2 PUSH1 0x7 PUSH1 0x20 SWAP2 DUP1 DUP4 MSTORE PUSH1 0x40 SWAP1 PUSH2 0x205B DUP12 DUP4 PUSH1 0x0 KECCAK256 ADD SLOAD DUP9 PUSH2 0x2040 DUP12 PUSH2 0x1DC8 JUMP JUMPDEST SWAP1 SLOAD SWAP1 DUP11 SHL SHR AND PUSH1 0x0 MSTORE DUP3 DUP7 MSTORE PUSH1 0x6 DUP5 PUSH1 0x0 KECCAK256 ADD SLOAD SWAP1 PUSH2 0x1E5D JUMP JUMPDEST SWAP4 DUP8 PUSH2 0x2066 DUP11 PUSH2 0x1DC8 JUMP JUMPDEST SWAP1 SLOAD SWAP1 DUP10 SHL SHR AND PUSH1 0x0 MSTORE MSTORE PUSH1 0x0 KECCAK256 ADD SLOAD SWAP1 PUSH2 0x1E5D JUMP JUMPDEST SWAP1 PUSH1 0x0 JUMPDEST DUP9 DUP2 LT PUSH2 0x2092 JUMPI JUMPDEST POP POP POP POP ADD PUSH2 0x1FC2 JUMP JUMPDEST PUSH2 0x20A2 DUP2 DUP9 SWAP8 SWAP4 SWAP5 SWAP6 SWAP7 SWAP8 PUSH2 0x1F38 JUMP JUMPDEST MLOAD DUP5 GT PUSH2 0x20B5 JUMPI ADD SWAP1 DUP10 SWAP5 SWAP4 SWAP3 SWAP2 PUSH2 0x2080 JUMP JUMPDEST SWAP3 SWAP4 SWAP2 SWAP1 POP PUSH1 0x0 NOT DUP9 DUP2 ADD DUP10 DUP2 GT PUSH2 0x766 JUMPI SWAP1 DUP12 SWAP7 SWAP6 SWAP5 SWAP4 SWAP3 SWAP2 JUMPDEST DUP5 DUP2 GT PUSH2 0x2109 JUMPI POP POP SWAP1 PUSH2 0x20FF SWAP3 SWAP2 PUSH2 0x20E8 DUP7 PUSH2 0x1DC8 JUMP JUMPDEST SWAP1 SLOAD SWAP2 SHL SHR AND PUSH2 0x20F8 DUP3 DUP14 PUSH2 0x1F38 JUMP JUMPDEST MSTORE DUP6 PUSH2 0x1F38 JUMP JUMPDEST MSTORE CODESIZE DUP1 DUP1 DUP1 PUSH2 0x2088 JUMP JUMPDEST SWAP1 DUP1 SWAP3 SWAP4 SWAP5 SWAP6 SWAP7 SWAP8 POP DUP2 ADD SWAP1 DUP1 DUP3 GT PUSH2 0x766 JUMPI PUSH2 0x2142 DUP3 DUP16 PUSH2 0x213B DUP5 DUP10 PUSH2 0x2133 PUSH2 0x214D SWAP9 DUP6 PUSH2 0x1F38 JUMP JUMPDEST MLOAD AND SWAP3 PUSH2 0x1F38 JUMP JUMPDEST MSTORE DUP11 PUSH2 0x1F38 JUMP JUMPDEST MLOAD PUSH2 0xA6B DUP3 DUP12 PUSH2 0x1F38 JUMP JUMPDEST SWAP1 DUP12 SWAP7 SWAP6 SWAP5 SWAP4 SWAP3 SWAP2 PUSH2 0x20D0 JUMP JUMPDEST PUSH1 0x1 PUSH2 0x1FAC JUMP JUMPDEST PUSH1 0x5 DUP1 SLOAD PUSH1 0x2 SWAP2 SWAP1 DUP3 DUP2 LT ISZERO PUSH2 0x22C0 JUMPI DUP1 JUMPDEST PUSH2 0x217C DUP2 PUSH2 0x1F06 JUMP JUMPDEST SWAP4 PUSH2 0x2186 DUP3 PUSH2 0x1F06 JUMP JUMPDEST SWAP1 PUSH1 0x0 JUMPDEST DUP5 DUP2 LT PUSH2 0x21CA JUMPI POP POP POP POP POP POP DUP1 MLOAD PUSH1 0x1 DUP2 GT PUSH2 0x21B2 JUMPI POP POP PUSH1 0x0 SLOAD PUSH1 0x1 PUSH1 0x1 PUSH1 0xA0 SHL SUB AND SWAP1 JUMP JUMPDEST PUSH1 0x1 LT ISZERO PUSH2 0x1DFF JUMPI PUSH1 0x40 ADD MLOAD PUSH1 0x1 PUSH1 0x1 PUSH1 0xA0 SHL SUB AND SWAP1 JUMP JUMPDEST PUSH2 0x21D3 DUP2 PUSH2 0x1DC8 JUMP JUMPDEST PUSH1 0x1 DUP1 PUSH1 0xA0 SHL SUB DUP1 SWAP3 SLOAD PUSH1 0x3 SWAP3 DUP4 SHL SHR AND PUSH1 0x0 MSTORE PUSH2 0x2208 PUSH1 0x20 DUP6 DUP2 MSTORE PUSH1 0x7 PUSH1 0x40 DUP8 PUSH2 0x205B DUP14 DUP4 PUSH1 0x0 KECCAK256 ADD SLOAD DUP9 PUSH2 0x2040 DUP12 PUSH2 0x1DC8 JUMP JUMPDEST SWAP1 PUSH1 0x0 JUMPDEST DUP8 DUP2 LT PUSH2 0x2220 JUMPI JUMPDEST POP POP POP POP PUSH1 0x1 ADD PUSH2 0x218A JUMP JUMPDEST PUSH2 0x222A DUP2 DUP9 PUSH2 0x1F38 JUMP JUMPDEST MLOAD DUP4 GT PUSH2 0x2239 JUMPI PUSH1 0x1 ADD PUSH2 0x220C JUMP JUMPDEST SWAP2 SWAP3 SWAP1 PUSH1 0x0 NOT DUP9 DUP2 ADD DUP10 DUP2 GT PUSH2 0x766 JUMPI JUMPDEST DUP5 DUP2 GT PUSH2 0x2287 JUMPI POP POP SWAP2 PUSH2 0x227D SWAP2 DUP6 SWAP5 SWAP4 PUSH2 0x2266 PUSH1 0x1 SWAP8 PUSH2 0x1DC8 JUMP JUMPDEST SWAP1 SLOAD SWAP2 SHL SHR AND PUSH2 0x2276 DUP3 DUP14 PUSH2 0x1F38 JUMP JUMPDEST MSTORE DUP7 PUSH2 0x1F38 JUMP JUMPDEST MSTORE SWAP1 CODESIZE DUP1 DUP1 PUSH2 0x2214 JUMP JUMPDEST DUP2 DUP2 ADD SWAP1 DUP1 DUP3 GT PUSH2 0x766 JUMPI PUSH2 0x22B0 DUP3 DUP16 PUSH2 0x22A9 DUP5 DUP10 PUSH2 0x2133 PUSH2 0x22BB SWAP9 DUP6 PUSH2 0x1F38 JUMP JUMPDEST MSTORE DUP12 PUSH2 0x1F38 JUMP JUMPDEST MLOAD PUSH2 0xA6B DUP3 DUP13 PUSH2 0x1F38 JUMP JUMPDEST PUSH2 0x224A JUMP JUMPDEST PUSH1 0x2 PUSH2 0x2173 JUMP JUMPDEST PUSH1 0x5 DUP1 SLOAD PUSH1 0x3 SWAP2 SWAP1 DUP3 DUP2 LT ISZERO PUSH2 0x244E JUMPI DUP1 JUMPDEST PUSH2 0x22E2 DUP2 PUSH2 0x1F06 JUMP JUMPDEST SWAP4 PUSH2 0x22EC DUP3 PUSH2 0x1F06 JUMP JUMPDEST PUSH1 0x0 JUMPDEST DUP5 DUP2 LT PUSH2 0x232F JUMPI POP POP POP POP POP POP DUP1 MLOAD PUSH1 0x2 DUP2 GT PUSH2 0x2317 JUMPI POP POP PUSH1 0x0 SLOAD PUSH1 0x1 PUSH1 0x1 PUSH1 0xA0 SHL SUB AND SWAP1 JUMP JUMPDEST PUSH1 0x2 LT ISZERO PUSH2 0x1DFF JUMPI PUSH1 0x60 ADD MLOAD PUSH1 0x1 PUSH1 0x1 PUSH1 0xA0 SHL SUB AND SWAP1 JUMP JUMPDEST PUSH2 0x2338 DUP2 PUSH2 0x1DC8 JUMP JUMPDEST SWAP1 PUSH1 0x1 DUP1 PUSH1 0xA0 SHL SUB SWAP2 DUP3 SWAP2 SLOAD SWAP1 DUP7 SHL SHR AND PUSH1 0x0 MSTORE PUSH2 0x23AC PUSH1 0x2 PUSH1 0x7 PUSH1 0x20 SWAP2 DUP1 DUP4 MSTORE PUSH1 0x40 SWAP1 PUSH2 0x238B DUP13 DUP4 PUSH1 0x0 KECCAK256 ADD SLOAD DUP8 PUSH2 0x2370 DUP11 PUSH2 0x1DC8 JUMP JUMPDEST SWAP1 SLOAD SWAP1 DUP14 SHL SHR AND PUSH1 0x0 MSTORE DUP3 DUP7 MSTORE PUSH1 0x6 DUP5 PUSH1 0x0 KECCAK256 ADD SLOAD SWAP1 PUSH2 0x1E5D JUMP JUMPDEST SWAP4 DUP7 PUSH2 0x2396 DUP10 PUSH2 0x1DC8 JUMP JUMPDEST SWAP1 SLOAD SWAP1 DUP13 SHL SHR AND PUSH1 0x0 MSTORE MSTORE PUSH1 0x0 KECCAK256 ADD SLOAD SWAP1 PUSH2 0x1E5D JUMP JUMPDEST PUSH1 0x0 JUMPDEST DUP7 DUP2 LT PUSH2 0x23C2 JUMPI JUMPDEST POP POP POP PUSH1 0x1 ADD PUSH2 0x22EF JUMP JUMPDEST PUSH2 0x23CC DUP2 DUP7 PUSH2 0x1F38 JUMP JUMPDEST MLOAD DUP3 GT PUSH2 0x23DB JUMPI PUSH1 0x1 ADD PUSH2 0x23AF JUMP JUMPDEST SWAP1 SWAP2 PUSH1 0x0 NOT DUP8 DUP2 ADD DUP9 DUP2 GT PUSH2 0x766 JUMPI JUMPDEST DUP4 DUP2 GT PUSH2 0x2420 JUMPI POP POP DUP4 SWAP3 SWAP2 PUSH2 0x2417 SWAP2 PUSH2 0x2406 PUSH1 0x1 SWAP7 PUSH2 0x1DC8 JUMP JUMPDEST SWAP1 SLOAD SWAP1 DUP10 SHL SHR AND PUSH2 0x20F8 DUP3 DUP14 PUSH2 0x1F38 JUMP JUMPDEST MSTORE SWAP1 CODESIZE DUP1 PUSH2 0x23B7 JUMP JUMPDEST DUP2 DUP2 ADD SWAP1 DUP1 DUP3 GT PUSH2 0x766 JUMPI PUSH2 0xA60 DUP3 DUP15 PUSH2 0x2442 DUP5 DUP9 PUSH2 0x2133 PUSH2 0x2449 SWAP9 DUP6 PUSH2 0x1F38 JUMP JUMPDEST MSTORE DUP10 PUSH2 0x1F38 JUMP JUMPDEST PUSH2 0x23EB JUMP JUMPDEST DUP3 PUSH2 0x22D9 JUMP INVALID LOG2 PUSH5 0x6970667358 0x22 SLT KECCAK256 DUP14 BALANCE SWAP2 PUSH16 0x1EF24CDB2079226832C25839DB931D66 SELFBALANCE ISZERO PUSH3 0xE99CDB MOD JUMPI PUSH12 0x89AFB364736F6C6343000818 STOP CALLER "},"methodIdentifiers":{"accounts(address)":"5e5c06e2","addUpgrade(string,uint256,uint256,uint256,uint256,uint256,uint256,uint256)":"ece2e4ba","attack(address)":"d018db3e","buyUpgrade(uint256)":"a5a2cb19","checkIn()":"183ff085","createAccount(string,bool,uint256)":"ab2611ee","getRanking(uint256)":"bea2dc14","getShipsAt(uint256)":"b7df5b5d","nextUpgradeId()":"d2fabb18","owner()":"8da5cb5b","players(uint256)":"f71d96cb","renounceOwnership()":"715018a6","repairShip(bool,bool)":"683591a8","rescueXTZ()":"d4826b6c","transferOwnership(address)":"f2fde38b","travel(uint256,bool)":"74aa3a98","upgrades(uint256)":"7386bbc5"}}}}}